{
	"Factory.sol": {
		"Factory": {
			"abi": [
				{
					"inputs": [
						{
							"internalType": "address",
							"name": "projectOwner",
							"type": "address"
						},
						{
							"internalType": "string",
							"name": "name",
							"type": "string"
						},
						{
							"internalType": "uint256",
							"name": "_projectTime",
							"type": "uint256"
						}
					],
					"stateMutability": "nonpayable",
					"type": "constructor"
				},
				{
					"inputs": [
						{
							"internalType": "address",
							"name": "",
							"type": "address"
						}
					],
					"name": "balance",
					"outputs": [
						{
							"internalType": "uint256",
							"name": "",
							"type": "uint256"
						}
					],
					"stateMutability": "view",
					"type": "function"
				},
				{
					"inputs": [],
					"name": "claimMoney",
					"outputs": [],
					"stateMutability": "nonpayable",
					"type": "function"
				},
				{
					"inputs": [],
					"name": "deposit",
					"outputs": [],
					"stateMutability": "payable",
					"type": "function"
				},
				{
					"inputs": [],
					"name": "destroy",
					"outputs": [],
					"stateMutability": "nonpayable",
					"type": "function"
				},
				{
					"inputs": [],
					"name": "getProjectDescription",
					"outputs": [
						{
							"internalType": "string",
							"name": "",
							"type": "string"
						}
					],
					"stateMutability": "view",
					"type": "function"
				},
				{
					"inputs": [],
					"name": "getProjectName",
					"outputs": [
						{
							"internalType": "string",
							"name": "",
							"type": "string"
						}
					],
					"stateMutability": "view",
					"type": "function"
				},
				{
					"inputs": [
						{
							"internalType": "string",
							"name": "description",
							"type": "string"
						}
					],
					"name": "setProjectDescription",
					"outputs": [],
					"stateMutability": "nonpayable",
					"type": "function"
				},
				{
					"inputs": [
						{
							"internalType": "string",
							"name": "name",
							"type": "string"
						}
					],
					"name": "setProjectName",
					"outputs": [],
					"stateMutability": "nonpayable",
					"type": "function"
				},
				{
					"inputs": [
						{
							"internalType": "uint256",
							"name": "amount",
							"type": "uint256"
						}
					],
					"name": "withdraw",
					"outputs": [],
					"stateMutability": "nonpayable",
					"type": "function"
				}
			],
			"devdoc": {
				"kind": "dev",
				"methods": {},
				"version": 1
			},
			"evm": {
				"assembly": "    /* \"Factory.sol\":28:2277  contract Factory {... */\n  mstore(0x40, 0x80)\n    /* \"Factory.sol\":291:491  constructor (address projectOwner, string memory name, uint256 _projectTime) {... */\n  callvalue\n  dup1\n  iszero\n  tag_1\n  jumpi\n  0x00\n  dup1\n  revert\ntag_1:\n  pop\n  mload(0x40)\n  sub(codesize, bytecodeSize)\n  dup1\n  bytecodeSize\n  dup4\n  codecopy\n  dup2\n  dup2\n  add\n  0x40\n  mstore\n  dup2\n  add\n  swap1\n  tag_2\n  swap2\n  swap1\n  tag_3\n  jump\t// in\ntag_2:\n    /* \"Factory.sol\":387:399  projectOwner */\n  dup3\n    /* \"Factory.sol\":379:384  owner */\n  0x00\n  dup1\n    /* \"Factory.sol\":379:399  owner = projectOwner */\n  0x0100\n  exp\n  dup2\n  sload\n  dup2\n  0xffffffffffffffffffffffffffffffffffffffff\n  mul\n  not\n  and\n  swap1\n  dup4\n  0xffffffffffffffffffffffffffffffffffffffff\n  and\n  mul\n  or\n  swap1\n  sstore\n  pop\n    /* \"Factory.sol\":424:428  name */\n  dup2\n    /* \"Factory.sol\":410:421  projectName */\n  0x01\n    /* \"Factory.sol\":410:428  projectName = name */\n  swap1\n  dup2\n  tag_6\n  swap2\n  swap1\n  tag_7\n  jump\t// in\ntag_6:\n  pop\n    /* \"Factory.sol\":471:483  _projectTime */\n  dup1\n    /* \"Factory.sol\":453:468  block.timestamp */\n  timestamp\n    /* \"Factory.sol\":453:483  block.timestamp + _projectTime */\n  tag_8\n  swap2\n  swap1\n  tag_9\n  jump\t// in\ntag_8:\n    /* \"Factory.sol\":439:450  releaseTime */\n  0x05\n    /* \"Factory.sol\":439:483  releaseTime = block.timestamp + _projectTime */\n  dup2\n  swap1\n  sstore\n  pop\n    /* \"Factory.sol\":291:491  constructor (address projectOwner, string memory name, uint256 _projectTime) {... */\n  pop\n  pop\n  pop\n    /* \"Factory.sol\":28:2277  contract Factory {... */\n  jump(tag_10)\n    /* \"#utility.yul\":7:82   */\ntag_11:\n    /* \"#utility.yul\":40:46   */\n  0x00\n    /* \"#utility.yul\":73:75   */\n  0x40\n    /* \"#utility.yul\":67:76   */\n  mload\n    /* \"#utility.yul\":57:76   */\n  swap1\n  pop\n    /* \"#utility.yul\":7:82   */\n  swap1\n  jump\t// out\n    /* \"#utility.yul\":88:205   */\ntag_12:\n    /* \"#utility.yul\":197:198   */\n  0x00\n    /* \"#utility.yul\":194:195   */\n  dup1\n    /* \"#utility.yul\":187:199   */\n  revert\n    /* \"#utility.yul\":211:328   */\ntag_13:\n    /* \"#utility.yul\":320:321   */\n  0x00\n    /* \"#utility.yul\":317:318   */\n  dup1\n    /* \"#utility.yul\":310:322   */\n  revert\n    /* \"#utility.yul\":334:460   */\ntag_14:\n    /* \"#utility.yul\":371:378   */\n  0x00\n    /* \"#utility.yul\":411:453   */\n  0xffffffffffffffffffffffffffffffffffffffff\n    /* \"#utility.yul\":404:409   */\n  dup3\n    /* \"#utility.yul\":400:454   */\n  and\n    /* \"#utility.yul\":389:454   */\n  swap1\n  pop\n    /* \"#utility.yul\":334:460   */\n  swap2\n  swap1\n  pop\n  jump\t// out\n    /* \"#utility.yul\":466:562   */\ntag_15:\n    /* \"#utility.yul\":503:510   */\n  0x00\n    /* \"#utility.yul\":532:556   */\n  tag_56\n    /* \"#utility.yul\":550:555   */\n  dup3\n    /* \"#utility.yul\":532:556   */\n  tag_14\n  jump\t// in\ntag_56:\n    /* \"#utility.yul\":521:556   */\n  swap1\n  pop\n    /* \"#utility.yul\":466:562   */\n  swap2\n  swap1\n  pop\n  jump\t// out\n    /* \"#utility.yul\":568:690   */\ntag_16:\n    /* \"#utility.yul\":641:665   */\n  tag_58\n    /* \"#utility.yul\":659:664   */\n  dup2\n    /* \"#utility.yul\":641:665   */\n  tag_15\n  jump\t// in\ntag_58:\n    /* \"#utility.yul\":634:639   */\n  dup2\n    /* \"#utility.yul\":631:666   */\n  eq\n    /* \"#utility.yul\":621:684   */\n  tag_59\n  jumpi\n    /* \"#utility.yul\":680:681   */\n  0x00\n    /* \"#utility.yul\":677:678   */\n  dup1\n    /* \"#utility.yul\":670:682   */\n  revert\n    /* \"#utility.yul\":621:684   */\ntag_59:\n    /* \"#utility.yul\":568:690   */\n  pop\n  jump\t// out\n    /* \"#utility.yul\":696:839   */\ntag_17:\n    /* \"#utility.yul\":753:758   */\n  0x00\n    /* \"#utility.yul\":784:790   */\n  dup2\n    /* \"#utility.yul\":778:791   */\n  mload\n    /* \"#utility.yul\":769:791   */\n  swap1\n  pop\n    /* \"#utility.yul\":800:833   */\n  tag_61\n    /* \"#utility.yul\":827:832   */\n  dup2\n    /* \"#utility.yul\":800:833   */\n  tag_16\n  jump\t// in\ntag_61:\n    /* \"#utility.yul\":696:839   */\n  swap3\n  swap2\n  pop\n  pop\n  jump\t// out\n    /* \"#utility.yul\":845:962   */\ntag_18:\n    /* \"#utility.yul\":954:955   */\n  0x00\n    /* \"#utility.yul\":951:952   */\n  dup1\n    /* \"#utility.yul\":944:956   */\n  revert\n    /* \"#utility.yul\":968:1085   */\ntag_19:\n    /* \"#utility.yul\":1077:1078   */\n  0x00\n    /* \"#utility.yul\":1074:1075   */\n  dup1\n    /* \"#utility.yul\":1067:1079   */\n  revert\n    /* \"#utility.yul\":1091:1193   */\ntag_20:\n    /* \"#utility.yul\":1132:1138   */\n  0x00\n    /* \"#utility.yul\":1183:1185   */\n  0x1f\n    /* \"#utility.yul\":1179:1186   */\n  not\n    /* \"#utility.yul\":1174:1176   */\n  0x1f\n    /* \"#utility.yul\":1167:1172   */\n  dup4\n    /* \"#utility.yul\":1163:1177   */\n  add\n    /* \"#utility.yul\":1159:1187   */\n  and\n    /* \"#utility.yul\":1149:1187   */\n  swap1\n  pop\n    /* \"#utility.yul\":1091:1193   */\n  swap2\n  swap1\n  pop\n  jump\t// out\n    /* \"#utility.yul\":1199:1379   */\ntag_21:\n    /* \"#utility.yul\":1247:1324   */\n  0x4e487b7100000000000000000000000000000000000000000000000000000000\n    /* \"#utility.yul\":1244:1245   */\n  0x00\n    /* \"#utility.yul\":1237:1325   */\n  mstore\n    /* \"#utility.yul\":1344:1348   */\n  0x41\n    /* \"#utility.yul\":1341:1342   */\n  0x04\n    /* \"#utility.yul\":1334:1349   */\n  mstore\n    /* \"#utility.yul\":1368:1372   */\n  0x24\n    /* \"#utility.yul\":1365:1366   */\n  0x00\n    /* \"#utility.yul\":1358:1373   */\n  revert\n    /* \"#utility.yul\":1385:1666   */\ntag_22:\n    /* \"#utility.yul\":1468:1495   */\n  tag_67\n    /* \"#utility.yul\":1490:1494   */\n  dup3\n    /* \"#utility.yul\":1468:1495   */\n  tag_20\n  jump\t// in\ntag_67:\n    /* \"#utility.yul\":1460:1466   */\n  dup2\n    /* \"#utility.yul\":1456:1496   */\n  add\n    /* \"#utility.yul\":1598:1604   */\n  dup2\n    /* \"#utility.yul\":1586:1596   */\n  dup2\n    /* \"#utility.yul\":1583:1605   */\n  lt\n    /* \"#utility.yul\":1562:1580   */\n  0xffffffffffffffff\n    /* \"#utility.yul\":1550:1560   */\n  dup3\n    /* \"#utility.yul\":1547:1581   */\n  gt\n    /* \"#utility.yul\":1544:1606   */\n  or\n    /* \"#utility.yul\":1541:1629   */\n  iszero\n  tag_68\n  jumpi\n    /* \"#utility.yul\":1609:1627   */\n  tag_69\n  tag_21\n  jump\t// in\ntag_69:\n    /* \"#utility.yul\":1541:1629   */\ntag_68:\n    /* \"#utility.yul\":1649:1659   */\n  dup1\n    /* \"#utility.yul\":1645:1647   */\n  0x40\n    /* \"#utility.yul\":1638:1660   */\n  mstore\n    /* \"#utility.yul\":1428:1666   */\n  pop\n    /* \"#utility.yul\":1385:1666   */\n  pop\n  pop\n  jump\t// out\n    /* \"#utility.yul\":1672:1801   */\ntag_23:\n    /* \"#utility.yul\":1706:1712   */\n  0x00\n    /* \"#utility.yul\":1733:1753   */\n  tag_71\n  tag_11\n  jump\t// in\ntag_71:\n    /* \"#utility.yul\":1723:1753   */\n  swap1\n  pop\n    /* \"#utility.yul\":1762:1795   */\n  tag_72\n    /* \"#utility.yul\":1790:1794   */\n  dup3\n    /* \"#utility.yul\":1782:1788   */\n  dup3\n    /* \"#utility.yul\":1762:1795   */\n  tag_22\n  jump\t// in\ntag_72:\n    /* \"#utility.yul\":1672:1801   */\n  swap2\n  swap1\n  pop\n  jump\t// out\n    /* \"#utility.yul\":1807:2115   */\ntag_24:\n    /* \"#utility.yul\":1869:1873   */\n  0x00\n    /* \"#utility.yul\":1959:1977   */\n  0xffffffffffffffff\n    /* \"#utility.yul\":1951:1957   */\n  dup3\n    /* \"#utility.yul\":1948:1978   */\n  gt\n    /* \"#utility.yul\":1945:2001   */\n  iszero\n  tag_74\n  jumpi\n    /* \"#utility.yul\":1981:1999   */\n  tag_75\n  tag_21\n  jump\t// in\ntag_75:\n    /* \"#utility.yul\":1945:2001   */\ntag_74:\n    /* \"#utility.yul\":2019:2048   */\n  tag_76\n    /* \"#utility.yul\":2041:2047   */\n  dup3\n    /* \"#utility.yul\":2019:2048   */\n  tag_20\n  jump\t// in\ntag_76:\n    /* \"#utility.yul\":2011:2048   */\n  swap1\n  pop\n    /* \"#utility.yul\":2103:2107   */\n  0x20\n    /* \"#utility.yul\":2097:2101   */\n  dup2\n    /* \"#utility.yul\":2093:2108   */\n  add\n    /* \"#utility.yul\":2085:2108   */\n  swap1\n  pop\n    /* \"#utility.yul\":1807:2115   */\n  swap2\n  swap1\n  pop\n  jump\t// out\n    /* \"#utility.yul\":2121:2367   */\ntag_25:\n    /* \"#utility.yul\":2202:2203   */\n  0x00\n    /* \"#utility.yul\":2212:2325   */\ntag_78:\n    /* \"#utility.yul\":2226:2232   */\n  dup4\n    /* \"#utility.yul\":2223:2224   */\n  dup2\n    /* \"#utility.yul\":2220:2233   */\n  lt\n    /* \"#utility.yul\":2212:2325   */\n  iszero\n  tag_80\n  jumpi\n    /* \"#utility.yul\":2311:2312   */\n  dup1\n    /* \"#utility.yul\":2306:2309   */\n  dup3\n    /* \"#utility.yul\":2302:2313   */\n  add\n    /* \"#utility.yul\":2296:2314   */\n  mload\n    /* \"#utility.yul\":2292:2293   */\n  dup2\n    /* \"#utility.yul\":2287:2290   */\n  dup5\n    /* \"#utility.yul\":2283:2294   */\n  add\n    /* \"#utility.yul\":2276:2315   */\n  mstore\n    /* \"#utility.yul\":2248:2250   */\n  0x20\n    /* \"#utility.yul\":2245:2246   */\n  dup2\n    /* \"#utility.yul\":2241:2251   */\n  add\n    /* \"#utility.yul\":2236:2251   */\n  swap1\n  pop\n    /* \"#utility.yul\":2212:2325   */\n  jump(tag_78)\ntag_80:\n    /* \"#utility.yul\":2359:2360   */\n  0x00\n    /* \"#utility.yul\":2350:2356   */\n  dup5\n    /* \"#utility.yul\":2345:2348   */\n  dup5\n    /* \"#utility.yul\":2341:2357   */\n  add\n    /* \"#utility.yul\":2334:2361   */\n  mstore\n    /* \"#utility.yul\":2183:2367   */\n  pop\n    /* \"#utility.yul\":2121:2367   */\n  pop\n  pop\n  pop\n  jump\t// out\n    /* \"#utility.yul\":2373:2807   */\ntag_26:\n    /* \"#utility.yul\":2462:2467   */\n  0x00\n    /* \"#utility.yul\":2487:2553   */\n  tag_82\n    /* \"#utility.yul\":2503:2552   */\n  tag_83\n    /* \"#utility.yul\":2545:2551   */\n  dup5\n    /* \"#utility.yul\":2503:2552   */\n  tag_24\n  jump\t// in\ntag_83:\n    /* \"#utility.yul\":2487:2553   */\n  tag_23\n  jump\t// in\ntag_82:\n    /* \"#utility.yul\":2478:2553   */\n  swap1\n  pop\n    /* \"#utility.yul\":2576:2582   */\n  dup3\n    /* \"#utility.yul\":2569:2574   */\n  dup2\n    /* \"#utility.yul\":2562:2583   */\n  mstore\n    /* \"#utility.yul\":2614:2618   */\n  0x20\n    /* \"#utility.yul\":2607:2612   */\n  dup2\n    /* \"#utility.yul\":2603:2619   */\n  add\n    /* \"#utility.yul\":2652:2655   */\n  dup5\n    /* \"#utility.yul\":2643:2649   */\n  dup5\n    /* \"#utility.yul\":2638:2641   */\n  dup5\n    /* \"#utility.yul\":2634:2650   */\n  add\n    /* \"#utility.yul\":2631:2656   */\n  gt\n    /* \"#utility.yul\":2628:2740   */\n  iszero\n  tag_84\n  jumpi\n    /* \"#utility.yul\":2659:2738   */\n  tag_85\n  tag_19\n  jump\t// in\ntag_85:\n    /* \"#utility.yul\":2628:2740   */\ntag_84:\n    /* \"#utility.yul\":2749:2801   */\n  tag_86\n    /* \"#utility.yul\":2794:2800   */\n  dup5\n    /* \"#utility.yul\":2789:2792   */\n  dup3\n    /* \"#utility.yul\":2784:2787   */\n  dup6\n    /* \"#utility.yul\":2749:2801   */\n  tag_25\n  jump\t// in\ntag_86:\n    /* \"#utility.yul\":2468:2807   */\n  pop\n    /* \"#utility.yul\":2373:2807   */\n  swap4\n  swap3\n  pop\n  pop\n  pop\n  jump\t// out\n    /* \"#utility.yul\":2827:3182   */\ntag_27:\n    /* \"#utility.yul\":2894:2899   */\n  0x00\n    /* \"#utility.yul\":2943:2946   */\n  dup3\n    /* \"#utility.yul\":2936:2940   */\n  0x1f\n    /* \"#utility.yul\":2928:2934   */\n  dup4\n    /* \"#utility.yul\":2924:2941   */\n  add\n    /* \"#utility.yul\":2920:2947   */\n  slt\n    /* \"#utility.yul\":2910:3032   */\n  tag_88\n  jumpi\n    /* \"#utility.yul\":2951:3030   */\n  tag_89\n  tag_18\n  jump\t// in\ntag_89:\n    /* \"#utility.yul\":2910:3032   */\ntag_88:\n    /* \"#utility.yul\":3061:3067   */\n  dup2\n    /* \"#utility.yul\":3055:3068   */\n  mload\n    /* \"#utility.yul\":3086:3176   */\n  tag_90\n    /* \"#utility.yul\":3172:3175   */\n  dup5\n    /* \"#utility.yul\":3164:3170   */\n  dup3\n    /* \"#utility.yul\":3157:3161   */\n  0x20\n    /* \"#utility.yul\":3149:3155   */\n  dup7\n    /* \"#utility.yul\":3145:3162   */\n  add\n    /* \"#utility.yul\":3086:3176   */\n  tag_26\n  jump\t// in\ntag_90:\n    /* \"#utility.yul\":3077:3176   */\n  swap2\n  pop\n    /* \"#utility.yul\":2900:3182   */\n  pop\n    /* \"#utility.yul\":2827:3182   */\n  swap3\n  swap2\n  pop\n  pop\n  jump\t// out\n    /* \"#utility.yul\":3188:3265   */\ntag_28:\n    /* \"#utility.yul\":3225:3232   */\n  0x00\n    /* \"#utility.yul\":3254:3259   */\n  dup2\n    /* \"#utility.yul\":3243:3259   */\n  swap1\n  pop\n    /* \"#utility.yul\":3188:3265   */\n  swap2\n  swap1\n  pop\n  jump\t// out\n    /* \"#utility.yul\":3271:3393   */\ntag_29:\n    /* \"#utility.yul\":3344:3368   */\n  tag_93\n    /* \"#utility.yul\":3362:3367   */\n  dup2\n    /* \"#utility.yul\":3344:3368   */\n  tag_28\n  jump\t// in\ntag_93:\n    /* \"#utility.yul\":3337:3342   */\n  dup2\n    /* \"#utility.yul\":3334:3369   */\n  eq\n    /* \"#utility.yul\":3324:3387   */\n  tag_94\n  jumpi\n    /* \"#utility.yul\":3383:3384   */\n  0x00\n    /* \"#utility.yul\":3380:3381   */\n  dup1\n    /* \"#utility.yul\":3373:3385   */\n  revert\n    /* \"#utility.yul\":3324:3387   */\ntag_94:\n    /* \"#utility.yul\":3271:3393   */\n  pop\n  jump\t// out\n    /* \"#utility.yul\":3399:3542   */\ntag_30:\n    /* \"#utility.yul\":3456:3461   */\n  0x00\n    /* \"#utility.yul\":3487:3493   */\n  dup2\n    /* \"#utility.yul\":3481:3494   */\n  mload\n    /* \"#utility.yul\":3472:3494   */\n  swap1\n  pop\n    /* \"#utility.yul\":3503:3536   */\n  tag_96\n    /* \"#utility.yul\":3530:3535   */\n  dup2\n    /* \"#utility.yul\":3503:3536   */\n  tag_29\n  jump\t// in\ntag_96:\n    /* \"#utility.yul\":3399:3542   */\n  swap3\n  swap2\n  pop\n  pop\n  jump\t// out\n    /* \"#utility.yul\":3548:4384   */\ntag_3:\n    /* \"#utility.yul\":3646:3652   */\n  0x00\n    /* \"#utility.yul\":3654:3660   */\n  dup1\n    /* \"#utility.yul\":3662:3668   */\n  0x00\n    /* \"#utility.yul\":3711:3713   */\n  0x60\n    /* \"#utility.yul\":3699:3708   */\n  dup5\n    /* \"#utility.yul\":3690:3697   */\n  dup7\n    /* \"#utility.yul\":3686:3709   */\n  sub\n    /* \"#utility.yul\":3682:3714   */\n  slt\n    /* \"#utility.yul\":3679:3798   */\n  iszero\n  tag_98\n  jumpi\n    /* \"#utility.yul\":3717:3796   */\n  tag_99\n  tag_12\n  jump\t// in\ntag_99:\n    /* \"#utility.yul\":3679:3798   */\ntag_98:\n    /* \"#utility.yul\":3837:3838   */\n  0x00\n    /* \"#utility.yul\":3862:3926   */\n  tag_100\n    /* \"#utility.yul\":3918:3925   */\n  dup7\n    /* \"#utility.yul\":3909:3915   */\n  dup3\n    /* \"#utility.yul\":3898:3907   */\n  dup8\n    /* \"#utility.yul\":3894:3916   */\n  add\n    /* \"#utility.yul\":3862:3926   */\n  tag_17\n  jump\t// in\ntag_100:\n    /* \"#utility.yul\":3852:3926   */\n  swap4\n  pop\n    /* \"#utility.yul\":3808:3936   */\n  pop\n    /* \"#utility.yul\":3996:3998   */\n  0x20\n    /* \"#utility.yul\":3985:3994   */\n  dup5\n    /* \"#utility.yul\":3981:3999   */\n  add\n    /* \"#utility.yul\":3975:4000   */\n  mload\n    /* \"#utility.yul\":4027:4045   */\n  0xffffffffffffffff\n    /* \"#utility.yul\":4019:4025   */\n  dup2\n    /* \"#utility.yul\":4016:4046   */\n  gt\n    /* \"#utility.yul\":4013:4130   */\n  iszero\n  tag_101\n  jumpi\n    /* \"#utility.yul\":4049:4128   */\n  tag_102\n  tag_13\n  jump\t// in\ntag_102:\n    /* \"#utility.yul\":4013:4130   */\ntag_101:\n    /* \"#utility.yul\":4154:4228   */\n  tag_103\n    /* \"#utility.yul\":4220:4227   */\n  dup7\n    /* \"#utility.yul\":4211:4217   */\n  dup3\n    /* \"#utility.yul\":4200:4209   */\n  dup8\n    /* \"#utility.yul\":4196:4218   */\n  add\n    /* \"#utility.yul\":4154:4228   */\n  tag_27\n  jump\t// in\ntag_103:\n    /* \"#utility.yul\":4144:4228   */\n  swap3\n  pop\n    /* \"#utility.yul\":3946:4238   */\n  pop\n    /* \"#utility.yul\":4277:4279   */\n  0x40\n    /* \"#utility.yul\":4303:4367   */\n  tag_104\n    /* \"#utility.yul\":4359:4366   */\n  dup7\n    /* \"#utility.yul\":4350:4356   */\n  dup3\n    /* \"#utility.yul\":4339:4348   */\n  dup8\n    /* \"#utility.yul\":4335:4357   */\n  add\n    /* \"#utility.yul\":4303:4367   */\n  tag_30\n  jump\t// in\ntag_104:\n    /* \"#utility.yul\":4293:4367   */\n  swap2\n  pop\n    /* \"#utility.yul\":4248:4377   */\n  pop\n    /* \"#utility.yul\":3548:4384   */\n  swap3\n  pop\n  swap3\n  pop\n  swap3\n  jump\t// out\n    /* \"#utility.yul\":4390:4489   */\ntag_31:\n    /* \"#utility.yul\":4442:4448   */\n  0x00\n    /* \"#utility.yul\":4476:4481   */\n  dup2\n    /* \"#utility.yul\":4470:4482   */\n  mload\n    /* \"#utility.yul\":4460:4482   */\n  swap1\n  pop\n    /* \"#utility.yul\":4390:4489   */\n  swap2\n  swap1\n  pop\n  jump\t// out\n    /* \"#utility.yul\":4495:4675   */\ntag_32:\n    /* \"#utility.yul\":4543:4620   */\n  0x4e487b7100000000000000000000000000000000000000000000000000000000\n    /* \"#utility.yul\":4540:4541   */\n  0x00\n    /* \"#utility.yul\":4533:4621   */\n  mstore\n    /* \"#utility.yul\":4640:4644   */\n  0x22\n    /* \"#utility.yul\":4637:4638   */\n  0x04\n    /* \"#utility.yul\":4630:4645   */\n  mstore\n    /* \"#utility.yul\":4664:4668   */\n  0x24\n    /* \"#utility.yul\":4661:4662   */\n  0x00\n    /* \"#utility.yul\":4654:4669   */\n  revert\n    /* \"#utility.yul\":4681:5001   */\ntag_33:\n    /* \"#utility.yul\":4725:4731   */\n  0x00\n    /* \"#utility.yul\":4762:4763   */\n  0x02\n    /* \"#utility.yul\":4756:4760   */\n  dup3\n    /* \"#utility.yul\":4752:4764   */\n  div\n    /* \"#utility.yul\":4742:4764   */\n  swap1\n  pop\n    /* \"#utility.yul\":4809:4810   */\n  0x01\n    /* \"#utility.yul\":4803:4807   */\n  dup3\n    /* \"#utility.yul\":4799:4811   */\n  and\n    /* \"#utility.yul\":4830:4848   */\n  dup1\n    /* \"#utility.yul\":4820:4901   */\n  tag_108\n  jumpi\n    /* \"#utility.yul\":4886:4890   */\n  0x7f\n    /* \"#utility.yul\":4878:4884   */\n  dup3\n    /* \"#utility.yul\":4874:4891   */\n  and\n    /* \"#utility.yul\":4864:4891   */\n  swap2\n  pop\n    /* \"#utility.yul\":4820:4901   */\ntag_108:\n    /* \"#utility.yul\":4948:4950   */\n  0x20\n    /* \"#utility.yul\":4940:4946   */\n  dup3\n    /* \"#utility.yul\":4937:4951   */\n  lt\n    /* \"#utility.yul\":4917:4935   */\n  dup2\n    /* \"#utility.yul\":4914:4952   */\n  sub\n    /* \"#utility.yul\":4911:4995   */\n  tag_109\n  jumpi\n    /* \"#utility.yul\":4967:4985   */\n  tag_110\n  tag_32\n  jump\t// in\ntag_110:\n    /* \"#utility.yul\":4911:4995   */\ntag_109:\n    /* \"#utility.yul\":4732:5001   */\n  pop\n    /* \"#utility.yul\":4681:5001   */\n  swap2\n  swap1\n  pop\n  jump\t// out\n    /* \"#utility.yul\":5007:5148   */\ntag_34:\n    /* \"#utility.yul\":5056:5060   */\n  0x00\n    /* \"#utility.yul\":5079:5082   */\n  dup2\n    /* \"#utility.yul\":5071:5082   */\n  swap1\n  pop\n    /* \"#utility.yul\":5102:5105   */\n  dup2\n    /* \"#utility.yul\":5099:5100   */\n  0x00\n    /* \"#utility.yul\":5092:5106   */\n  mstore\n    /* \"#utility.yul\":5136:5140   */\n  0x20\n    /* \"#utility.yul\":5133:5134   */\n  0x00\n    /* \"#utility.yul\":5123:5141   */\n  keccak256\n    /* \"#utility.yul\":5115:5141   */\n  swap1\n  pop\n    /* \"#utility.yul\":5007:5148   */\n  swap2\n  swap1\n  pop\n  jump\t// out\n    /* \"#utility.yul\":5154:5247   */\ntag_35:\n    /* \"#utility.yul\":5191:5197   */\n  0x00\n    /* \"#utility.yul\":5238:5240   */\n  0x20\n    /* \"#utility.yul\":5233:5235   */\n  0x1f\n    /* \"#utility.yul\":5226:5231   */\n  dup4\n    /* \"#utility.yul\":5222:5236   */\n  add\n    /* \"#utility.yul\":5218:5241   */\n  div\n    /* \"#utility.yul\":5208:5241   */\n  swap1\n  pop\n    /* \"#utility.yul\":5154:5247   */\n  swap2\n  swap1\n  pop\n  jump\t// out\n    /* \"#utility.yul\":5253:5360   */\ntag_36:\n    /* \"#utility.yul\":5297:5305   */\n  0x00\n    /* \"#utility.yul\":5347:5352   */\n  dup3\n    /* \"#utility.yul\":5341:5345   */\n  dup3\n    /* \"#utility.yul\":5337:5353   */\n  shl\n    /* \"#utility.yul\":5316:5353   */\n  swap1\n  pop\n    /* \"#utility.yul\":5253:5360   */\n  swap3\n  swap2\n  pop\n  pop\n  jump\t// out\n    /* \"#utility.yul\":5366:5759   */\ntag_37:\n    /* \"#utility.yul\":5435:5441   */\n  0x00\n    /* \"#utility.yul\":5485:5486   */\n  0x08\n    /* \"#utility.yul\":5473:5483   */\n  dup4\n    /* \"#utility.yul\":5469:5487   */\n  mul\n    /* \"#utility.yul\":5508:5605   */\n  tag_115\n    /* \"#utility.yul\":5538:5604   */\n  0xffffffffffffffffffffffffffffffffffffffffffffffffffffffffffffffff\n    /* \"#utility.yul\":5527:5536   */\n  dup3\n    /* \"#utility.yul\":5508:5605   */\n  tag_36\n  jump\t// in\ntag_115:\n    /* \"#utility.yul\":5626:5665   */\n  tag_116\n    /* \"#utility.yul\":5656:5664   */\n  dup7\n    /* \"#utility.yul\":5645:5654   */\n  dup4\n    /* \"#utility.yul\":5626:5665   */\n  tag_36\n  jump\t// in\ntag_116:\n    /* \"#utility.yul\":5614:5665   */\n  swap6\n  pop\n    /* \"#utility.yul\":5698:5702   */\n  dup1\n    /* \"#utility.yul\":5694:5703   */\n  not\n    /* \"#utility.yul\":5687:5692   */\n  dup5\n    /* \"#utility.yul\":5683:5704   */\n  and\n    /* \"#utility.yul\":5674:5704   */\n  swap4\n  pop\n    /* \"#utility.yul\":5747:5751   */\n  dup1\n    /* \"#utility.yul\":5737:5745   */\n  dup7\n    /* \"#utility.yul\":5733:5752   */\n  and\n    /* \"#utility.yul\":5726:5731   */\n  dup5\n    /* \"#utility.yul\":5723:5753   */\n  or\n    /* \"#utility.yul\":5713:5753   */\n  swap3\n  pop\n    /* \"#utility.yul\":5442:5759   */\n  pop\n  pop\n    /* \"#utility.yul\":5366:5759   */\n  swap4\n  swap3\n  pop\n  pop\n  pop\n  jump\t// out\n    /* \"#utility.yul\":5765:5825   */\ntag_38:\n    /* \"#utility.yul\":5793:5796   */\n  0x00\n    /* \"#utility.yul\":5814:5819   */\n  dup2\n    /* \"#utility.yul\":5807:5819   */\n  swap1\n  pop\n    /* \"#utility.yul\":5765:5825   */\n  swap2\n  swap1\n  pop\n  jump\t// out\n    /* \"#utility.yul\":5831:5973   */\ntag_39:\n    /* \"#utility.yul\":5881:5890   */\n  0x00\n    /* \"#utility.yul\":5914:5967   */\n  tag_119\n    /* \"#utility.yul\":5932:5966   */\n  tag_120\n    /* \"#utility.yul\":5941:5965   */\n  tag_121\n    /* \"#utility.yul\":5959:5964   */\n  dup5\n    /* \"#utility.yul\":5941:5965   */\n  tag_28\n  jump\t// in\ntag_121:\n    /* \"#utility.yul\":5932:5966   */\n  tag_38\n  jump\t// in\ntag_120:\n    /* \"#utility.yul\":5914:5967   */\n  tag_28\n  jump\t// in\ntag_119:\n    /* \"#utility.yul\":5901:5967   */\n  swap1\n  pop\n    /* \"#utility.yul\":5831:5973   */\n  swap2\n  swap1\n  pop\n  jump\t// out\n    /* \"#utility.yul\":5979:6054   */\ntag_40:\n    /* \"#utility.yul\":6022:6025   */\n  0x00\n    /* \"#utility.yul\":6043:6048   */\n  dup2\n    /* \"#utility.yul\":6036:6048   */\n  swap1\n  pop\n    /* \"#utility.yul\":5979:6054   */\n  swap2\n  swap1\n  pop\n  jump\t// out\n    /* \"#utility.yul\":6060:6329   */\ntag_41:\n    /* \"#utility.yul\":6170:6209   */\n  tag_124\n    /* \"#utility.yul\":6201:6208   */\n  dup4\n    /* \"#utility.yul\":6170:6209   */\n  tag_39\n  jump\t// in\ntag_124:\n    /* \"#utility.yul\":6231:6322   */\n  tag_125\n    /* \"#utility.yul\":6280:6321   */\n  tag_126\n    /* \"#utility.yul\":6304:6320   */\n  dup3\n    /* \"#utility.yul\":6280:6321   */\n  tag_40\n  jump\t// in\ntag_126:\n    /* \"#utility.yul\":6272:6278   */\n  dup5\n    /* \"#utility.yul\":6265:6269   */\n  dup5\n    /* \"#utility.yul\":6259:6270   */\n  sload\n    /* \"#utility.yul\":6231:6322   */\n  tag_37\n  jump\t// in\ntag_125:\n    /* \"#utility.yul\":6225:6229   */\n  dup3\n    /* \"#utility.yul\":6218:6323   */\n  sstore\n    /* \"#utility.yul\":6136:6329   */\n  pop\n    /* \"#utility.yul\":6060:6329   */\n  pop\n  pop\n  pop\n  jump\t// out\n    /* \"#utility.yul\":6335:6408   */\ntag_42:\n    /* \"#utility.yul\":6380:6383   */\n  0x00\n    /* \"#utility.yul\":6335:6408   */\n  swap1\n  jump\t// out\n    /* \"#utility.yul\":6414:6603   */\ntag_43:\n    /* \"#utility.yul\":6491:6523   */\n  tag_129\n  tag_42\n  jump\t// in\ntag_129:\n    /* \"#utility.yul\":6532:6597   */\n  tag_130\n    /* \"#utility.yul\":6590:6596   */\n  dup2\n    /* \"#utility.yul\":6582:6588   */\n  dup5\n    /* \"#utility.yul\":6576:6580   */\n  dup5\n    /* \"#utility.yul\":6532:6597   */\n  tag_41\n  jump\t// in\ntag_130:\n    /* \"#utility.yul\":6467:6603   */\n  pop\n    /* \"#utility.yul\":6414:6603   */\n  pop\n  pop\n  jump\t// out\n    /* \"#utility.yul\":6609:6795   */\ntag_44:\n    /* \"#utility.yul\":6669:6789   */\ntag_132:\n    /* \"#utility.yul\":6686:6689   */\n  dup2\n    /* \"#utility.yul\":6679:6684   */\n  dup2\n    /* \"#utility.yul\":6676:6690   */\n  lt\n    /* \"#utility.yul\":6669:6789   */\n  iszero\n  tag_134\n  jumpi\n    /* \"#utility.yul\":6740:6779   */\n  tag_135\n    /* \"#utility.yul\":6777:6778   */\n  0x00\n    /* \"#utility.yul\":6770:6775   */\n  dup3\n    /* \"#utility.yul\":6740:6779   */\n  tag_43\n  jump\t// in\ntag_135:\n    /* \"#utility.yul\":6713:6714   */\n  0x01\n    /* \"#utility.yul\":6706:6711   */\n  dup2\n    /* \"#utility.yul\":6702:6715   */\n  add\n    /* \"#utility.yul\":6693:6715   */\n  swap1\n  pop\n    /* \"#utility.yul\":6669:6789   */\n  jump(tag_132)\ntag_134:\n    /* \"#utility.yul\":6609:6795   */\n  pop\n  pop\n  jump\t// out\n    /* \"#utility.yul\":6801:7344   */\ntag_45:\n    /* \"#utility.yul\":6902:6904   */\n  0x1f\n    /* \"#utility.yul\":6897:6900   */\n  dup3\n    /* \"#utility.yul\":6894:6905   */\n  gt\n    /* \"#utility.yul\":6891:7337   */\n  iszero\n  tag_137\n  jumpi\n    /* \"#utility.yul\":6936:6974   */\n  tag_138\n    /* \"#utility.yul\":6968:6973   */\n  dup2\n    /* \"#utility.yul\":6936:6974   */\n  tag_34\n  jump\t// in\ntag_138:\n    /* \"#utility.yul\":7020:7049   */\n  tag_139\n    /* \"#utility.yul\":7038:7048   */\n  dup5\n    /* \"#utility.yul\":7020:7049   */\n  tag_35\n  jump\t// in\ntag_139:\n    /* \"#utility.yul\":7010:7018   */\n  dup2\n    /* \"#utility.yul\":7006:7050   */\n  add\n    /* \"#utility.yul\":7203:7205   */\n  0x20\n    /* \"#utility.yul\":7191:7201   */\n  dup6\n    /* \"#utility.yul\":7188:7206   */\n  lt\n    /* \"#utility.yul\":7185:7234   */\n  iszero\n  tag_140\n  jumpi\n    /* \"#utility.yul\":7224:7232   */\n  dup2\n    /* \"#utility.yul\":7209:7232   */\n  swap1\n  pop\n    /* \"#utility.yul\":7185:7234   */\ntag_140:\n    /* \"#utility.yul\":7247:7327   */\n  tag_141\n    /* \"#utility.yul\":7303:7325   */\n  tag_142\n    /* \"#utility.yul\":7321:7324   */\n  dup6\n    /* \"#utility.yul\":7303:7325   */\n  tag_35\n  jump\t// in\ntag_142:\n    /* \"#utility.yul\":7293:7301   */\n  dup4\n    /* \"#utility.yul\":7289:7326   */\n  add\n    /* \"#utility.yul\":7276:7287   */\n  dup3\n    /* \"#utility.yul\":7247:7327   */\n  tag_44\n  jump\t// in\ntag_141:\n    /* \"#utility.yul\":6906:7337   */\n  pop\n  pop\n    /* \"#utility.yul\":6891:7337   */\ntag_137:\n    /* \"#utility.yul\":6801:7344   */\n  pop\n  pop\n  pop\n  jump\t// out\n    /* \"#utility.yul\":7350:7467   */\ntag_46:\n    /* \"#utility.yul\":7404:7412   */\n  0x00\n    /* \"#utility.yul\":7454:7459   */\n  dup3\n    /* \"#utility.yul\":7448:7452   */\n  dup3\n    /* \"#utility.yul\":7444:7460   */\n  shr\n    /* \"#utility.yul\":7423:7460   */\n  swap1\n  pop\n    /* \"#utility.yul\":7350:7467   */\n  swap3\n  swap2\n  pop\n  pop\n  jump\t// out\n    /* \"#utility.yul\":7473:7642   */\ntag_47:\n    /* \"#utility.yul\":7517:7523   */\n  0x00\n    /* \"#utility.yul\":7550:7601   */\n  tag_145\n    /* \"#utility.yul\":7598:7599   */\n  0x00\n    /* \"#utility.yul\":7594:7600   */\n  not\n    /* \"#utility.yul\":7586:7591   */\n  dup5\n    /* \"#utility.yul\":7583:7584   */\n  0x08\n    /* \"#utility.yul\":7579:7592   */\n  mul\n    /* \"#utility.yul\":7550:7601   */\n  tag_46\n  jump\t// in\ntag_145:\n    /* \"#utility.yul\":7546:7602   */\n  not\n    /* \"#utility.yul\":7631:7635   */\n  dup1\n    /* \"#utility.yul\":7625:7629   */\n  dup4\n    /* \"#utility.yul\":7621:7636   */\n  and\n    /* \"#utility.yul\":7611:7636   */\n  swap2\n  pop\n    /* \"#utility.yul\":7524:7642   */\n  pop\n    /* \"#utility.yul\":7473:7642   */\n  swap3\n  swap2\n  pop\n  pop\n  jump\t// out\n    /* \"#utility.yul\":7647:7942   */\ntag_48:\n    /* \"#utility.yul\":7723:7727   */\n  0x00\n    /* \"#utility.yul\":7869:7898   */\n  tag_147\n    /* \"#utility.yul\":7894:7897   */\n  dup4\n    /* \"#utility.yul\":7888:7892   */\n  dup4\n    /* \"#utility.yul\":7869:7898   */\n  tag_47\n  jump\t// in\ntag_147:\n    /* \"#utility.yul\":7861:7898   */\n  swap2\n  pop\n    /* \"#utility.yul\":7931:7934   */\n  dup3\n    /* \"#utility.yul\":7928:7929   */\n  0x02\n    /* \"#utility.yul\":7924:7935   */\n  mul\n    /* \"#utility.yul\":7918:7922   */\n  dup3\n    /* \"#utility.yul\":7915:7936   */\n  or\n    /* \"#utility.yul\":7907:7936   */\n  swap1\n  pop\n    /* \"#utility.yul\":7647:7942   */\n  swap3\n  swap2\n  pop\n  pop\n  jump\t// out\n    /* \"#utility.yul\":7947:9342   */\ntag_7:\n    /* \"#utility.yul\":8064:8101   */\n  tag_149\n    /* \"#utility.yul\":8097:8100   */\n  dup3\n    /* \"#utility.yul\":8064:8101   */\n  tag_31\n  jump\t// in\ntag_149:\n    /* \"#utility.yul\":8166:8184   */\n  0xffffffffffffffff\n    /* \"#utility.yul\":8158:8164   */\n  dup2\n    /* \"#utility.yul\":8155:8185   */\n  gt\n    /* \"#utility.yul\":8152:8208   */\n  iszero\n  tag_150\n  jumpi\n    /* \"#utility.yul\":8188:8206   */\n  tag_151\n  tag_21\n  jump\t// in\ntag_151:\n    /* \"#utility.yul\":8152:8208   */\ntag_150:\n    /* \"#utility.yul\":8232:8270   */\n  tag_152\n    /* \"#utility.yul\":8264:8268   */\n  dup3\n    /* \"#utility.yul\":8258:8269   */\n  sload\n    /* \"#utility.yul\":8232:8270   */\n  tag_33\n  jump\t// in\ntag_152:\n    /* \"#utility.yul\":8317:8384   */\n  tag_153\n    /* \"#utility.yul\":8377:8383   */\n  dup3\n    /* \"#utility.yul\":8369:8375   */\n  dup3\n    /* \"#utility.yul\":8363:8367   */\n  dup6\n    /* \"#utility.yul\":8317:8384   */\n  tag_45\n  jump\t// in\ntag_153:\n    /* \"#utility.yul\":8411:8412   */\n  0x00\n    /* \"#utility.yul\":8435:8439   */\n  0x20\n    /* \"#utility.yul\":8422:8439   */\n  swap1\n  pop\n    /* \"#utility.yul\":8467:8469   */\n  0x1f\n    /* \"#utility.yul\":8459:8465   */\n  dup4\n    /* \"#utility.yul\":8456:8470   */\n  gt\n    /* \"#utility.yul\":8484:8485   */\n  0x01\n    /* \"#utility.yul\":8479:9097   */\n  dup2\n  eq\n  tag_155\n  jumpi\n    /* \"#utility.yul\":9141:9142   */\n  0x00\n    /* \"#utility.yul\":9158:9164   */\n  dup5\n    /* \"#utility.yul\":9155:9232   */\n  iszero\n  tag_156\n  jumpi\n    /* \"#utility.yul\":9207:9216   */\n  dup3\n    /* \"#utility.yul\":9202:9205   */\n  dup8\n    /* \"#utility.yul\":9198:9217   */\n  add\n    /* \"#utility.yul\":9192:9218   */\n  mload\n    /* \"#utility.yul\":9183:9218   */\n  swap1\n  pop\n    /* \"#utility.yul\":9155:9232   */\ntag_156:\n    /* \"#utility.yul\":9258:9325   */\n  tag_157\n    /* \"#utility.yul\":9318:9324   */\n  dup6\n    /* \"#utility.yul\":9311:9316   */\n  dup3\n    /* \"#utility.yul\":9258:9325   */\n  tag_48\n  jump\t// in\ntag_157:\n    /* \"#utility.yul\":9252:9256   */\n  dup7\n    /* \"#utility.yul\":9245:9326   */\n  sstore\n    /* \"#utility.yul\":9114:9336   */\n  pop\n    /* \"#utility.yul\":8449:9336   */\n  jump(tag_154)\n    /* \"#utility.yul\":8479:9097   */\ntag_155:\n    /* \"#utility.yul\":8531:8535   */\n  0x1f\n    /* \"#utility.yul\":8527:8536   */\n  not\n    /* \"#utility.yul\":8519:8525   */\n  dup5\n    /* \"#utility.yul\":8515:8537   */\n  and\n    /* \"#utility.yul\":8565:8602   */\n  tag_158\n    /* \"#utility.yul\":8597:8601   */\n  dup7\n    /* \"#utility.yul\":8565:8602   */\n  tag_34\n  jump\t// in\ntag_158:\n    /* \"#utility.yul\":8624:8625   */\n  0x00\n    /* \"#utility.yul\":8638:8846   */\ntag_159:\n    /* \"#utility.yul\":8652:8659   */\n  dup3\n    /* \"#utility.yul\":8649:8650   */\n  dup2\n    /* \"#utility.yul\":8646:8660   */\n  lt\n    /* \"#utility.yul\":8638:8846   */\n  iszero\n  tag_161\n  jumpi\n    /* \"#utility.yul\":8731:8740   */\n  dup5\n    /* \"#utility.yul\":8726:8729   */\n  dup10\n    /* \"#utility.yul\":8722:8741   */\n  add\n    /* \"#utility.yul\":8716:8742   */\n  mload\n    /* \"#utility.yul\":8708:8714   */\n  dup3\n    /* \"#utility.yul\":8701:8743   */\n  sstore\n    /* \"#utility.yul\":8782:8783   */\n  0x01\n    /* \"#utility.yul\":8774:8780   */\n  dup3\n    /* \"#utility.yul\":8770:8784   */\n  add\n    /* \"#utility.yul\":8760:8784   */\n  swap2\n  pop\n    /* \"#utility.yul\":8829:8831   */\n  0x20\n    /* \"#utility.yul\":8818:8827   */\n  dup6\n    /* \"#utility.yul\":8814:8832   */\n  add\n    /* \"#utility.yul\":8801:8832   */\n  swap5\n  pop\n    /* \"#utility.yul\":8675:8679   */\n  0x20\n    /* \"#utility.yul\":8672:8673   */\n  dup2\n    /* \"#utility.yul\":8668:8680   */\n  add\n    /* \"#utility.yul\":8663:8680   */\n  swap1\n  pop\n    /* \"#utility.yul\":8638:8846   */\n  jump(tag_159)\ntag_161:\n    /* \"#utility.yul\":8874:8880   */\n  dup7\n    /* \"#utility.yul\":8865:8872   */\n  dup4\n    /* \"#utility.yul\":8862:8881   */\n  lt\n    /* \"#utility.yul\":8859:9038   */\n  iszero\n  tag_162\n  jumpi\n    /* \"#utility.yul\":8932:8941   */\n  dup5\n    /* \"#utility.yul\":8927:8930   */\n  dup10\n    /* \"#utility.yul\":8923:8942   */\n  add\n    /* \"#utility.yul\":8917:8943   */\n  mload\n    /* \"#utility.yul\":8975:9023   */\n  tag_163\n    /* \"#utility.yul\":9017:9021   */\n  0x1f\n    /* \"#utility.yul\":9009:9015   */\n  dup10\n    /* \"#utility.yul\":9005:9022   */\n  and\n    /* \"#utility.yul\":8994:9003   */\n  dup3\n    /* \"#utility.yul\":8975:9023   */\n  tag_47\n  jump\t// in\ntag_163:\n    /* \"#utility.yul\":8967:8973   */\n  dup4\n    /* \"#utility.yul\":8960:9024   */\n  sstore\n    /* \"#utility.yul\":8882:9038   */\n  pop\n    /* \"#utility.yul\":8859:9038   */\ntag_162:\n    /* \"#utility.yul\":9084:9085   */\n  0x01\n    /* \"#utility.yul\":9080:9081   */\n  0x02\n    /* \"#utility.yul\":9072:9078   */\n  dup9\n    /* \"#utility.yul\":9068:9082   */\n  mul\n    /* \"#utility.yul\":9064:9086   */\n  add\n    /* \"#utility.yul\":9058:9062   */\n  dup9\n    /* \"#utility.yul\":9051:9087   */\n  sstore\n    /* \"#utility.yul\":8486:9097   */\n  pop\n  pop\n  pop\n    /* \"#utility.yul\":8449:9336   */\ntag_154:\n  pop\n    /* \"#utility.yul\":8039:9342   */\n  pop\n  pop\n  pop\n    /* \"#utility.yul\":7947:9342   */\n  pop\n  pop\n  jump\t// out\n    /* \"#utility.yul\":9348:9528   */\ntag_49:\n    /* \"#utility.yul\":9396:9473   */\n  0x4e487b7100000000000000000000000000000000000000000000000000000000\n    /* \"#utility.yul\":9393:9394   */\n  0x00\n    /* \"#utility.yul\":9386:9474   */\n  mstore\n    /* \"#utility.yul\":9493:9497   */\n  0x11\n    /* \"#utility.yul\":9490:9491   */\n  0x04\n    /* \"#utility.yul\":9483:9498   */\n  mstore\n    /* \"#utility.yul\":9517:9521   */\n  0x24\n    /* \"#utility.yul\":9514:9515   */\n  0x00\n    /* \"#utility.yul\":9507:9522   */\n  revert\n    /* \"#utility.yul\":9534:9725   */\ntag_9:\n    /* \"#utility.yul\":9574:9577   */\n  0x00\n    /* \"#utility.yul\":9593:9613   */\n  tag_166\n    /* \"#utility.yul\":9611:9612   */\n  dup3\n    /* \"#utility.yul\":9593:9613   */\n  tag_28\n  jump\t// in\ntag_166:\n    /* \"#utility.yul\":9588:9613   */\n  swap2\n  pop\n    /* \"#utility.yul\":9627:9647   */\n  tag_167\n    /* \"#utility.yul\":9645:9646   */\n  dup4\n    /* \"#utility.yul\":9627:9647   */\n  tag_28\n  jump\t// in\ntag_167:\n    /* \"#utility.yul\":9622:9647   */\n  swap3\n  pop\n    /* \"#utility.yul\":9670:9671   */\n  dup3\n    /* \"#utility.yul\":9667:9668   */\n  dup3\n    /* \"#utility.yul\":9663:9672   */\n  add\n    /* \"#utility.yul\":9656:9672   */\n  swap1\n  pop\n    /* \"#utility.yul\":9691:9694   */\n  dup1\n    /* \"#utility.yul\":9688:9689   */\n  dup3\n    /* \"#utility.yul\":9685:9695   */\n  gt\n    /* \"#utility.yul\":9682:9718   */\n  iszero\n  tag_168\n  jumpi\n    /* \"#utility.yul\":9698:9716   */\n  tag_169\n  tag_49\n  jump\t// in\ntag_169:\n    /* \"#utility.yul\":9682:9718   */\ntag_168:\n    /* \"#utility.yul\":9534:9725   */\n  swap3\n  swap2\n  pop\n  pop\n  jump\t// out\n    /* \"Factory.sol\":28:2277  contract Factory {... */\ntag_10:\n  dataSize(sub_0)\n  dup1\n  dataOffset(sub_0)\n  0x00\n  codecopy\n  0x00\n  return\nstop\n\nsub_0: assembly {\n        /* \"Factory.sol\":28:2277  contract Factory {... */\n      mstore(0x40, 0x80)\n      jumpi(tag_1, lt(calldatasize, 0x04))\n      shr(0xe0, calldataload(0x00))\n      dup1\n      0x968b4fe9\n      gt\n      tag_11\n      jumpi\n      dup1\n      0x968b4fe9\n      eq\n      tag_6\n      jumpi\n      dup1\n      0x9faf6215\n      eq\n      tag_7\n      jumpi\n      dup1\n      0xc4f6b0fa\n      eq\n      tag_8\n      jumpi\n      dup1\n      0xd0e30db0\n      eq\n      tag_9\n      jumpi\n      dup1\n      0xe3d670d7\n      eq\n      tag_10\n      jumpi\n      jump(tag_1)\n    tag_11:\n      dup1\n      0x2e1a7d4d\n      eq\n      tag_2\n      jumpi\n      dup1\n      0x48b6b16f\n      eq\n      tag_3\n      jumpi\n      dup1\n      0x6658e52b\n      eq\n      tag_4\n      jumpi\n      dup1\n      0x83197ef0\n      eq\n      tag_5\n      jumpi\n    tag_1:\n      0x00\n      dup1\n      revert\n        /* \"Factory.sol\":1317:1689  function withdraw(uint256 amount) public {... */\n    tag_2:\n      callvalue\n      dup1\n      iszero\n      tag_12\n      jumpi\n      0x00\n      dup1\n      revert\n    tag_12:\n      pop\n      tag_13\n      0x04\n      dup1\n      calldatasize\n      sub\n      dup2\n      add\n      swap1\n      tag_14\n      swap2\n      swap1\n      tag_15\n      jump\t// in\n    tag_14:\n      tag_16\n      jump\t// in\n    tag_13:\n      stop\n        /* \"Factory.sol\":499:673  function setProjectName(string memory name) external {... */\n    tag_3:\n      callvalue\n      dup1\n      iszero\n      tag_17\n      jumpi\n      0x00\n      dup1\n      revert\n    tag_17:\n      pop\n      tag_18\n      0x04\n      dup1\n      calldatasize\n      sub\n      dup2\n      add\n      swap1\n      tag_19\n      swap2\n      swap1\n      tag_20\n      jump\t// in\n    tag_19:\n      tag_21\n      jump\t// in\n    tag_18:\n      stop\n        /* \"Factory.sol\":1764:2099  function claimMoney() public {... */\n    tag_4:\n      callvalue\n      dup1\n      iszero\n      tag_22\n      jumpi\n      0x00\n      dup1\n      revert\n    tag_22:\n      pop\n      tag_23\n      tag_24\n      jump\t// in\n    tag_23:\n      stop\n        /* \"Factory.sol\":2116:2274  function destroy() external {... */\n    tag_5:\n      callvalue\n      dup1\n      iszero\n      tag_25\n      jumpi\n      0x00\n      dup1\n      revert\n    tag_25:\n      pop\n      tag_26\n      tag_27\n      jump\t// in\n    tag_26:\n      stop\n        /* \"Factory.sol\":1007:1120  function getProjectDescription() public view returns (string memory) {... */\n    tag_6:\n      callvalue\n      dup1\n      iszero\n      tag_28\n      jumpi\n      0x00\n      dup1\n      revert\n    tag_28:\n      pop\n      tag_29\n      tag_30\n      jump\t// in\n    tag_29:\n      mload(0x40)\n      tag_31\n      swap2\n      swap1\n      tag_32\n      jump\t// in\n    tag_31:\n      mload(0x40)\n      dup1\n      swap2\n      sub\n      swap1\n      return\n        /* \"Factory.sol\":681:780  function getProjectName() public view returns (string memory) {... */\n    tag_7:\n      callvalue\n      dup1\n      iszero\n      tag_33\n      jumpi\n      0x00\n      dup1\n      revert\n    tag_33:\n      pop\n      tag_34\n      tag_35\n      jump\t// in\n    tag_34:\n      mload(0x40)\n      tag_36\n      swap2\n      swap1\n      tag_32\n      jump\t// in\n    tag_36:\n      mload(0x40)\n      dup1\n      swap2\n      sub\n      swap1\n      return\n        /* \"Factory.sol\":788:995  function setProjectDescription(string memory description) public {... */\n    tag_8:\n      callvalue\n      dup1\n      iszero\n      tag_37\n      jumpi\n      0x00\n      dup1\n      revert\n    tag_37:\n      pop\n      tag_38\n      0x04\n      dup1\n      calldatasize\n      sub\n      dup2\n      add\n      swap1\n      tag_39\n      swap2\n      swap1\n      tag_20\n      jump\t// in\n    tag_39:\n      tag_40\n      jump\t// in\n    tag_38:\n      stop\n        /* \"Factory.sol\":1128:1243  function deposit() public payable {... */\n    tag_9:\n      tag_41\n      tag_42\n      jump\t// in\n    tag_41:\n      stop\n        /* \"Factory.sol\":239:282  mapping (address => uint256) public balance */\n    tag_10:\n      callvalue\n      dup1\n      iszero\n      tag_43\n      jumpi\n      0x00\n      dup1\n      revert\n    tag_43:\n      pop\n      tag_44\n      0x04\n      dup1\n      calldatasize\n      sub\n      dup2\n      add\n      swap1\n      tag_45\n      swap2\n      swap1\n      tag_46\n      jump\t// in\n    tag_45:\n      tag_47\n      jump\t// in\n    tag_44:\n      mload(0x40)\n      tag_48\n      swap2\n      swap1\n      tag_49\n      jump\t// in\n    tag_48:\n      mload(0x40)\n      dup1\n      swap2\n      sub\n      swap1\n      return\n        /* \"Factory.sol\":1317:1689  function withdraw(uint256 amount) public {... */\n    tag_16:\n        /* \"Factory.sol\":1397:1408  releaseTime */\n      sload(0x05)\n        /* \"Factory.sol\":1378:1393  block.timestamp */\n      timestamp\n        /* \"Factory.sol\":1378:1408  block.timestamp >= releaseTime */\n      lt\n      iszero\n        /* \"Factory.sol\":1369:1442  require (block.timestamp >= releaseTime, \"Project has still not expired\") */\n      tag_51\n      jumpi\n      mload(0x40)\n      0x08c379a000000000000000000000000000000000000000000000000000000000\n      dup2\n      mstore\n      0x04\n      add\n      tag_52\n      swap1\n      tag_53\n      jump\t// in\n    tag_52:\n      mload(0x40)\n      dup1\n      swap2\n      sub\n      swap1\n      revert\n    tag_51:\n        /* \"Factory.sol\":1471:1477  target */\n      sload(0x03)\n        /* \"Factory.sol\":1462:1468  raised */\n      sload(0x04)\n        /* \"Factory.sol\":1462:1477  raised < target */\n      lt\n        /* \"Factory.sol\":1453:1520  require (raised < target, \"Project has already reached its target\") */\n      tag_54\n      jumpi\n      mload(0x40)\n      0x08c379a000000000000000000000000000000000000000000000000000000000\n      dup2\n      mstore\n      0x04\n      add\n      tag_55\n      swap1\n      tag_56\n      jump\t// in\n    tag_55:\n      mload(0x40)\n      dup1\n      swap2\n      sub\n      swap1\n      revert\n    tag_54:\n        /* \"Factory.sol\":1563:1569  amount */\n      dup1\n        /* \"Factory.sol\":1540:1547  balance */\n      0x06\n        /* \"Factory.sol\":1540:1559  balance[msg.sender] */\n      0x00\n        /* \"Factory.sol\":1548:1558  msg.sender */\n      caller\n        /* \"Factory.sol\":1540:1559  balance[msg.sender] */\n      0xffffffffffffffffffffffffffffffffffffffff\n      and\n      0xffffffffffffffffffffffffffffffffffffffff\n      and\n      dup2\n      mstore\n      0x20\n      add\n      swap1\n      dup2\n      mstore\n      0x20\n      add\n      0x00\n      keccak256\n      sload\n        /* \"Factory.sol\":1540:1569  balance[msg.sender] >= amount */\n      lt\n      iszero\n        /* \"Factory.sol\":1531:1594  require (balance[msg.sender] >= amount, \"Insufficient balance\") */\n      tag_57\n      jumpi\n      mload(0x40)\n      0x08c379a000000000000000000000000000000000000000000000000000000000\n      dup2\n      mstore\n      0x04\n      add\n      tag_58\n      swap1\n      tag_59\n      jump\t// in\n    tag_58:\n      mload(0x40)\n      dup1\n      swap2\n      sub\n      swap1\n      revert\n    tag_57:\n        /* \"Factory.sol\":1628:1634  amount */\n      dup1\n        /* \"Factory.sol\":1605:1612  balance */\n      0x06\n        /* \"Factory.sol\":1605:1624  balance[msg.sender] */\n      0x00\n        /* \"Factory.sol\":1613:1623  msg.sender */\n      caller\n        /* \"Factory.sol\":1605:1624  balance[msg.sender] */\n      0xffffffffffffffffffffffffffffffffffffffff\n      and\n      0xffffffffffffffffffffffffffffffffffffffff\n      and\n      dup2\n      mstore\n      0x20\n      add\n      swap1\n      dup2\n      mstore\n      0x20\n      add\n      0x00\n      keccak256\n      0x00\n        /* \"Factory.sol\":1605:1634  balance[msg.sender] -= amount */\n      dup3\n      dup3\n      sload\n      tag_60\n      swap2\n      swap1\n      tag_61\n      jump\t// in\n    tag_60:\n      swap3\n      pop\n      pop\n      dup2\n      swap1\n      sstore\n      pop\n        /* \"Factory.sol\":1653:1663  msg.sender */\n      caller\n        /* \"Factory.sol\":1645:1673  payable(msg.sender).transfer */\n      0xffffffffffffffffffffffffffffffffffffffff\n      and\n        /* \"Factory.sol\":1645:1681  payable(msg.sender).transfer(amount) */\n      0x08fc\n        /* \"Factory.sol\":1674:1680  amount */\n      dup3\n        /* \"Factory.sol\":1645:1681  payable(msg.sender).transfer(amount) */\n      swap1\n      dup2\n      iszero\n      mul\n      swap1\n      mload(0x40)\n      0x00\n      mload(0x40)\n      dup1\n      dup4\n      sub\n      dup2\n      dup6\n      dup9\n      dup9\n      call\n      swap4\n      pop\n      pop\n      pop\n      pop\n      iszero\n      dup1\n      iszero\n      tag_63\n      jumpi\n      returndatasize\n      0x00\n      dup1\n      returndatacopy\n      revert(0x00, returndatasize)\n    tag_63:\n      pop\n        /* \"Factory.sol\":1317:1689  function withdraw(uint256 amount) public {... */\n      pop\n      jump\t// out\n        /* \"Factory.sol\":499:673  function setProjectName(string memory name) external {... */\n    tag_21:\n        /* \"Factory.sol\":586:591  owner */\n      0x00\n      dup1\n      sload\n      swap1\n      0x0100\n      exp\n      swap1\n      div\n      0xffffffffffffffffffffffffffffffffffffffff\n      and\n        /* \"Factory.sol\":572:591  msg.sender == owner */\n      0xffffffffffffffffffffffffffffffffffffffff\n      and\n        /* \"Factory.sol\":572:582  msg.sender */\n      caller\n        /* \"Factory.sol\":572:591  msg.sender == owner */\n      0xffffffffffffffffffffffffffffffffffffffff\n      and\n      eq\n        /* \"Factory.sol\":563:635  require (msg.sender == owner, \"Only the owner can set the project name\") */\n      tag_65\n      jumpi\n      mload(0x40)\n      0x08c379a000000000000000000000000000000000000000000000000000000000\n      dup2\n      mstore\n      0x04\n      add\n      tag_66\n      swap1\n      tag_67\n      jump\t// in\n    tag_66:\n      mload(0x40)\n      dup1\n      swap2\n      sub\n      swap1\n      revert\n    tag_65:\n        /* \"Factory.sol\":661:665  name */\n      dup1\n        /* \"Factory.sol\":647:658  projectName */\n      0x01\n        /* \"Factory.sol\":647:665  projectName = name */\n      swap1\n      dup2\n      tag_68\n      swap2\n      swap1\n      tag_69\n      jump\t// in\n    tag_68:\n      pop\n        /* \"Factory.sol\":499:673  function setProjectName(string memory name) external {... */\n      pop\n      jump\t// out\n        /* \"Factory.sol\":1764:2099  function claimMoney() public {... */\n    tag_24:\n        /* \"Factory.sol\":1832:1843  releaseTime */\n      sload(0x05)\n        /* \"Factory.sol\":1813:1828  block.timestamp */\n      timestamp\n        /* \"Factory.sol\":1813:1843  block.timestamp >= releaseTime */\n      lt\n      iszero\n        /* \"Factory.sol\":1804:1877  require (block.timestamp >= releaseTime, \"Project has still not expired\") */\n      tag_71\n      jumpi\n      mload(0x40)\n      0x08c379a000000000000000000000000000000000000000000000000000000000\n      dup2\n      mstore\n      0x04\n      add\n      tag_72\n      swap1\n      tag_53\n      jump\t// in\n    tag_72:\n      mload(0x40)\n      dup1\n      swap2\n      sub\n      swap1\n      revert\n    tag_71:\n        /* \"Factory.sol\":1907:1913  target */\n      sload(0x03)\n        /* \"Factory.sol\":1897:1903  raised */\n      sload(0x04)\n        /* \"Factory.sol\":1897:1913  raised >= target */\n      lt\n      iszero\n        /* \"Factory.sol\":1888:1956  require (raised >= target, \"Project has failed to reach its target\") */\n      tag_73\n      jumpi\n      mload(0x40)\n      0x08c379a000000000000000000000000000000000000000000000000000000000\n      dup2\n      mstore\n      0x04\n      add\n      tag_74\n      swap1\n      tag_75\n      jump\t// in\n    tag_74:\n      mload(0x40)\n      dup1\n      swap2\n      sub\n      swap1\n      revert\n    tag_73:\n        /* \"Factory.sol\":1990:1995  owner */\n      0x00\n      dup1\n      sload\n      swap1\n      0x0100\n      exp\n      swap1\n      div\n      0xffffffffffffffffffffffffffffffffffffffff\n      and\n        /* \"Factory.sol\":1976:1995  msg.sender == owner */\n      0xffffffffffffffffffffffffffffffffffffffff\n      and\n        /* \"Factory.sol\":1976:1986  msg.sender */\n      caller\n        /* \"Factory.sol\":1976:1995  msg.sender == owner */\n      0xffffffffffffffffffffffffffffffffffffffff\n      and\n      eq\n        /* \"Factory.sol\":1967:2034  require (msg.sender == owner, \"Only the owner can claim the money\") */\n      tag_76\n      jumpi\n      mload(0x40)\n      0x08c379a000000000000000000000000000000000000000000000000000000000\n      dup2\n      mstore\n      0x04\n      add\n      tag_77\n      swap1\n      tag_78\n      jump\t// in\n    tag_77:\n      mload(0x40)\n      dup1\n      swap2\n      sub\n      swap1\n      revert\n    tag_76:\n        /* \"Factory.sol\":2053:2058  owner */\n      0x00\n      dup1\n      sload\n      swap1\n      0x0100\n      exp\n      swap1\n      div\n      0xffffffffffffffffffffffffffffffffffffffff\n      and\n        /* \"Factory.sol\":2045:2068  payable(owner).transfer */\n      0xffffffffffffffffffffffffffffffffffffffff\n      and\n        /* \"Factory.sol\":2045:2091  payable(owner).transfer(address(this).balance) */\n      0x08fc\n        /* \"Factory.sol\":2069:2090  address(this).balance */\n      selfbalance\n        /* \"Factory.sol\":2045:2091  payable(owner).transfer(address(this).balance) */\n      swap1\n      dup2\n      iszero\n      mul\n      swap1\n      mload(0x40)\n      0x00\n      mload(0x40)\n      dup1\n      dup4\n      sub\n      dup2\n      dup6\n      dup9\n      dup9\n      call\n      swap4\n      pop\n      pop\n      pop\n      pop\n      iszero\n      dup1\n      iszero\n      tag_80\n      jumpi\n      returndatasize\n      0x00\n      dup1\n      returndatacopy\n      revert(0x00, returndatasize)\n    tag_80:\n      pop\n        /* \"Factory.sol\":1764:2099  function claimMoney() public {... */\n      jump\t// out\n        /* \"Factory.sol\":2116:2274  function destroy() external {... */\n    tag_27:\n        /* \"Factory.sol\":2178:2183  owner */\n      0x00\n      dup1\n      sload\n      swap1\n      0x0100\n      exp\n      swap1\n      div\n      0xffffffffffffffffffffffffffffffffffffffff\n      and\n        /* \"Factory.sol\":2164:2183  msg.sender == owner */\n      0xffffffffffffffffffffffffffffffffffffffff\n      and\n        /* \"Factory.sol\":2164:2174  msg.sender */\n      caller\n        /* \"Factory.sol\":2164:2183  msg.sender == owner */\n      0xffffffffffffffffffffffffffffffffffffffff\n      and\n      eq\n        /* \"Factory.sol\":2155:2227  require (msg.sender == owner, \"Only the owner can destroy the contract\") */\n      tag_82\n      jumpi\n      mload(0x40)\n      0x08c379a000000000000000000000000000000000000000000000000000000000\n      dup2\n      mstore\n      0x04\n      add\n      tag_83\n      swap1\n      tag_84\n      jump\t// in\n    tag_83:\n      mload(0x40)\n      dup1\n      swap2\n      sub\n      swap1\n      revert\n    tag_82:\n        /* \"Factory.sol\":2259:2264  owner */\n      0x00\n      dup1\n      sload\n      swap1\n      0x0100\n      exp\n      swap1\n      div\n      0xffffffffffffffffffffffffffffffffffffffff\n      and\n        /* \"Factory.sol\":2238:2266  selfdestruct(payable(owner)) */\n      0xffffffffffffffffffffffffffffffffffffffff\n      and\n      selfdestruct\n        /* \"Factory.sol\":1007:1120  function getProjectDescription() public view returns (string memory) {... */\n    tag_30:\n        /* \"Factory.sol\":1061:1074  string memory */\n      0x60\n        /* \"Factory.sol\":1094:1112  projectDescription */\n      0x02\n        /* \"Factory.sol\":1087:1112  return projectDescription */\n      dup1\n      sload\n      tag_86\n      swap1\n      tag_87\n      jump\t// in\n    tag_86:\n      dup1\n      0x1f\n      add\n      0x20\n      dup1\n      swap2\n      div\n      mul\n      0x20\n      add\n      mload(0x40)\n      swap1\n      dup2\n      add\n      0x40\n      mstore\n      dup1\n      swap3\n      swap2\n      swap1\n      dup2\n      dup2\n      mstore\n      0x20\n      add\n      dup3\n      dup1\n      sload\n      tag_88\n      swap1\n      tag_87\n      jump\t// in\n    tag_88:\n      dup1\n      iszero\n      tag_89\n      jumpi\n      dup1\n      0x1f\n      lt\n      tag_90\n      jumpi\n      0x0100\n      dup1\n      dup4\n      sload\n      div\n      mul\n      dup4\n      mstore\n      swap2\n      0x20\n      add\n      swap2\n      jump(tag_89)\n    tag_90:\n      dup3\n      add\n      swap2\n      swap1\n      0x00\n      mstore\n      keccak256(0x00, 0x20)\n      swap1\n    tag_91:\n      dup2\n      sload\n      dup2\n      mstore\n      swap1\n      0x01\n      add\n      swap1\n      0x20\n      add\n      dup1\n      dup4\n      gt\n      tag_91\n      jumpi\n      dup3\n      swap1\n      sub\n      0x1f\n      and\n      dup3\n      add\n      swap2\n    tag_89:\n      pop\n      pop\n      pop\n      pop\n      pop\n      swap1\n      pop\n        /* \"Factory.sol\":1007:1120  function getProjectDescription() public view returns (string memory) {... */\n      swap1\n      jump\t// out\n        /* \"Factory.sol\":681:780  function getProjectName() public view returns (string memory) {... */\n    tag_35:\n        /* \"Factory.sol\":728:741  string memory */\n      0x60\n        /* \"Factory.sol\":761:772  projectName */\n      0x01\n        /* \"Factory.sol\":754:772  return projectName */\n      dup1\n      sload\n      tag_93\n      swap1\n      tag_87\n      jump\t// in\n    tag_93:\n      dup1\n      0x1f\n      add\n      0x20\n      dup1\n      swap2\n      div\n      mul\n      0x20\n      add\n      mload(0x40)\n      swap1\n      dup2\n      add\n      0x40\n      mstore\n      dup1\n      swap3\n      swap2\n      swap1\n      dup2\n      dup2\n      mstore\n      0x20\n      add\n      dup3\n      dup1\n      sload\n      tag_94\n      swap1\n      tag_87\n      jump\t// in\n    tag_94:\n      dup1\n      iszero\n      tag_95\n      jumpi\n      dup1\n      0x1f\n      lt\n      tag_96\n      jumpi\n      0x0100\n      dup1\n      dup4\n      sload\n      div\n      mul\n      dup4\n      mstore\n      swap2\n      0x20\n      add\n      swap2\n      jump(tag_95)\n    tag_96:\n      dup3\n      add\n      swap2\n      swap1\n      0x00\n      mstore\n      keccak256(0x00, 0x20)\n      swap1\n    tag_97:\n      dup2\n      sload\n      dup2\n      mstore\n      swap1\n      0x01\n      add\n      swap1\n      0x20\n      add\n      dup1\n      dup4\n      gt\n      tag_97\n      jumpi\n      dup3\n      swap1\n      sub\n      0x1f\n      and\n      dup3\n      add\n      swap2\n    tag_95:\n      pop\n      pop\n      pop\n      pop\n      pop\n      swap1\n      pop\n        /* \"Factory.sol\":681:780  function getProjectName() public view returns (string memory) {... */\n      swap1\n      jump\t// out\n        /* \"Factory.sol\":788:995  function setProjectDescription(string memory description) public {... */\n    tag_40:\n        /* \"Factory.sol\":887:892  owner */\n      0x00\n      dup1\n      sload\n      swap1\n      0x0100\n      exp\n      swap1\n      div\n      0xffffffffffffffffffffffffffffffffffffffff\n      and\n        /* \"Factory.sol\":873:892  msg.sender == owner */\n      0xffffffffffffffffffffffffffffffffffffffff\n      and\n        /* \"Factory.sol\":873:883  msg.sender */\n      caller\n        /* \"Factory.sol\":873:892  msg.sender == owner */\n      0xffffffffffffffffffffffffffffffffffffffff\n      and\n      eq\n        /* \"Factory.sol\":864:943  require (msg.sender == owner, \"Only the owner can set the project description\") */\n      tag_99\n      jumpi\n      mload(0x40)\n      0x08c379a000000000000000000000000000000000000000000000000000000000\n      dup2\n      mstore\n      0x04\n      add\n      tag_100\n      swap1\n      tag_101\n      jump\t// in\n    tag_100:\n      mload(0x40)\n      dup1\n      swap2\n      sub\n      swap1\n      revert\n    tag_99:\n        /* \"Factory.sol\":976:987  description */\n      dup1\n        /* \"Factory.sol\":955:973  projectDescription */\n      0x02\n        /* \"Factory.sol\":955:987  projectDescription = description */\n      swap1\n      dup2\n      tag_102\n      swap2\n      swap1\n      tag_69\n      jump\t// in\n    tag_102:\n      pop\n        /* \"Factory.sol\":788:995  function setProjectDescription(string memory description) public {... */\n      pop\n      jump\t// out\n        /* \"Factory.sol\":1128:1243  function deposit() public payable {... */\n    tag_42:\n        /* \"Factory.sol\":1196:1205  msg.value */\n      callvalue\n        /* \"Factory.sol\":1173:1180  balance */\n      0x06\n        /* \"Factory.sol\":1173:1192  balance[msg.sender] */\n      0x00\n        /* \"Factory.sol\":1181:1191  msg.sender */\n      caller\n        /* \"Factory.sol\":1173:1192  balance[msg.sender] */\n      0xffffffffffffffffffffffffffffffffffffffff\n      and\n      0xffffffffffffffffffffffffffffffffffffffff\n      and\n      dup2\n      mstore\n      0x20\n      add\n      swap1\n      dup2\n      mstore\n      0x20\n      add\n      0x00\n      keccak256\n      0x00\n        /* \"Factory.sol\":1173:1205  balance[msg.sender] += msg.value */\n      dup3\n      dup3\n      sload\n      tag_104\n      swap2\n      swap1\n      tag_105\n      jump\t// in\n    tag_104:\n      swap3\n      pop\n      pop\n      dup2\n      swap1\n      sstore\n      pop\n        /* \"Factory.sol\":1226:1235  msg.value */\n      callvalue\n        /* \"Factory.sol\":1216:1222  raised */\n      0x04\n      0x00\n        /* \"Factory.sol\":1216:1235  raised += msg.value */\n      dup3\n      dup3\n      sload\n      tag_106\n      swap2\n      swap1\n      tag_105\n      jump\t// in\n    tag_106:\n      swap3\n      pop\n      pop\n      dup2\n      swap1\n      sstore\n      pop\n        /* \"Factory.sol\":1128:1243  function deposit() public payable {... */\n      jump\t// out\n        /* \"Factory.sol\":239:282  mapping (address => uint256) public balance */\n    tag_47:\n      mstore(0x20, 0x06)\n      dup1\n      0x00\n      mstore\n      keccak256(0x00, 0x40)\n      0x00\n      swap2\n      pop\n      swap1\n      pop\n      sload\n      dup2\n      jump\t// out\n        /* \"#utility.yul\":7:82   */\n    tag_107:\n        /* \"#utility.yul\":40:46   */\n      0x00\n        /* \"#utility.yul\":73:75   */\n      0x40\n        /* \"#utility.yul\":67:76   */\n      mload\n        /* \"#utility.yul\":57:76   */\n      swap1\n      pop\n        /* \"#utility.yul\":7:82   */\n      swap1\n      jump\t// out\n        /* \"#utility.yul\":88:205   */\n    tag_108:\n        /* \"#utility.yul\":197:198   */\n      0x00\n        /* \"#utility.yul\":194:195   */\n      dup1\n        /* \"#utility.yul\":187:199   */\n      revert\n        /* \"#utility.yul\":211:328   */\n    tag_109:\n        /* \"#utility.yul\":320:321   */\n      0x00\n        /* \"#utility.yul\":317:318   */\n      dup1\n        /* \"#utility.yul\":310:322   */\n      revert\n        /* \"#utility.yul\":334:411   */\n    tag_110:\n        /* \"#utility.yul\":371:378   */\n      0x00\n        /* \"#utility.yul\":400:405   */\n      dup2\n        /* \"#utility.yul\":389:405   */\n      swap1\n      pop\n        /* \"#utility.yul\":334:411   */\n      swap2\n      swap1\n      pop\n      jump\t// out\n        /* \"#utility.yul\":417:539   */\n    tag_111:\n        /* \"#utility.yul\":490:514   */\n      tag_171\n        /* \"#utility.yul\":508:513   */\n      dup2\n        /* \"#utility.yul\":490:514   */\n      tag_110\n      jump\t// in\n    tag_171:\n        /* \"#utility.yul\":483:488   */\n      dup2\n        /* \"#utility.yul\":480:515   */\n      eq\n        /* \"#utility.yul\":470:533   */\n      tag_172\n      jumpi\n        /* \"#utility.yul\":529:530   */\n      0x00\n        /* \"#utility.yul\":526:527   */\n      dup1\n        /* \"#utility.yul\":519:531   */\n      revert\n        /* \"#utility.yul\":470:533   */\n    tag_172:\n        /* \"#utility.yul\":417:539   */\n      pop\n      jump\t// out\n        /* \"#utility.yul\":545:684   */\n    tag_112:\n        /* \"#utility.yul\":591:596   */\n      0x00\n        /* \"#utility.yul\":629:635   */\n      dup2\n        /* \"#utility.yul\":616:636   */\n      calldataload\n        /* \"#utility.yul\":607:636   */\n      swap1\n      pop\n        /* \"#utility.yul\":645:678   */\n      tag_174\n        /* \"#utility.yul\":672:677   */\n      dup2\n        /* \"#utility.yul\":645:678   */\n      tag_111\n      jump\t// in\n    tag_174:\n        /* \"#utility.yul\":545:684   */\n      swap3\n      swap2\n      pop\n      pop\n      jump\t// out\n        /* \"#utility.yul\":690:1019   */\n    tag_15:\n        /* \"#utility.yul\":749:755   */\n      0x00\n        /* \"#utility.yul\":798:800   */\n      0x20\n        /* \"#utility.yul\":786:795   */\n      dup3\n        /* \"#utility.yul\":777:784   */\n      dup5\n        /* \"#utility.yul\":773:796   */\n      sub\n        /* \"#utility.yul\":769:801   */\n      slt\n        /* \"#utility.yul\":766:885   */\n      iszero\n      tag_176\n      jumpi\n        /* \"#utility.yul\":804:883   */\n      tag_177\n      tag_108\n      jump\t// in\n    tag_177:\n        /* \"#utility.yul\":766:885   */\n    tag_176:\n        /* \"#utility.yul\":924:925   */\n      0x00\n        /* \"#utility.yul\":949:1002   */\n      tag_178\n        /* \"#utility.yul\":994:1001   */\n      dup5\n        /* \"#utility.yul\":985:991   */\n      dup3\n        /* \"#utility.yul\":974:983   */\n      dup6\n        /* \"#utility.yul\":970:992   */\n      add\n        /* \"#utility.yul\":949:1002   */\n      tag_112\n      jump\t// in\n    tag_178:\n        /* \"#utility.yul\":939:1002   */\n      swap2\n      pop\n        /* \"#utility.yul\":895:1012   */\n      pop\n        /* \"#utility.yul\":690:1019   */\n      swap3\n      swap2\n      pop\n      pop\n      jump\t// out\n        /* \"#utility.yul\":1025:1142   */\n    tag_113:\n        /* \"#utility.yul\":1134:1135   */\n      0x00\n        /* \"#utility.yul\":1131:1132   */\n      dup1\n        /* \"#utility.yul\":1124:1136   */\n      revert\n        /* \"#utility.yul\":1148:1265   */\n    tag_114:\n        /* \"#utility.yul\":1257:1258   */\n      0x00\n        /* \"#utility.yul\":1254:1255   */\n      dup1\n        /* \"#utility.yul\":1247:1259   */\n      revert\n        /* \"#utility.yul\":1271:1373   */\n    tag_115:\n        /* \"#utility.yul\":1312:1318   */\n      0x00\n        /* \"#utility.yul\":1363:1365   */\n      0x1f\n        /* \"#utility.yul\":1359:1366   */\n      not\n        /* \"#utility.yul\":1354:1356   */\n      0x1f\n        /* \"#utility.yul\":1347:1352   */\n      dup4\n        /* \"#utility.yul\":1343:1357   */\n      add\n        /* \"#utility.yul\":1339:1367   */\n      and\n        /* \"#utility.yul\":1329:1367   */\n      swap1\n      pop\n        /* \"#utility.yul\":1271:1373   */\n      swap2\n      swap1\n      pop\n      jump\t// out\n        /* \"#utility.yul\":1379:1559   */\n    tag_116:\n        /* \"#utility.yul\":1427:1504   */\n      0x4e487b7100000000000000000000000000000000000000000000000000000000\n        /* \"#utility.yul\":1424:1425   */\n      0x00\n        /* \"#utility.yul\":1417:1505   */\n      mstore\n        /* \"#utility.yul\":1524:1528   */\n      0x41\n        /* \"#utility.yul\":1521:1522   */\n      0x04\n        /* \"#utility.yul\":1514:1529   */\n      mstore\n        /* \"#utility.yul\":1548:1552   */\n      0x24\n        /* \"#utility.yul\":1545:1546   */\n      0x00\n        /* \"#utility.yul\":1538:1553   */\n      revert\n        /* \"#utility.yul\":1565:1846   */\n    tag_117:\n        /* \"#utility.yul\":1648:1675   */\n      tag_184\n        /* \"#utility.yul\":1670:1674   */\n      dup3\n        /* \"#utility.yul\":1648:1675   */\n      tag_115\n      jump\t// in\n    tag_184:\n        /* \"#utility.yul\":1640:1646   */\n      dup2\n        /* \"#utility.yul\":1636:1676   */\n      add\n        /* \"#utility.yul\":1778:1784   */\n      dup2\n        /* \"#utility.yul\":1766:1776   */\n      dup2\n        /* \"#utility.yul\":1763:1785   */\n      lt\n        /* \"#utility.yul\":1742:1760   */\n      0xffffffffffffffff\n        /* \"#utility.yul\":1730:1740   */\n      dup3\n        /* \"#utility.yul\":1727:1761   */\n      gt\n        /* \"#utility.yul\":1724:1786   */\n      or\n        /* \"#utility.yul\":1721:1809   */\n      iszero\n      tag_185\n      jumpi\n        /* \"#utility.yul\":1789:1807   */\n      tag_186\n      tag_116\n      jump\t// in\n    tag_186:\n        /* \"#utility.yul\":1721:1809   */\n    tag_185:\n        /* \"#utility.yul\":1829:1839   */\n      dup1\n        /* \"#utility.yul\":1825:1827   */\n      0x40\n        /* \"#utility.yul\":1818:1840   */\n      mstore\n        /* \"#utility.yul\":1608:1846   */\n      pop\n        /* \"#utility.yul\":1565:1846   */\n      pop\n      pop\n      jump\t// out\n        /* \"#utility.yul\":1852:1981   */\n    tag_118:\n        /* \"#utility.yul\":1886:1892   */\n      0x00\n        /* \"#utility.yul\":1913:1933   */\n      tag_188\n      tag_107\n      jump\t// in\n    tag_188:\n        /* \"#utility.yul\":1903:1933   */\n      swap1\n      pop\n        /* \"#utility.yul\":1942:1975   */\n      tag_189\n        /* \"#utility.yul\":1970:1974   */\n      dup3\n        /* \"#utility.yul\":1962:1968   */\n      dup3\n        /* \"#utility.yul\":1942:1975   */\n      tag_117\n      jump\t// in\n    tag_189:\n        /* \"#utility.yul\":1852:1981   */\n      swap2\n      swap1\n      pop\n      jump\t// out\n        /* \"#utility.yul\":1987:2295   */\n    tag_119:\n        /* \"#utility.yul\":2049:2053   */\n      0x00\n        /* \"#utility.yul\":2139:2157   */\n      0xffffffffffffffff\n        /* \"#utility.yul\":2131:2137   */\n      dup3\n        /* \"#utility.yul\":2128:2158   */\n      gt\n        /* \"#utility.yul\":2125:2181   */\n      iszero\n      tag_191\n      jumpi\n        /* \"#utility.yul\":2161:2179   */\n      tag_192\n      tag_116\n      jump\t// in\n    tag_192:\n        /* \"#utility.yul\":2125:2181   */\n    tag_191:\n        /* \"#utility.yul\":2199:2228   */\n      tag_193\n        /* \"#utility.yul\":2221:2227   */\n      dup3\n        /* \"#utility.yul\":2199:2228   */\n      tag_115\n      jump\t// in\n    tag_193:\n        /* \"#utility.yul\":2191:2228   */\n      swap1\n      pop\n        /* \"#utility.yul\":2283:2287   */\n      0x20\n        /* \"#utility.yul\":2277:2281   */\n      dup2\n        /* \"#utility.yul\":2273:2288   */\n      add\n        /* \"#utility.yul\":2265:2288   */\n      swap1\n      pop\n        /* \"#utility.yul\":1987:2295   */\n      swap2\n      swap1\n      pop\n      jump\t// out\n        /* \"#utility.yul\":2301:2447   */\n    tag_120:\n        /* \"#utility.yul\":2398:2404   */\n      dup3\n        /* \"#utility.yul\":2393:2396   */\n      dup2\n        /* \"#utility.yul\":2388:2391   */\n      dup4\n        /* \"#utility.yul\":2375:2405   */\n      calldatacopy\n        /* \"#utility.yul\":2439:2440   */\n      0x00\n        /* \"#utility.yul\":2430:2436   */\n      dup4\n        /* \"#utility.yul\":2425:2428   */\n      dup4\n        /* \"#utility.yul\":2421:2437   */\n      add\n        /* \"#utility.yul\":2414:2441   */\n      mstore\n        /* \"#utility.yul\":2301:2447   */\n      pop\n      pop\n      pop\n      jump\t// out\n        /* \"#utility.yul\":2453:2878   */\n    tag_121:\n        /* \"#utility.yul\":2531:2536   */\n      0x00\n        /* \"#utility.yul\":2556:2622   */\n      tag_196\n        /* \"#utility.yul\":2572:2621   */\n      tag_197\n        /* \"#utility.yul\":2614:2620   */\n      dup5\n        /* \"#utility.yul\":2572:2621   */\n      tag_119\n      jump\t// in\n    tag_197:\n        /* \"#utility.yul\":2556:2622   */\n      tag_118\n      jump\t// in\n    tag_196:\n        /* \"#utility.yul\":2547:2622   */\n      swap1\n      pop\n        /* \"#utility.yul\":2645:2651   */\n      dup3\n        /* \"#utility.yul\":2638:2643   */\n      dup2\n        /* \"#utility.yul\":2631:2652   */\n      mstore\n        /* \"#utility.yul\":2683:2687   */\n      0x20\n        /* \"#utility.yul\":2676:2681   */\n      dup2\n        /* \"#utility.yul\":2672:2688   */\n      add\n        /* \"#utility.yul\":2721:2724   */\n      dup5\n        /* \"#utility.yul\":2712:2718   */\n      dup5\n        /* \"#utility.yul\":2707:2710   */\n      dup5\n        /* \"#utility.yul\":2703:2719   */\n      add\n        /* \"#utility.yul\":2700:2725   */\n      gt\n        /* \"#utility.yul\":2697:2809   */\n      iszero\n      tag_198\n      jumpi\n        /* \"#utility.yul\":2728:2807   */\n      tag_199\n      tag_114\n      jump\t// in\n    tag_199:\n        /* \"#utility.yul\":2697:2809   */\n    tag_198:\n        /* \"#utility.yul\":2818:2872   */\n      tag_200\n        /* \"#utility.yul\":2865:2871   */\n      dup5\n        /* \"#utility.yul\":2860:2863   */\n      dup3\n        /* \"#utility.yul\":2855:2858   */\n      dup6\n        /* \"#utility.yul\":2818:2872   */\n      tag_120\n      jump\t// in\n    tag_200:\n        /* \"#utility.yul\":2537:2878   */\n      pop\n        /* \"#utility.yul\":2453:2878   */\n      swap4\n      swap3\n      pop\n      pop\n      pop\n      jump\t// out\n        /* \"#utility.yul\":2898:3238   */\n    tag_122:\n        /* \"#utility.yul\":2954:2959   */\n      0x00\n        /* \"#utility.yul\":3003:3006   */\n      dup3\n        /* \"#utility.yul\":2996:3000   */\n      0x1f\n        /* \"#utility.yul\":2988:2994   */\n      dup4\n        /* \"#utility.yul\":2984:3001   */\n      add\n        /* \"#utility.yul\":2980:3007   */\n      slt\n        /* \"#utility.yul\":2970:3092   */\n      tag_202\n      jumpi\n        /* \"#utility.yul\":3011:3090   */\n      tag_203\n      tag_113\n      jump\t// in\n    tag_203:\n        /* \"#utility.yul\":2970:3092   */\n    tag_202:\n        /* \"#utility.yul\":3128:3134   */\n      dup2\n        /* \"#utility.yul\":3115:3135   */\n      calldataload\n        /* \"#utility.yul\":3153:3232   */\n      tag_204\n        /* \"#utility.yul\":3228:3231   */\n      dup5\n        /* \"#utility.yul\":3220:3226   */\n      dup3\n        /* \"#utility.yul\":3213:3217   */\n      0x20\n        /* \"#utility.yul\":3205:3211   */\n      dup7\n        /* \"#utility.yul\":3201:3218   */\n      add\n        /* \"#utility.yul\":3153:3232   */\n      tag_121\n      jump\t// in\n    tag_204:\n        /* \"#utility.yul\":3144:3232   */\n      swap2\n      pop\n        /* \"#utility.yul\":2960:3238   */\n      pop\n        /* \"#utility.yul\":2898:3238   */\n      swap3\n      swap2\n      pop\n      pop\n      jump\t// out\n        /* \"#utility.yul\":3244:3753   */\n    tag_20:\n        /* \"#utility.yul\":3313:3319   */\n      0x00\n        /* \"#utility.yul\":3362:3364   */\n      0x20\n        /* \"#utility.yul\":3350:3359   */\n      dup3\n        /* \"#utility.yul\":3341:3348   */\n      dup5\n        /* \"#utility.yul\":3337:3360   */\n      sub\n        /* \"#utility.yul\":3333:3365   */\n      slt\n        /* \"#utility.yul\":3330:3449   */\n      iszero\n      tag_206\n      jumpi\n        /* \"#utility.yul\":3368:3447   */\n      tag_207\n      tag_108\n      jump\t// in\n    tag_207:\n        /* \"#utility.yul\":3330:3449   */\n    tag_206:\n        /* \"#utility.yul\":3516:3517   */\n      0x00\n        /* \"#utility.yul\":3505:3514   */\n      dup3\n        /* \"#utility.yul\":3501:3518   */\n      add\n        /* \"#utility.yul\":3488:3519   */\n      calldataload\n        /* \"#utility.yul\":3546:3564   */\n      0xffffffffffffffff\n        /* \"#utility.yul\":3538:3544   */\n      dup2\n        /* \"#utility.yul\":3535:3565   */\n      gt\n        /* \"#utility.yul\":3532:3649   */\n      iszero\n      tag_208\n      jumpi\n        /* \"#utility.yul\":3568:3647   */\n      tag_209\n      tag_109\n      jump\t// in\n    tag_209:\n        /* \"#utility.yul\":3532:3649   */\n    tag_208:\n        /* \"#utility.yul\":3673:3736   */\n      tag_210\n        /* \"#utility.yul\":3728:3735   */\n      dup5\n        /* \"#utility.yul\":3719:3725   */\n      dup3\n        /* \"#utility.yul\":3708:3717   */\n      dup6\n        /* \"#utility.yul\":3704:3726   */\n      add\n        /* \"#utility.yul\":3673:3736   */\n      tag_122\n      jump\t// in\n    tag_210:\n        /* \"#utility.yul\":3663:3736   */\n      swap2\n      pop\n        /* \"#utility.yul\":3459:3746   */\n      pop\n        /* \"#utility.yul\":3244:3753   */\n      swap3\n      swap2\n      pop\n      pop\n      jump\t// out\n        /* \"#utility.yul\":3759:3858   */\n    tag_123:\n        /* \"#utility.yul\":3811:3817   */\n      0x00\n        /* \"#utility.yul\":3845:3850   */\n      dup2\n        /* \"#utility.yul\":3839:3851   */\n      mload\n        /* \"#utility.yul\":3829:3851   */\n      swap1\n      pop\n        /* \"#utility.yul\":3759:3858   */\n      swap2\n      swap1\n      pop\n      jump\t// out\n        /* \"#utility.yul\":3864:4033   */\n    tag_124:\n        /* \"#utility.yul\":3948:3959   */\n      0x00\n        /* \"#utility.yul\":3982:3988   */\n      dup3\n        /* \"#utility.yul\":3977:3980   */\n      dup3\n        /* \"#utility.yul\":3970:3989   */\n      mstore\n        /* \"#utility.yul\":4022:4026   */\n      0x20\n        /* \"#utility.yul\":4017:4020   */\n      dup3\n        /* \"#utility.yul\":4013:4027   */\n      add\n        /* \"#utility.yul\":3998:4027   */\n      swap1\n      pop\n        /* \"#utility.yul\":3864:4033   */\n      swap3\n      swap2\n      pop\n      pop\n      jump\t// out\n        /* \"#utility.yul\":4039:4285   */\n    tag_125:\n        /* \"#utility.yul\":4120:4121   */\n      0x00\n        /* \"#utility.yul\":4130:4243   */\n    tag_214:\n        /* \"#utility.yul\":4144:4150   */\n      dup4\n        /* \"#utility.yul\":4141:4142   */\n      dup2\n        /* \"#utility.yul\":4138:4151   */\n      lt\n        /* \"#utility.yul\":4130:4243   */\n      iszero\n      tag_216\n      jumpi\n        /* \"#utility.yul\":4229:4230   */\n      dup1\n        /* \"#utility.yul\":4224:4227   */\n      dup3\n        /* \"#utility.yul\":4220:4231   */\n      add\n        /* \"#utility.yul\":4214:4232   */\n      mload\n        /* \"#utility.yul\":4210:4211   */\n      dup2\n        /* \"#utility.yul\":4205:4208   */\n      dup5\n        /* \"#utility.yul\":4201:4212   */\n      add\n        /* \"#utility.yul\":4194:4233   */\n      mstore\n        /* \"#utility.yul\":4166:4168   */\n      0x20\n        /* \"#utility.yul\":4163:4164   */\n      dup2\n        /* \"#utility.yul\":4159:4169   */\n      add\n        /* \"#utility.yul\":4154:4169   */\n      swap1\n      pop\n        /* \"#utility.yul\":4130:4243   */\n      jump(tag_214)\n    tag_216:\n        /* \"#utility.yul\":4277:4278   */\n      0x00\n        /* \"#utility.yul\":4268:4274   */\n      dup5\n        /* \"#utility.yul\":4263:4266   */\n      dup5\n        /* \"#utility.yul\":4259:4275   */\n      add\n        /* \"#utility.yul\":4252:4279   */\n      mstore\n        /* \"#utility.yul\":4101:4285   */\n      pop\n        /* \"#utility.yul\":4039:4285   */\n      pop\n      pop\n      pop\n      jump\t// out\n        /* \"#utility.yul\":4291:4668   */\n    tag_126:\n        /* \"#utility.yul\":4379:4382   */\n      0x00\n        /* \"#utility.yul\":4407:4446   */\n      tag_218\n        /* \"#utility.yul\":4440:4445   */\n      dup3\n        /* \"#utility.yul\":4407:4446   */\n      tag_123\n      jump\t// in\n    tag_218:\n        /* \"#utility.yul\":4462:4533   */\n      tag_219\n        /* \"#utility.yul\":4526:4532   */\n      dup2\n        /* \"#utility.yul\":4521:4524   */\n      dup6\n        /* \"#utility.yul\":4462:4533   */\n      tag_124\n      jump\t// in\n    tag_219:\n        /* \"#utility.yul\":4455:4533   */\n      swap4\n      pop\n        /* \"#utility.yul\":4542:4607   */\n      tag_220\n        /* \"#utility.yul\":4600:4606   */\n      dup2\n        /* \"#utility.yul\":4595:4598   */\n      dup6\n        /* \"#utility.yul\":4588:4592   */\n      0x20\n        /* \"#utility.yul\":4581:4586   */\n      dup7\n        /* \"#utility.yul\":4577:4593   */\n      add\n        /* \"#utility.yul\":4542:4607   */\n      tag_125\n      jump\t// in\n    tag_220:\n        /* \"#utility.yul\":4632:4661   */\n      tag_221\n        /* \"#utility.yul\":4654:4660   */\n      dup2\n        /* \"#utility.yul\":4632:4661   */\n      tag_115\n      jump\t// in\n    tag_221:\n        /* \"#utility.yul\":4627:4630   */\n      dup5\n        /* \"#utility.yul\":4623:4662   */\n      add\n        /* \"#utility.yul\":4616:4662   */\n      swap2\n      pop\n        /* \"#utility.yul\":4383:4668   */\n      pop\n        /* \"#utility.yul\":4291:4668   */\n      swap3\n      swap2\n      pop\n      pop\n      jump\t// out\n        /* \"#utility.yul\":4674:4987   */\n    tag_32:\n        /* \"#utility.yul\":4787:4791   */\n      0x00\n        /* \"#utility.yul\":4825:4827   */\n      0x20\n        /* \"#utility.yul\":4814:4823   */\n      dup3\n        /* \"#utility.yul\":4810:4828   */\n      add\n        /* \"#utility.yul\":4802:4828   */\n      swap1\n      pop\n        /* \"#utility.yul\":4874:4883   */\n      dup2\n        /* \"#utility.yul\":4868:4872   */\n      dup2\n        /* \"#utility.yul\":4864:4884   */\n      sub\n        /* \"#utility.yul\":4860:4861   */\n      0x00\n        /* \"#utility.yul\":4849:4858   */\n      dup4\n        /* \"#utility.yul\":4845:4862   */\n      add\n        /* \"#utility.yul\":4838:4885   */\n      mstore\n        /* \"#utility.yul\":4902:4980   */\n      tag_223\n        /* \"#utility.yul\":4975:4979   */\n      dup2\n        /* \"#utility.yul\":4966:4972   */\n      dup5\n        /* \"#utility.yul\":4902:4980   */\n      tag_126\n      jump\t// in\n    tag_223:\n        /* \"#utility.yul\":4894:4980   */\n      swap1\n      pop\n        /* \"#utility.yul\":4674:4987   */\n      swap3\n      swap2\n      pop\n      pop\n      jump\t// out\n        /* \"#utility.yul\":4993:5119   */\n    tag_127:\n        /* \"#utility.yul\":5030:5037   */\n      0x00\n        /* \"#utility.yul\":5070:5112   */\n      0xffffffffffffffffffffffffffffffffffffffff\n        /* \"#utility.yul\":5063:5068   */\n      dup3\n        /* \"#utility.yul\":5059:5113   */\n      and\n        /* \"#utility.yul\":5048:5113   */\n      swap1\n      pop\n        /* \"#utility.yul\":4993:5119   */\n      swap2\n      swap1\n      pop\n      jump\t// out\n        /* \"#utility.yul\":5125:5221   */\n    tag_128:\n        /* \"#utility.yul\":5162:5169   */\n      0x00\n        /* \"#utility.yul\":5191:5215   */\n      tag_226\n        /* \"#utility.yul\":5209:5214   */\n      dup3\n        /* \"#utility.yul\":5191:5215   */\n      tag_127\n      jump\t// in\n    tag_226:\n        /* \"#utility.yul\":5180:5215   */\n      swap1\n      pop\n        /* \"#utility.yul\":5125:5221   */\n      swap2\n      swap1\n      pop\n      jump\t// out\n        /* \"#utility.yul\":5227:5349   */\n    tag_129:\n        /* \"#utility.yul\":5300:5324   */\n      tag_228\n        /* \"#utility.yul\":5318:5323   */\n      dup2\n        /* \"#utility.yul\":5300:5324   */\n      tag_128\n      jump\t// in\n    tag_228:\n        /* \"#utility.yul\":5293:5298   */\n      dup2\n        /* \"#utility.yul\":5290:5325   */\n      eq\n        /* \"#utility.yul\":5280:5343   */\n      tag_229\n      jumpi\n        /* \"#utility.yul\":5339:5340   */\n      0x00\n        /* \"#utility.yul\":5336:5337   */\n      dup1\n        /* \"#utility.yul\":5329:5341   */\n      revert\n        /* \"#utility.yul\":5280:5343   */\n    tag_229:\n        /* \"#utility.yul\":5227:5349   */\n      pop\n      jump\t// out\n        /* \"#utility.yul\":5355:5494   */\n    tag_130:\n        /* \"#utility.yul\":5401:5406   */\n      0x00\n        /* \"#utility.yul\":5439:5445   */\n      dup2\n        /* \"#utility.yul\":5426:5446   */\n      calldataload\n        /* \"#utility.yul\":5417:5446   */\n      swap1\n      pop\n        /* \"#utility.yul\":5455:5488   */\n      tag_231\n        /* \"#utility.yul\":5482:5487   */\n      dup2\n        /* \"#utility.yul\":5455:5488   */\n      tag_129\n      jump\t// in\n    tag_231:\n        /* \"#utility.yul\":5355:5494   */\n      swap3\n      swap2\n      pop\n      pop\n      jump\t// out\n        /* \"#utility.yul\":5500:5829   */\n    tag_46:\n        /* \"#utility.yul\":5559:5565   */\n      0x00\n        /* \"#utility.yul\":5608:5610   */\n      0x20\n        /* \"#utility.yul\":5596:5605   */\n      dup3\n        /* \"#utility.yul\":5587:5594   */\n      dup5\n        /* \"#utility.yul\":5583:5606   */\n      sub\n        /* \"#utility.yul\":5579:5611   */\n      slt\n        /* \"#utility.yul\":5576:5695   */\n      iszero\n      tag_233\n      jumpi\n        /* \"#utility.yul\":5614:5693   */\n      tag_234\n      tag_108\n      jump\t// in\n    tag_234:\n        /* \"#utility.yul\":5576:5695   */\n    tag_233:\n        /* \"#utility.yul\":5734:5735   */\n      0x00\n        /* \"#utility.yul\":5759:5812   */\n      tag_235\n        /* \"#utility.yul\":5804:5811   */\n      dup5\n        /* \"#utility.yul\":5795:5801   */\n      dup3\n        /* \"#utility.yul\":5784:5793   */\n      dup6\n        /* \"#utility.yul\":5780:5802   */\n      add\n        /* \"#utility.yul\":5759:5812   */\n      tag_130\n      jump\t// in\n    tag_235:\n        /* \"#utility.yul\":5749:5812   */\n      swap2\n      pop\n        /* \"#utility.yul\":5705:5822   */\n      pop\n        /* \"#utility.yul\":5500:5829   */\n      swap3\n      swap2\n      pop\n      pop\n      jump\t// out\n        /* \"#utility.yul\":5835:5953   */\n    tag_131:\n        /* \"#utility.yul\":5922:5946   */\n      tag_237\n        /* \"#utility.yul\":5940:5945   */\n      dup2\n        /* \"#utility.yul\":5922:5946   */\n      tag_110\n      jump\t// in\n    tag_237:\n        /* \"#utility.yul\":5917:5920   */\n      dup3\n        /* \"#utility.yul\":5910:5947   */\n      mstore\n        /* \"#utility.yul\":5835:5953   */\n      pop\n      pop\n      jump\t// out\n        /* \"#utility.yul\":5959:6181   */\n    tag_49:\n        /* \"#utility.yul\":6052:6056   */\n      0x00\n        /* \"#utility.yul\":6090:6092   */\n      0x20\n        /* \"#utility.yul\":6079:6088   */\n      dup3\n        /* \"#utility.yul\":6075:6093   */\n      add\n        /* \"#utility.yul\":6067:6093   */\n      swap1\n      pop\n        /* \"#utility.yul\":6103:6174   */\n      tag_239\n        /* \"#utility.yul\":6171:6172   */\n      0x00\n        /* \"#utility.yul\":6160:6169   */\n      dup4\n        /* \"#utility.yul\":6156:6173   */\n      add\n        /* \"#utility.yul\":6147:6153   */\n      dup5\n        /* \"#utility.yul\":6103:6174   */\n      tag_131\n      jump\t// in\n    tag_239:\n        /* \"#utility.yul\":5959:6181   */\n      swap3\n      swap2\n      pop\n      pop\n      jump\t// out\n        /* \"#utility.yul\":6187:6366   */\n    tag_132:\n        /* \"#utility.yul\":6327:6358   */\n      0x50726f6a65637420686173207374696c6c206e6f742065787069726564000000\n        /* \"#utility.yul\":6323:6324   */\n      0x00\n        /* \"#utility.yul\":6315:6321   */\n      dup3\n        /* \"#utility.yul\":6311:6325   */\n      add\n        /* \"#utility.yul\":6304:6359   */\n      mstore\n        /* \"#utility.yul\":6187:6366   */\n      pop\n      jump\t// out\n        /* \"#utility.yul\":6372:6738   */\n    tag_133:\n        /* \"#utility.yul\":6514:6517   */\n      0x00\n        /* \"#utility.yul\":6535:6602   */\n      tag_242\n        /* \"#utility.yul\":6599:6601   */\n      0x1d\n        /* \"#utility.yul\":6594:6597   */\n      dup4\n        /* \"#utility.yul\":6535:6602   */\n      tag_124\n      jump\t// in\n    tag_242:\n        /* \"#utility.yul\":6528:6602   */\n      swap2\n      pop\n        /* \"#utility.yul\":6611:6704   */\n      tag_243\n        /* \"#utility.yul\":6700:6703   */\n      dup3\n        /* \"#utility.yul\":6611:6704   */\n      tag_132\n      jump\t// in\n    tag_243:\n        /* \"#utility.yul\":6729:6731   */\n      0x20\n        /* \"#utility.yul\":6724:6727   */\n      dup3\n        /* \"#utility.yul\":6720:6732   */\n      add\n        /* \"#utility.yul\":6713:6732   */\n      swap1\n      pop\n        /* \"#utility.yul\":6372:6738   */\n      swap2\n      swap1\n      pop\n      jump\t// out\n        /* \"#utility.yul\":6744:7163   */\n    tag_53:\n        /* \"#utility.yul\":6910:6914   */\n      0x00\n        /* \"#utility.yul\":6948:6950   */\n      0x20\n        /* \"#utility.yul\":6937:6946   */\n      dup3\n        /* \"#utility.yul\":6933:6951   */\n      add\n        /* \"#utility.yul\":6925:6951   */\n      swap1\n      pop\n        /* \"#utility.yul\":6997:7006   */\n      dup2\n        /* \"#utility.yul\":6991:6995   */\n      dup2\n        /* \"#utility.yul\":6987:7007   */\n      sub\n        /* \"#utility.yul\":6983:6984   */\n      0x00\n        /* \"#utility.yul\":6972:6981   */\n      dup4\n        /* \"#utility.yul\":6968:6985   */\n      add\n        /* \"#utility.yul\":6961:7008   */\n      mstore\n        /* \"#utility.yul\":7025:7156   */\n      tag_245\n        /* \"#utility.yul\":7151:7155   */\n      dup2\n        /* \"#utility.yul\":7025:7156   */\n      tag_133\n      jump\t// in\n    tag_245:\n        /* \"#utility.yul\":7017:7156   */\n      swap1\n      pop\n        /* \"#utility.yul\":6744:7163   */\n      swap2\n      swap1\n      pop\n      jump\t// out\n        /* \"#utility.yul\":7169:7394   */\n    tag_134:\n        /* \"#utility.yul\":7309:7343   */\n      0x50726f6a6563742068617320616c726561647920726561636865642069747320\n        /* \"#utility.yul\":7305:7306   */\n      0x00\n        /* \"#utility.yul\":7297:7303   */\n      dup3\n        /* \"#utility.yul\":7293:7307   */\n      add\n        /* \"#utility.yul\":7286:7344   */\n      mstore\n        /* \"#utility.yul\":7378:7386   */\n      0x7461726765740000000000000000000000000000000000000000000000000000\n        /* \"#utility.yul\":7373:7375   */\n      0x20\n        /* \"#utility.yul\":7365:7371   */\n      dup3\n        /* \"#utility.yul\":7361:7376   */\n      add\n        /* \"#utility.yul\":7354:7387   */\n      mstore\n        /* \"#utility.yul\":7169:7394   */\n      pop\n      jump\t// out\n        /* \"#utility.yul\":7400:7766   */\n    tag_135:\n        /* \"#utility.yul\":7542:7545   */\n      0x00\n        /* \"#utility.yul\":7563:7630   */\n      tag_248\n        /* \"#utility.yul\":7627:7629   */\n      0x26\n        /* \"#utility.yul\":7622:7625   */\n      dup4\n        /* \"#utility.yul\":7563:7630   */\n      tag_124\n      jump\t// in\n    tag_248:\n        /* \"#utility.yul\":7556:7630   */\n      swap2\n      pop\n        /* \"#utility.yul\":7639:7732   */\n      tag_249\n        /* \"#utility.yul\":7728:7731   */\n      dup3\n        /* \"#utility.yul\":7639:7732   */\n      tag_134\n      jump\t// in\n    tag_249:\n        /* \"#utility.yul\":7757:7759   */\n      0x40\n        /* \"#utility.yul\":7752:7755   */\n      dup3\n        /* \"#utility.yul\":7748:7760   */\n      add\n        /* \"#utility.yul\":7741:7760   */\n      swap1\n      pop\n        /* \"#utility.yul\":7400:7766   */\n      swap2\n      swap1\n      pop\n      jump\t// out\n        /* \"#utility.yul\":7772:8191   */\n    tag_56:\n        /* \"#utility.yul\":7938:7942   */\n      0x00\n        /* \"#utility.yul\":7976:7978   */\n      0x20\n        /* \"#utility.yul\":7965:7974   */\n      dup3\n        /* \"#utility.yul\":7961:7979   */\n      add\n        /* \"#utility.yul\":7953:7979   */\n      swap1\n      pop\n        /* \"#utility.yul\":8025:8034   */\n      dup2\n        /* \"#utility.yul\":8019:8023   */\n      dup2\n        /* \"#utility.yul\":8015:8035   */\n      sub\n        /* \"#utility.yul\":8011:8012   */\n      0x00\n        /* \"#utility.yul\":8000:8009   */\n      dup4\n        /* \"#utility.yul\":7996:8013   */\n      add\n        /* \"#utility.yul\":7989:8036   */\n      mstore\n        /* \"#utility.yul\":8053:8184   */\n      tag_251\n        /* \"#utility.yul\":8179:8183   */\n      dup2\n        /* \"#utility.yul\":8053:8184   */\n      tag_135\n      jump\t// in\n    tag_251:\n        /* \"#utility.yul\":8045:8184   */\n      swap1\n      pop\n        /* \"#utility.yul\":7772:8191   */\n      swap2\n      swap1\n      pop\n      jump\t// out\n        /* \"#utility.yul\":8197:8367   */\n    tag_136:\n        /* \"#utility.yul\":8337:8359   */\n      0x496e73756666696369656e742062616c616e6365000000000000000000000000\n        /* \"#utility.yul\":8333:8334   */\n      0x00\n        /* \"#utility.yul\":8325:8331   */\n      dup3\n        /* \"#utility.yul\":8321:8335   */\n      add\n        /* \"#utility.yul\":8314:8360   */\n      mstore\n        /* \"#utility.yul\":8197:8367   */\n      pop\n      jump\t// out\n        /* \"#utility.yul\":8373:8739   */\n    tag_137:\n        /* \"#utility.yul\":8515:8518   */\n      0x00\n        /* \"#utility.yul\":8536:8603   */\n      tag_254\n        /* \"#utility.yul\":8600:8602   */\n      0x14\n        /* \"#utility.yul\":8595:8598   */\n      dup4\n        /* \"#utility.yul\":8536:8603   */\n      tag_124\n      jump\t// in\n    tag_254:\n        /* \"#utility.yul\":8529:8603   */\n      swap2\n      pop\n        /* \"#utility.yul\":8612:8705   */\n      tag_255\n        /* \"#utility.yul\":8701:8704   */\n      dup3\n        /* \"#utility.yul\":8612:8705   */\n      tag_136\n      jump\t// in\n    tag_255:\n        /* \"#utility.yul\":8730:8732   */\n      0x20\n        /* \"#utility.yul\":8725:8728   */\n      dup3\n        /* \"#utility.yul\":8721:8733   */\n      add\n        /* \"#utility.yul\":8714:8733   */\n      swap1\n      pop\n        /* \"#utility.yul\":8373:8739   */\n      swap2\n      swap1\n      pop\n      jump\t// out\n        /* \"#utility.yul\":8745:9164   */\n    tag_59:\n        /* \"#utility.yul\":8911:8915   */\n      0x00\n        /* \"#utility.yul\":8949:8951   */\n      0x20\n        /* \"#utility.yul\":8938:8947   */\n      dup3\n        /* \"#utility.yul\":8934:8952   */\n      add\n        /* \"#utility.yul\":8926:8952   */\n      swap1\n      pop\n        /* \"#utility.yul\":8998:9007   */\n      dup2\n        /* \"#utility.yul\":8992:8996   */\n      dup2\n        /* \"#utility.yul\":8988:9008   */\n      sub\n        /* \"#utility.yul\":8984:8985   */\n      0x00\n        /* \"#utility.yul\":8973:8982   */\n      dup4\n        /* \"#utility.yul\":8969:8986   */\n      add\n        /* \"#utility.yul\":8962:9009   */\n      mstore\n        /* \"#utility.yul\":9026:9157   */\n      tag_257\n        /* \"#utility.yul\":9152:9156   */\n      dup2\n        /* \"#utility.yul\":9026:9157   */\n      tag_137\n      jump\t// in\n    tag_257:\n        /* \"#utility.yul\":9018:9157   */\n      swap1\n      pop\n        /* \"#utility.yul\":8745:9164   */\n      swap2\n      swap1\n      pop\n      jump\t// out\n        /* \"#utility.yul\":9170:9350   */\n    tag_138:\n        /* \"#utility.yul\":9218:9295   */\n      0x4e487b7100000000000000000000000000000000000000000000000000000000\n        /* \"#utility.yul\":9215:9216   */\n      0x00\n        /* \"#utility.yul\":9208:9296   */\n      mstore\n        /* \"#utility.yul\":9315:9319   */\n      0x11\n        /* \"#utility.yul\":9312:9313   */\n      0x04\n        /* \"#utility.yul\":9305:9320   */\n      mstore\n        /* \"#utility.yul\":9339:9343   */\n      0x24\n        /* \"#utility.yul\":9336:9337   */\n      0x00\n        /* \"#utility.yul\":9329:9344   */\n      revert\n        /* \"#utility.yul\":9356:9550   */\n    tag_61:\n        /* \"#utility.yul\":9396:9400   */\n      0x00\n        /* \"#utility.yul\":9416:9436   */\n      tag_260\n        /* \"#utility.yul\":9434:9435   */\n      dup3\n        /* \"#utility.yul\":9416:9436   */\n      tag_110\n      jump\t// in\n    tag_260:\n        /* \"#utility.yul\":9411:9436   */\n      swap2\n      pop\n        /* \"#utility.yul\":9450:9470   */\n      tag_261\n        /* \"#utility.yul\":9468:9469   */\n      dup4\n        /* \"#utility.yul\":9450:9470   */\n      tag_110\n      jump\t// in\n    tag_261:\n        /* \"#utility.yul\":9445:9470   */\n      swap3\n      pop\n        /* \"#utility.yul\":9494:9495   */\n      dup3\n        /* \"#utility.yul\":9491:9492   */\n      dup3\n        /* \"#utility.yul\":9487:9496   */\n      sub\n        /* \"#utility.yul\":9479:9496   */\n      swap1\n      pop\n        /* \"#utility.yul\":9518:9519   */\n      dup2\n        /* \"#utility.yul\":9512:9516   */\n      dup2\n        /* \"#utility.yul\":9509:9520   */\n      gt\n        /* \"#utility.yul\":9506:9543   */\n      iszero\n      tag_262\n      jumpi\n        /* \"#utility.yul\":9523:9541   */\n      tag_263\n      tag_138\n      jump\t// in\n    tag_263:\n        /* \"#utility.yul\":9506:9543   */\n    tag_262:\n        /* \"#utility.yul\":9356:9550   */\n      swap3\n      swap2\n      pop\n      pop\n      jump\t// out\n        /* \"#utility.yul\":9556:9782   */\n    tag_139:\n        /* \"#utility.yul\":9696:9730   */\n      0x4f6e6c7920746865206f776e65722063616e20736574207468652070726f6a65\n        /* \"#utility.yul\":9692:9693   */\n      0x00\n        /* \"#utility.yul\":9684:9690   */\n      dup3\n        /* \"#utility.yul\":9680:9694   */\n      add\n        /* \"#utility.yul\":9673:9731   */\n      mstore\n        /* \"#utility.yul\":9765:9774   */\n      0x6374206e616d6500000000000000000000000000000000000000000000000000\n        /* \"#utility.yul\":9760:9762   */\n      0x20\n        /* \"#utility.yul\":9752:9758   */\n      dup3\n        /* \"#utility.yul\":9748:9763   */\n      add\n        /* \"#utility.yul\":9741:9775   */\n      mstore\n        /* \"#utility.yul\":9556:9782   */\n      pop\n      jump\t// out\n        /* \"#utility.yul\":9788:10154   */\n    tag_140:\n        /* \"#utility.yul\":9930:9933   */\n      0x00\n        /* \"#utility.yul\":9951:10018   */\n      tag_266\n        /* \"#utility.yul\":10015:10017   */\n      0x27\n        /* \"#utility.yul\":10010:10013   */\n      dup4\n        /* \"#utility.yul\":9951:10018   */\n      tag_124\n      jump\t// in\n    tag_266:\n        /* \"#utility.yul\":9944:10018   */\n      swap2\n      pop\n        /* \"#utility.yul\":10027:10120   */\n      tag_267\n        /* \"#utility.yul\":10116:10119   */\n      dup3\n        /* \"#utility.yul\":10027:10120   */\n      tag_139\n      jump\t// in\n    tag_267:\n        /* \"#utility.yul\":10145:10147   */\n      0x40\n        /* \"#utility.yul\":10140:10143   */\n      dup3\n        /* \"#utility.yul\":10136:10148   */\n      add\n        /* \"#utility.yul\":10129:10148   */\n      swap1\n      pop\n        /* \"#utility.yul\":9788:10154   */\n      swap2\n      swap1\n      pop\n      jump\t// out\n        /* \"#utility.yul\":10160:10579   */\n    tag_67:\n        /* \"#utility.yul\":10326:10330   */\n      0x00\n        /* \"#utility.yul\":10364:10366   */\n      0x20\n        /* \"#utility.yul\":10353:10362   */\n      dup3\n        /* \"#utility.yul\":10349:10367   */\n      add\n        /* \"#utility.yul\":10341:10367   */\n      swap1\n      pop\n        /* \"#utility.yul\":10413:10422   */\n      dup2\n        /* \"#utility.yul\":10407:10411   */\n      dup2\n        /* \"#utility.yul\":10403:10423   */\n      sub\n        /* \"#utility.yul\":10399:10400   */\n      0x00\n        /* \"#utility.yul\":10388:10397   */\n      dup4\n        /* \"#utility.yul\":10384:10401   */\n      add\n        /* \"#utility.yul\":10377:10424   */\n      mstore\n        /* \"#utility.yul\":10441:10572   */\n      tag_269\n        /* \"#utility.yul\":10567:10571   */\n      dup2\n        /* \"#utility.yul\":10441:10572   */\n      tag_140\n      jump\t// in\n    tag_269:\n        /* \"#utility.yul\":10433:10572   */\n      swap1\n      pop\n        /* \"#utility.yul\":10160:10579   */\n      swap2\n      swap1\n      pop\n      jump\t// out\n        /* \"#utility.yul\":10585:10765   */\n    tag_141:\n        /* \"#utility.yul\":10633:10710   */\n      0x4e487b7100000000000000000000000000000000000000000000000000000000\n        /* \"#utility.yul\":10630:10631   */\n      0x00\n        /* \"#utility.yul\":10623:10711   */\n      mstore\n        /* \"#utility.yul\":10730:10734   */\n      0x22\n        /* \"#utility.yul\":10727:10728   */\n      0x04\n        /* \"#utility.yul\":10720:10735   */\n      mstore\n        /* \"#utility.yul\":10754:10758   */\n      0x24\n        /* \"#utility.yul\":10751:10752   */\n      0x00\n        /* \"#utility.yul\":10744:10759   */\n      revert\n        /* \"#utility.yul\":10771:11091   */\n    tag_87:\n        /* \"#utility.yul\":10815:10821   */\n      0x00\n        /* \"#utility.yul\":10852:10853   */\n      0x02\n        /* \"#utility.yul\":10846:10850   */\n      dup3\n        /* \"#utility.yul\":10842:10854   */\n      div\n        /* \"#utility.yul\":10832:10854   */\n      swap1\n      pop\n        /* \"#utility.yul\":10899:10900   */\n      0x01\n        /* \"#utility.yul\":10893:10897   */\n      dup3\n        /* \"#utility.yul\":10889:10901   */\n      and\n        /* \"#utility.yul\":10920:10938   */\n      dup1\n        /* \"#utility.yul\":10910:10991   */\n      tag_272\n      jumpi\n        /* \"#utility.yul\":10976:10980   */\n      0x7f\n        /* \"#utility.yul\":10968:10974   */\n      dup3\n        /* \"#utility.yul\":10964:10981   */\n      and\n        /* \"#utility.yul\":10954:10981   */\n      swap2\n      pop\n        /* \"#utility.yul\":10910:10991   */\n    tag_272:\n        /* \"#utility.yul\":11038:11040   */\n      0x20\n        /* \"#utility.yul\":11030:11036   */\n      dup3\n        /* \"#utility.yul\":11027:11041   */\n      lt\n        /* \"#utility.yul\":11007:11025   */\n      dup2\n        /* \"#utility.yul\":11004:11042   */\n      sub\n        /* \"#utility.yul\":11001:11085   */\n      tag_273\n      jumpi\n        /* \"#utility.yul\":11057:11075   */\n      tag_274\n      tag_141\n      jump\t// in\n    tag_274:\n        /* \"#utility.yul\":11001:11085   */\n    tag_273:\n        /* \"#utility.yul\":10822:11091   */\n      pop\n        /* \"#utility.yul\":10771:11091   */\n      swap2\n      swap1\n      pop\n      jump\t// out\n        /* \"#utility.yul\":11097:11238   */\n    tag_142:\n        /* \"#utility.yul\":11146:11150   */\n      0x00\n        /* \"#utility.yul\":11169:11172   */\n      dup2\n        /* \"#utility.yul\":11161:11172   */\n      swap1\n      pop\n        /* \"#utility.yul\":11192:11195   */\n      dup2\n        /* \"#utility.yul\":11189:11190   */\n      0x00\n        /* \"#utility.yul\":11182:11196   */\n      mstore\n        /* \"#utility.yul\":11226:11230   */\n      0x20\n        /* \"#utility.yul\":11223:11224   */\n      0x00\n        /* \"#utility.yul\":11213:11231   */\n      keccak256\n        /* \"#utility.yul\":11205:11231   */\n      swap1\n      pop\n        /* \"#utility.yul\":11097:11238   */\n      swap2\n      swap1\n      pop\n      jump\t// out\n        /* \"#utility.yul\":11244:11337   */\n    tag_143:\n        /* \"#utility.yul\":11281:11287   */\n      0x00\n        /* \"#utility.yul\":11328:11330   */\n      0x20\n        /* \"#utility.yul\":11323:11325   */\n      0x1f\n        /* \"#utility.yul\":11316:11321   */\n      dup4\n        /* \"#utility.yul\":11312:11326   */\n      add\n        /* \"#utility.yul\":11308:11331   */\n      div\n        /* \"#utility.yul\":11298:11331   */\n      swap1\n      pop\n        /* \"#utility.yul\":11244:11337   */\n      swap2\n      swap1\n      pop\n      jump\t// out\n        /* \"#utility.yul\":11343:11450   */\n    tag_144:\n        /* \"#utility.yul\":11387:11395   */\n      0x00\n        /* \"#utility.yul\":11437:11442   */\n      dup3\n        /* \"#utility.yul\":11431:11435   */\n      dup3\n        /* \"#utility.yul\":11427:11443   */\n      shl\n        /* \"#utility.yul\":11406:11443   */\n      swap1\n      pop\n        /* \"#utility.yul\":11343:11450   */\n      swap3\n      swap2\n      pop\n      pop\n      jump\t// out\n        /* \"#utility.yul\":11456:11849   */\n    tag_145:\n        /* \"#utility.yul\":11525:11531   */\n      0x00\n        /* \"#utility.yul\":11575:11576   */\n      0x08\n        /* \"#utility.yul\":11563:11573   */\n      dup4\n        /* \"#utility.yul\":11559:11577   */\n      mul\n        /* \"#utility.yul\":11598:11695   */\n      tag_279\n        /* \"#utility.yul\":11628:11694   */\n      0xffffffffffffffffffffffffffffffffffffffffffffffffffffffffffffffff\n        /* \"#utility.yul\":11617:11626   */\n      dup3\n        /* \"#utility.yul\":11598:11695   */\n      tag_144\n      jump\t// in\n    tag_279:\n        /* \"#utility.yul\":11716:11755   */\n      tag_280\n        /* \"#utility.yul\":11746:11754   */\n      dup7\n        /* \"#utility.yul\":11735:11744   */\n      dup4\n        /* \"#utility.yul\":11716:11755   */\n      tag_144\n      jump\t// in\n    tag_280:\n        /* \"#utility.yul\":11704:11755   */\n      swap6\n      pop\n        /* \"#utility.yul\":11788:11792   */\n      dup1\n        /* \"#utility.yul\":11784:11793   */\n      not\n        /* \"#utility.yul\":11777:11782   */\n      dup5\n        /* \"#utility.yul\":11773:11794   */\n      and\n        /* \"#utility.yul\":11764:11794   */\n      swap4\n      pop\n        /* \"#utility.yul\":11837:11841   */\n      dup1\n        /* \"#utility.yul\":11827:11835   */\n      dup7\n        /* \"#utility.yul\":11823:11842   */\n      and\n        /* \"#utility.yul\":11816:11821   */\n      dup5\n        /* \"#utility.yul\":11813:11843   */\n      or\n        /* \"#utility.yul\":11803:11843   */\n      swap3\n      pop\n        /* \"#utility.yul\":11532:11849   */\n      pop\n      pop\n        /* \"#utility.yul\":11456:11849   */\n      swap4\n      swap3\n      pop\n      pop\n      pop\n      jump\t// out\n        /* \"#utility.yul\":11855:11915   */\n    tag_146:\n        /* \"#utility.yul\":11883:11886   */\n      0x00\n        /* \"#utility.yul\":11904:11909   */\n      dup2\n        /* \"#utility.yul\":11897:11909   */\n      swap1\n      pop\n        /* \"#utility.yul\":11855:11915   */\n      swap2\n      swap1\n      pop\n      jump\t// out\n        /* \"#utility.yul\":11921:12063   */\n    tag_147:\n        /* \"#utility.yul\":11971:11980   */\n      0x00\n        /* \"#utility.yul\":12004:12057   */\n      tag_283\n        /* \"#utility.yul\":12022:12056   */\n      tag_284\n        /* \"#utility.yul\":12031:12055   */\n      tag_285\n        /* \"#utility.yul\":12049:12054   */\n      dup5\n        /* \"#utility.yul\":12031:12055   */\n      tag_110\n      jump\t// in\n    tag_285:\n        /* \"#utility.yul\":12022:12056   */\n      tag_146\n      jump\t// in\n    tag_284:\n        /* \"#utility.yul\":12004:12057   */\n      tag_110\n      jump\t// in\n    tag_283:\n        /* \"#utility.yul\":11991:12057   */\n      swap1\n      pop\n        /* \"#utility.yul\":11921:12063   */\n      swap2\n      swap1\n      pop\n      jump\t// out\n        /* \"#utility.yul\":12069:12144   */\n    tag_148:\n        /* \"#utility.yul\":12112:12115   */\n      0x00\n        /* \"#utility.yul\":12133:12138   */\n      dup2\n        /* \"#utility.yul\":12126:12138   */\n      swap1\n      pop\n        /* \"#utility.yul\":12069:12144   */\n      swap2\n      swap1\n      pop\n      jump\t// out\n        /* \"#utility.yul\":12150:12419   */\n    tag_149:\n        /* \"#utility.yul\":12260:12299   */\n      tag_288\n        /* \"#utility.yul\":12291:12298   */\n      dup4\n        /* \"#utility.yul\":12260:12299   */\n      tag_147\n      jump\t// in\n    tag_288:\n        /* \"#utility.yul\":12321:12412   */\n      tag_289\n        /* \"#utility.yul\":12370:12411   */\n      tag_290\n        /* \"#utility.yul\":12394:12410   */\n      dup3\n        /* \"#utility.yul\":12370:12411   */\n      tag_148\n      jump\t// in\n    tag_290:\n        /* \"#utility.yul\":12362:12368   */\n      dup5\n        /* \"#utility.yul\":12355:12359   */\n      dup5\n        /* \"#utility.yul\":12349:12360   */\n      sload\n        /* \"#utility.yul\":12321:12412   */\n      tag_145\n      jump\t// in\n    tag_289:\n        /* \"#utility.yul\":12315:12319   */\n      dup3\n        /* \"#utility.yul\":12308:12413   */\n      sstore\n        /* \"#utility.yul\":12226:12419   */\n      pop\n        /* \"#utility.yul\":12150:12419   */\n      pop\n      pop\n      pop\n      jump\t// out\n        /* \"#utility.yul\":12425:12498   */\n    tag_150:\n        /* \"#utility.yul\":12470:12473   */\n      0x00\n        /* \"#utility.yul\":12425:12498   */\n      swap1\n      jump\t// out\n        /* \"#utility.yul\":12504:12693   */\n    tag_151:\n        /* \"#utility.yul\":12581:12613   */\n      tag_293\n      tag_150\n      jump\t// in\n    tag_293:\n        /* \"#utility.yul\":12622:12687   */\n      tag_294\n        /* \"#utility.yul\":12680:12686   */\n      dup2\n        /* \"#utility.yul\":12672:12678   */\n      dup5\n        /* \"#utility.yul\":12666:12670   */\n      dup5\n        /* \"#utility.yul\":12622:12687   */\n      tag_149\n      jump\t// in\n    tag_294:\n        /* \"#utility.yul\":12557:12693   */\n      pop\n        /* \"#utility.yul\":12504:12693   */\n      pop\n      pop\n      jump\t// out\n        /* \"#utility.yul\":12699:12885   */\n    tag_152:\n        /* \"#utility.yul\":12759:12879   */\n    tag_296:\n        /* \"#utility.yul\":12776:12779   */\n      dup2\n        /* \"#utility.yul\":12769:12774   */\n      dup2\n        /* \"#utility.yul\":12766:12780   */\n      lt\n        /* \"#utility.yul\":12759:12879   */\n      iszero\n      tag_298\n      jumpi\n        /* \"#utility.yul\":12830:12869   */\n      tag_299\n        /* \"#utility.yul\":12867:12868   */\n      0x00\n        /* \"#utility.yul\":12860:12865   */\n      dup3\n        /* \"#utility.yul\":12830:12869   */\n      tag_151\n      jump\t// in\n    tag_299:\n        /* \"#utility.yul\":12803:12804   */\n      0x01\n        /* \"#utility.yul\":12796:12801   */\n      dup2\n        /* \"#utility.yul\":12792:12805   */\n      add\n        /* \"#utility.yul\":12783:12805   */\n      swap1\n      pop\n        /* \"#utility.yul\":12759:12879   */\n      jump(tag_296)\n    tag_298:\n        /* \"#utility.yul\":12699:12885   */\n      pop\n      pop\n      jump\t// out\n        /* \"#utility.yul\":12891:13434   */\n    tag_153:\n        /* \"#utility.yul\":12992:12994   */\n      0x1f\n        /* \"#utility.yul\":12987:12990   */\n      dup3\n        /* \"#utility.yul\":12984:12995   */\n      gt\n        /* \"#utility.yul\":12981:13427   */\n      iszero\n      tag_301\n      jumpi\n        /* \"#utility.yul\":13026:13064   */\n      tag_302\n        /* \"#utility.yul\":13058:13063   */\n      dup2\n        /* \"#utility.yul\":13026:13064   */\n      tag_142\n      jump\t// in\n    tag_302:\n        /* \"#utility.yul\":13110:13139   */\n      tag_303\n        /* \"#utility.yul\":13128:13138   */\n      dup5\n        /* \"#utility.yul\":13110:13139   */\n      tag_143\n      jump\t// in\n    tag_303:\n        /* \"#utility.yul\":13100:13108   */\n      dup2\n        /* \"#utility.yul\":13096:13140   */\n      add\n        /* \"#utility.yul\":13293:13295   */\n      0x20\n        /* \"#utility.yul\":13281:13291   */\n      dup6\n        /* \"#utility.yul\":13278:13296   */\n      lt\n        /* \"#utility.yul\":13275:13324   */\n      iszero\n      tag_304\n      jumpi\n        /* \"#utility.yul\":13314:13322   */\n      dup2\n        /* \"#utility.yul\":13299:13322   */\n      swap1\n      pop\n        /* \"#utility.yul\":13275:13324   */\n    tag_304:\n        /* \"#utility.yul\":13337:13417   */\n      tag_305\n        /* \"#utility.yul\":13393:13415   */\n      tag_306\n        /* \"#utility.yul\":13411:13414   */\n      dup6\n        /* \"#utility.yul\":13393:13415   */\n      tag_143\n      jump\t// in\n    tag_306:\n        /* \"#utility.yul\":13383:13391   */\n      dup4\n        /* \"#utility.yul\":13379:13416   */\n      add\n        /* \"#utility.yul\":13366:13377   */\n      dup3\n        /* \"#utility.yul\":13337:13417   */\n      tag_152\n      jump\t// in\n    tag_305:\n        /* \"#utility.yul\":12996:13427   */\n      pop\n      pop\n        /* \"#utility.yul\":12981:13427   */\n    tag_301:\n        /* \"#utility.yul\":12891:13434   */\n      pop\n      pop\n      pop\n      jump\t// out\n        /* \"#utility.yul\":13440:13557   */\n    tag_154:\n        /* \"#utility.yul\":13494:13502   */\n      0x00\n        /* \"#utility.yul\":13544:13549   */\n      dup3\n        /* \"#utility.yul\":13538:13542   */\n      dup3\n        /* \"#utility.yul\":13534:13550   */\n      shr\n        /* \"#utility.yul\":13513:13550   */\n      swap1\n      pop\n        /* \"#utility.yul\":13440:13557   */\n      swap3\n      swap2\n      pop\n      pop\n      jump\t// out\n        /* \"#utility.yul\":13563:13732   */\n    tag_155:\n        /* \"#utility.yul\":13607:13613   */\n      0x00\n        /* \"#utility.yul\":13640:13691   */\n      tag_309\n        /* \"#utility.yul\":13688:13689   */\n      0x00\n        /* \"#utility.yul\":13684:13690   */\n      not\n        /* \"#utility.yul\":13676:13681   */\n      dup5\n        /* \"#utility.yul\":13673:13674   */\n      0x08\n        /* \"#utility.yul\":13669:13682   */\n      mul\n        /* \"#utility.yul\":13640:13691   */\n      tag_154\n      jump\t// in\n    tag_309:\n        /* \"#utility.yul\":13636:13692   */\n      not\n        /* \"#utility.yul\":13721:13725   */\n      dup1\n        /* \"#utility.yul\":13715:13719   */\n      dup4\n        /* \"#utility.yul\":13711:13726   */\n      and\n        /* \"#utility.yul\":13701:13726   */\n      swap2\n      pop\n        /* \"#utility.yul\":13614:13732   */\n      pop\n        /* \"#utility.yul\":13563:13732   */\n      swap3\n      swap2\n      pop\n      pop\n      jump\t// out\n        /* \"#utility.yul\":13737:14032   */\n    tag_156:\n        /* \"#utility.yul\":13813:13817   */\n      0x00\n        /* \"#utility.yul\":13959:13988   */\n      tag_311\n        /* \"#utility.yul\":13984:13987   */\n      dup4\n        /* \"#utility.yul\":13978:13982   */\n      dup4\n        /* \"#utility.yul\":13959:13988   */\n      tag_155\n      jump\t// in\n    tag_311:\n        /* \"#utility.yul\":13951:13988   */\n      swap2\n      pop\n        /* \"#utility.yul\":14021:14024   */\n      dup3\n        /* \"#utility.yul\":14018:14019   */\n      0x02\n        /* \"#utility.yul\":14014:14025   */\n      mul\n        /* \"#utility.yul\":14008:14012   */\n      dup3\n        /* \"#utility.yul\":14005:14026   */\n      or\n        /* \"#utility.yul\":13997:14026   */\n      swap1\n      pop\n        /* \"#utility.yul\":13737:14032   */\n      swap3\n      swap2\n      pop\n      pop\n      jump\t// out\n        /* \"#utility.yul\":14037:15432   */\n    tag_69:\n        /* \"#utility.yul\":14154:14191   */\n      tag_313\n        /* \"#utility.yul\":14187:14190   */\n      dup3\n        /* \"#utility.yul\":14154:14191   */\n      tag_123\n      jump\t// in\n    tag_313:\n        /* \"#utility.yul\":14256:14274   */\n      0xffffffffffffffff\n        /* \"#utility.yul\":14248:14254   */\n      dup2\n        /* \"#utility.yul\":14245:14275   */\n      gt\n        /* \"#utility.yul\":14242:14298   */\n      iszero\n      tag_314\n      jumpi\n        /* \"#utility.yul\":14278:14296   */\n      tag_315\n      tag_116\n      jump\t// in\n    tag_315:\n        /* \"#utility.yul\":14242:14298   */\n    tag_314:\n        /* \"#utility.yul\":14322:14360   */\n      tag_316\n        /* \"#utility.yul\":14354:14358   */\n      dup3\n        /* \"#utility.yul\":14348:14359   */\n      sload\n        /* \"#utility.yul\":14322:14360   */\n      tag_87\n      jump\t// in\n    tag_316:\n        /* \"#utility.yul\":14407:14474   */\n      tag_317\n        /* \"#utility.yul\":14467:14473   */\n      dup3\n        /* \"#utility.yul\":14459:14465   */\n      dup3\n        /* \"#utility.yul\":14453:14457   */\n      dup6\n        /* \"#utility.yul\":14407:14474   */\n      tag_153\n      jump\t// in\n    tag_317:\n        /* \"#utility.yul\":14501:14502   */\n      0x00\n        /* \"#utility.yul\":14525:14529   */\n      0x20\n        /* \"#utility.yul\":14512:14529   */\n      swap1\n      pop\n        /* \"#utility.yul\":14557:14559   */\n      0x1f\n        /* \"#utility.yul\":14549:14555   */\n      dup4\n        /* \"#utility.yul\":14546:14560   */\n      gt\n        /* \"#utility.yul\":14574:14575   */\n      0x01\n        /* \"#utility.yul\":14569:15187   */\n      dup2\n      eq\n      tag_319\n      jumpi\n        /* \"#utility.yul\":15231:15232   */\n      0x00\n        /* \"#utility.yul\":15248:15254   */\n      dup5\n        /* \"#utility.yul\":15245:15322   */\n      iszero\n      tag_320\n      jumpi\n        /* \"#utility.yul\":15297:15306   */\n      dup3\n        /* \"#utility.yul\":15292:15295   */\n      dup8\n        /* \"#utility.yul\":15288:15307   */\n      add\n        /* \"#utility.yul\":15282:15308   */\n      mload\n        /* \"#utility.yul\":15273:15308   */\n      swap1\n      pop\n        /* \"#utility.yul\":15245:15322   */\n    tag_320:\n        /* \"#utility.yul\":15348:15415   */\n      tag_321\n        /* \"#utility.yul\":15408:15414   */\n      dup6\n        /* \"#utility.yul\":15401:15406   */\n      dup3\n        /* \"#utility.yul\":15348:15415   */\n      tag_156\n      jump\t// in\n    tag_321:\n        /* \"#utility.yul\":15342:15346   */\n      dup7\n        /* \"#utility.yul\":15335:15416   */\n      sstore\n        /* \"#utility.yul\":15204:15426   */\n      pop\n        /* \"#utility.yul\":14539:15426   */\n      jump(tag_318)\n        /* \"#utility.yul\":14569:15187   */\n    tag_319:\n        /* \"#utility.yul\":14621:14625   */\n      0x1f\n        /* \"#utility.yul\":14617:14626   */\n      not\n        /* \"#utility.yul\":14609:14615   */\n      dup5\n        /* \"#utility.yul\":14605:14627   */\n      and\n        /* \"#utility.yul\":14655:14692   */\n      tag_322\n        /* \"#utility.yul\":14687:14691   */\n      dup7\n        /* \"#utility.yul\":14655:14692   */\n      tag_142\n      jump\t// in\n    tag_322:\n        /* \"#utility.yul\":14714:14715   */\n      0x00\n        /* \"#utility.yul\":14728:14936   */\n    tag_323:\n        /* \"#utility.yul\":14742:14749   */\n      dup3\n        /* \"#utility.yul\":14739:14740   */\n      dup2\n        /* \"#utility.yul\":14736:14750   */\n      lt\n        /* \"#utility.yul\":14728:14936   */\n      iszero\n      tag_325\n      jumpi\n        /* \"#utility.yul\":14821:14830   */\n      dup5\n        /* \"#utility.yul\":14816:14819   */\n      dup10\n        /* \"#utility.yul\":14812:14831   */\n      add\n        /* \"#utility.yul\":14806:14832   */\n      mload\n        /* \"#utility.yul\":14798:14804   */\n      dup3\n        /* \"#utility.yul\":14791:14833   */\n      sstore\n        /* \"#utility.yul\":14872:14873   */\n      0x01\n        /* \"#utility.yul\":14864:14870   */\n      dup3\n        /* \"#utility.yul\":14860:14874   */\n      add\n        /* \"#utility.yul\":14850:14874   */\n      swap2\n      pop\n        /* \"#utility.yul\":14919:14921   */\n      0x20\n        /* \"#utility.yul\":14908:14917   */\n      dup6\n        /* \"#utility.yul\":14904:14922   */\n      add\n        /* \"#utility.yul\":14891:14922   */\n      swap5\n      pop\n        /* \"#utility.yul\":14765:14769   */\n      0x20\n        /* \"#utility.yul\":14762:14763   */\n      dup2\n        /* \"#utility.yul\":14758:14770   */\n      add\n        /* \"#utility.yul\":14753:14770   */\n      swap1\n      pop\n        /* \"#utility.yul\":14728:14936   */\n      jump(tag_323)\n    tag_325:\n        /* \"#utility.yul\":14964:14970   */\n      dup7\n        /* \"#utility.yul\":14955:14962   */\n      dup4\n        /* \"#utility.yul\":14952:14971   */\n      lt\n        /* \"#utility.yul\":14949:15128   */\n      iszero\n      tag_326\n      jumpi\n        /* \"#utility.yul\":15022:15031   */\n      dup5\n        /* \"#utility.yul\":15017:15020   */\n      dup10\n        /* \"#utility.yul\":15013:15032   */\n      add\n        /* \"#utility.yul\":15007:15033   */\n      mload\n        /* \"#utility.yul\":15065:15113   */\n      tag_327\n        /* \"#utility.yul\":15107:15111   */\n      0x1f\n        /* \"#utility.yul\":15099:15105   */\n      dup10\n        /* \"#utility.yul\":15095:15112   */\n      and\n        /* \"#utility.yul\":15084:15093   */\n      dup3\n        /* \"#utility.yul\":15065:15113   */\n      tag_155\n      jump\t// in\n    tag_327:\n        /* \"#utility.yul\":15057:15063   */\n      dup4\n        /* \"#utility.yul\":15050:15114   */\n      sstore\n        /* \"#utility.yul\":14972:15128   */\n      pop\n        /* \"#utility.yul\":14949:15128   */\n    tag_326:\n        /* \"#utility.yul\":15174:15175   */\n      0x01\n        /* \"#utility.yul\":15170:15171   */\n      0x02\n        /* \"#utility.yul\":15162:15168   */\n      dup9\n        /* \"#utility.yul\":15158:15172   */\n      mul\n        /* \"#utility.yul\":15154:15176   */\n      add\n        /* \"#utility.yul\":15148:15152   */\n      dup9\n        /* \"#utility.yul\":15141:15177   */\n      sstore\n        /* \"#utility.yul\":14576:15187   */\n      pop\n      pop\n      pop\n        /* \"#utility.yul\":14539:15426   */\n    tag_318:\n      pop\n        /* \"#utility.yul\":14129:15432   */\n      pop\n      pop\n      pop\n        /* \"#utility.yul\":14037:15432   */\n      pop\n      pop\n      jump\t// out\n        /* \"#utility.yul\":15438:15663   */\n    tag_157:\n        /* \"#utility.yul\":15578:15612   */\n      0x50726f6a65637420686173206661696c656420746f2072656163682069747320\n        /* \"#utility.yul\":15574:15575   */\n      0x00\n        /* \"#utility.yul\":15566:15572   */\n      dup3\n        /* \"#utility.yul\":15562:15576   */\n      add\n        /* \"#utility.yul\":15555:15613   */\n      mstore\n        /* \"#utility.yul\":15647:15655   */\n      0x7461726765740000000000000000000000000000000000000000000000000000\n        /* \"#utility.yul\":15642:15644   */\n      0x20\n        /* \"#utility.yul\":15634:15640   */\n      dup3\n        /* \"#utility.yul\":15630:15645   */\n      add\n        /* \"#utility.yul\":15623:15656   */\n      mstore\n        /* \"#utility.yul\":15438:15663   */\n      pop\n      jump\t// out\n        /* \"#utility.yul\":15669:16035   */\n    tag_158:\n        /* \"#utility.yul\":15811:15814   */\n      0x00\n        /* \"#utility.yul\":15832:15899   */\n      tag_330\n        /* \"#utility.yul\":15896:15898   */\n      0x26\n        /* \"#utility.yul\":15891:15894   */\n      dup4\n        /* \"#utility.yul\":15832:15899   */\n      tag_124\n      jump\t// in\n    tag_330:\n        /* \"#utility.yul\":15825:15899   */\n      swap2\n      pop\n        /* \"#utility.yul\":15908:16001   */\n      tag_331\n        /* \"#utility.yul\":15997:16000   */\n      dup3\n        /* \"#utility.yul\":15908:16001   */\n      tag_157\n      jump\t// in\n    tag_331:\n        /* \"#utility.yul\":16026:16028   */\n      0x40\n        /* \"#utility.yul\":16021:16024   */\n      dup3\n        /* \"#utility.yul\":16017:16029   */\n      add\n        /* \"#utility.yul\":16010:16029   */\n      swap1\n      pop\n        /* \"#utility.yul\":15669:16035   */\n      swap2\n      swap1\n      pop\n      jump\t// out\n        /* \"#utility.yul\":16041:16460   */\n    tag_75:\n        /* \"#utility.yul\":16207:16211   */\n      0x00\n        /* \"#utility.yul\":16245:16247   */\n      0x20\n        /* \"#utility.yul\":16234:16243   */\n      dup3\n        /* \"#utility.yul\":16230:16248   */\n      add\n        /* \"#utility.yul\":16222:16248   */\n      swap1\n      pop\n        /* \"#utility.yul\":16294:16303   */\n      dup2\n        /* \"#utility.yul\":16288:16292   */\n      dup2\n        /* \"#utility.yul\":16284:16304   */\n      sub\n        /* \"#utility.yul\":16280:16281   */\n      0x00\n        /* \"#utility.yul\":16269:16278   */\n      dup4\n        /* \"#utility.yul\":16265:16282   */\n      add\n        /* \"#utility.yul\":16258:16305   */\n      mstore\n        /* \"#utility.yul\":16322:16453   */\n      tag_333\n        /* \"#utility.yul\":16448:16452   */\n      dup2\n        /* \"#utility.yul\":16322:16453   */\n      tag_158\n      jump\t// in\n    tag_333:\n        /* \"#utility.yul\":16314:16453   */\n      swap1\n      pop\n        /* \"#utility.yul\":16041:16460   */\n      swap2\n      swap1\n      pop\n      jump\t// out\n        /* \"#utility.yul\":16466:16687   */\n    tag_159:\n        /* \"#utility.yul\":16606:16640   */\n      0x4f6e6c7920746865206f776e65722063616e20636c61696d20746865206d6f6e\n        /* \"#utility.yul\":16602:16603   */\n      0x00\n        /* \"#utility.yul\":16594:16600   */\n      dup3\n        /* \"#utility.yul\":16590:16604   */\n      add\n        /* \"#utility.yul\":16583:16641   */\n      mstore\n        /* \"#utility.yul\":16675:16679   */\n      0x6579000000000000000000000000000000000000000000000000000000000000\n        /* \"#utility.yul\":16670:16672   */\n      0x20\n        /* \"#utility.yul\":16662:16668   */\n      dup3\n        /* \"#utility.yul\":16658:16673   */\n      add\n        /* \"#utility.yul\":16651:16680   */\n      mstore\n        /* \"#utility.yul\":16466:16687   */\n      pop\n      jump\t// out\n        /* \"#utility.yul\":16693:17059   */\n    tag_160:\n        /* \"#utility.yul\":16835:16838   */\n      0x00\n        /* \"#utility.yul\":16856:16923   */\n      tag_336\n        /* \"#utility.yul\":16920:16922   */\n      0x22\n        /* \"#utility.yul\":16915:16918   */\n      dup4\n        /* \"#utility.yul\":16856:16923   */\n      tag_124\n      jump\t// in\n    tag_336:\n        /* \"#utility.yul\":16849:16923   */\n      swap2\n      pop\n        /* \"#utility.yul\":16932:17025   */\n      tag_337\n        /* \"#utility.yul\":17021:17024   */\n      dup3\n        /* \"#utility.yul\":16932:17025   */\n      tag_159\n      jump\t// in\n    tag_337:\n        /* \"#utility.yul\":17050:17052   */\n      0x40\n        /* \"#utility.yul\":17045:17048   */\n      dup3\n        /* \"#utility.yul\":17041:17053   */\n      add\n        /* \"#utility.yul\":17034:17053   */\n      swap1\n      pop\n        /* \"#utility.yul\":16693:17059   */\n      swap2\n      swap1\n      pop\n      jump\t// out\n        /* \"#utility.yul\":17065:17484   */\n    tag_78:\n        /* \"#utility.yul\":17231:17235   */\n      0x00\n        /* \"#utility.yul\":17269:17271   */\n      0x20\n        /* \"#utility.yul\":17258:17267   */\n      dup3\n        /* \"#utility.yul\":17254:17272   */\n      add\n        /* \"#utility.yul\":17246:17272   */\n      swap1\n      pop\n        /* \"#utility.yul\":17318:17327   */\n      dup2\n        /* \"#utility.yul\":17312:17316   */\n      dup2\n        /* \"#utility.yul\":17308:17328   */\n      sub\n        /* \"#utility.yul\":17304:17305   */\n      0x00\n        /* \"#utility.yul\":17293:17302   */\n      dup4\n        /* \"#utility.yul\":17289:17306   */\n      add\n        /* \"#utility.yul\":17282:17329   */\n      mstore\n        /* \"#utility.yul\":17346:17477   */\n      tag_339\n        /* \"#utility.yul\":17472:17476   */\n      dup2\n        /* \"#utility.yul\":17346:17477   */\n      tag_160\n      jump\t// in\n    tag_339:\n        /* \"#utility.yul\":17338:17477   */\n      swap1\n      pop\n        /* \"#utility.yul\":17065:17484   */\n      swap2\n      swap1\n      pop\n      jump\t// out\n        /* \"#utility.yul\":17490:17716   */\n    tag_161:\n        /* \"#utility.yul\":17630:17664   */\n      0x4f6e6c7920746865206f776e65722063616e2064657374726f79207468652063\n        /* \"#utility.yul\":17626:17627   */\n      0x00\n        /* \"#utility.yul\":17618:17624   */\n      dup3\n        /* \"#utility.yul\":17614:17628   */\n      add\n        /* \"#utility.yul\":17607:17665   */\n      mstore\n        /* \"#utility.yul\":17699:17708   */\n      0x6f6e747261637400000000000000000000000000000000000000000000000000\n        /* \"#utility.yul\":17694:17696   */\n      0x20\n        /* \"#utility.yul\":17686:17692   */\n      dup3\n        /* \"#utility.yul\":17682:17697   */\n      add\n        /* \"#utility.yul\":17675:17709   */\n      mstore\n        /* \"#utility.yul\":17490:17716   */\n      pop\n      jump\t// out\n        /* \"#utility.yul\":17722:18088   */\n    tag_162:\n        /* \"#utility.yul\":17864:17867   */\n      0x00\n        /* \"#utility.yul\":17885:17952   */\n      tag_342\n        /* \"#utility.yul\":17949:17951   */\n      0x27\n        /* \"#utility.yul\":17944:17947   */\n      dup4\n        /* \"#utility.yul\":17885:17952   */\n      tag_124\n      jump\t// in\n    tag_342:\n        /* \"#utility.yul\":17878:17952   */\n      swap2\n      pop\n        /* \"#utility.yul\":17961:18054   */\n      tag_343\n        /* \"#utility.yul\":18050:18053   */\n      dup3\n        /* \"#utility.yul\":17961:18054   */\n      tag_161\n      jump\t// in\n    tag_343:\n        /* \"#utility.yul\":18079:18081   */\n      0x40\n        /* \"#utility.yul\":18074:18077   */\n      dup3\n        /* \"#utility.yul\":18070:18082   */\n      add\n        /* \"#utility.yul\":18063:18082   */\n      swap1\n      pop\n        /* \"#utility.yul\":17722:18088   */\n      swap2\n      swap1\n      pop\n      jump\t// out\n        /* \"#utility.yul\":18094:18513   */\n    tag_84:\n        /* \"#utility.yul\":18260:18264   */\n      0x00\n        /* \"#utility.yul\":18298:18300   */\n      0x20\n        /* \"#utility.yul\":18287:18296   */\n      dup3\n        /* \"#utility.yul\":18283:18301   */\n      add\n        /* \"#utility.yul\":18275:18301   */\n      swap1\n      pop\n        /* \"#utility.yul\":18347:18356   */\n      dup2\n        /* \"#utility.yul\":18341:18345   */\n      dup2\n        /* \"#utility.yul\":18337:18357   */\n      sub\n        /* \"#utility.yul\":18333:18334   */\n      0x00\n        /* \"#utility.yul\":18322:18331   */\n      dup4\n        /* \"#utility.yul\":18318:18335   */\n      add\n        /* \"#utility.yul\":18311:18358   */\n      mstore\n        /* \"#utility.yul\":18375:18506   */\n      tag_345\n        /* \"#utility.yul\":18501:18505   */\n      dup2\n        /* \"#utility.yul\":18375:18506   */\n      tag_162\n      jump\t// in\n    tag_345:\n        /* \"#utility.yul\":18367:18506   */\n      swap1\n      pop\n        /* \"#utility.yul\":18094:18513   */\n      swap2\n      swap1\n      pop\n      jump\t// out\n        /* \"#utility.yul\":18519:18752   */\n    tag_163:\n        /* \"#utility.yul\":18659:18693   */\n      0x4f6e6c7920746865206f776e65722063616e20736574207468652070726f6a65\n        /* \"#utility.yul\":18655:18656   */\n      0x00\n        /* \"#utility.yul\":18647:18653   */\n      dup3\n        /* \"#utility.yul\":18643:18657   */\n      add\n        /* \"#utility.yul\":18636:18694   */\n      mstore\n        /* \"#utility.yul\":18728:18744   */\n      0x6374206465736372697074696f6e000000000000000000000000000000000000\n        /* \"#utility.yul\":18723:18725   */\n      0x20\n        /* \"#utility.yul\":18715:18721   */\n      dup3\n        /* \"#utility.yul\":18711:18726   */\n      add\n        /* \"#utility.yul\":18704:18745   */\n      mstore\n        /* \"#utility.yul\":18519:18752   */\n      pop\n      jump\t// out\n        /* \"#utility.yul\":18758:19124   */\n    tag_164:\n        /* \"#utility.yul\":18900:18903   */\n      0x00\n        /* \"#utility.yul\":18921:18988   */\n      tag_348\n        /* \"#utility.yul\":18985:18987   */\n      0x2e\n        /* \"#utility.yul\":18980:18983   */\n      dup4\n        /* \"#utility.yul\":18921:18988   */\n      tag_124\n      jump\t// in\n    tag_348:\n        /* \"#utility.yul\":18914:18988   */\n      swap2\n      pop\n        /* \"#utility.yul\":18997:19090   */\n      tag_349\n        /* \"#utility.yul\":19086:19089   */\n      dup3\n        /* \"#utility.yul\":18997:19090   */\n      tag_163\n      jump\t// in\n    tag_349:\n        /* \"#utility.yul\":19115:19117   */\n      0x40\n        /* \"#utility.yul\":19110:19113   */\n      dup3\n        /* \"#utility.yul\":19106:19118   */\n      add\n        /* \"#utility.yul\":19099:19118   */\n      swap1\n      pop\n        /* \"#utility.yul\":18758:19124   */\n      swap2\n      swap1\n      pop\n      jump\t// out\n        /* \"#utility.yul\":19130:19549   */\n    tag_101:\n        /* \"#utility.yul\":19296:19300   */\n      0x00\n        /* \"#utility.yul\":19334:19336   */\n      0x20\n        /* \"#utility.yul\":19323:19332   */\n      dup3\n        /* \"#utility.yul\":19319:19337   */\n      add\n        /* \"#utility.yul\":19311:19337   */\n      swap1\n      pop\n        /* \"#utility.yul\":19383:19392   */\n      dup2\n        /* \"#utility.yul\":19377:19381   */\n      dup2\n        /* \"#utility.yul\":19373:19393   */\n      sub\n        /* \"#utility.yul\":19369:19370   */\n      0x00\n        /* \"#utility.yul\":19358:19367   */\n      dup4\n        /* \"#utility.yul\":19354:19371   */\n      add\n        /* \"#utility.yul\":19347:19394   */\n      mstore\n        /* \"#utility.yul\":19411:19542   */\n      tag_351\n        /* \"#utility.yul\":19537:19541   */\n      dup2\n        /* \"#utility.yul\":19411:19542   */\n      tag_164\n      jump\t// in\n    tag_351:\n        /* \"#utility.yul\":19403:19542   */\n      swap1\n      pop\n        /* \"#utility.yul\":19130:19549   */\n      swap2\n      swap1\n      pop\n      jump\t// out\n        /* \"#utility.yul\":19555:19746   */\n    tag_105:\n        /* \"#utility.yul\":19595:19598   */\n      0x00\n        /* \"#utility.yul\":19614:19634   */\n      tag_353\n        /* \"#utility.yul\":19632:19633   */\n      dup3\n        /* \"#utility.yul\":19614:19634   */\n      tag_110\n      jump\t// in\n    tag_353:\n        /* \"#utility.yul\":19609:19634   */\n      swap2\n      pop\n        /* \"#utility.yul\":19648:19668   */\n      tag_354\n        /* \"#utility.yul\":19666:19667   */\n      dup4\n        /* \"#utility.yul\":19648:19668   */\n      tag_110\n      jump\t// in\n    tag_354:\n        /* \"#utility.yul\":19643:19668   */\n      swap3\n      pop\n        /* \"#utility.yul\":19691:19692   */\n      dup3\n        /* \"#utility.yul\":19688:19689   */\n      dup3\n        /* \"#utility.yul\":19684:19693   */\n      add\n        /* \"#utility.yul\":19677:19693   */\n      swap1\n      pop\n        /* \"#utility.yul\":19712:19715   */\n      dup1\n        /* \"#utility.yul\":19709:19710   */\n      dup3\n        /* \"#utility.yul\":19706:19716   */\n      gt\n        /* \"#utility.yul\":19703:19739   */\n      iszero\n      tag_355\n      jumpi\n        /* \"#utility.yul\":19719:19737   */\n      tag_356\n      tag_138\n      jump\t// in\n    tag_356:\n        /* \"#utility.yul\":19703:19739   */\n    tag_355:\n        /* \"#utility.yul\":19555:19746   */\n      swap3\n      swap2\n      pop\n      pop\n      jump\t// out\n\n    auxdata: 0xa2646970667358221220aff9fdd5aeec20e51f564c7abb8a4aadb3534c101a2ebc4ad6acb7c91b3c718664736f6c63430008160033\n}\n",
				"bytecode": {
					"linkReferences": {},
					"object": "608060405234801562000010575f80fd5b5060405162001a4138038062001a418339818101604052810190620000369190620002c2565b825f806101000a81548173ffffffffffffffffffffffffffffffffffffffff021916908373ffffffffffffffffffffffffffffffffffffffff160217905550816001908162000086919062000568565b50804262000095919062000679565b600581905550505050620006b3565b5f604051905090565b5f80fd5b5f80fd5b5f73ffffffffffffffffffffffffffffffffffffffff82169050919050565b5f620000e082620000b5565b9050919050565b620000f281620000d4565b8114620000fd575f80fd5b50565b5f815190506200011081620000e7565b92915050565b5f80fd5b5f80fd5b5f601f19601f8301169050919050565b7f4e487b71000000000000000000000000000000000000000000000000000000005f52604160045260245ffd5b62000166826200011e565b810181811067ffffffffffffffff821117156200018857620001876200012e565b5b80604052505050565b5f6200019c620000a4565b9050620001aa82826200015b565b919050565b5f67ffffffffffffffff821115620001cc57620001cb6200012e565b5b620001d7826200011e565b9050602081019050919050565b5f5b8381101562000203578082015181840152602081019050620001e6565b5f8484015250505050565b5f620002246200021e84620001af565b62000191565b9050828152602081018484840111156200024357620002426200011a565b5b62000250848285620001e4565b509392505050565b5f82601f8301126200026f576200026e62000116565b5b8151620002818482602086016200020e565b91505092915050565b5f819050919050565b6200029e816200028a565b8114620002a9575f80fd5b50565b5f81519050620002bc8162000293565b92915050565b5f805f60608486031215620002dc57620002db620000ad565b5b5f620002eb8682870162000100565b935050602084015167ffffffffffffffff8111156200030f576200030e620000b1565b5b6200031d8682870162000258565b92505060406200033086828701620002ac565b9150509250925092565b5f81519050919050565b7f4e487b71000000000000000000000000000000000000000000000000000000005f52602260045260245ffd5b5f60028204905060018216806200038957607f821691505b6020821081036200039f576200039e62000344565b5b50919050565b5f819050815f5260205f209050919050565b5f6020601f8301049050919050565b5f82821b905092915050565b5f60088302620004037fffffffffffffffffffffffffffffffffffffffffffffffffffffffffffffffff82620003c6565b6200040f8683620003c6565b95508019841693508086168417925050509392505050565b5f819050919050565b5f620004506200044a62000444846200028a565b62000427565b6200028a565b9050919050565b5f819050919050565b6200046b8362000430565b620004836200047a8262000457565b848454620003d2565b825550505050565b5f90565b620004996200048b565b620004a681848462000460565b505050565b5b81811015620004cd57620004c15f826200048f565b600181019050620004ac565b5050565b601f8211156200051c57620004e681620003a5565b620004f184620003b7565b8101602085101562000501578190505b620005196200051085620003b7565b830182620004ab565b50505b505050565b5f82821c905092915050565b5f6200053e5f198460080262000521565b1980831691505092915050565b5f6200055883836200052d565b9150826002028217905092915050565b62000573826200033a565b67ffffffffffffffff8111156200058f576200058e6200012e565b5b6200059b825462000371565b620005a8828285620004d1565b5f60209050601f831160018114620005de575f8415620005c9578287015190505b620005d585826200054b565b86555062000644565b601f198416620005ee86620003a5565b5f5b828110156200061757848901518255600182019150602085019450602081019050620005f0565b8683101562000637578489015162000633601f8916826200052d565b8355505b6001600288020188555050505b505050505050565b7f4e487b71000000000000000000000000000000000000000000000000000000005f52601160045260245ffd5b5f62000685826200028a565b915062000692836200028a565b9250828201905080821115620006ad57620006ac6200064c565b5b92915050565b61138080620006c15f395ff3fe608060405260043610610085575f3560e01c8063968b4fe911610058578063968b4fe9146101055780639faf62151461012f578063c4f6b0fa14610159578063d0e30db014610181578063e3d670d71461018b57610085565b80632e1a7d4d1461008957806348b6b16f146100b15780636658e52b146100d957806383197ef0146100ef575b5f80fd5b348015610094575f80fd5b506100af60048036038101906100aa91906108d5565b6101c7565b005b3480156100bc575f80fd5b506100d760048036038101906100d29190610a3c565b61036c565b005b3480156100e4575f80fd5b506100ed61040c565b005b3480156100fa575f80fd5b5061010361058a565b005b348015610110575f80fd5b5061011961064f565b6040516101269190610afd565b60405180910390f35b34801561013a575f80fd5b506101436106df565b6040516101509190610afd565b60405180910390f35b348015610164575f80fd5b5061017f600480360381019061017a9190610a3c565b61076f565b005b61018961080f565b005b348015610196575f80fd5b506101b160048036038101906101ac9190610b77565b61087c565b6040516101be9190610bb1565b60405180910390f35b60055442101561020c576040517f08c379a000000000000000000000000000000000000000000000000000000000815260040161020390610c14565b60405180910390fd5b60035460045410610252576040517f08c379a000000000000000000000000000000000000000000000000000000000815260040161024990610ca2565b60405180910390fd5b8060065f3373ffffffffffffffffffffffffffffffffffffffff1673ffffffffffffffffffffffffffffffffffffffff1681526020019081526020015f205410156102d2576040517f08c379a00000000000000000000000000000000000000000000000000000000081526004016102c990610d0a565b60405180910390fd5b8060065f3373ffffffffffffffffffffffffffffffffffffffff1673ffffffffffffffffffffffffffffffffffffffff1681526020019081526020015f205f82825461031e9190610d55565b925050819055503373ffffffffffffffffffffffffffffffffffffffff166108fc8290811502906040515f60405180830381858888f19350505050158015610368573d5f803e3d5ffd5b5050565b5f8054906101000a900473ffffffffffffffffffffffffffffffffffffffff1673ffffffffffffffffffffffffffffffffffffffff163373ffffffffffffffffffffffffffffffffffffffff16146103f9576040517f08c379a00000000000000000000000000000000000000000000000000000000081526004016103f090610df8565b60405180910390fd5b80600190816104089190611010565b5050565b600554421015610451576040517f08c379a000000000000000000000000000000000000000000000000000000000815260040161044890610c14565b60405180910390fd5b6003546004541015610498576040517f08c379a000000000000000000000000000000000000000000000000000000000815260040161048f9061114f565b60405180910390fd5b5f8054906101000a900473ffffffffffffffffffffffffffffffffffffffff1673ffffffffffffffffffffffffffffffffffffffff163373ffffffffffffffffffffffffffffffffffffffff1614610525576040517f08c379a000000000000000000000000000000000000000000000000000000000815260040161051c906111dd565b60405180910390fd5b5f8054906101000a900473ffffffffffffffffffffffffffffffffffffffff1673ffffffffffffffffffffffffffffffffffffffff166108fc4790811502906040515f60405180830381858888f19350505050158015610587573d5f803e3d5ffd5b50565b5f8054906101000a900473ffffffffffffffffffffffffffffffffffffffff1673ffffffffffffffffffffffffffffffffffffffff163373ffffffffffffffffffffffffffffffffffffffff1614610617576040517f08c379a000000000000000000000000000000000000000000000000000000000815260040161060e9061126b565b60405180910390fd5b5f8054906101000a900473ffffffffffffffffffffffffffffffffffffffff1673ffffffffffffffffffffffffffffffffffffffff16ff5b60606002805461065e90610e43565b80601f016020809104026020016040519081016040528092919081815260200182805461068a90610e43565b80156106d55780601f106106ac576101008083540402835291602001916106d5565b820191905f5260205f20905b8154815290600101906020018083116106b857829003601f168201915b5050505050905090565b6060600180546106ee90610e43565b80601f016020809104026020016040519081016040528092919081815260200182805461071a90610e43565b80156107655780601f1061073c57610100808354040283529160200191610765565b820191905f5260205f20905b81548152906001019060200180831161074857829003601f168201915b5050505050905090565b5f8054906101000a900473ffffffffffffffffffffffffffffffffffffffff1673ffffffffffffffffffffffffffffffffffffffff163373ffffffffffffffffffffffffffffffffffffffff16146107fc576040517f08c379a00000000000000000000000000000000000000000000000000000000081526004016107f3906112f9565b60405180910390fd5b806002908161080b9190611010565b5050565b3460065f3373ffffffffffffffffffffffffffffffffffffffff1673ffffffffffffffffffffffffffffffffffffffff1681526020019081526020015f205f82825461085b9190611317565b925050819055503460045f8282546108739190611317565b92505081905550565b6006602052805f5260405f205f915090505481565b5f604051905090565b5f80fd5b5f80fd5b5f819050919050565b6108b4816108a2565b81146108be575f80fd5b50565b5f813590506108cf816108ab565b92915050565b5f602082840312156108ea576108e961089a565b5b5f6108f7848285016108c1565b91505092915050565b5f80fd5b5f80fd5b5f601f19601f8301169050919050565b7f4e487b71000000000000000000000000000000000000000000000000000000005f52604160045260245ffd5b61094e82610908565b810181811067ffffffffffffffff8211171561096d5761096c610918565b5b80604052505050565b5f61097f610891565b905061098b8282610945565b919050565b5f67ffffffffffffffff8211156109aa576109a9610918565b5b6109b382610908565b9050602081019050919050565b828183375f83830152505050565b5f6109e06109db84610990565b610976565b9050828152602081018484840111156109fc576109fb610904565b5b610a078482856109c0565b509392505050565b5f82601f830112610a2357610a22610900565b5b8135610a338482602086016109ce565b91505092915050565b5f60208284031215610a5157610a5061089a565b5b5f82013567ffffffffffffffff811115610a6e57610a6d61089e565b5b610a7a84828501610a0f565b91505092915050565b5f81519050919050565b5f82825260208201905092915050565b5f5b83811015610aba578082015181840152602081019050610a9f565b5f8484015250505050565b5f610acf82610a83565b610ad98185610a8d565b9350610ae9818560208601610a9d565b610af281610908565b840191505092915050565b5f6020820190508181035f830152610b158184610ac5565b905092915050565b5f73ffffffffffffffffffffffffffffffffffffffff82169050919050565b5f610b4682610b1d565b9050919050565b610b5681610b3c565b8114610b60575f80fd5b50565b5f81359050610b7181610b4d565b92915050565b5f60208284031215610b8c57610b8b61089a565b5b5f610b9984828501610b63565b91505092915050565b610bab816108a2565b82525050565b5f602082019050610bc45f830184610ba2565b92915050565b7f50726f6a65637420686173207374696c6c206e6f7420657870697265640000005f82015250565b5f610bfe601d83610a8d565b9150610c0982610bca565b602082019050919050565b5f6020820190508181035f830152610c2b81610bf2565b9050919050565b7f50726f6a6563742068617320616c7265616479207265616368656420697473205f8201527f7461726765740000000000000000000000000000000000000000000000000000602082015250565b5f610c8c602683610a8d565b9150610c9782610c32565b604082019050919050565b5f6020820190508181035f830152610cb981610c80565b9050919050565b7f496e73756666696369656e742062616c616e63650000000000000000000000005f82015250565b5f610cf4601483610a8d565b9150610cff82610cc0565b602082019050919050565b5f6020820190508181035f830152610d2181610ce8565b9050919050565b7f4e487b71000000000000000000000000000000000000000000000000000000005f52601160045260245ffd5b5f610d5f826108a2565b9150610d6a836108a2565b9250828203905081811115610d8257610d81610d28565b5b92915050565b7f4f6e6c7920746865206f776e65722063616e20736574207468652070726f6a655f8201527f6374206e616d6500000000000000000000000000000000000000000000000000602082015250565b5f610de2602783610a8d565b9150610ded82610d88565b604082019050919050565b5f6020820190508181035f830152610e0f81610dd6565b9050919050565b7f4e487b71000000000000000000000000000000000000000000000000000000005f52602260045260245ffd5b5f6002820490506001821680610e5a57607f821691505b602082108103610e6d57610e6c610e16565b5b50919050565b5f819050815f5260205f209050919050565b5f6020601f8301049050919050565b5f82821b905092915050565b5f60088302610ecf7fffffffffffffffffffffffffffffffffffffffffffffffffffffffffffffffff82610e94565b610ed98683610e94565b95508019841693508086168417925050509392505050565b5f819050919050565b5f610f14610f0f610f0a846108a2565b610ef1565b6108a2565b9050919050565b5f819050919050565b610f2d83610efa565b610f41610f3982610f1b565b848454610ea0565b825550505050565b5f90565b610f55610f49565b610f60818484610f24565b505050565b5b81811015610f8357610f785f82610f4d565b600181019050610f66565b5050565b601f821115610fc857610f9981610e73565b610fa284610e85565b81016020851015610fb1578190505b610fc5610fbd85610e85565b830182610f65565b50505b505050565b5f82821c905092915050565b5f610fe85f1984600802610fcd565b1980831691505092915050565b5f6110008383610fd9565b9150826002028217905092915050565b61101982610a83565b67ffffffffffffffff81111561103257611031610918565b5b61103c8254610e43565b611047828285610f87565b5f60209050601f831160018114611078575f8415611066578287015190505b6110708582610ff5565b8655506110d7565b601f19841661108686610e73565b5f5b828110156110ad57848901518255600182019150602085019450602081019050611088565b868310156110ca57848901516110c6601f891682610fd9565b8355505b6001600288020188555050505b505050505050565b7f50726f6a65637420686173206661696c656420746f20726561636820697473205f8201527f7461726765740000000000000000000000000000000000000000000000000000602082015250565b5f611139602683610a8d565b9150611144826110df565b604082019050919050565b5f6020820190508181035f8301526111668161112d565b9050919050565b7f4f6e6c7920746865206f776e65722063616e20636c61696d20746865206d6f6e5f8201527f6579000000000000000000000000000000000000000000000000000000000000602082015250565b5f6111c7602283610a8d565b91506111d28261116d565b604082019050919050565b5f6020820190508181035f8301526111f4816111bb565b9050919050565b7f4f6e6c7920746865206f776e65722063616e2064657374726f792074686520635f8201527f6f6e747261637400000000000000000000000000000000000000000000000000602082015250565b5f611255602783610a8d565b9150611260826111fb565b604082019050919050565b5f6020820190508181035f83015261128281611249565b9050919050565b7f4f6e6c7920746865206f776e65722063616e20736574207468652070726f6a655f8201527f6374206465736372697074696f6e000000000000000000000000000000000000602082015250565b5f6112e3602e83610a8d565b91506112ee82611289565b604082019050919050565b5f6020820190508181035f830152611310816112d7565b9050919050565b5f611321826108a2565b915061132c836108a2565b925082820190508082111561134457611343610d28565b5b9291505056fea2646970667358221220aff9fdd5aeec20e51f564c7abb8a4aadb3534c101a2ebc4ad6acb7c91b3c718664736f6c63430008160033",
					"opcodes": "PUSH1 0x80 PUSH1 0x40 MSTORE CALLVALUE DUP1 ISZERO PUSH3 0x10 JUMPI PUSH0 DUP1 REVERT JUMPDEST POP PUSH1 0x40 MLOAD PUSH3 0x1A41 CODESIZE SUB DUP1 PUSH3 0x1A41 DUP4 CODECOPY DUP2 DUP2 ADD PUSH1 0x40 MSTORE DUP2 ADD SWAP1 PUSH3 0x36 SWAP2 SWAP1 PUSH3 0x2C2 JUMP JUMPDEST DUP3 PUSH0 DUP1 PUSH2 0x100 EXP DUP2 SLOAD DUP2 PUSH20 0xFFFFFFFFFFFFFFFFFFFFFFFFFFFFFFFFFFFFFFFF MUL NOT AND SWAP1 DUP4 PUSH20 0xFFFFFFFFFFFFFFFFFFFFFFFFFFFFFFFFFFFFFFFF AND MUL OR SWAP1 SSTORE POP DUP2 PUSH1 0x1 SWAP1 DUP2 PUSH3 0x86 SWAP2 SWAP1 PUSH3 0x568 JUMP JUMPDEST POP DUP1 TIMESTAMP PUSH3 0x95 SWAP2 SWAP1 PUSH3 0x679 JUMP JUMPDEST PUSH1 0x5 DUP2 SWAP1 SSTORE POP POP POP POP PUSH3 0x6B3 JUMP JUMPDEST PUSH0 PUSH1 0x40 MLOAD SWAP1 POP SWAP1 JUMP JUMPDEST PUSH0 DUP1 REVERT JUMPDEST PUSH0 DUP1 REVERT JUMPDEST PUSH0 PUSH20 0xFFFFFFFFFFFFFFFFFFFFFFFFFFFFFFFFFFFFFFFF DUP3 AND SWAP1 POP SWAP2 SWAP1 POP JUMP JUMPDEST PUSH0 PUSH3 0xE0 DUP3 PUSH3 0xB5 JUMP JUMPDEST SWAP1 POP SWAP2 SWAP1 POP JUMP JUMPDEST PUSH3 0xF2 DUP2 PUSH3 0xD4 JUMP JUMPDEST DUP2 EQ PUSH3 0xFD JUMPI PUSH0 DUP1 REVERT JUMPDEST POP JUMP JUMPDEST PUSH0 DUP2 MLOAD SWAP1 POP PUSH3 0x110 DUP2 PUSH3 0xE7 JUMP JUMPDEST SWAP3 SWAP2 POP POP JUMP JUMPDEST PUSH0 DUP1 REVERT JUMPDEST PUSH0 DUP1 REVERT JUMPDEST PUSH0 PUSH1 0x1F NOT PUSH1 0x1F DUP4 ADD AND SWAP1 POP SWAP2 SWAP1 POP JUMP JUMPDEST PUSH32 0x4E487B7100000000000000000000000000000000000000000000000000000000 PUSH0 MSTORE PUSH1 0x41 PUSH1 0x4 MSTORE PUSH1 0x24 PUSH0 REVERT JUMPDEST PUSH3 0x166 DUP3 PUSH3 0x11E JUMP JUMPDEST DUP2 ADD DUP2 DUP2 LT PUSH8 0xFFFFFFFFFFFFFFFF DUP3 GT OR ISZERO PUSH3 0x188 JUMPI PUSH3 0x187 PUSH3 0x12E JUMP JUMPDEST JUMPDEST DUP1 PUSH1 0x40 MSTORE POP POP POP JUMP JUMPDEST PUSH0 PUSH3 0x19C PUSH3 0xA4 JUMP JUMPDEST SWAP1 POP PUSH3 0x1AA DUP3 DUP3 PUSH3 0x15B JUMP JUMPDEST SWAP2 SWAP1 POP JUMP JUMPDEST PUSH0 PUSH8 0xFFFFFFFFFFFFFFFF DUP3 GT ISZERO PUSH3 0x1CC JUMPI PUSH3 0x1CB PUSH3 0x12E JUMP JUMPDEST JUMPDEST PUSH3 0x1D7 DUP3 PUSH3 0x11E JUMP JUMPDEST SWAP1 POP PUSH1 0x20 DUP2 ADD SWAP1 POP SWAP2 SWAP1 POP JUMP JUMPDEST PUSH0 JUMPDEST DUP4 DUP2 LT ISZERO PUSH3 0x203 JUMPI DUP1 DUP3 ADD MLOAD DUP2 DUP5 ADD MSTORE PUSH1 0x20 DUP2 ADD SWAP1 POP PUSH3 0x1E6 JUMP JUMPDEST PUSH0 DUP5 DUP5 ADD MSTORE POP POP POP POP JUMP JUMPDEST PUSH0 PUSH3 0x224 PUSH3 0x21E DUP5 PUSH3 0x1AF JUMP JUMPDEST PUSH3 0x191 JUMP JUMPDEST SWAP1 POP DUP3 DUP2 MSTORE PUSH1 0x20 DUP2 ADD DUP5 DUP5 DUP5 ADD GT ISZERO PUSH3 0x243 JUMPI PUSH3 0x242 PUSH3 0x11A JUMP JUMPDEST JUMPDEST PUSH3 0x250 DUP5 DUP3 DUP6 PUSH3 0x1E4 JUMP JUMPDEST POP SWAP4 SWAP3 POP POP POP JUMP JUMPDEST PUSH0 DUP3 PUSH1 0x1F DUP4 ADD SLT PUSH3 0x26F JUMPI PUSH3 0x26E PUSH3 0x116 JUMP JUMPDEST JUMPDEST DUP2 MLOAD PUSH3 0x281 DUP5 DUP3 PUSH1 0x20 DUP7 ADD PUSH3 0x20E JUMP JUMPDEST SWAP2 POP POP SWAP3 SWAP2 POP POP JUMP JUMPDEST PUSH0 DUP2 SWAP1 POP SWAP2 SWAP1 POP JUMP JUMPDEST PUSH3 0x29E DUP2 PUSH3 0x28A JUMP JUMPDEST DUP2 EQ PUSH3 0x2A9 JUMPI PUSH0 DUP1 REVERT JUMPDEST POP JUMP JUMPDEST PUSH0 DUP2 MLOAD SWAP1 POP PUSH3 0x2BC DUP2 PUSH3 0x293 JUMP JUMPDEST SWAP3 SWAP2 POP POP JUMP JUMPDEST PUSH0 DUP1 PUSH0 PUSH1 0x60 DUP5 DUP7 SUB SLT ISZERO PUSH3 0x2DC JUMPI PUSH3 0x2DB PUSH3 0xAD JUMP JUMPDEST JUMPDEST PUSH0 PUSH3 0x2EB DUP7 DUP3 DUP8 ADD PUSH3 0x100 JUMP JUMPDEST SWAP4 POP POP PUSH1 0x20 DUP5 ADD MLOAD PUSH8 0xFFFFFFFFFFFFFFFF DUP2 GT ISZERO PUSH3 0x30F JUMPI PUSH3 0x30E PUSH3 0xB1 JUMP JUMPDEST JUMPDEST PUSH3 0x31D DUP7 DUP3 DUP8 ADD PUSH3 0x258 JUMP JUMPDEST SWAP3 POP POP PUSH1 0x40 PUSH3 0x330 DUP7 DUP3 DUP8 ADD PUSH3 0x2AC JUMP JUMPDEST SWAP2 POP POP SWAP3 POP SWAP3 POP SWAP3 JUMP JUMPDEST PUSH0 DUP2 MLOAD SWAP1 POP SWAP2 SWAP1 POP JUMP JUMPDEST PUSH32 0x4E487B7100000000000000000000000000000000000000000000000000000000 PUSH0 MSTORE PUSH1 0x22 PUSH1 0x4 MSTORE PUSH1 0x24 PUSH0 REVERT JUMPDEST PUSH0 PUSH1 0x2 DUP3 DIV SWAP1 POP PUSH1 0x1 DUP3 AND DUP1 PUSH3 0x389 JUMPI PUSH1 0x7F DUP3 AND SWAP2 POP JUMPDEST PUSH1 0x20 DUP3 LT DUP2 SUB PUSH3 0x39F JUMPI PUSH3 0x39E PUSH3 0x344 JUMP JUMPDEST JUMPDEST POP SWAP2 SWAP1 POP JUMP JUMPDEST PUSH0 DUP2 SWAP1 POP DUP2 PUSH0 MSTORE PUSH1 0x20 PUSH0 KECCAK256 SWAP1 POP SWAP2 SWAP1 POP JUMP JUMPDEST PUSH0 PUSH1 0x20 PUSH1 0x1F DUP4 ADD DIV SWAP1 POP SWAP2 SWAP1 POP JUMP JUMPDEST PUSH0 DUP3 DUP3 SHL SWAP1 POP SWAP3 SWAP2 POP POP JUMP JUMPDEST PUSH0 PUSH1 0x8 DUP4 MUL PUSH3 0x403 PUSH32 0xFFFFFFFFFFFFFFFFFFFFFFFFFFFFFFFFFFFFFFFFFFFFFFFFFFFFFFFFFFFFFFFF DUP3 PUSH3 0x3C6 JUMP JUMPDEST PUSH3 0x40F DUP7 DUP4 PUSH3 0x3C6 JUMP JUMPDEST SWAP6 POP DUP1 NOT DUP5 AND SWAP4 POP DUP1 DUP7 AND DUP5 OR SWAP3 POP POP POP SWAP4 SWAP3 POP POP POP JUMP JUMPDEST PUSH0 DUP2 SWAP1 POP SWAP2 SWAP1 POP JUMP JUMPDEST PUSH0 PUSH3 0x450 PUSH3 0x44A PUSH3 0x444 DUP5 PUSH3 0x28A JUMP JUMPDEST PUSH3 0x427 JUMP JUMPDEST PUSH3 0x28A JUMP JUMPDEST SWAP1 POP SWAP2 SWAP1 POP JUMP JUMPDEST PUSH0 DUP2 SWAP1 POP SWAP2 SWAP1 POP JUMP JUMPDEST PUSH3 0x46B DUP4 PUSH3 0x430 JUMP JUMPDEST PUSH3 0x483 PUSH3 0x47A DUP3 PUSH3 0x457 JUMP JUMPDEST DUP5 DUP5 SLOAD PUSH3 0x3D2 JUMP JUMPDEST DUP3 SSTORE POP POP POP POP JUMP JUMPDEST PUSH0 SWAP1 JUMP JUMPDEST PUSH3 0x499 PUSH3 0x48B JUMP JUMPDEST PUSH3 0x4A6 DUP2 DUP5 DUP5 PUSH3 0x460 JUMP JUMPDEST POP POP POP JUMP JUMPDEST JUMPDEST DUP2 DUP2 LT ISZERO PUSH3 0x4CD JUMPI PUSH3 0x4C1 PUSH0 DUP3 PUSH3 0x48F JUMP JUMPDEST PUSH1 0x1 DUP2 ADD SWAP1 POP PUSH3 0x4AC JUMP JUMPDEST POP POP JUMP JUMPDEST PUSH1 0x1F DUP3 GT ISZERO PUSH3 0x51C JUMPI PUSH3 0x4E6 DUP2 PUSH3 0x3A5 JUMP JUMPDEST PUSH3 0x4F1 DUP5 PUSH3 0x3B7 JUMP JUMPDEST DUP2 ADD PUSH1 0x20 DUP6 LT ISZERO PUSH3 0x501 JUMPI DUP2 SWAP1 POP JUMPDEST PUSH3 0x519 PUSH3 0x510 DUP6 PUSH3 0x3B7 JUMP JUMPDEST DUP4 ADD DUP3 PUSH3 0x4AB JUMP JUMPDEST POP POP JUMPDEST POP POP POP JUMP JUMPDEST PUSH0 DUP3 DUP3 SHR SWAP1 POP SWAP3 SWAP2 POP POP JUMP JUMPDEST PUSH0 PUSH3 0x53E PUSH0 NOT DUP5 PUSH1 0x8 MUL PUSH3 0x521 JUMP JUMPDEST NOT DUP1 DUP4 AND SWAP2 POP POP SWAP3 SWAP2 POP POP JUMP JUMPDEST PUSH0 PUSH3 0x558 DUP4 DUP4 PUSH3 0x52D JUMP JUMPDEST SWAP2 POP DUP3 PUSH1 0x2 MUL DUP3 OR SWAP1 POP SWAP3 SWAP2 POP POP JUMP JUMPDEST PUSH3 0x573 DUP3 PUSH3 0x33A JUMP JUMPDEST PUSH8 0xFFFFFFFFFFFFFFFF DUP2 GT ISZERO PUSH3 0x58F JUMPI PUSH3 0x58E PUSH3 0x12E JUMP JUMPDEST JUMPDEST PUSH3 0x59B DUP3 SLOAD PUSH3 0x371 JUMP JUMPDEST PUSH3 0x5A8 DUP3 DUP3 DUP6 PUSH3 0x4D1 JUMP JUMPDEST PUSH0 PUSH1 0x20 SWAP1 POP PUSH1 0x1F DUP4 GT PUSH1 0x1 DUP2 EQ PUSH3 0x5DE JUMPI PUSH0 DUP5 ISZERO PUSH3 0x5C9 JUMPI DUP3 DUP8 ADD MLOAD SWAP1 POP JUMPDEST PUSH3 0x5D5 DUP6 DUP3 PUSH3 0x54B JUMP JUMPDEST DUP7 SSTORE POP PUSH3 0x644 JUMP JUMPDEST PUSH1 0x1F NOT DUP5 AND PUSH3 0x5EE DUP7 PUSH3 0x3A5 JUMP JUMPDEST PUSH0 JUMPDEST DUP3 DUP2 LT ISZERO PUSH3 0x617 JUMPI DUP5 DUP10 ADD MLOAD DUP3 SSTORE PUSH1 0x1 DUP3 ADD SWAP2 POP PUSH1 0x20 DUP6 ADD SWAP5 POP PUSH1 0x20 DUP2 ADD SWAP1 POP PUSH3 0x5F0 JUMP JUMPDEST DUP7 DUP4 LT ISZERO PUSH3 0x637 JUMPI DUP5 DUP10 ADD MLOAD PUSH3 0x633 PUSH1 0x1F DUP10 AND DUP3 PUSH3 0x52D JUMP JUMPDEST DUP4 SSTORE POP JUMPDEST PUSH1 0x1 PUSH1 0x2 DUP9 MUL ADD DUP9 SSTORE POP POP POP JUMPDEST POP POP POP POP POP POP JUMP JUMPDEST PUSH32 0x4E487B7100000000000000000000000000000000000000000000000000000000 PUSH0 MSTORE PUSH1 0x11 PUSH1 0x4 MSTORE PUSH1 0x24 PUSH0 REVERT JUMPDEST PUSH0 PUSH3 0x685 DUP3 PUSH3 0x28A JUMP JUMPDEST SWAP2 POP PUSH3 0x692 DUP4 PUSH3 0x28A JUMP JUMPDEST SWAP3 POP DUP3 DUP3 ADD SWAP1 POP DUP1 DUP3 GT ISZERO PUSH3 0x6AD JUMPI PUSH3 0x6AC PUSH3 0x64C JUMP JUMPDEST JUMPDEST SWAP3 SWAP2 POP POP JUMP JUMPDEST PUSH2 0x1380 DUP1 PUSH3 0x6C1 PUSH0 CODECOPY PUSH0 RETURN INVALID PUSH1 0x80 PUSH1 0x40 MSTORE PUSH1 0x4 CALLDATASIZE LT PUSH2 0x85 JUMPI PUSH0 CALLDATALOAD PUSH1 0xE0 SHR DUP1 PUSH4 0x968B4FE9 GT PUSH2 0x58 JUMPI DUP1 PUSH4 0x968B4FE9 EQ PUSH2 0x105 JUMPI DUP1 PUSH4 0x9FAF6215 EQ PUSH2 0x12F JUMPI DUP1 PUSH4 0xC4F6B0FA EQ PUSH2 0x159 JUMPI DUP1 PUSH4 0xD0E30DB0 EQ PUSH2 0x181 JUMPI DUP1 PUSH4 0xE3D670D7 EQ PUSH2 0x18B JUMPI PUSH2 0x85 JUMP JUMPDEST DUP1 PUSH4 0x2E1A7D4D EQ PUSH2 0x89 JUMPI DUP1 PUSH4 0x48B6B16F EQ PUSH2 0xB1 JUMPI DUP1 PUSH4 0x6658E52B EQ PUSH2 0xD9 JUMPI DUP1 PUSH4 0x83197EF0 EQ PUSH2 0xEF JUMPI JUMPDEST PUSH0 DUP1 REVERT JUMPDEST CALLVALUE DUP1 ISZERO PUSH2 0x94 JUMPI PUSH0 DUP1 REVERT JUMPDEST POP PUSH2 0xAF PUSH1 0x4 DUP1 CALLDATASIZE SUB DUP2 ADD SWAP1 PUSH2 0xAA SWAP2 SWAP1 PUSH2 0x8D5 JUMP JUMPDEST PUSH2 0x1C7 JUMP JUMPDEST STOP JUMPDEST CALLVALUE DUP1 ISZERO PUSH2 0xBC JUMPI PUSH0 DUP1 REVERT JUMPDEST POP PUSH2 0xD7 PUSH1 0x4 DUP1 CALLDATASIZE SUB DUP2 ADD SWAP1 PUSH2 0xD2 SWAP2 SWAP1 PUSH2 0xA3C JUMP JUMPDEST PUSH2 0x36C JUMP JUMPDEST STOP JUMPDEST CALLVALUE DUP1 ISZERO PUSH2 0xE4 JUMPI PUSH0 DUP1 REVERT JUMPDEST POP PUSH2 0xED PUSH2 0x40C JUMP JUMPDEST STOP JUMPDEST CALLVALUE DUP1 ISZERO PUSH2 0xFA JUMPI PUSH0 DUP1 REVERT JUMPDEST POP PUSH2 0x103 PUSH2 0x58A JUMP JUMPDEST STOP JUMPDEST CALLVALUE DUP1 ISZERO PUSH2 0x110 JUMPI PUSH0 DUP1 REVERT JUMPDEST POP PUSH2 0x119 PUSH2 0x64F JUMP JUMPDEST PUSH1 0x40 MLOAD PUSH2 0x126 SWAP2 SWAP1 PUSH2 0xAFD JUMP JUMPDEST PUSH1 0x40 MLOAD DUP1 SWAP2 SUB SWAP1 RETURN JUMPDEST CALLVALUE DUP1 ISZERO PUSH2 0x13A JUMPI PUSH0 DUP1 REVERT JUMPDEST POP PUSH2 0x143 PUSH2 0x6DF JUMP JUMPDEST PUSH1 0x40 MLOAD PUSH2 0x150 SWAP2 SWAP1 PUSH2 0xAFD JUMP JUMPDEST PUSH1 0x40 MLOAD DUP1 SWAP2 SUB SWAP1 RETURN JUMPDEST CALLVALUE DUP1 ISZERO PUSH2 0x164 JUMPI PUSH0 DUP1 REVERT JUMPDEST POP PUSH2 0x17F PUSH1 0x4 DUP1 CALLDATASIZE SUB DUP2 ADD SWAP1 PUSH2 0x17A SWAP2 SWAP1 PUSH2 0xA3C JUMP JUMPDEST PUSH2 0x76F JUMP JUMPDEST STOP JUMPDEST PUSH2 0x189 PUSH2 0x80F JUMP JUMPDEST STOP JUMPDEST CALLVALUE DUP1 ISZERO PUSH2 0x196 JUMPI PUSH0 DUP1 REVERT JUMPDEST POP PUSH2 0x1B1 PUSH1 0x4 DUP1 CALLDATASIZE SUB DUP2 ADD SWAP1 PUSH2 0x1AC SWAP2 SWAP1 PUSH2 0xB77 JUMP JUMPDEST PUSH2 0x87C JUMP JUMPDEST PUSH1 0x40 MLOAD PUSH2 0x1BE SWAP2 SWAP1 PUSH2 0xBB1 JUMP JUMPDEST PUSH1 0x40 MLOAD DUP1 SWAP2 SUB SWAP1 RETURN JUMPDEST PUSH1 0x5 SLOAD TIMESTAMP LT ISZERO PUSH2 0x20C JUMPI PUSH1 0x40 MLOAD PUSH32 0x8C379A000000000000000000000000000000000000000000000000000000000 DUP2 MSTORE PUSH1 0x4 ADD PUSH2 0x203 SWAP1 PUSH2 0xC14 JUMP JUMPDEST PUSH1 0x40 MLOAD DUP1 SWAP2 SUB SWAP1 REVERT JUMPDEST PUSH1 0x3 SLOAD PUSH1 0x4 SLOAD LT PUSH2 0x252 JUMPI PUSH1 0x40 MLOAD PUSH32 0x8C379A000000000000000000000000000000000000000000000000000000000 DUP2 MSTORE PUSH1 0x4 ADD PUSH2 0x249 SWAP1 PUSH2 0xCA2 JUMP JUMPDEST PUSH1 0x40 MLOAD DUP1 SWAP2 SUB SWAP1 REVERT JUMPDEST DUP1 PUSH1 0x6 PUSH0 CALLER PUSH20 0xFFFFFFFFFFFFFFFFFFFFFFFFFFFFFFFFFFFFFFFF AND PUSH20 0xFFFFFFFFFFFFFFFFFFFFFFFFFFFFFFFFFFFFFFFF AND DUP2 MSTORE PUSH1 0x20 ADD SWAP1 DUP2 MSTORE PUSH1 0x20 ADD PUSH0 KECCAK256 SLOAD LT ISZERO PUSH2 0x2D2 JUMPI PUSH1 0x40 MLOAD PUSH32 0x8C379A000000000000000000000000000000000000000000000000000000000 DUP2 MSTORE PUSH1 0x4 ADD PUSH2 0x2C9 SWAP1 PUSH2 0xD0A JUMP JUMPDEST PUSH1 0x40 MLOAD DUP1 SWAP2 SUB SWAP1 REVERT JUMPDEST DUP1 PUSH1 0x6 PUSH0 CALLER PUSH20 0xFFFFFFFFFFFFFFFFFFFFFFFFFFFFFFFFFFFFFFFF AND PUSH20 0xFFFFFFFFFFFFFFFFFFFFFFFFFFFFFFFFFFFFFFFF AND DUP2 MSTORE PUSH1 0x20 ADD SWAP1 DUP2 MSTORE PUSH1 0x20 ADD PUSH0 KECCAK256 PUSH0 DUP3 DUP3 SLOAD PUSH2 0x31E SWAP2 SWAP1 PUSH2 0xD55 JUMP JUMPDEST SWAP3 POP POP DUP2 SWAP1 SSTORE POP CALLER PUSH20 0xFFFFFFFFFFFFFFFFFFFFFFFFFFFFFFFFFFFFFFFF AND PUSH2 0x8FC DUP3 SWAP1 DUP2 ISZERO MUL SWAP1 PUSH1 0x40 MLOAD PUSH0 PUSH1 0x40 MLOAD DUP1 DUP4 SUB DUP2 DUP6 DUP9 DUP9 CALL SWAP4 POP POP POP POP ISZERO DUP1 ISZERO PUSH2 0x368 JUMPI RETURNDATASIZE PUSH0 DUP1 RETURNDATACOPY RETURNDATASIZE PUSH0 REVERT JUMPDEST POP POP JUMP JUMPDEST PUSH0 DUP1 SLOAD SWAP1 PUSH2 0x100 EXP SWAP1 DIV PUSH20 0xFFFFFFFFFFFFFFFFFFFFFFFFFFFFFFFFFFFFFFFF AND PUSH20 0xFFFFFFFFFFFFFFFFFFFFFFFFFFFFFFFFFFFFFFFF AND CALLER PUSH20 0xFFFFFFFFFFFFFFFFFFFFFFFFFFFFFFFFFFFFFFFF AND EQ PUSH2 0x3F9 JUMPI PUSH1 0x40 MLOAD PUSH32 0x8C379A000000000000000000000000000000000000000000000000000000000 DUP2 MSTORE PUSH1 0x4 ADD PUSH2 0x3F0 SWAP1 PUSH2 0xDF8 JUMP JUMPDEST PUSH1 0x40 MLOAD DUP1 SWAP2 SUB SWAP1 REVERT JUMPDEST DUP1 PUSH1 0x1 SWAP1 DUP2 PUSH2 0x408 SWAP2 SWAP1 PUSH2 0x1010 JUMP JUMPDEST POP POP JUMP JUMPDEST PUSH1 0x5 SLOAD TIMESTAMP LT ISZERO PUSH2 0x451 JUMPI PUSH1 0x40 MLOAD PUSH32 0x8C379A000000000000000000000000000000000000000000000000000000000 DUP2 MSTORE PUSH1 0x4 ADD PUSH2 0x448 SWAP1 PUSH2 0xC14 JUMP JUMPDEST PUSH1 0x40 MLOAD DUP1 SWAP2 SUB SWAP1 REVERT JUMPDEST PUSH1 0x3 SLOAD PUSH1 0x4 SLOAD LT ISZERO PUSH2 0x498 JUMPI PUSH1 0x40 MLOAD PUSH32 0x8C379A000000000000000000000000000000000000000000000000000000000 DUP2 MSTORE PUSH1 0x4 ADD PUSH2 0x48F SWAP1 PUSH2 0x114F JUMP JUMPDEST PUSH1 0x40 MLOAD DUP1 SWAP2 SUB SWAP1 REVERT JUMPDEST PUSH0 DUP1 SLOAD SWAP1 PUSH2 0x100 EXP SWAP1 DIV PUSH20 0xFFFFFFFFFFFFFFFFFFFFFFFFFFFFFFFFFFFFFFFF AND PUSH20 0xFFFFFFFFFFFFFFFFFFFFFFFFFFFFFFFFFFFFFFFF AND CALLER PUSH20 0xFFFFFFFFFFFFFFFFFFFFFFFFFFFFFFFFFFFFFFFF AND EQ PUSH2 0x525 JUMPI PUSH1 0x40 MLOAD PUSH32 0x8C379A000000000000000000000000000000000000000000000000000000000 DUP2 MSTORE PUSH1 0x4 ADD PUSH2 0x51C SWAP1 PUSH2 0x11DD JUMP JUMPDEST PUSH1 0x40 MLOAD DUP1 SWAP2 SUB SWAP1 REVERT JUMPDEST PUSH0 DUP1 SLOAD SWAP1 PUSH2 0x100 EXP SWAP1 DIV PUSH20 0xFFFFFFFFFFFFFFFFFFFFFFFFFFFFFFFFFFFFFFFF AND PUSH20 0xFFFFFFFFFFFFFFFFFFFFFFFFFFFFFFFFFFFFFFFF AND PUSH2 0x8FC SELFBALANCE SWAP1 DUP2 ISZERO MUL SWAP1 PUSH1 0x40 MLOAD PUSH0 PUSH1 0x40 MLOAD DUP1 DUP4 SUB DUP2 DUP6 DUP9 DUP9 CALL SWAP4 POP POP POP POP ISZERO DUP1 ISZERO PUSH2 0x587 JUMPI RETURNDATASIZE PUSH0 DUP1 RETURNDATACOPY RETURNDATASIZE PUSH0 REVERT JUMPDEST POP JUMP JUMPDEST PUSH0 DUP1 SLOAD SWAP1 PUSH2 0x100 EXP SWAP1 DIV PUSH20 0xFFFFFFFFFFFFFFFFFFFFFFFFFFFFFFFFFFFFFFFF AND PUSH20 0xFFFFFFFFFFFFFFFFFFFFFFFFFFFFFFFFFFFFFFFF AND CALLER PUSH20 0xFFFFFFFFFFFFFFFFFFFFFFFFFFFFFFFFFFFFFFFF AND EQ PUSH2 0x617 JUMPI PUSH1 0x40 MLOAD PUSH32 0x8C379A000000000000000000000000000000000000000000000000000000000 DUP2 MSTORE PUSH1 0x4 ADD PUSH2 0x60E SWAP1 PUSH2 0x126B JUMP JUMPDEST PUSH1 0x40 MLOAD DUP1 SWAP2 SUB SWAP1 REVERT JUMPDEST PUSH0 DUP1 SLOAD SWAP1 PUSH2 0x100 EXP SWAP1 DIV PUSH20 0xFFFFFFFFFFFFFFFFFFFFFFFFFFFFFFFFFFFFFFFF AND PUSH20 0xFFFFFFFFFFFFFFFFFFFFFFFFFFFFFFFFFFFFFFFF AND SELFDESTRUCT JUMPDEST PUSH1 0x60 PUSH1 0x2 DUP1 SLOAD PUSH2 0x65E SWAP1 PUSH2 0xE43 JUMP JUMPDEST DUP1 PUSH1 0x1F ADD PUSH1 0x20 DUP1 SWAP2 DIV MUL PUSH1 0x20 ADD PUSH1 0x40 MLOAD SWAP1 DUP2 ADD PUSH1 0x40 MSTORE DUP1 SWAP3 SWAP2 SWAP1 DUP2 DUP2 MSTORE PUSH1 0x20 ADD DUP3 DUP1 SLOAD PUSH2 0x68A SWAP1 PUSH2 0xE43 JUMP JUMPDEST DUP1 ISZERO PUSH2 0x6D5 JUMPI DUP1 PUSH1 0x1F LT PUSH2 0x6AC JUMPI PUSH2 0x100 DUP1 DUP4 SLOAD DIV MUL DUP4 MSTORE SWAP2 PUSH1 0x20 ADD SWAP2 PUSH2 0x6D5 JUMP JUMPDEST DUP3 ADD SWAP2 SWAP1 PUSH0 MSTORE PUSH1 0x20 PUSH0 KECCAK256 SWAP1 JUMPDEST DUP2 SLOAD DUP2 MSTORE SWAP1 PUSH1 0x1 ADD SWAP1 PUSH1 0x20 ADD DUP1 DUP4 GT PUSH2 0x6B8 JUMPI DUP3 SWAP1 SUB PUSH1 0x1F AND DUP3 ADD SWAP2 JUMPDEST POP POP POP POP POP SWAP1 POP SWAP1 JUMP JUMPDEST PUSH1 0x60 PUSH1 0x1 DUP1 SLOAD PUSH2 0x6EE SWAP1 PUSH2 0xE43 JUMP JUMPDEST DUP1 PUSH1 0x1F ADD PUSH1 0x20 DUP1 SWAP2 DIV MUL PUSH1 0x20 ADD PUSH1 0x40 MLOAD SWAP1 DUP2 ADD PUSH1 0x40 MSTORE DUP1 SWAP3 SWAP2 SWAP1 DUP2 DUP2 MSTORE PUSH1 0x20 ADD DUP3 DUP1 SLOAD PUSH2 0x71A SWAP1 PUSH2 0xE43 JUMP JUMPDEST DUP1 ISZERO PUSH2 0x765 JUMPI DUP1 PUSH1 0x1F LT PUSH2 0x73C JUMPI PUSH2 0x100 DUP1 DUP4 SLOAD DIV MUL DUP4 MSTORE SWAP2 PUSH1 0x20 ADD SWAP2 PUSH2 0x765 JUMP JUMPDEST DUP3 ADD SWAP2 SWAP1 PUSH0 MSTORE PUSH1 0x20 PUSH0 KECCAK256 SWAP1 JUMPDEST DUP2 SLOAD DUP2 MSTORE SWAP1 PUSH1 0x1 ADD SWAP1 PUSH1 0x20 ADD DUP1 DUP4 GT PUSH2 0x748 JUMPI DUP3 SWAP1 SUB PUSH1 0x1F AND DUP3 ADD SWAP2 JUMPDEST POP POP POP POP POP SWAP1 POP SWAP1 JUMP JUMPDEST PUSH0 DUP1 SLOAD SWAP1 PUSH2 0x100 EXP SWAP1 DIV PUSH20 0xFFFFFFFFFFFFFFFFFFFFFFFFFFFFFFFFFFFFFFFF AND PUSH20 0xFFFFFFFFFFFFFFFFFFFFFFFFFFFFFFFFFFFFFFFF AND CALLER PUSH20 0xFFFFFFFFFFFFFFFFFFFFFFFFFFFFFFFFFFFFFFFF AND EQ PUSH2 0x7FC JUMPI PUSH1 0x40 MLOAD PUSH32 0x8C379A000000000000000000000000000000000000000000000000000000000 DUP2 MSTORE PUSH1 0x4 ADD PUSH2 0x7F3 SWAP1 PUSH2 0x12F9 JUMP JUMPDEST PUSH1 0x40 MLOAD DUP1 SWAP2 SUB SWAP1 REVERT JUMPDEST DUP1 PUSH1 0x2 SWAP1 DUP2 PUSH2 0x80B SWAP2 SWAP1 PUSH2 0x1010 JUMP JUMPDEST POP POP JUMP JUMPDEST CALLVALUE PUSH1 0x6 PUSH0 CALLER PUSH20 0xFFFFFFFFFFFFFFFFFFFFFFFFFFFFFFFFFFFFFFFF AND PUSH20 0xFFFFFFFFFFFFFFFFFFFFFFFFFFFFFFFFFFFFFFFF AND DUP2 MSTORE PUSH1 0x20 ADD SWAP1 DUP2 MSTORE PUSH1 0x20 ADD PUSH0 KECCAK256 PUSH0 DUP3 DUP3 SLOAD PUSH2 0x85B SWAP2 SWAP1 PUSH2 0x1317 JUMP JUMPDEST SWAP3 POP POP DUP2 SWAP1 SSTORE POP CALLVALUE PUSH1 0x4 PUSH0 DUP3 DUP3 SLOAD PUSH2 0x873 SWAP2 SWAP1 PUSH2 0x1317 JUMP JUMPDEST SWAP3 POP POP DUP2 SWAP1 SSTORE POP JUMP JUMPDEST PUSH1 0x6 PUSH1 0x20 MSTORE DUP1 PUSH0 MSTORE PUSH1 0x40 PUSH0 KECCAK256 PUSH0 SWAP2 POP SWAP1 POP SLOAD DUP2 JUMP JUMPDEST PUSH0 PUSH1 0x40 MLOAD SWAP1 POP SWAP1 JUMP JUMPDEST PUSH0 DUP1 REVERT JUMPDEST PUSH0 DUP1 REVERT JUMPDEST PUSH0 DUP2 SWAP1 POP SWAP2 SWAP1 POP JUMP JUMPDEST PUSH2 0x8B4 DUP2 PUSH2 0x8A2 JUMP JUMPDEST DUP2 EQ PUSH2 0x8BE JUMPI PUSH0 DUP1 REVERT JUMPDEST POP JUMP JUMPDEST PUSH0 DUP2 CALLDATALOAD SWAP1 POP PUSH2 0x8CF DUP2 PUSH2 0x8AB JUMP JUMPDEST SWAP3 SWAP2 POP POP JUMP JUMPDEST PUSH0 PUSH1 0x20 DUP3 DUP5 SUB SLT ISZERO PUSH2 0x8EA JUMPI PUSH2 0x8E9 PUSH2 0x89A JUMP JUMPDEST JUMPDEST PUSH0 PUSH2 0x8F7 DUP5 DUP3 DUP6 ADD PUSH2 0x8C1 JUMP JUMPDEST SWAP2 POP POP SWAP3 SWAP2 POP POP JUMP JUMPDEST PUSH0 DUP1 REVERT JUMPDEST PUSH0 DUP1 REVERT JUMPDEST PUSH0 PUSH1 0x1F NOT PUSH1 0x1F DUP4 ADD AND SWAP1 POP SWAP2 SWAP1 POP JUMP JUMPDEST PUSH32 0x4E487B7100000000000000000000000000000000000000000000000000000000 PUSH0 MSTORE PUSH1 0x41 PUSH1 0x4 MSTORE PUSH1 0x24 PUSH0 REVERT JUMPDEST PUSH2 0x94E DUP3 PUSH2 0x908 JUMP JUMPDEST DUP2 ADD DUP2 DUP2 LT PUSH8 0xFFFFFFFFFFFFFFFF DUP3 GT OR ISZERO PUSH2 0x96D JUMPI PUSH2 0x96C PUSH2 0x918 JUMP JUMPDEST JUMPDEST DUP1 PUSH1 0x40 MSTORE POP POP POP JUMP JUMPDEST PUSH0 PUSH2 0x97F PUSH2 0x891 JUMP JUMPDEST SWAP1 POP PUSH2 0x98B DUP3 DUP3 PUSH2 0x945 JUMP JUMPDEST SWAP2 SWAP1 POP JUMP JUMPDEST PUSH0 PUSH8 0xFFFFFFFFFFFFFFFF DUP3 GT ISZERO PUSH2 0x9AA JUMPI PUSH2 0x9A9 PUSH2 0x918 JUMP JUMPDEST JUMPDEST PUSH2 0x9B3 DUP3 PUSH2 0x908 JUMP JUMPDEST SWAP1 POP PUSH1 0x20 DUP2 ADD SWAP1 POP SWAP2 SWAP1 POP JUMP JUMPDEST DUP3 DUP2 DUP4 CALLDATACOPY PUSH0 DUP4 DUP4 ADD MSTORE POP POP POP JUMP JUMPDEST PUSH0 PUSH2 0x9E0 PUSH2 0x9DB DUP5 PUSH2 0x990 JUMP JUMPDEST PUSH2 0x976 JUMP JUMPDEST SWAP1 POP DUP3 DUP2 MSTORE PUSH1 0x20 DUP2 ADD DUP5 DUP5 DUP5 ADD GT ISZERO PUSH2 0x9FC JUMPI PUSH2 0x9FB PUSH2 0x904 JUMP JUMPDEST JUMPDEST PUSH2 0xA07 DUP5 DUP3 DUP6 PUSH2 0x9C0 JUMP JUMPDEST POP SWAP4 SWAP3 POP POP POP JUMP JUMPDEST PUSH0 DUP3 PUSH1 0x1F DUP4 ADD SLT PUSH2 0xA23 JUMPI PUSH2 0xA22 PUSH2 0x900 JUMP JUMPDEST JUMPDEST DUP2 CALLDATALOAD PUSH2 0xA33 DUP5 DUP3 PUSH1 0x20 DUP7 ADD PUSH2 0x9CE JUMP JUMPDEST SWAP2 POP POP SWAP3 SWAP2 POP POP JUMP JUMPDEST PUSH0 PUSH1 0x20 DUP3 DUP5 SUB SLT ISZERO PUSH2 0xA51 JUMPI PUSH2 0xA50 PUSH2 0x89A JUMP JUMPDEST JUMPDEST PUSH0 DUP3 ADD CALLDATALOAD PUSH8 0xFFFFFFFFFFFFFFFF DUP2 GT ISZERO PUSH2 0xA6E JUMPI PUSH2 0xA6D PUSH2 0x89E JUMP JUMPDEST JUMPDEST PUSH2 0xA7A DUP5 DUP3 DUP6 ADD PUSH2 0xA0F JUMP JUMPDEST SWAP2 POP POP SWAP3 SWAP2 POP POP JUMP JUMPDEST PUSH0 DUP2 MLOAD SWAP1 POP SWAP2 SWAP1 POP JUMP JUMPDEST PUSH0 DUP3 DUP3 MSTORE PUSH1 0x20 DUP3 ADD SWAP1 POP SWAP3 SWAP2 POP POP JUMP JUMPDEST PUSH0 JUMPDEST DUP4 DUP2 LT ISZERO PUSH2 0xABA JUMPI DUP1 DUP3 ADD MLOAD DUP2 DUP5 ADD MSTORE PUSH1 0x20 DUP2 ADD SWAP1 POP PUSH2 0xA9F JUMP JUMPDEST PUSH0 DUP5 DUP5 ADD MSTORE POP POP POP POP JUMP JUMPDEST PUSH0 PUSH2 0xACF DUP3 PUSH2 0xA83 JUMP JUMPDEST PUSH2 0xAD9 DUP2 DUP6 PUSH2 0xA8D JUMP JUMPDEST SWAP4 POP PUSH2 0xAE9 DUP2 DUP6 PUSH1 0x20 DUP7 ADD PUSH2 0xA9D JUMP JUMPDEST PUSH2 0xAF2 DUP2 PUSH2 0x908 JUMP JUMPDEST DUP5 ADD SWAP2 POP POP SWAP3 SWAP2 POP POP JUMP JUMPDEST PUSH0 PUSH1 0x20 DUP3 ADD SWAP1 POP DUP2 DUP2 SUB PUSH0 DUP4 ADD MSTORE PUSH2 0xB15 DUP2 DUP5 PUSH2 0xAC5 JUMP JUMPDEST SWAP1 POP SWAP3 SWAP2 POP POP JUMP JUMPDEST PUSH0 PUSH20 0xFFFFFFFFFFFFFFFFFFFFFFFFFFFFFFFFFFFFFFFF DUP3 AND SWAP1 POP SWAP2 SWAP1 POP JUMP JUMPDEST PUSH0 PUSH2 0xB46 DUP3 PUSH2 0xB1D JUMP JUMPDEST SWAP1 POP SWAP2 SWAP1 POP JUMP JUMPDEST PUSH2 0xB56 DUP2 PUSH2 0xB3C JUMP JUMPDEST DUP2 EQ PUSH2 0xB60 JUMPI PUSH0 DUP1 REVERT JUMPDEST POP JUMP JUMPDEST PUSH0 DUP2 CALLDATALOAD SWAP1 POP PUSH2 0xB71 DUP2 PUSH2 0xB4D JUMP JUMPDEST SWAP3 SWAP2 POP POP JUMP JUMPDEST PUSH0 PUSH1 0x20 DUP3 DUP5 SUB SLT ISZERO PUSH2 0xB8C JUMPI PUSH2 0xB8B PUSH2 0x89A JUMP JUMPDEST JUMPDEST PUSH0 PUSH2 0xB99 DUP5 DUP3 DUP6 ADD PUSH2 0xB63 JUMP JUMPDEST SWAP2 POP POP SWAP3 SWAP2 POP POP JUMP JUMPDEST PUSH2 0xBAB DUP2 PUSH2 0x8A2 JUMP JUMPDEST DUP3 MSTORE POP POP JUMP JUMPDEST PUSH0 PUSH1 0x20 DUP3 ADD SWAP1 POP PUSH2 0xBC4 PUSH0 DUP4 ADD DUP5 PUSH2 0xBA2 JUMP JUMPDEST SWAP3 SWAP2 POP POP JUMP JUMPDEST PUSH32 0x50726F6A65637420686173207374696C6C206E6F742065787069726564000000 PUSH0 DUP3 ADD MSTORE POP JUMP JUMPDEST PUSH0 PUSH2 0xBFE PUSH1 0x1D DUP4 PUSH2 0xA8D JUMP JUMPDEST SWAP2 POP PUSH2 0xC09 DUP3 PUSH2 0xBCA JUMP JUMPDEST PUSH1 0x20 DUP3 ADD SWAP1 POP SWAP2 SWAP1 POP JUMP JUMPDEST PUSH0 PUSH1 0x20 DUP3 ADD SWAP1 POP DUP2 DUP2 SUB PUSH0 DUP4 ADD MSTORE PUSH2 0xC2B DUP2 PUSH2 0xBF2 JUMP JUMPDEST SWAP1 POP SWAP2 SWAP1 POP JUMP JUMPDEST PUSH32 0x50726F6A6563742068617320616C726561647920726561636865642069747320 PUSH0 DUP3 ADD MSTORE PUSH32 0x7461726765740000000000000000000000000000000000000000000000000000 PUSH1 0x20 DUP3 ADD MSTORE POP JUMP JUMPDEST PUSH0 PUSH2 0xC8C PUSH1 0x26 DUP4 PUSH2 0xA8D JUMP JUMPDEST SWAP2 POP PUSH2 0xC97 DUP3 PUSH2 0xC32 JUMP JUMPDEST PUSH1 0x40 DUP3 ADD SWAP1 POP SWAP2 SWAP1 POP JUMP JUMPDEST PUSH0 PUSH1 0x20 DUP3 ADD SWAP1 POP DUP2 DUP2 SUB PUSH0 DUP4 ADD MSTORE PUSH2 0xCB9 DUP2 PUSH2 0xC80 JUMP JUMPDEST SWAP1 POP SWAP2 SWAP1 POP JUMP JUMPDEST PUSH32 0x496E73756666696369656E742062616C616E6365000000000000000000000000 PUSH0 DUP3 ADD MSTORE POP JUMP JUMPDEST PUSH0 PUSH2 0xCF4 PUSH1 0x14 DUP4 PUSH2 0xA8D JUMP JUMPDEST SWAP2 POP PUSH2 0xCFF DUP3 PUSH2 0xCC0 JUMP JUMPDEST PUSH1 0x20 DUP3 ADD SWAP1 POP SWAP2 SWAP1 POP JUMP JUMPDEST PUSH0 PUSH1 0x20 DUP3 ADD SWAP1 POP DUP2 DUP2 SUB PUSH0 DUP4 ADD MSTORE PUSH2 0xD21 DUP2 PUSH2 0xCE8 JUMP JUMPDEST SWAP1 POP SWAP2 SWAP1 POP JUMP JUMPDEST PUSH32 0x4E487B7100000000000000000000000000000000000000000000000000000000 PUSH0 MSTORE PUSH1 0x11 PUSH1 0x4 MSTORE PUSH1 0x24 PUSH0 REVERT JUMPDEST PUSH0 PUSH2 0xD5F DUP3 PUSH2 0x8A2 JUMP JUMPDEST SWAP2 POP PUSH2 0xD6A DUP4 PUSH2 0x8A2 JUMP JUMPDEST SWAP3 POP DUP3 DUP3 SUB SWAP1 POP DUP2 DUP2 GT ISZERO PUSH2 0xD82 JUMPI PUSH2 0xD81 PUSH2 0xD28 JUMP JUMPDEST JUMPDEST SWAP3 SWAP2 POP POP JUMP JUMPDEST PUSH32 0x4F6E6C7920746865206F776E65722063616E20736574207468652070726F6A65 PUSH0 DUP3 ADD MSTORE PUSH32 0x6374206E616D6500000000000000000000000000000000000000000000000000 PUSH1 0x20 DUP3 ADD MSTORE POP JUMP JUMPDEST PUSH0 PUSH2 0xDE2 PUSH1 0x27 DUP4 PUSH2 0xA8D JUMP JUMPDEST SWAP2 POP PUSH2 0xDED DUP3 PUSH2 0xD88 JUMP JUMPDEST PUSH1 0x40 DUP3 ADD SWAP1 POP SWAP2 SWAP1 POP JUMP JUMPDEST PUSH0 PUSH1 0x20 DUP3 ADD SWAP1 POP DUP2 DUP2 SUB PUSH0 DUP4 ADD MSTORE PUSH2 0xE0F DUP2 PUSH2 0xDD6 JUMP JUMPDEST SWAP1 POP SWAP2 SWAP1 POP JUMP JUMPDEST PUSH32 0x4E487B7100000000000000000000000000000000000000000000000000000000 PUSH0 MSTORE PUSH1 0x22 PUSH1 0x4 MSTORE PUSH1 0x24 PUSH0 REVERT JUMPDEST PUSH0 PUSH1 0x2 DUP3 DIV SWAP1 POP PUSH1 0x1 DUP3 AND DUP1 PUSH2 0xE5A JUMPI PUSH1 0x7F DUP3 AND SWAP2 POP JUMPDEST PUSH1 0x20 DUP3 LT DUP2 SUB PUSH2 0xE6D JUMPI PUSH2 0xE6C PUSH2 0xE16 JUMP JUMPDEST JUMPDEST POP SWAP2 SWAP1 POP JUMP JUMPDEST PUSH0 DUP2 SWAP1 POP DUP2 PUSH0 MSTORE PUSH1 0x20 PUSH0 KECCAK256 SWAP1 POP SWAP2 SWAP1 POP JUMP JUMPDEST PUSH0 PUSH1 0x20 PUSH1 0x1F DUP4 ADD DIV SWAP1 POP SWAP2 SWAP1 POP JUMP JUMPDEST PUSH0 DUP3 DUP3 SHL SWAP1 POP SWAP3 SWAP2 POP POP JUMP JUMPDEST PUSH0 PUSH1 0x8 DUP4 MUL PUSH2 0xECF PUSH32 0xFFFFFFFFFFFFFFFFFFFFFFFFFFFFFFFFFFFFFFFFFFFFFFFFFFFFFFFFFFFFFFFF DUP3 PUSH2 0xE94 JUMP JUMPDEST PUSH2 0xED9 DUP7 DUP4 PUSH2 0xE94 JUMP JUMPDEST SWAP6 POP DUP1 NOT DUP5 AND SWAP4 POP DUP1 DUP7 AND DUP5 OR SWAP3 POP POP POP SWAP4 SWAP3 POP POP POP JUMP JUMPDEST PUSH0 DUP2 SWAP1 POP SWAP2 SWAP1 POP JUMP JUMPDEST PUSH0 PUSH2 0xF14 PUSH2 0xF0F PUSH2 0xF0A DUP5 PUSH2 0x8A2 JUMP JUMPDEST PUSH2 0xEF1 JUMP JUMPDEST PUSH2 0x8A2 JUMP JUMPDEST SWAP1 POP SWAP2 SWAP1 POP JUMP JUMPDEST PUSH0 DUP2 SWAP1 POP SWAP2 SWAP1 POP JUMP JUMPDEST PUSH2 0xF2D DUP4 PUSH2 0xEFA JUMP JUMPDEST PUSH2 0xF41 PUSH2 0xF39 DUP3 PUSH2 0xF1B JUMP JUMPDEST DUP5 DUP5 SLOAD PUSH2 0xEA0 JUMP JUMPDEST DUP3 SSTORE POP POP POP POP JUMP JUMPDEST PUSH0 SWAP1 JUMP JUMPDEST PUSH2 0xF55 PUSH2 0xF49 JUMP JUMPDEST PUSH2 0xF60 DUP2 DUP5 DUP5 PUSH2 0xF24 JUMP JUMPDEST POP POP POP JUMP JUMPDEST JUMPDEST DUP2 DUP2 LT ISZERO PUSH2 0xF83 JUMPI PUSH2 0xF78 PUSH0 DUP3 PUSH2 0xF4D JUMP JUMPDEST PUSH1 0x1 DUP2 ADD SWAP1 POP PUSH2 0xF66 JUMP JUMPDEST POP POP JUMP JUMPDEST PUSH1 0x1F DUP3 GT ISZERO PUSH2 0xFC8 JUMPI PUSH2 0xF99 DUP2 PUSH2 0xE73 JUMP JUMPDEST PUSH2 0xFA2 DUP5 PUSH2 0xE85 JUMP JUMPDEST DUP2 ADD PUSH1 0x20 DUP6 LT ISZERO PUSH2 0xFB1 JUMPI DUP2 SWAP1 POP JUMPDEST PUSH2 0xFC5 PUSH2 0xFBD DUP6 PUSH2 0xE85 JUMP JUMPDEST DUP4 ADD DUP3 PUSH2 0xF65 JUMP JUMPDEST POP POP JUMPDEST POP POP POP JUMP JUMPDEST PUSH0 DUP3 DUP3 SHR SWAP1 POP SWAP3 SWAP2 POP POP JUMP JUMPDEST PUSH0 PUSH2 0xFE8 PUSH0 NOT DUP5 PUSH1 0x8 MUL PUSH2 0xFCD JUMP JUMPDEST NOT DUP1 DUP4 AND SWAP2 POP POP SWAP3 SWAP2 POP POP JUMP JUMPDEST PUSH0 PUSH2 0x1000 DUP4 DUP4 PUSH2 0xFD9 JUMP JUMPDEST SWAP2 POP DUP3 PUSH1 0x2 MUL DUP3 OR SWAP1 POP SWAP3 SWAP2 POP POP JUMP JUMPDEST PUSH2 0x1019 DUP3 PUSH2 0xA83 JUMP JUMPDEST PUSH8 0xFFFFFFFFFFFFFFFF DUP2 GT ISZERO PUSH2 0x1032 JUMPI PUSH2 0x1031 PUSH2 0x918 JUMP JUMPDEST JUMPDEST PUSH2 0x103C DUP3 SLOAD PUSH2 0xE43 JUMP JUMPDEST PUSH2 0x1047 DUP3 DUP3 DUP6 PUSH2 0xF87 JUMP JUMPDEST PUSH0 PUSH1 0x20 SWAP1 POP PUSH1 0x1F DUP4 GT PUSH1 0x1 DUP2 EQ PUSH2 0x1078 JUMPI PUSH0 DUP5 ISZERO PUSH2 0x1066 JUMPI DUP3 DUP8 ADD MLOAD SWAP1 POP JUMPDEST PUSH2 0x1070 DUP6 DUP3 PUSH2 0xFF5 JUMP JUMPDEST DUP7 SSTORE POP PUSH2 0x10D7 JUMP JUMPDEST PUSH1 0x1F NOT DUP5 AND PUSH2 0x1086 DUP7 PUSH2 0xE73 JUMP JUMPDEST PUSH0 JUMPDEST DUP3 DUP2 LT ISZERO PUSH2 0x10AD JUMPI DUP5 DUP10 ADD MLOAD DUP3 SSTORE PUSH1 0x1 DUP3 ADD SWAP2 POP PUSH1 0x20 DUP6 ADD SWAP5 POP PUSH1 0x20 DUP2 ADD SWAP1 POP PUSH2 0x1088 JUMP JUMPDEST DUP7 DUP4 LT ISZERO PUSH2 0x10CA JUMPI DUP5 DUP10 ADD MLOAD PUSH2 0x10C6 PUSH1 0x1F DUP10 AND DUP3 PUSH2 0xFD9 JUMP JUMPDEST DUP4 SSTORE POP JUMPDEST PUSH1 0x1 PUSH1 0x2 DUP9 MUL ADD DUP9 SSTORE POP POP POP JUMPDEST POP POP POP POP POP POP JUMP JUMPDEST PUSH32 0x50726F6A65637420686173206661696C656420746F2072656163682069747320 PUSH0 DUP3 ADD MSTORE PUSH32 0x7461726765740000000000000000000000000000000000000000000000000000 PUSH1 0x20 DUP3 ADD MSTORE POP JUMP JUMPDEST PUSH0 PUSH2 0x1139 PUSH1 0x26 DUP4 PUSH2 0xA8D JUMP JUMPDEST SWAP2 POP PUSH2 0x1144 DUP3 PUSH2 0x10DF JUMP JUMPDEST PUSH1 0x40 DUP3 ADD SWAP1 POP SWAP2 SWAP1 POP JUMP JUMPDEST PUSH0 PUSH1 0x20 DUP3 ADD SWAP1 POP DUP2 DUP2 SUB PUSH0 DUP4 ADD MSTORE PUSH2 0x1166 DUP2 PUSH2 0x112D JUMP JUMPDEST SWAP1 POP SWAP2 SWAP1 POP JUMP JUMPDEST PUSH32 0x4F6E6C7920746865206F776E65722063616E20636C61696D20746865206D6F6E PUSH0 DUP3 ADD MSTORE PUSH32 0x6579000000000000000000000000000000000000000000000000000000000000 PUSH1 0x20 DUP3 ADD MSTORE POP JUMP JUMPDEST PUSH0 PUSH2 0x11C7 PUSH1 0x22 DUP4 PUSH2 0xA8D JUMP JUMPDEST SWAP2 POP PUSH2 0x11D2 DUP3 PUSH2 0x116D JUMP JUMPDEST PUSH1 0x40 DUP3 ADD SWAP1 POP SWAP2 SWAP1 POP JUMP JUMPDEST PUSH0 PUSH1 0x20 DUP3 ADD SWAP1 POP DUP2 DUP2 SUB PUSH0 DUP4 ADD MSTORE PUSH2 0x11F4 DUP2 PUSH2 0x11BB JUMP JUMPDEST SWAP1 POP SWAP2 SWAP1 POP JUMP JUMPDEST PUSH32 0x4F6E6C7920746865206F776E65722063616E2064657374726F79207468652063 PUSH0 DUP3 ADD MSTORE PUSH32 0x6F6E747261637400000000000000000000000000000000000000000000000000 PUSH1 0x20 DUP3 ADD MSTORE POP JUMP JUMPDEST PUSH0 PUSH2 0x1255 PUSH1 0x27 DUP4 PUSH2 0xA8D JUMP JUMPDEST SWAP2 POP PUSH2 0x1260 DUP3 PUSH2 0x11FB JUMP JUMPDEST PUSH1 0x40 DUP3 ADD SWAP1 POP SWAP2 SWAP1 POP JUMP JUMPDEST PUSH0 PUSH1 0x20 DUP3 ADD SWAP1 POP DUP2 DUP2 SUB PUSH0 DUP4 ADD MSTORE PUSH2 0x1282 DUP2 PUSH2 0x1249 JUMP JUMPDEST SWAP1 POP SWAP2 SWAP1 POP JUMP JUMPDEST PUSH32 0x4F6E6C7920746865206F776E65722063616E20736574207468652070726F6A65 PUSH0 DUP3 ADD MSTORE PUSH32 0x6374206465736372697074696F6E000000000000000000000000000000000000 PUSH1 0x20 DUP3 ADD MSTORE POP JUMP JUMPDEST PUSH0 PUSH2 0x12E3 PUSH1 0x2E DUP4 PUSH2 0xA8D JUMP JUMPDEST SWAP2 POP PUSH2 0x12EE DUP3 PUSH2 0x1289 JUMP JUMPDEST PUSH1 0x40 DUP3 ADD SWAP1 POP SWAP2 SWAP1 POP JUMP JUMPDEST PUSH0 PUSH1 0x20 DUP3 ADD SWAP1 POP DUP2 DUP2 SUB PUSH0 DUP4 ADD MSTORE PUSH2 0x1310 DUP2 PUSH2 0x12D7 JUMP JUMPDEST SWAP1 POP SWAP2 SWAP1 POP JUMP JUMPDEST PUSH0 PUSH2 0x1321 DUP3 PUSH2 0x8A2 JUMP JUMPDEST SWAP2 POP PUSH2 0x132C DUP4 PUSH2 0x8A2 JUMP JUMPDEST SWAP3 POP DUP3 DUP3 ADD SWAP1 POP DUP1 DUP3 GT ISZERO PUSH2 0x1344 JUMPI PUSH2 0x1343 PUSH2 0xD28 JUMP JUMPDEST JUMPDEST SWAP3 SWAP2 POP POP JUMP INVALID LOG2 PUSH5 0x6970667358 0x22 SLT KECCAK256 0xAF 0xF9 REVERT 0xD5 0xAE 0xEC KECCAK256 0xE5 0x1F JUMP 0x4C PUSH27 0xBB8A4AADB3534C101A2EBC4AD6ACB7C91B3C718664736F6C634300 ADDMOD AND STOP CALLER "
				},
				"gasEstimates": {
					"creation": {
						"codeDepositCost": "998400",
						"executionCost": "infinite",
						"totalCost": "infinite"
					},
					"external": {
						"balance(address)": "2890",
						"claimMoney()": "infinite",
						"deposit()": "infinite",
						"destroy()": "32108",
						"getProjectDescription()": "infinite",
						"getProjectName()": "infinite",
						"setProjectDescription(string)": "infinite",
						"setProjectName(string)": "infinite",
						"withdraw(uint256)": "infinite"
					}
				},
				"methodIdentifiers": {
					"balance(address)": "e3d670d7",
					"claimMoney()": "6658e52b",
					"deposit()": "d0e30db0",
					"destroy()": "83197ef0",
					"getProjectDescription()": "968b4fe9",
					"getProjectName()": "9faf6215",
					"setProjectDescription(string)": "c4f6b0fa",
					"setProjectName(string)": "48b6b16f",
					"withdraw(uint256)": "2e1a7d4d"
				}
			},
			"storageLayout": {
				"storage": [
					{
						"astId": 3,
						"contract": "Factory.sol:Factory",
						"label": "owner",
						"offset": 0,
						"slot": "0",
						"type": "t_address"
					},
					{
						"astId": 5,
						"contract": "Factory.sol:Factory",
						"label": "projectName",
						"offset": 0,
						"slot": "1",
						"type": "t_string_storage"
					},
					{
						"astId": 7,
						"contract": "Factory.sol:Factory",
						"label": "projectDescription",
						"offset": 0,
						"slot": "2",
						"type": "t_string_storage"
					},
					{
						"astId": 9,
						"contract": "Factory.sol:Factory",
						"label": "target",
						"offset": 0,
						"slot": "3",
						"type": "t_uint256"
					},
					{
						"astId": 11,
						"contract": "Factory.sol:Factory",
						"label": "raised",
						"offset": 0,
						"slot": "4",
						"type": "t_uint256"
					},
					{
						"astId": 13,
						"contract": "Factory.sol:Factory",
						"label": "releaseTime",
						"offset": 0,
						"slot": "5",
						"type": "t_uint256"
					},
					{
						"astId": 17,
						"contract": "Factory.sol:Factory",
						"label": "balance",
						"offset": 0,
						"slot": "6",
						"type": "t_mapping(t_address,t_uint256)"
					}
				],
				"types": {
					"t_address": {
						"encoding": "inplace",
						"label": "address",
						"numberOfBytes": "20"
					},
					"t_mapping(t_address,t_uint256)": {
						"encoding": "mapping",
						"key": "t_address",
						"label": "mapping(address => uint256)",
						"numberOfBytes": "32",
						"value": "t_uint256"
					},
					"t_string_storage": {
						"encoding": "bytes",
						"label": "string",
						"numberOfBytes": "32"
					},
					"t_uint256": {
						"encoding": "inplace",
						"label": "uint256",
						"numberOfBytes": "32"
					}
				}
			},
			"userdoc": {
				"kind": "user",
				"methods": {},
				"version": 1
			}
		}
	}
}