{
	"Pool.sol": {
		"Platform": {
			"abi": [
				{
					"inputs": [
						{
							"internalType": "address",
							"name": "template",
							"type": "address"
						}
					],
					"stateMutability": "nonpayable",
					"type": "constructor"
				},
				{
					"inputs": [],
					"name": "ERC1167FailedCreateClone",
					"type": "error"
				},
				{
					"inputs": [
						{
							"internalType": "string",
							"name": "projectName",
							"type": "string"
						},
						{
							"internalType": "uint256",
							"name": "no_of_date",
							"type": "uint256"
						}
					],
					"name": "createProject",
					"outputs": [
						{
							"internalType": "uint256",
							"name": "",
							"type": "uint256"
						},
						{
							"internalType": "address",
							"name": "",
							"type": "address"
						}
					],
					"stateMutability": "nonpayable",
					"type": "function"
				},
				{
					"inputs": [],
					"name": "test",
					"outputs": [
						{
							"internalType": "address",
							"name": "",
							"type": "address"
						}
					],
					"stateMutability": "view",
					"type": "function"
				}
			],
			"devdoc": {
				"errors": {
					"ERC1167FailedCreateClone()": [
						{
							"details": "A clone instance deployment failed."
						}
					]
				},
				"kind": "dev",
				"methods": {},
				"version": 1
			},
			"evm": {
				"assembly": "    /* \"Pool.sol\":82:1062  contract Platform{... */\n  mstore(0x40, 0x80)\n    /* \"Pool.sol\":244:245  0 */\n  0x00\n    /* \"Pool.sol\":222:245  uint256 contract_id = 0 */\n  0x04\n  sstore\n    /* \"Pool.sol\":256:406  constructor (address template) {... */\n  callvalue\n  dup1\n  iszero\n  tag_1\n  jumpi\n  0x00\n  dup1\n  revert\ntag_1:\n  pop\n  mload(0x40)\n  sub(codesize, bytecodeSize)\n  dup1\n  bytecodeSize\n  dup4\n  codecopy\n  dup2\n  dup2\n  add\n  0x40\n  mstore\n  dup2\n  add\n  swap1\n  tag_2\n  swap2\n  swap1\n  tag_3\n  jump\t// in\ntag_2:\n    /* \"Pool.sol\":317:325  template */\n  dup1\n    /* \"Pool.sol\":298:314  template_address */\n  0x01\n  0x00\n    /* \"Pool.sol\":298:325  template_address = template */\n  0x0100\n  exp\n  dup2\n  sload\n  dup2\n  0xffffffffffffffffffffffffffffffffffffffff\n  mul\n  not\n  and\n  swap1\n  dup4\n  0xffffffffffffffffffffffffffffffffffffffff\n  and\n  mul\n  or\n  swap1\n  sstore\n  pop\n    /* \"Pool.sol\":355:365  msg.sender */\n  caller\n    /* \"Pool.sol\":336:352  contract_creator */\n  0x00\n  dup1\n    /* \"Pool.sol\":336:365  contract_creator = msg.sender */\n  0x0100\n  exp\n  dup2\n  sload\n  dup2\n  0xffffffffffffffffffffffffffffffffffffffff\n  mul\n  not\n  and\n  swap1\n  dup4\n  0xffffffffffffffffffffffffffffffffffffffff\n  and\n  mul\n  or\n  swap1\n  sstore\n  pop\n    /* \"Pool.sol\":376:381  admin */\n  0x02\n    /* \"Pool.sol\":387:397  msg.sender */\n  caller\n    /* \"Pool.sol\":376:398  admin.push(msg.sender) */\n  swap1\n  dup1\n  0x01\n  dup2\n  sload\n  add\n  dup1\n  dup3\n  sstore\n  dup1\n  swap2\n  pop\n  pop\n  0x01\n  swap1\n  sub\n  swap1\n  0x00\n  mstore\n  keccak256(0x00, 0x20)\n  add\n  0x00\n  swap1\n  swap2\n  swap1\n  swap2\n  swap1\n  swap2\n  0x0100\n  exp\n  dup2\n  sload\n  dup2\n  0xffffffffffffffffffffffffffffffffffffffff\n  mul\n  not\n  and\n  swap1\n  dup4\n  0xffffffffffffffffffffffffffffffffffffffff\n  and\n  mul\n  or\n  swap1\n  sstore\n  pop\n    /* \"Pool.sol\":256:406  constructor (address template) {... */\n  pop\n    /* \"Pool.sol\":82:1062  contract Platform{... */\n  jump(tag_7)\n    /* \"#utility.yul\":88:205   */\ntag_9:\n    /* \"#utility.yul\":197:198   */\n  0x00\n    /* \"#utility.yul\":194:195   */\n  dup1\n    /* \"#utility.yul\":187:199   */\n  revert\n    /* \"#utility.yul\":334:460   */\ntag_11:\n    /* \"#utility.yul\":371:378   */\n  0x00\n    /* \"#utility.yul\":411:453   */\n  0xffffffffffffffffffffffffffffffffffffffff\n    /* \"#utility.yul\":404:409   */\n  dup3\n    /* \"#utility.yul\":400:454   */\n  and\n    /* \"#utility.yul\":389:454   */\n  swap1\n  pop\n    /* \"#utility.yul\":334:460   */\n  swap2\n  swap1\n  pop\n  jump\t// out\n    /* \"#utility.yul\":466:562   */\ntag_12:\n    /* \"#utility.yul\":503:510   */\n  0x00\n    /* \"#utility.yul\":532:556   */\n  tag_21\n    /* \"#utility.yul\":550:555   */\n  dup3\n    /* \"#utility.yul\":532:556   */\n  tag_11\n  jump\t// in\ntag_21:\n    /* \"#utility.yul\":521:556   */\n  swap1\n  pop\n    /* \"#utility.yul\":466:562   */\n  swap2\n  swap1\n  pop\n  jump\t// out\n    /* \"#utility.yul\":568:690   */\ntag_13:\n    /* \"#utility.yul\":641:665   */\n  tag_23\n    /* \"#utility.yul\":659:664   */\n  dup2\n    /* \"#utility.yul\":641:665   */\n  tag_12\n  jump\t// in\ntag_23:\n    /* \"#utility.yul\":634:639   */\n  dup2\n    /* \"#utility.yul\":631:666   */\n  eq\n    /* \"#utility.yul\":621:684   */\n  tag_24\n  jumpi\n    /* \"#utility.yul\":680:681   */\n  0x00\n    /* \"#utility.yul\":677:678   */\n  dup1\n    /* \"#utility.yul\":670:682   */\n  revert\n    /* \"#utility.yul\":621:684   */\ntag_24:\n    /* \"#utility.yul\":568:690   */\n  pop\n  jump\t// out\n    /* \"#utility.yul\":696:839   */\ntag_14:\n    /* \"#utility.yul\":753:758   */\n  0x00\n    /* \"#utility.yul\":784:790   */\n  dup2\n    /* \"#utility.yul\":778:791   */\n  mload\n    /* \"#utility.yul\":769:791   */\n  swap1\n  pop\n    /* \"#utility.yul\":800:833   */\n  tag_26\n    /* \"#utility.yul\":827:832   */\n  dup2\n    /* \"#utility.yul\":800:833   */\n  tag_13\n  jump\t// in\ntag_26:\n    /* \"#utility.yul\":696:839   */\n  swap3\n  swap2\n  pop\n  pop\n  jump\t// out\n    /* \"#utility.yul\":845:1196   */\ntag_3:\n    /* \"#utility.yul\":915:921   */\n  0x00\n    /* \"#utility.yul\":964:966   */\n  0x20\n    /* \"#utility.yul\":952:961   */\n  dup3\n    /* \"#utility.yul\":943:950   */\n  dup5\n    /* \"#utility.yul\":939:962   */\n  sub\n    /* \"#utility.yul\":935:967   */\n  slt\n    /* \"#utility.yul\":932:1051   */\n  iszero\n  tag_28\n  jumpi\n    /* \"#utility.yul\":970:1049   */\n  tag_29\n  tag_9\n  jump\t// in\ntag_29:\n    /* \"#utility.yul\":932:1051   */\ntag_28:\n    /* \"#utility.yul\":1090:1091   */\n  0x00\n    /* \"#utility.yul\":1115:1179   */\n  tag_30\n    /* \"#utility.yul\":1171:1178   */\n  dup5\n    /* \"#utility.yul\":1162:1168   */\n  dup3\n    /* \"#utility.yul\":1151:1160   */\n  dup6\n    /* \"#utility.yul\":1147:1169   */\n  add\n    /* \"#utility.yul\":1115:1179   */\n  tag_14\n  jump\t// in\ntag_30:\n    /* \"#utility.yul\":1105:1179   */\n  swap2\n  pop\n    /* \"#utility.yul\":1061:1189   */\n  pop\n    /* \"#utility.yul\":845:1196   */\n  swap3\n  swap2\n  pop\n  pop\n  jump\t// out\n    /* \"Pool.sol\":82:1062  contract Platform{... */\ntag_7:\n  dataSize(sub_0)\n  dup1\n  dataOffset(sub_0)\n  0x00\n  codecopy\n  0x00\n  return\nstop\n\nsub_0: assembly {\n        /* \"Pool.sol\":82:1062  contract Platform{... */\n      mstore(0x40, 0x80)\n      callvalue\n      dup1\n      iszero\n      tag_1\n      jumpi\n      0x00\n      dup1\n      revert\n    tag_1:\n      pop\n      jumpi(tag_2, lt(calldatasize, 0x04))\n      shr(0xe0, calldataload(0x00))\n      dup1\n      0x91754a5d\n      eq\n      tag_3\n      jumpi\n      dup1\n      0xf8a8fd6d\n      eq\n      tag_4\n      jumpi\n    tag_2:\n      0x00\n      dup1\n      revert\n        /* \"Pool.sol\":511:1057  function createProject(string memory projectName, uint256 no_of_date) external returns (uint256, address){... */\n    tag_3:\n      tag_5\n      0x04\n      dup1\n      calldatasize\n      sub\n      dup2\n      add\n      swap1\n      tag_6\n      swap2\n      swap1\n      tag_7\n      jump\t// in\n    tag_6:\n      tag_8\n      jump\t// in\n    tag_5:\n      mload(0x40)\n      tag_9\n      swap3\n      swap2\n      swap1\n      tag_10\n      jump\t// in\n    tag_9:\n      mload(0x40)\n      dup1\n      swap2\n      sub\n      swap1\n      return\n        /* \"Pool.sol\":414:503  function test() external view returns (address){... */\n    tag_4:\n      tag_11\n      tag_12\n      jump\t// in\n    tag_11:\n      mload(0x40)\n      tag_13\n      swap2\n      swap1\n      tag_14\n      jump\t// in\n    tag_13:\n      mload(0x40)\n      dup1\n      swap2\n      sub\n      swap1\n      return\n        /* \"Pool.sol\":511:1057  function createProject(string memory projectName, uint256 no_of_date) external returns (uint256, address){... */\n    tag_8:\n        /* \"Pool.sol\":599:606  uint256 */\n      0x00\n        /* \"Pool.sol\":608:615  address */\n      dup1\n        /* \"Pool.sol\":627:642  address project */\n      0x00\n        /* \"Pool.sol\":645:710  Clones.cloneDeterministic(template_address, bytes32(contract_id)) */\n      tag_16\n        /* \"Pool.sol\":671:687  template_address */\n      0x01\n      0x00\n      swap1\n      sload\n      swap1\n      0x0100\n      exp\n      swap1\n      div\n      0xffffffffffffffffffffffffffffffffffffffff\n      and\n        /* \"Pool.sol\":697:708  contract_id */\n      sload(0x04)\n        /* \"Pool.sol\":689:709  bytes32(contract_id) */\n      0x00\n      shl\n        /* \"Pool.sol\":645:670  Clones.cloneDeterministic */\n      tag_17\n        /* \"Pool.sol\":645:710  Clones.cloneDeterministic(template_address, bytes32(contract_id)) */\n      jump\t// in\n    tag_16:\n        /* \"Pool.sol\":627:710  address project = Clones.cloneDeterministic(template_address, bytes32(contract_id)) */\n      swap1\n      pop\n        /* \"Pool.sol\":721:736  running_project */\n      0x03\n        /* \"Pool.sol\":742:749  project */\n      dup2\n        /* \"Pool.sol\":721:750  running_project.push(project) */\n      swap1\n      dup1\n      0x01\n      dup2\n      sload\n      add\n      dup1\n      dup3\n      sstore\n      dup1\n      swap2\n      pop\n      pop\n      0x01\n      swap1\n      sub\n      swap1\n      0x00\n      mstore\n      keccak256(0x00, 0x20)\n      add\n      0x00\n      swap1\n      swap2\n      swap1\n      swap2\n      swap1\n      swap2\n      0x0100\n      exp\n      dup2\n      sload\n      dup2\n      0xffffffffffffffffffffffffffffffffffffffff\n      mul\n      not\n      and\n      swap1\n      dup4\n      0xffffffffffffffffffffffffffffffffffffffff\n      and\n      mul\n      or\n      swap1\n      sstore\n      pop\n        /* \"Pool.sol\":776:777  1 */\n      0x01\n        /* \"Pool.sol\":761:772  contract_id */\n      0x04\n      0x00\n        /* \"Pool.sol\":761:777  contract_id += 1 */\n      dup3\n      dup3\n      sload\n      tag_19\n      swap2\n      swap1\n      tag_20\n      jump\t// in\n    tag_19:\n      swap3\n      pop\n      pop\n      dup2\n      swap1\n      sstore\n      pop\n        /* \"Pool.sol\":1038:1039  1 */\n      0x01\n        /* \"Pool.sol\":1024:1035  contract_id */\n      sload(0x04)\n        /* \"Pool.sol\":1024:1039  contract_id - 1 */\n      tag_21\n      swap2\n      swap1\n      tag_22\n      jump\t// in\n    tag_21:\n        /* \"Pool.sol\":1041:1048  project */\n      dup2\n        /* \"Pool.sol\":1016:1049  return (contract_id - 1, project) */\n      swap3\n      pop\n      swap3\n      pop\n      pop\n        /* \"Pool.sol\":511:1057  function createProject(string memory projectName, uint256 no_of_date) external returns (uint256, address){... */\n      swap3\n      pop\n      swap3\n      swap1\n      pop\n      jump\t// out\n        /* \"Pool.sol\":414:503  function test() external view returns (address){... */\n    tag_12:\n        /* \"Pool.sol\":453:460  address */\n      0x00\n        /* \"Pool.sol\":479:495  template_address */\n      0x01\n      0x00\n      swap1\n      sload\n      swap1\n      0x0100\n      exp\n      swap1\n      div\n      0xffffffffffffffffffffffffffffffffffffffff\n      and\n        /* \"Pool.sol\":472:495  return template_address */\n      swap1\n      pop\n        /* \"Pool.sol\":414:503  function test() external view returns (address){... */\n      swap1\n      jump\t// out\n        /* \"@openzeppelin/contracts/proxy/Clones.sol\":2209:3030  function cloneDeterministic(address implementation, bytes32 salt) internal returns (address instance) {... */\n    tag_17:\n        /* \"@openzeppelin/contracts/proxy/Clones.sol\":2293:2309  address instance */\n      0x00\n        /* \"@openzeppelin/contracts/proxy/Clones.sol\":2625:2673  0x3d602d80600a3d3981f3363d3d373d3d3d363d73000000 */\n      0x3d602d80600a3d3981f3363d3d373d3d3d363d73000000\n        /* \"@openzeppelin/contracts/proxy/Clones.sol\":2607:2621  implementation */\n      dup4\n        /* \"@openzeppelin/contracts/proxy/Clones.sol\":2601:2605  0x60 */\n      0x60\n        /* \"@openzeppelin/contracts/proxy/Clones.sol\":2597:2622  shl(0x60, implementation) */\n      shl\n        /* \"@openzeppelin/contracts/proxy/Clones.sol\":2591:2595  0xe8 */\n      0xe8\n        /* \"@openzeppelin/contracts/proxy/Clones.sol\":2587:2623  shr(0xe8, shl(0x60, implementation)) */\n      shr\n        /* \"@openzeppelin/contracts/proxy/Clones.sol\":2584:2674  or(shr(0xe8, shl(0x60, implementation)), 0x3d602d80600a3d3981f3363d3d373d3d3d363d73000000) */\n      or\n        /* \"@openzeppelin/contracts/proxy/Clones.sol\":2578:2582  0x00 */\n      0x00\n        /* \"@openzeppelin/contracts/proxy/Clones.sol\":2571:2675  mstore(0x00, or(shr(0xe8, shl(0x60, implementation)), 0x3d602d80600a3d3981f3363d3d373d3d3d363d73000000)) */\n      mstore\n        /* \"@openzeppelin/contracts/proxy/Clones.sol\":2832:2864  0x5af43d82803e903d91602b57fd5bf3 */\n      0x5af43d82803e903d91602b57fd5bf3\n        /* \"@openzeppelin/contracts/proxy/Clones.sol\":2815:2829  implementation */\n      dup4\n        /* \"@openzeppelin/contracts/proxy/Clones.sol\":2809:2813  0x78 */\n      0x78\n        /* \"@openzeppelin/contracts/proxy/Clones.sol\":2805:2830  shl(0x78, implementation) */\n      shl\n        /* \"@openzeppelin/contracts/proxy/Clones.sol\":2802:2865  or(shl(0x78, implementation), 0x5af43d82803e903d91602b57fd5bf3) */\n      or\n        /* \"@openzeppelin/contracts/proxy/Clones.sol\":2796:2800  0x20 */\n      0x20\n        /* \"@openzeppelin/contracts/proxy/Clones.sol\":2789:2866  mstore(0x20, or(shl(0x78, implementation), 0x5af43d82803e903d91602b57fd5bf3)) */\n      mstore\n        /* \"@openzeppelin/contracts/proxy/Clones.sol\":2914:2918  salt */\n      dup2\n        /* \"@openzeppelin/contracts/proxy/Clones.sol\":2908:2912  0x37 */\n      0x37\n        /* \"@openzeppelin/contracts/proxy/Clones.sol\":2902:2906  0x09 */\n      0x09\n        /* \"@openzeppelin/contracts/proxy/Clones.sol\":2899:2900  0 */\n      0x00\n        /* \"@openzeppelin/contracts/proxy/Clones.sol\":2891:2919  create2(0, 0x09, 0x37, salt) */\n      create2\n        /* \"@openzeppelin/contracts/proxy/Clones.sol\":2879:2919  instance := create2(0, 0x09, 0x37, salt) */\n      swap1\n      pop\n        /* \"@openzeppelin/contracts/proxy/Clones.sol\":2962:2963  0 */\n      0x00\n        /* \"@openzeppelin/contracts/proxy/Clones.sol\":2942:2964  instance == address(0) */\n      0xffffffffffffffffffffffffffffffffffffffff\n      and\n        /* \"@openzeppelin/contracts/proxy/Clones.sol\":2942:2950  instance */\n      dup2\n        /* \"@openzeppelin/contracts/proxy/Clones.sol\":2942:2964  instance == address(0) */\n      0xffffffffffffffffffffffffffffffffffffffff\n      and\n      sub\n        /* \"@openzeppelin/contracts/proxy/Clones.sol\":2938:3024  if (instance == address(0)) {... */\n      tag_25\n      jumpi\n        /* \"@openzeppelin/contracts/proxy/Clones.sol\":2987:3013  ERC1167FailedCreateClone() */\n      mload(0x40)\n      0xc2f868f400000000000000000000000000000000000000000000000000000000\n      dup2\n      mstore\n      0x04\n      add\n      mload(0x40)\n      dup1\n      swap2\n      sub\n      swap1\n      revert\n        /* \"@openzeppelin/contracts/proxy/Clones.sol\":2938:3024  if (instance == address(0)) {... */\n    tag_25:\n        /* \"@openzeppelin/contracts/proxy/Clones.sol\":2209:3030  function cloneDeterministic(address implementation, bytes32 salt) internal returns (address instance) {... */\n      swap3\n      swap2\n      pop\n      pop\n      jump\t// out\n        /* \"#utility.yul\":7:82   */\n    tag_26:\n        /* \"#utility.yul\":40:46   */\n      0x00\n        /* \"#utility.yul\":73:75   */\n      0x40\n        /* \"#utility.yul\":67:76   */\n      mload\n        /* \"#utility.yul\":57:76   */\n      swap1\n      pop\n        /* \"#utility.yul\":7:82   */\n      swap1\n      jump\t// out\n        /* \"#utility.yul\":88:205   */\n    tag_27:\n        /* \"#utility.yul\":197:198   */\n      0x00\n        /* \"#utility.yul\":194:195   */\n      dup1\n        /* \"#utility.yul\":187:199   */\n      revert\n        /* \"#utility.yul\":211:328   */\n    tag_28:\n        /* \"#utility.yul\":320:321   */\n      0x00\n        /* \"#utility.yul\":317:318   */\n      dup1\n        /* \"#utility.yul\":310:322   */\n      revert\n        /* \"#utility.yul\":334:451   */\n    tag_29:\n        /* \"#utility.yul\":443:444   */\n      0x00\n        /* \"#utility.yul\":440:441   */\n      dup1\n        /* \"#utility.yul\":433:445   */\n      revert\n        /* \"#utility.yul\":457:574   */\n    tag_30:\n        /* \"#utility.yul\":566:567   */\n      0x00\n        /* \"#utility.yul\":563:564   */\n      dup1\n        /* \"#utility.yul\":556:568   */\n      revert\n        /* \"#utility.yul\":580:682   */\n    tag_31:\n        /* \"#utility.yul\":621:627   */\n      0x00\n        /* \"#utility.yul\":672:674   */\n      0x1f\n        /* \"#utility.yul\":668:675   */\n      not\n        /* \"#utility.yul\":663:665   */\n      0x1f\n        /* \"#utility.yul\":656:661   */\n      dup4\n        /* \"#utility.yul\":652:666   */\n      add\n        /* \"#utility.yul\":648:676   */\n      and\n        /* \"#utility.yul\":638:676   */\n      swap1\n      pop\n        /* \"#utility.yul\":580:682   */\n      swap2\n      swap1\n      pop\n      jump\t// out\n        /* \"#utility.yul\":688:868   */\n    tag_32:\n        /* \"#utility.yul\":736:813   */\n      0x4e487b7100000000000000000000000000000000000000000000000000000000\n        /* \"#utility.yul\":733:734   */\n      0x00\n        /* \"#utility.yul\":726:814   */\n      mstore\n        /* \"#utility.yul\":833:837   */\n      0x41\n        /* \"#utility.yul\":830:831   */\n      0x04\n        /* \"#utility.yul\":823:838   */\n      mstore\n        /* \"#utility.yul\":857:861   */\n      0x24\n        /* \"#utility.yul\":854:855   */\n      0x00\n        /* \"#utility.yul\":847:862   */\n      revert\n        /* \"#utility.yul\":874:1155   */\n    tag_33:\n        /* \"#utility.yul\":957:984   */\n      tag_56\n        /* \"#utility.yul\":979:983   */\n      dup3\n        /* \"#utility.yul\":957:984   */\n      tag_31\n      jump\t// in\n    tag_56:\n        /* \"#utility.yul\":949:955   */\n      dup2\n        /* \"#utility.yul\":945:985   */\n      add\n        /* \"#utility.yul\":1087:1093   */\n      dup2\n        /* \"#utility.yul\":1075:1085   */\n      dup2\n        /* \"#utility.yul\":1072:1094   */\n      lt\n        /* \"#utility.yul\":1051:1069   */\n      0xffffffffffffffff\n        /* \"#utility.yul\":1039:1049   */\n      dup3\n        /* \"#utility.yul\":1036:1070   */\n      gt\n        /* \"#utility.yul\":1033:1095   */\n      or\n        /* \"#utility.yul\":1030:1118   */\n      iszero\n      tag_57\n      jumpi\n        /* \"#utility.yul\":1098:1116   */\n      tag_58\n      tag_32\n      jump\t// in\n    tag_58:\n        /* \"#utility.yul\":1030:1118   */\n    tag_57:\n        /* \"#utility.yul\":1138:1148   */\n      dup1\n        /* \"#utility.yul\":1134:1136   */\n      0x40\n        /* \"#utility.yul\":1127:1149   */\n      mstore\n        /* \"#utility.yul\":917:1155   */\n      pop\n        /* \"#utility.yul\":874:1155   */\n      pop\n      pop\n      jump\t// out\n        /* \"#utility.yul\":1161:1290   */\n    tag_34:\n        /* \"#utility.yul\":1195:1201   */\n      0x00\n        /* \"#utility.yul\":1222:1242   */\n      tag_60\n      tag_26\n      jump\t// in\n    tag_60:\n        /* \"#utility.yul\":1212:1242   */\n      swap1\n      pop\n        /* \"#utility.yul\":1251:1284   */\n      tag_61\n        /* \"#utility.yul\":1279:1283   */\n      dup3\n        /* \"#utility.yul\":1271:1277   */\n      dup3\n        /* \"#utility.yul\":1251:1284   */\n      tag_33\n      jump\t// in\n    tag_61:\n        /* \"#utility.yul\":1161:1290   */\n      swap2\n      swap1\n      pop\n      jump\t// out\n        /* \"#utility.yul\":1296:1604   */\n    tag_35:\n        /* \"#utility.yul\":1358:1362   */\n      0x00\n        /* \"#utility.yul\":1448:1466   */\n      0xffffffffffffffff\n        /* \"#utility.yul\":1440:1446   */\n      dup3\n        /* \"#utility.yul\":1437:1467   */\n      gt\n        /* \"#utility.yul\":1434:1490   */\n      iszero\n      tag_63\n      jumpi\n        /* \"#utility.yul\":1470:1488   */\n      tag_64\n      tag_32\n      jump\t// in\n    tag_64:\n        /* \"#utility.yul\":1434:1490   */\n    tag_63:\n        /* \"#utility.yul\":1508:1537   */\n      tag_65\n        /* \"#utility.yul\":1530:1536   */\n      dup3\n        /* \"#utility.yul\":1508:1537   */\n      tag_31\n      jump\t// in\n    tag_65:\n        /* \"#utility.yul\":1500:1537   */\n      swap1\n      pop\n        /* \"#utility.yul\":1592:1596   */\n      0x20\n        /* \"#utility.yul\":1586:1590   */\n      dup2\n        /* \"#utility.yul\":1582:1597   */\n      add\n        /* \"#utility.yul\":1574:1597   */\n      swap1\n      pop\n        /* \"#utility.yul\":1296:1604   */\n      swap2\n      swap1\n      pop\n      jump\t// out\n        /* \"#utility.yul\":1610:1756   */\n    tag_36:\n        /* \"#utility.yul\":1707:1713   */\n      dup3\n        /* \"#utility.yul\":1702:1705   */\n      dup2\n        /* \"#utility.yul\":1697:1700   */\n      dup4\n        /* \"#utility.yul\":1684:1714   */\n      calldatacopy\n        /* \"#utility.yul\":1748:1749   */\n      0x00\n        /* \"#utility.yul\":1739:1745   */\n      dup4\n        /* \"#utility.yul\":1734:1737   */\n      dup4\n        /* \"#utility.yul\":1730:1746   */\n      add\n        /* \"#utility.yul\":1723:1750   */\n      mstore\n        /* \"#utility.yul\":1610:1756   */\n      pop\n      pop\n      pop\n      jump\t// out\n        /* \"#utility.yul\":1762:2187   */\n    tag_37:\n        /* \"#utility.yul\":1840:1845   */\n      0x00\n        /* \"#utility.yul\":1865:1931   */\n      tag_68\n        /* \"#utility.yul\":1881:1930   */\n      tag_69\n        /* \"#utility.yul\":1923:1929   */\n      dup5\n        /* \"#utility.yul\":1881:1930   */\n      tag_35\n      jump\t// in\n    tag_69:\n        /* \"#utility.yul\":1865:1931   */\n      tag_34\n      jump\t// in\n    tag_68:\n        /* \"#utility.yul\":1856:1931   */\n      swap1\n      pop\n        /* \"#utility.yul\":1954:1960   */\n      dup3\n        /* \"#utility.yul\":1947:1952   */\n      dup2\n        /* \"#utility.yul\":1940:1961   */\n      mstore\n        /* \"#utility.yul\":1992:1996   */\n      0x20\n        /* \"#utility.yul\":1985:1990   */\n      dup2\n        /* \"#utility.yul\":1981:1997   */\n      add\n        /* \"#utility.yul\":2030:2033   */\n      dup5\n        /* \"#utility.yul\":2021:2027   */\n      dup5\n        /* \"#utility.yul\":2016:2019   */\n      dup5\n        /* \"#utility.yul\":2012:2028   */\n      add\n        /* \"#utility.yul\":2009:2034   */\n      gt\n        /* \"#utility.yul\":2006:2118   */\n      iszero\n      tag_70\n      jumpi\n        /* \"#utility.yul\":2037:2116   */\n      tag_71\n      tag_30\n      jump\t// in\n    tag_71:\n        /* \"#utility.yul\":2006:2118   */\n    tag_70:\n        /* \"#utility.yul\":2127:2181   */\n      tag_72\n        /* \"#utility.yul\":2174:2180   */\n      dup5\n        /* \"#utility.yul\":2169:2172   */\n      dup3\n        /* \"#utility.yul\":2164:2167   */\n      dup6\n        /* \"#utility.yul\":2127:2181   */\n      tag_36\n      jump\t// in\n    tag_72:\n        /* \"#utility.yul\":1846:2187   */\n      pop\n        /* \"#utility.yul\":1762:2187   */\n      swap4\n      swap3\n      pop\n      pop\n      pop\n      jump\t// out\n        /* \"#utility.yul\":2207:2547   */\n    tag_38:\n        /* \"#utility.yul\":2263:2268   */\n      0x00\n        /* \"#utility.yul\":2312:2315   */\n      dup3\n        /* \"#utility.yul\":2305:2309   */\n      0x1f\n        /* \"#utility.yul\":2297:2303   */\n      dup4\n        /* \"#utility.yul\":2293:2310   */\n      add\n        /* \"#utility.yul\":2289:2316   */\n      slt\n        /* \"#utility.yul\":2279:2401   */\n      tag_74\n      jumpi\n        /* \"#utility.yul\":2320:2399   */\n      tag_75\n      tag_29\n      jump\t// in\n    tag_75:\n        /* \"#utility.yul\":2279:2401   */\n    tag_74:\n        /* \"#utility.yul\":2437:2443   */\n      dup2\n        /* \"#utility.yul\":2424:2444   */\n      calldataload\n        /* \"#utility.yul\":2462:2541   */\n      tag_76\n        /* \"#utility.yul\":2537:2540   */\n      dup5\n        /* \"#utility.yul\":2529:2535   */\n      dup3\n        /* \"#utility.yul\":2522:2526   */\n      0x20\n        /* \"#utility.yul\":2514:2520   */\n      dup7\n        /* \"#utility.yul\":2510:2527   */\n      add\n        /* \"#utility.yul\":2462:2541   */\n      tag_37\n      jump\t// in\n    tag_76:\n        /* \"#utility.yul\":2453:2541   */\n      swap2\n      pop\n        /* \"#utility.yul\":2269:2547   */\n      pop\n        /* \"#utility.yul\":2207:2547   */\n      swap3\n      swap2\n      pop\n      pop\n      jump\t// out\n        /* \"#utility.yul\":2553:2630   */\n    tag_39:\n        /* \"#utility.yul\":2590:2597   */\n      0x00\n        /* \"#utility.yul\":2619:2624   */\n      dup2\n        /* \"#utility.yul\":2608:2624   */\n      swap1\n      pop\n        /* \"#utility.yul\":2553:2630   */\n      swap2\n      swap1\n      pop\n      jump\t// out\n        /* \"#utility.yul\":2636:2758   */\n    tag_40:\n        /* \"#utility.yul\":2709:2733   */\n      tag_79\n        /* \"#utility.yul\":2727:2732   */\n      dup2\n        /* \"#utility.yul\":2709:2733   */\n      tag_39\n      jump\t// in\n    tag_79:\n        /* \"#utility.yul\":2702:2707   */\n      dup2\n        /* \"#utility.yul\":2699:2734   */\n      eq\n        /* \"#utility.yul\":2689:2752   */\n      tag_80\n      jumpi\n        /* \"#utility.yul\":2748:2749   */\n      0x00\n        /* \"#utility.yul\":2745:2746   */\n      dup1\n        /* \"#utility.yul\":2738:2750   */\n      revert\n        /* \"#utility.yul\":2689:2752   */\n    tag_80:\n        /* \"#utility.yul\":2636:2758   */\n      pop\n      jump\t// out\n        /* \"#utility.yul\":2764:2903   */\n    tag_41:\n        /* \"#utility.yul\":2810:2815   */\n      0x00\n        /* \"#utility.yul\":2848:2854   */\n      dup2\n        /* \"#utility.yul\":2835:2855   */\n      calldataload\n        /* \"#utility.yul\":2826:2855   */\n      swap1\n      pop\n        /* \"#utility.yul\":2864:2897   */\n      tag_82\n        /* \"#utility.yul\":2891:2896   */\n      dup2\n        /* \"#utility.yul\":2864:2897   */\n      tag_40\n      jump\t// in\n    tag_82:\n        /* \"#utility.yul\":2764:2903   */\n      swap3\n      swap2\n      pop\n      pop\n      jump\t// out\n        /* \"#utility.yul\":2909:3563   */\n    tag_7:\n        /* \"#utility.yul\":2987:2993   */\n      0x00\n        /* \"#utility.yul\":2995:3001   */\n      dup1\n        /* \"#utility.yul\":3044:3046   */\n      0x40\n        /* \"#utility.yul\":3032:3041   */\n      dup4\n        /* \"#utility.yul\":3023:3030   */\n      dup6\n        /* \"#utility.yul\":3019:3042   */\n      sub\n        /* \"#utility.yul\":3015:3047   */\n      slt\n        /* \"#utility.yul\":3012:3131   */\n      iszero\n      tag_84\n      jumpi\n        /* \"#utility.yul\":3050:3129   */\n      tag_85\n      tag_27\n      jump\t// in\n    tag_85:\n        /* \"#utility.yul\":3012:3131   */\n    tag_84:\n        /* \"#utility.yul\":3198:3199   */\n      0x00\n        /* \"#utility.yul\":3187:3196   */\n      dup4\n        /* \"#utility.yul\":3183:3200   */\n      add\n        /* \"#utility.yul\":3170:3201   */\n      calldataload\n        /* \"#utility.yul\":3228:3246   */\n      0xffffffffffffffff\n        /* \"#utility.yul\":3220:3226   */\n      dup2\n        /* \"#utility.yul\":3217:3247   */\n      gt\n        /* \"#utility.yul\":3214:3331   */\n      iszero\n      tag_86\n      jumpi\n        /* \"#utility.yul\":3250:3329   */\n      tag_87\n      tag_28\n      jump\t// in\n    tag_87:\n        /* \"#utility.yul\":3214:3331   */\n    tag_86:\n        /* \"#utility.yul\":3355:3418   */\n      tag_88\n        /* \"#utility.yul\":3410:3417   */\n      dup6\n        /* \"#utility.yul\":3401:3407   */\n      dup3\n        /* \"#utility.yul\":3390:3399   */\n      dup7\n        /* \"#utility.yul\":3386:3408   */\n      add\n        /* \"#utility.yul\":3355:3418   */\n      tag_38\n      jump\t// in\n    tag_88:\n        /* \"#utility.yul\":3345:3418   */\n      swap3\n      pop\n        /* \"#utility.yul\":3141:3428   */\n      pop\n        /* \"#utility.yul\":3467:3469   */\n      0x20\n        /* \"#utility.yul\":3493:3546   */\n      tag_89\n        /* \"#utility.yul\":3538:3545   */\n      dup6\n        /* \"#utility.yul\":3529:3535   */\n      dup3\n        /* \"#utility.yul\":3518:3527   */\n      dup7\n        /* \"#utility.yul\":3514:3536   */\n      add\n        /* \"#utility.yul\":3493:3546   */\n      tag_41\n      jump\t// in\n    tag_89:\n        /* \"#utility.yul\":3483:3546   */\n      swap2\n      pop\n        /* \"#utility.yul\":3438:3556   */\n      pop\n        /* \"#utility.yul\":2909:3563   */\n      swap3\n      pop\n      swap3\n      swap1\n      pop\n      jump\t// out\n        /* \"#utility.yul\":3569:3687   */\n    tag_42:\n        /* \"#utility.yul\":3656:3680   */\n      tag_91\n        /* \"#utility.yul\":3674:3679   */\n      dup2\n        /* \"#utility.yul\":3656:3680   */\n      tag_39\n      jump\t// in\n    tag_91:\n        /* \"#utility.yul\":3651:3654   */\n      dup3\n        /* \"#utility.yul\":3644:3681   */\n      mstore\n        /* \"#utility.yul\":3569:3687   */\n      pop\n      pop\n      jump\t// out\n        /* \"#utility.yul\":3693:3819   */\n    tag_43:\n        /* \"#utility.yul\":3730:3737   */\n      0x00\n        /* \"#utility.yul\":3770:3812   */\n      0xffffffffffffffffffffffffffffffffffffffff\n        /* \"#utility.yul\":3763:3768   */\n      dup3\n        /* \"#utility.yul\":3759:3813   */\n      and\n        /* \"#utility.yul\":3748:3813   */\n      swap1\n      pop\n        /* \"#utility.yul\":3693:3819   */\n      swap2\n      swap1\n      pop\n      jump\t// out\n        /* \"#utility.yul\":3825:3921   */\n    tag_44:\n        /* \"#utility.yul\":3862:3869   */\n      0x00\n        /* \"#utility.yul\":3891:3915   */\n      tag_94\n        /* \"#utility.yul\":3909:3914   */\n      dup3\n        /* \"#utility.yul\":3891:3915   */\n      tag_43\n      jump\t// in\n    tag_94:\n        /* \"#utility.yul\":3880:3915   */\n      swap1\n      pop\n        /* \"#utility.yul\":3825:3921   */\n      swap2\n      swap1\n      pop\n      jump\t// out\n        /* \"#utility.yul\":3927:4045   */\n    tag_45:\n        /* \"#utility.yul\":4014:4038   */\n      tag_96\n        /* \"#utility.yul\":4032:4037   */\n      dup2\n        /* \"#utility.yul\":4014:4038   */\n      tag_44\n      jump\t// in\n    tag_96:\n        /* \"#utility.yul\":4009:4012   */\n      dup3\n        /* \"#utility.yul\":4002:4039   */\n      mstore\n        /* \"#utility.yul\":3927:4045   */\n      pop\n      pop\n      jump\t// out\n        /* \"#utility.yul\":4051:4383   */\n    tag_10:\n        /* \"#utility.yul\":4172:4176   */\n      0x00\n        /* \"#utility.yul\":4210:4212   */\n      0x40\n        /* \"#utility.yul\":4199:4208   */\n      dup3\n        /* \"#utility.yul\":4195:4213   */\n      add\n        /* \"#utility.yul\":4187:4213   */\n      swap1\n      pop\n        /* \"#utility.yul\":4223:4294   */\n      tag_98\n        /* \"#utility.yul\":4291:4292   */\n      0x00\n        /* \"#utility.yul\":4280:4289   */\n      dup4\n        /* \"#utility.yul\":4276:4293   */\n      add\n        /* \"#utility.yul\":4267:4273   */\n      dup6\n        /* \"#utility.yul\":4223:4294   */\n      tag_42\n      jump\t// in\n    tag_98:\n        /* \"#utility.yul\":4304:4376   */\n      tag_99\n        /* \"#utility.yul\":4372:4374   */\n      0x20\n        /* \"#utility.yul\":4361:4370   */\n      dup4\n        /* \"#utility.yul\":4357:4375   */\n      add\n        /* \"#utility.yul\":4348:4354   */\n      dup5\n        /* \"#utility.yul\":4304:4376   */\n      tag_45\n      jump\t// in\n    tag_99:\n        /* \"#utility.yul\":4051:4383   */\n      swap4\n      swap3\n      pop\n      pop\n      pop\n      jump\t// out\n        /* \"#utility.yul\":4389:4611   */\n    tag_14:\n        /* \"#utility.yul\":4482:4486   */\n      0x00\n        /* \"#utility.yul\":4520:4522   */\n      0x20\n        /* \"#utility.yul\":4509:4518   */\n      dup3\n        /* \"#utility.yul\":4505:4523   */\n      add\n        /* \"#utility.yul\":4497:4523   */\n      swap1\n      pop\n        /* \"#utility.yul\":4533:4604   */\n      tag_101\n        /* \"#utility.yul\":4601:4602   */\n      0x00\n        /* \"#utility.yul\":4590:4599   */\n      dup4\n        /* \"#utility.yul\":4586:4603   */\n      add\n        /* \"#utility.yul\":4577:4583   */\n      dup5\n        /* \"#utility.yul\":4533:4604   */\n      tag_45\n      jump\t// in\n    tag_101:\n        /* \"#utility.yul\":4389:4611   */\n      swap3\n      swap2\n      pop\n      pop\n      jump\t// out\n        /* \"#utility.yul\":4617:4797   */\n    tag_46:\n        /* \"#utility.yul\":4665:4742   */\n      0x4e487b7100000000000000000000000000000000000000000000000000000000\n        /* \"#utility.yul\":4662:4663   */\n      0x00\n        /* \"#utility.yul\":4655:4743   */\n      mstore\n        /* \"#utility.yul\":4762:4766   */\n      0x11\n        /* \"#utility.yul\":4759:4760   */\n      0x04\n        /* \"#utility.yul\":4752:4767   */\n      mstore\n        /* \"#utility.yul\":4786:4790   */\n      0x24\n        /* \"#utility.yul\":4783:4784   */\n      0x00\n        /* \"#utility.yul\":4776:4791   */\n      revert\n        /* \"#utility.yul\":4803:4994   */\n    tag_20:\n        /* \"#utility.yul\":4843:4846   */\n      0x00\n        /* \"#utility.yul\":4862:4882   */\n      tag_104\n        /* \"#utility.yul\":4880:4881   */\n      dup3\n        /* \"#utility.yul\":4862:4882   */\n      tag_39\n      jump\t// in\n    tag_104:\n        /* \"#utility.yul\":4857:4882   */\n      swap2\n      pop\n        /* \"#utility.yul\":4896:4916   */\n      tag_105\n        /* \"#utility.yul\":4914:4915   */\n      dup4\n        /* \"#utility.yul\":4896:4916   */\n      tag_39\n      jump\t// in\n    tag_105:\n        /* \"#utility.yul\":4891:4916   */\n      swap3\n      pop\n        /* \"#utility.yul\":4939:4940   */\n      dup3\n        /* \"#utility.yul\":4936:4937   */\n      dup3\n        /* \"#utility.yul\":4932:4941   */\n      add\n        /* \"#utility.yul\":4925:4941   */\n      swap1\n      pop\n        /* \"#utility.yul\":4960:4963   */\n      dup1\n        /* \"#utility.yul\":4957:4958   */\n      dup3\n        /* \"#utility.yul\":4954:4964   */\n      gt\n        /* \"#utility.yul\":4951:4987   */\n      iszero\n      tag_106\n      jumpi\n        /* \"#utility.yul\":4967:4985   */\n      tag_107\n      tag_46\n      jump\t// in\n    tag_107:\n        /* \"#utility.yul\":4951:4987   */\n    tag_106:\n        /* \"#utility.yul\":4803:4994   */\n      swap3\n      swap2\n      pop\n      pop\n      jump\t// out\n        /* \"#utility.yul\":5000:5194   */\n    tag_22:\n        /* \"#utility.yul\":5040:5044   */\n      0x00\n        /* \"#utility.yul\":5060:5080   */\n      tag_109\n        /* \"#utility.yul\":5078:5079   */\n      dup3\n        /* \"#utility.yul\":5060:5080   */\n      tag_39\n      jump\t// in\n    tag_109:\n        /* \"#utility.yul\":5055:5080   */\n      swap2\n      pop\n        /* \"#utility.yul\":5094:5114   */\n      tag_110\n        /* \"#utility.yul\":5112:5113   */\n      dup4\n        /* \"#utility.yul\":5094:5114   */\n      tag_39\n      jump\t// in\n    tag_110:\n        /* \"#utility.yul\":5089:5114   */\n      swap3\n      pop\n        /* \"#utility.yul\":5138:5139   */\n      dup3\n        /* \"#utility.yul\":5135:5136   */\n      dup3\n        /* \"#utility.yul\":5131:5140   */\n      sub\n        /* \"#utility.yul\":5123:5140   */\n      swap1\n      pop\n        /* \"#utility.yul\":5162:5163   */\n      dup2\n        /* \"#utility.yul\":5156:5160   */\n      dup2\n        /* \"#utility.yul\":5153:5164   */\n      gt\n        /* \"#utility.yul\":5150:5187   */\n      iszero\n      tag_111\n      jumpi\n        /* \"#utility.yul\":5167:5185   */\n      tag_112\n      tag_46\n      jump\t// in\n    tag_112:\n        /* \"#utility.yul\":5150:5187   */\n    tag_111:\n        /* \"#utility.yul\":5000:5194   */\n      swap3\n      swap2\n      pop\n      pop\n      jump\t// out\n\n    auxdata: 0xa26469706673582212202d6d89120501b675fa6bade34cb76ee3977e7983c6457ea689b4f234b4016f1164736f6c63430008160033\n}\n",
				"bytecode": {
					"linkReferences": {},
					"object": "60806040525f600455348015610013575f80fd5b5060405161070838038061070883398181016040528101906100359190610178565b8060015f6101000a81548173ffffffffffffffffffffffffffffffffffffffff021916908373ffffffffffffffffffffffffffffffffffffffff160217905550335f806101000a81548173ffffffffffffffffffffffffffffffffffffffff021916908373ffffffffffffffffffffffffffffffffffffffff160217905550600233908060018154018082558091505060019003905f5260205f20015f9091909190916101000a81548173ffffffffffffffffffffffffffffffffffffffff021916908373ffffffffffffffffffffffffffffffffffffffff160217905550506101a3565b5f80fd5b5f73ffffffffffffffffffffffffffffffffffffffff82169050919050565b5f6101478261011e565b9050919050565b6101578161013d565b8114610161575f80fd5b50565b5f815190506101728161014e565b92915050565b5f6020828403121561018d5761018c61011a565b5b5f61019a84828501610164565b91505092915050565b610558806101b05f395ff3fe608060405234801561000f575f80fd5b5060043610610034575f3560e01c806391754a5d14610038578063f8a8fd6d14610069575b5f80fd5b610052600480360381019061004d91906103a7565b610087565b60405161006092919061044f565b60405180910390f35b610071610150565b60405161007e9190610476565b60405180910390f35b5f805f6100b960015f9054906101000a900473ffffffffffffffffffffffffffffffffffffffff166004545f1b610178565b9050600381908060018154018082558091505060019003905f5260205f20015f9091909190916101000a81548173ffffffffffffffffffffffffffffffffffffffff021916908373ffffffffffffffffffffffffffffffffffffffff160217905550600160045f82825461012d91906104bc565b92505081905550600160045461014391906104ef565b8192509250509250929050565b5f60015f9054906101000a900473ffffffffffffffffffffffffffffffffffffffff16905090565b5f763d602d80600a3d3981f3363d3d373d3d3d363d730000008360601b60e81c175f526e5af43d82803e903d91602b57fd5bf38360781b1760205281603760095ff590505f73ffffffffffffffffffffffffffffffffffffffff168173ffffffffffffffffffffffffffffffffffffffff1603610221576040517fc2f868f400000000000000000000000000000000000000000000000000000000815260040160405180910390fd5b92915050565b5f604051905090565b5f80fd5b5f80fd5b5f80fd5b5f80fd5b5f601f19601f8301169050919050565b7f4e487b71000000000000000000000000000000000000000000000000000000005f52604160045260245ffd5b61028682610240565b810181811067ffffffffffffffff821117156102a5576102a4610250565b5b80604052505050565b5f6102b7610227565b90506102c3828261027d565b919050565b5f67ffffffffffffffff8211156102e2576102e1610250565b5b6102eb82610240565b9050602081019050919050565b828183375f83830152505050565b5f610318610313846102c8565b6102ae565b9050828152602081018484840111156103345761033361023c565b5b61033f8482856102f8565b509392505050565b5f82601f83011261035b5761035a610238565b5b813561036b848260208601610306565b91505092915050565b5f819050919050565b61038681610374565b8114610390575f80fd5b50565b5f813590506103a18161037d565b92915050565b5f80604083850312156103bd576103bc610230565b5b5f83013567ffffffffffffffff8111156103da576103d9610234565b5b6103e685828601610347565b92505060206103f785828601610393565b9150509250929050565b61040a81610374565b82525050565b5f73ffffffffffffffffffffffffffffffffffffffff82169050919050565b5f61043982610410565b9050919050565b6104498161042f565b82525050565b5f6040820190506104625f830185610401565b61046f6020830184610440565b9392505050565b5f6020820190506104895f830184610440565b92915050565b7f4e487b71000000000000000000000000000000000000000000000000000000005f52601160045260245ffd5b5f6104c682610374565b91506104d183610374565b92508282019050808211156104e9576104e861048f565b5b92915050565b5f6104f982610374565b915061050483610374565b925082820390508181111561051c5761051b61048f565b5b9291505056fea26469706673582212202d6d89120501b675fa6bade34cb76ee3977e7983c6457ea689b4f234b4016f1164736f6c63430008160033",
					"opcodes": "PUSH1 0x80 PUSH1 0x40 MSTORE PUSH0 PUSH1 0x4 SSTORE CALLVALUE DUP1 ISZERO PUSH2 0x13 JUMPI PUSH0 DUP1 REVERT JUMPDEST POP PUSH1 0x40 MLOAD PUSH2 0x708 CODESIZE SUB DUP1 PUSH2 0x708 DUP4 CODECOPY DUP2 DUP2 ADD PUSH1 0x40 MSTORE DUP2 ADD SWAP1 PUSH2 0x35 SWAP2 SWAP1 PUSH2 0x178 JUMP JUMPDEST DUP1 PUSH1 0x1 PUSH0 PUSH2 0x100 EXP DUP2 SLOAD DUP2 PUSH20 0xFFFFFFFFFFFFFFFFFFFFFFFFFFFFFFFFFFFFFFFF MUL NOT AND SWAP1 DUP4 PUSH20 0xFFFFFFFFFFFFFFFFFFFFFFFFFFFFFFFFFFFFFFFF AND MUL OR SWAP1 SSTORE POP CALLER PUSH0 DUP1 PUSH2 0x100 EXP DUP2 SLOAD DUP2 PUSH20 0xFFFFFFFFFFFFFFFFFFFFFFFFFFFFFFFFFFFFFFFF MUL NOT AND SWAP1 DUP4 PUSH20 0xFFFFFFFFFFFFFFFFFFFFFFFFFFFFFFFFFFFFFFFF AND MUL OR SWAP1 SSTORE POP PUSH1 0x2 CALLER SWAP1 DUP1 PUSH1 0x1 DUP2 SLOAD ADD DUP1 DUP3 SSTORE DUP1 SWAP2 POP POP PUSH1 0x1 SWAP1 SUB SWAP1 PUSH0 MSTORE PUSH1 0x20 PUSH0 KECCAK256 ADD PUSH0 SWAP1 SWAP2 SWAP1 SWAP2 SWAP1 SWAP2 PUSH2 0x100 EXP DUP2 SLOAD DUP2 PUSH20 0xFFFFFFFFFFFFFFFFFFFFFFFFFFFFFFFFFFFFFFFF MUL NOT AND SWAP1 DUP4 PUSH20 0xFFFFFFFFFFFFFFFFFFFFFFFFFFFFFFFFFFFFFFFF AND MUL OR SWAP1 SSTORE POP POP PUSH2 0x1A3 JUMP JUMPDEST PUSH0 DUP1 REVERT JUMPDEST PUSH0 PUSH20 0xFFFFFFFFFFFFFFFFFFFFFFFFFFFFFFFFFFFFFFFF DUP3 AND SWAP1 POP SWAP2 SWAP1 POP JUMP JUMPDEST PUSH0 PUSH2 0x147 DUP3 PUSH2 0x11E JUMP JUMPDEST SWAP1 POP SWAP2 SWAP1 POP JUMP JUMPDEST PUSH2 0x157 DUP2 PUSH2 0x13D JUMP JUMPDEST DUP2 EQ PUSH2 0x161 JUMPI PUSH0 DUP1 REVERT JUMPDEST POP JUMP JUMPDEST PUSH0 DUP2 MLOAD SWAP1 POP PUSH2 0x172 DUP2 PUSH2 0x14E JUMP JUMPDEST SWAP3 SWAP2 POP POP JUMP JUMPDEST PUSH0 PUSH1 0x20 DUP3 DUP5 SUB SLT ISZERO PUSH2 0x18D JUMPI PUSH2 0x18C PUSH2 0x11A JUMP JUMPDEST JUMPDEST PUSH0 PUSH2 0x19A DUP5 DUP3 DUP6 ADD PUSH2 0x164 JUMP JUMPDEST SWAP2 POP POP SWAP3 SWAP2 POP POP JUMP JUMPDEST PUSH2 0x558 DUP1 PUSH2 0x1B0 PUSH0 CODECOPY PUSH0 RETURN INVALID PUSH1 0x80 PUSH1 0x40 MSTORE CALLVALUE DUP1 ISZERO PUSH2 0xF JUMPI PUSH0 DUP1 REVERT JUMPDEST POP PUSH1 0x4 CALLDATASIZE LT PUSH2 0x34 JUMPI PUSH0 CALLDATALOAD PUSH1 0xE0 SHR DUP1 PUSH4 0x91754A5D EQ PUSH2 0x38 JUMPI DUP1 PUSH4 0xF8A8FD6D EQ PUSH2 0x69 JUMPI JUMPDEST PUSH0 DUP1 REVERT JUMPDEST PUSH2 0x52 PUSH1 0x4 DUP1 CALLDATASIZE SUB DUP2 ADD SWAP1 PUSH2 0x4D SWAP2 SWAP1 PUSH2 0x3A7 JUMP JUMPDEST PUSH2 0x87 JUMP JUMPDEST PUSH1 0x40 MLOAD PUSH2 0x60 SWAP3 SWAP2 SWAP1 PUSH2 0x44F JUMP JUMPDEST PUSH1 0x40 MLOAD DUP1 SWAP2 SUB SWAP1 RETURN JUMPDEST PUSH2 0x71 PUSH2 0x150 JUMP JUMPDEST PUSH1 0x40 MLOAD PUSH2 0x7E SWAP2 SWAP1 PUSH2 0x476 JUMP JUMPDEST PUSH1 0x40 MLOAD DUP1 SWAP2 SUB SWAP1 RETURN JUMPDEST PUSH0 DUP1 PUSH0 PUSH2 0xB9 PUSH1 0x1 PUSH0 SWAP1 SLOAD SWAP1 PUSH2 0x100 EXP SWAP1 DIV PUSH20 0xFFFFFFFFFFFFFFFFFFFFFFFFFFFFFFFFFFFFFFFF AND PUSH1 0x4 SLOAD PUSH0 SHL PUSH2 0x178 JUMP JUMPDEST SWAP1 POP PUSH1 0x3 DUP2 SWAP1 DUP1 PUSH1 0x1 DUP2 SLOAD ADD DUP1 DUP3 SSTORE DUP1 SWAP2 POP POP PUSH1 0x1 SWAP1 SUB SWAP1 PUSH0 MSTORE PUSH1 0x20 PUSH0 KECCAK256 ADD PUSH0 SWAP1 SWAP2 SWAP1 SWAP2 SWAP1 SWAP2 PUSH2 0x100 EXP DUP2 SLOAD DUP2 PUSH20 0xFFFFFFFFFFFFFFFFFFFFFFFFFFFFFFFFFFFFFFFF MUL NOT AND SWAP1 DUP4 PUSH20 0xFFFFFFFFFFFFFFFFFFFFFFFFFFFFFFFFFFFFFFFF AND MUL OR SWAP1 SSTORE POP PUSH1 0x1 PUSH1 0x4 PUSH0 DUP3 DUP3 SLOAD PUSH2 0x12D SWAP2 SWAP1 PUSH2 0x4BC JUMP JUMPDEST SWAP3 POP POP DUP2 SWAP1 SSTORE POP PUSH1 0x1 PUSH1 0x4 SLOAD PUSH2 0x143 SWAP2 SWAP1 PUSH2 0x4EF JUMP JUMPDEST DUP2 SWAP3 POP SWAP3 POP POP SWAP3 POP SWAP3 SWAP1 POP JUMP JUMPDEST PUSH0 PUSH1 0x1 PUSH0 SWAP1 SLOAD SWAP1 PUSH2 0x100 EXP SWAP1 DIV PUSH20 0xFFFFFFFFFFFFFFFFFFFFFFFFFFFFFFFFFFFFFFFF AND SWAP1 POP SWAP1 JUMP JUMPDEST PUSH0 PUSH23 0x3D602D80600A3D3981F3363D3D373D3D3D363D73000000 DUP4 PUSH1 0x60 SHL PUSH1 0xE8 SHR OR PUSH0 MSTORE PUSH15 0x5AF43D82803E903D91602B57FD5BF3 DUP4 PUSH1 0x78 SHL OR PUSH1 0x20 MSTORE DUP2 PUSH1 0x37 PUSH1 0x9 PUSH0 CREATE2 SWAP1 POP PUSH0 PUSH20 0xFFFFFFFFFFFFFFFFFFFFFFFFFFFFFFFFFFFFFFFF AND DUP2 PUSH20 0xFFFFFFFFFFFFFFFFFFFFFFFFFFFFFFFFFFFFFFFF AND SUB PUSH2 0x221 JUMPI PUSH1 0x40 MLOAD PUSH32 0xC2F868F400000000000000000000000000000000000000000000000000000000 DUP2 MSTORE PUSH1 0x4 ADD PUSH1 0x40 MLOAD DUP1 SWAP2 SUB SWAP1 REVERT JUMPDEST SWAP3 SWAP2 POP POP JUMP JUMPDEST PUSH0 PUSH1 0x40 MLOAD SWAP1 POP SWAP1 JUMP JUMPDEST PUSH0 DUP1 REVERT JUMPDEST PUSH0 DUP1 REVERT JUMPDEST PUSH0 DUP1 REVERT JUMPDEST PUSH0 DUP1 REVERT JUMPDEST PUSH0 PUSH1 0x1F NOT PUSH1 0x1F DUP4 ADD AND SWAP1 POP SWAP2 SWAP1 POP JUMP JUMPDEST PUSH32 0x4E487B7100000000000000000000000000000000000000000000000000000000 PUSH0 MSTORE PUSH1 0x41 PUSH1 0x4 MSTORE PUSH1 0x24 PUSH0 REVERT JUMPDEST PUSH2 0x286 DUP3 PUSH2 0x240 JUMP JUMPDEST DUP2 ADD DUP2 DUP2 LT PUSH8 0xFFFFFFFFFFFFFFFF DUP3 GT OR ISZERO PUSH2 0x2A5 JUMPI PUSH2 0x2A4 PUSH2 0x250 JUMP JUMPDEST JUMPDEST DUP1 PUSH1 0x40 MSTORE POP POP POP JUMP JUMPDEST PUSH0 PUSH2 0x2B7 PUSH2 0x227 JUMP JUMPDEST SWAP1 POP PUSH2 0x2C3 DUP3 DUP3 PUSH2 0x27D JUMP JUMPDEST SWAP2 SWAP1 POP JUMP JUMPDEST PUSH0 PUSH8 0xFFFFFFFFFFFFFFFF DUP3 GT ISZERO PUSH2 0x2E2 JUMPI PUSH2 0x2E1 PUSH2 0x250 JUMP JUMPDEST JUMPDEST PUSH2 0x2EB DUP3 PUSH2 0x240 JUMP JUMPDEST SWAP1 POP PUSH1 0x20 DUP2 ADD SWAP1 POP SWAP2 SWAP1 POP JUMP JUMPDEST DUP3 DUP2 DUP4 CALLDATACOPY PUSH0 DUP4 DUP4 ADD MSTORE POP POP POP JUMP JUMPDEST PUSH0 PUSH2 0x318 PUSH2 0x313 DUP5 PUSH2 0x2C8 JUMP JUMPDEST PUSH2 0x2AE JUMP JUMPDEST SWAP1 POP DUP3 DUP2 MSTORE PUSH1 0x20 DUP2 ADD DUP5 DUP5 DUP5 ADD GT ISZERO PUSH2 0x334 JUMPI PUSH2 0x333 PUSH2 0x23C JUMP JUMPDEST JUMPDEST PUSH2 0x33F DUP5 DUP3 DUP6 PUSH2 0x2F8 JUMP JUMPDEST POP SWAP4 SWAP3 POP POP POP JUMP JUMPDEST PUSH0 DUP3 PUSH1 0x1F DUP4 ADD SLT PUSH2 0x35B JUMPI PUSH2 0x35A PUSH2 0x238 JUMP JUMPDEST JUMPDEST DUP2 CALLDATALOAD PUSH2 0x36B DUP5 DUP3 PUSH1 0x20 DUP7 ADD PUSH2 0x306 JUMP JUMPDEST SWAP2 POP POP SWAP3 SWAP2 POP POP JUMP JUMPDEST PUSH0 DUP2 SWAP1 POP SWAP2 SWAP1 POP JUMP JUMPDEST PUSH2 0x386 DUP2 PUSH2 0x374 JUMP JUMPDEST DUP2 EQ PUSH2 0x390 JUMPI PUSH0 DUP1 REVERT JUMPDEST POP JUMP JUMPDEST PUSH0 DUP2 CALLDATALOAD SWAP1 POP PUSH2 0x3A1 DUP2 PUSH2 0x37D JUMP JUMPDEST SWAP3 SWAP2 POP POP JUMP JUMPDEST PUSH0 DUP1 PUSH1 0x40 DUP4 DUP6 SUB SLT ISZERO PUSH2 0x3BD JUMPI PUSH2 0x3BC PUSH2 0x230 JUMP JUMPDEST JUMPDEST PUSH0 DUP4 ADD CALLDATALOAD PUSH8 0xFFFFFFFFFFFFFFFF DUP2 GT ISZERO PUSH2 0x3DA JUMPI PUSH2 0x3D9 PUSH2 0x234 JUMP JUMPDEST JUMPDEST PUSH2 0x3E6 DUP6 DUP3 DUP7 ADD PUSH2 0x347 JUMP JUMPDEST SWAP3 POP POP PUSH1 0x20 PUSH2 0x3F7 DUP6 DUP3 DUP7 ADD PUSH2 0x393 JUMP JUMPDEST SWAP2 POP POP SWAP3 POP SWAP3 SWAP1 POP JUMP JUMPDEST PUSH2 0x40A DUP2 PUSH2 0x374 JUMP JUMPDEST DUP3 MSTORE POP POP JUMP JUMPDEST PUSH0 PUSH20 0xFFFFFFFFFFFFFFFFFFFFFFFFFFFFFFFFFFFFFFFF DUP3 AND SWAP1 POP SWAP2 SWAP1 POP JUMP JUMPDEST PUSH0 PUSH2 0x439 DUP3 PUSH2 0x410 JUMP JUMPDEST SWAP1 POP SWAP2 SWAP1 POP JUMP JUMPDEST PUSH2 0x449 DUP2 PUSH2 0x42F JUMP JUMPDEST DUP3 MSTORE POP POP JUMP JUMPDEST PUSH0 PUSH1 0x40 DUP3 ADD SWAP1 POP PUSH2 0x462 PUSH0 DUP4 ADD DUP6 PUSH2 0x401 JUMP JUMPDEST PUSH2 0x46F PUSH1 0x20 DUP4 ADD DUP5 PUSH2 0x440 JUMP JUMPDEST SWAP4 SWAP3 POP POP POP JUMP JUMPDEST PUSH0 PUSH1 0x20 DUP3 ADD SWAP1 POP PUSH2 0x489 PUSH0 DUP4 ADD DUP5 PUSH2 0x440 JUMP JUMPDEST SWAP3 SWAP2 POP POP JUMP JUMPDEST PUSH32 0x4E487B7100000000000000000000000000000000000000000000000000000000 PUSH0 MSTORE PUSH1 0x11 PUSH1 0x4 MSTORE PUSH1 0x24 PUSH0 REVERT JUMPDEST PUSH0 PUSH2 0x4C6 DUP3 PUSH2 0x374 JUMP JUMPDEST SWAP2 POP PUSH2 0x4D1 DUP4 PUSH2 0x374 JUMP JUMPDEST SWAP3 POP DUP3 DUP3 ADD SWAP1 POP DUP1 DUP3 GT ISZERO PUSH2 0x4E9 JUMPI PUSH2 0x4E8 PUSH2 0x48F JUMP JUMPDEST JUMPDEST SWAP3 SWAP2 POP POP JUMP JUMPDEST PUSH0 PUSH2 0x4F9 DUP3 PUSH2 0x374 JUMP JUMPDEST SWAP2 POP PUSH2 0x504 DUP4 PUSH2 0x374 JUMP JUMPDEST SWAP3 POP DUP3 DUP3 SUB SWAP1 POP DUP2 DUP2 GT ISZERO PUSH2 0x51C JUMPI PUSH2 0x51B PUSH2 0x48F JUMP JUMPDEST JUMPDEST SWAP3 SWAP2 POP POP JUMP INVALID LOG2 PUSH5 0x6970667358 0x22 SLT KECCAK256 0x2D PUSH14 0x89120501B675FA6BADE34CB76EE3 SWAP8 PUSH31 0x7983C6457EA689B4F234B4016F1164736F6C63430008160033000000000000 "
				},
				"gasEstimates": {
					"creation": {
						"codeDepositCost": "273600",
						"executionCost": "infinite",
						"totalCost": "infinite"
					},
					"external": {
						"createProject(string,uint256)": "infinite",
						"test()": "2515"
					}
				},
				"methodIdentifiers": {
					"createProject(string,uint256)": "91754a5d",
					"test()": "f8a8fd6d"
				}
			},
			"storageLayout": {
				"storage": [
					{
						"astId": 89,
						"contract": "Pool.sol:Platform",
						"label": "contract_creator",
						"offset": 0,
						"slot": "0",
						"type": "t_address"
					},
					{
						"astId": 91,
						"contract": "Pool.sol:Platform",
						"label": "template_address",
						"offset": 0,
						"slot": "1",
						"type": "t_address"
					},
					{
						"astId": 94,
						"contract": "Pool.sol:Platform",
						"label": "admin",
						"offset": 0,
						"slot": "2",
						"type": "t_array(t_address)dyn_storage"
					},
					{
						"astId": 97,
						"contract": "Pool.sol:Platform",
						"label": "running_project",
						"offset": 0,
						"slot": "3",
						"type": "t_array(t_address)dyn_storage"
					},
					{
						"astId": 100,
						"contract": "Pool.sol:Platform",
						"label": "contract_id",
						"offset": 0,
						"slot": "4",
						"type": "t_uint256"
					}
				],
				"types": {
					"t_address": {
						"encoding": "inplace",
						"label": "address",
						"numberOfBytes": "20"
					},
					"t_array(t_address)dyn_storage": {
						"base": "t_address",
						"encoding": "dynamic_array",
						"label": "address[]",
						"numberOfBytes": "32"
					},
					"t_uint256": {
						"encoding": "inplace",
						"label": "uint256",
						"numberOfBytes": "32"
					}
				}
			},
			"userdoc": {
				"kind": "user",
				"methods": {},
				"version": 1
			}
		}
	}
}