{
	"src/contracts/Platform.sol": {
		"Platform": {
			"abi": [
				{
					"inputs": [],
					"stateMutability": "nonpayable",
					"type": "constructor"
				},
				{
					"inputs": [
						{
							"internalType": "uint256",
							"name": "project_id",
							"type": "uint256"
						}
					],
					"name": "claimMoney",
					"outputs": [],
					"stateMutability": "nonpayable",
					"type": "function"
				},
				{
					"inputs": [
						{
							"internalType": "string",
							"name": "projectName",
							"type": "string"
						},
						{
							"internalType": "uint256",
							"name": "no_of_date",
							"type": "uint256"
						}
					],
					"name": "createProject",
					"outputs": [
						{
							"internalType": "uint256",
							"name": "",
							"type": "uint256"
						}
					],
					"stateMutability": "nonpayable",
					"type": "function"
				},
				{
					"inputs": [
						{
							"internalType": "uint256",
							"name": "project_id",
							"type": "uint256"
						}
					],
					"name": "deposit",
					"outputs": [],
					"stateMutability": "payable",
					"type": "function"
				},
				{
					"inputs": [],
					"name": "getNextid",
					"outputs": [
						{
							"internalType": "uint256",
							"name": "",
							"type": "uint256"
						}
					],
					"stateMutability": "view",
					"type": "function"
				},
				{
					"inputs": [
						{
							"internalType": "uint256",
							"name": "project_id",
							"type": "uint256"
						}
					],
					"name": "getOwner",
					"outputs": [
						{
							"internalType": "address",
							"name": "",
							"type": "address"
						}
					],
					"stateMutability": "view",
					"type": "function"
				},
				{
					"inputs": [
						{
							"internalType": "uint256",
							"name": "project_id",
							"type": "uint256"
						}
					],
					"name": "getProjectDescription",
					"outputs": [
						{
							"internalType": "string",
							"name": "",
							"type": "string"
						}
					],
					"stateMutability": "view",
					"type": "function"
				},
				{
					"inputs": [
						{
							"internalType": "uint256",
							"name": "project_id",
							"type": "uint256"
						}
					],
					"name": "getProjectName",
					"outputs": [
						{
							"internalType": "string",
							"name": "",
							"type": "string"
						}
					],
					"stateMutability": "view",
					"type": "function"
				},
				{
					"inputs": [
						{
							"internalType": "uint256",
							"name": "project_id",
							"type": "uint256"
						}
					],
					"name": "getRaised",
					"outputs": [
						{
							"internalType": "uint256",
							"name": "",
							"type": "uint256"
						}
					],
					"stateMutability": "view",
					"type": "function"
				},
				{
					"inputs": [
						{
							"internalType": "uint256",
							"name": "project_id",
							"type": "uint256"
						}
					],
					"name": "getReleaseTime",
					"outputs": [
						{
							"internalType": "uint256",
							"name": "",
							"type": "uint256"
						}
					],
					"stateMutability": "view",
					"type": "function"
				},
				{
					"inputs": [
						{
							"internalType": "uint256",
							"name": "project_id",
							"type": "uint256"
						}
					],
					"name": "getTarget",
					"outputs": [
						{
							"internalType": "uint256",
							"name": "",
							"type": "uint256"
						}
					],
					"stateMutability": "view",
					"type": "function"
				},
				{
					"inputs": [
						{
							"internalType": "uint256",
							"name": "project_id",
							"type": "uint256"
						},
						{
							"internalType": "string",
							"name": "description",
							"type": "string"
						}
					],
					"name": "setProjectDescription",
					"outputs": [],
					"stateMutability": "nonpayable",
					"type": "function"
				},
				{
					"inputs": [
						{
							"internalType": "uint256",
							"name": "project_id",
							"type": "uint256"
						},
						{
							"internalType": "string",
							"name": "name",
							"type": "string"
						}
					],
					"name": "setProjectName",
					"outputs": [],
					"stateMutability": "nonpayable",
					"type": "function"
				},
				{
					"inputs": [
						{
							"internalType": "uint256",
							"name": "project_id",
							"type": "uint256"
						},
						{
							"internalType": "uint256",
							"name": "_target",
							"type": "uint256"
						}
					],
					"name": "setTarget",
					"outputs": [],
					"stateMutability": "nonpayable",
					"type": "function"
				},
				{
					"inputs": [],
					"name": "test",
					"outputs": [
						{
							"internalType": "address",
							"name": "",
							"type": "address"
						}
					],
					"stateMutability": "view",
					"type": "function"
				},
				{
					"inputs": [
						{
							"internalType": "uint256",
							"name": "project_id",
							"type": "uint256"
						},
						{
							"internalType": "uint256",
							"name": "amount",
							"type": "uint256"
						}
					],
					"name": "withdraw",
					"outputs": [],
					"stateMutability": "nonpayable",
					"type": "function"
				}
			],
			"devdoc": {
				"kind": "dev",
				"methods": {},
				"version": 1
			},
			"evm": {
				"assembly": "    /* \"src/contracts/Platform.sol\":28:5702  contract Platform{... */\n  mstore(0x40, 0x80)\n    /* \"src/contracts/Platform.sol\":127:128  0 */\n  0x00\n    /* \"src/contracts/Platform.sol\":105:128  uint256 contract_id = 0 */\n  0x02\n  sstore\n    /* \"src/contracts/Platform.sol\":497:593  constructor () {... */\n  callvalue\n  dup1\n  iszero\n  tag_1\n  jumpi\n  0x00\n  dup1\n  revert\ntag_1:\n  pop\n    /* \"src/contracts/Platform.sol\":542:552  msg.sender */\n  caller\n    /* \"src/contracts/Platform.sol\":523:539  contract_creator */\n  0x00\n  dup1\n    /* \"src/contracts/Platform.sol\":523:552  contract_creator = msg.sender */\n  0x0100\n  exp\n  dup2\n  sload\n  dup2\n  0xffffffffffffffffffffffffffffffffffffffff\n  mul\n  not\n  and\n  swap1\n  dup4\n  0xffffffffffffffffffffffffffffffffffffffff\n  and\n  mul\n  or\n  swap1\n  sstore\n  pop\n    /* \"src/contracts/Platform.sol\":563:568  admin */\n  0x01\n    /* \"src/contracts/Platform.sol\":574:584  msg.sender */\n  caller\n    /* \"src/contracts/Platform.sol\":563:585  admin.push(msg.sender) */\n  swap1\n  dup1\n  0x01\n  dup2\n  sload\n  add\n  dup1\n  dup3\n  sstore\n  dup1\n  swap2\n  pop\n  pop\n  0x01\n  swap1\n  sub\n  swap1\n  0x00\n  mstore\n  keccak256(0x00, 0x20)\n  add\n  0x00\n  swap1\n  swap2\n  swap1\n  swap2\n  swap1\n  swap2\n  0x0100\n  exp\n  dup2\n  sload\n  dup2\n  0xffffffffffffffffffffffffffffffffffffffff\n  mul\n  not\n  and\n  swap1\n  dup4\n  0xffffffffffffffffffffffffffffffffffffffff\n  and\n  mul\n  or\n  swap1\n  sstore\n  pop\n    /* \"src/contracts/Platform.sol\":28:5702  contract Platform{... */\n  dataSize(sub_0)\n  dup1\n  dataOffset(sub_0)\n  0x00\n  codecopy\n  0x00\n  return\nstop\n\nsub_0: assembly {\n        /* \"src/contracts/Platform.sol\":28:5702  contract Platform{... */\n      mstore(0x40, 0x80)\n      jumpi(tag_1, lt(calldatasize, 0x04))\n      shr(0xe0, calldataload(0x00))\n      dup1\n      0x91754a5d\n      gt\n      tag_17\n      jumpi\n      dup1\n      0xe6acc7cd\n      gt\n      tag_18\n      jumpi\n      dup1\n      0xe6acc7cd\n      eq\n      tag_13\n      jumpi\n      dup1\n      0xf0d53074\n      eq\n      tag_14\n      jumpi\n      dup1\n      0xf1fa906c\n      eq\n      tag_15\n      jumpi\n      dup1\n      0xf8a8fd6d\n      eq\n      tag_16\n      jumpi\n      jump(tag_1)\n    tag_18:\n      dup1\n      0x91754a5d\n      eq\n      tag_9\n      jumpi\n      dup1\n      0xb6b55f25\n      eq\n      tag_10\n      jumpi\n      dup1\n      0xc41a360a\n      eq\n      tag_11\n      jumpi\n      dup1\n      0xd44eb910\n      eq\n      tag_12\n      jumpi\n      jump(tag_1)\n    tag_17:\n      dup1\n      0x26030e57\n      gt\n      tag_19\n      jumpi\n      dup1\n      0x26030e57\n      eq\n      tag_5\n      jumpi\n      dup1\n      0x441a3e70\n      eq\n      tag_6\n      jumpi\n      dup1\n      0x52db191f\n      eq\n      tag_7\n      jumpi\n      dup1\n      0x845ab425\n      eq\n      tag_8\n      jumpi\n      jump(tag_1)\n    tag_19:\n      dup1\n      0x0c2e038a\n      eq\n      tag_2\n      jumpi\n      dup1\n      0x1d0f2c99\n      eq\n      tag_3\n      jumpi\n      dup1\n      0x23b53ba6\n      eq\n      tag_4\n      jumpi\n    tag_1:\n      0x00\n      dup1\n      revert\n        /* \"src/contracts/Platform.sol\":1438:1794  function setProjectDescription(uint256 project_id, string memory description) public {... */\n    tag_2:\n      callvalue\n      dup1\n      iszero\n      tag_20\n      jumpi\n      0x00\n      dup1\n      revert\n    tag_20:\n      pop\n      tag_21\n      0x04\n      dup1\n      calldatasize\n      sub\n      dup2\n      add\n      swap1\n      tag_22\n      swap2\n      swap1\n      tag_23\n      jump\t// in\n    tag_22:\n      tag_24\n      jump\t// in\n    tag_21:\n      stop\n        /* \"src/contracts/Platform.sol\":1802:2343  function setTarget(uint256 project_id, uint256 _target) external {... */\n    tag_3:\n      callvalue\n      dup1\n      iszero\n      tag_25\n      jumpi\n      0x00\n      dup1\n      revert\n    tag_25:\n      pop\n      tag_26\n      0x04\n      dup1\n      calldatasize\n      sub\n      dup2\n      add\n      swap1\n      tag_27\n      swap2\n      swap1\n      tag_28\n      jump\t// in\n    tag_27:\n      tag_29\n      jump\t// in\n    tag_26:\n      stop\n        /* \"src/contracts/Platform.sol\":3384:3595  function getRaised(uint256 project_id) external view returns (uint256) {... */\n    tag_4:\n      callvalue\n      dup1\n      iszero\n      tag_30\n      jumpi\n      0x00\n      dup1\n      revert\n    tag_30:\n      pop\n      tag_31\n      0x04\n      dup1\n      calldatasize\n      sub\n      dup2\n      add\n      swap1\n      tag_32\n      swap2\n      swap1\n      tag_33\n      jump\t// in\n    tag_32:\n      tag_34\n      jump\t// in\n    tag_31:\n      mload(0x40)\n      tag_35\n      swap2\n      swap1\n      tag_36\n      jump\t// in\n    tag_35:\n      mload(0x40)\n      dup1\n      swap2\n      sub\n      swap1\n      return\n        /* \"src/contracts/Platform.sol\":2366:2456  function getNextid() external view returns (uint256) {... */\n    tag_5:\n      callvalue\n      dup1\n      iszero\n      tag_37\n      jumpi\n      0x00\n      dup1\n      revert\n    tag_37:\n      pop\n      tag_38\n      tag_39\n      jump\t// in\n    tag_38:\n      mload(0x40)\n      tag_40\n      swap2\n      swap1\n      tag_36\n      jump\t// in\n    tag_40:\n      mload(0x40)\n      dup1\n      swap2\n      sub\n      swap1\n      return\n        /* \"src/contracts/Platform.sol\":4292:4924  function withdraw(uint256 project_id, uint256 amount) public {... */\n    tag_6:\n      callvalue\n      dup1\n      iszero\n      tag_41\n      jumpi\n      0x00\n      dup1\n      revert\n    tag_41:\n      pop\n      tag_42\n      0x04\n      dup1\n      calldatasize\n      sub\n      dup2\n      add\n      swap1\n      tag_43\n      swap2\n      swap1\n      tag_28\n      jump\t// in\n    tag_43:\n      tag_44\n      jump\t// in\n    tag_42:\n      stop\n        /* \"src/contracts/Platform.sol\":3603:3824  function getReleaseTime(uint256 project_id) external view returns (uint256) {... */\n    tag_7:\n      callvalue\n      dup1\n      iszero\n      tag_45\n      jumpi\n      0x00\n      dup1\n      revert\n    tag_45:\n      pop\n      tag_46\n      0x04\n      dup1\n      calldatasize\n      sub\n      dup2\n      add\n      swap1\n      tag_47\n      swap2\n      swap1\n      tag_33\n      jump\t// in\n    tag_47:\n      tag_48\n      jump\t// in\n    tag_46:\n      mload(0x40)\n      tag_49\n      swap2\n      swap1\n      tag_36\n      jump\t// in\n    tag_49:\n      mload(0x40)\n      dup1\n      swap2\n      sub\n      swap1\n      return\n        /* \"src/contracts/Platform.sol\":2918:3157  function getProjectDescription(uint256 project_id) public view returns (string memory) {... */\n    tag_8:\n      callvalue\n      dup1\n      iszero\n      tag_50\n      jumpi\n      0x00\n      dup1\n      revert\n    tag_50:\n      pop\n      tag_51\n      0x04\n      dup1\n      calldatasize\n      sub\n      dup2\n      add\n      swap1\n      tag_52\n      swap2\n      swap1\n      tag_33\n      jump\t// in\n    tag_52:\n      tag_53\n      jump\t// in\n    tag_51:\n      mload(0x40)\n      tag_54\n      swap2\n      swap1\n      tag_55\n      jump\t// in\n    tag_54:\n      mload(0x40)\n      dup1\n      swap2\n      sub\n      swap1\n      return\n        /* \"src/contracts/Platform.sol\":698:1084  function createProject(string memory projectName, uint256 no_of_date) external returns (uint256){... */\n    tag_9:\n      callvalue\n      dup1\n      iszero\n      tag_56\n      jumpi\n      0x00\n      dup1\n      revert\n    tag_56:\n      pop\n      tag_57\n      0x04\n      dup1\n      calldatasize\n      sub\n      dup2\n      add\n      swap1\n      tag_58\n      swap2\n      swap1\n      tag_59\n      jump\t// in\n    tag_58:\n      tag_60\n      jump\t// in\n    tag_57:\n      mload(0x40)\n      tag_61\n      swap2\n      swap1\n      tag_36\n      jump\t// in\n    tag_61:\n      mload(0x40)\n      dup1\n      swap2\n      sub\n      swap1\n      return\n        /* \"src/contracts/Platform.sol\":3832:4220  function deposit(uint256 project_id) public payable {... */\n    tag_10:\n      tag_62\n      0x04\n      dup1\n      calldatasize\n      sub\n      dup2\n      add\n      swap1\n      tag_63\n      swap2\n      swap1\n      tag_33\n      jump\t// in\n    tag_63:\n      tag_64\n      jump\t// in\n    tag_62:\n      stop\n        /* \"src/contracts/Platform.sol\":2464:2673  function getOwner(uint256 project_id) external view returns (address) {... */\n    tag_11:\n      callvalue\n      dup1\n      iszero\n      tag_65\n      jumpi\n      0x00\n      dup1\n      revert\n    tag_65:\n      pop\n      tag_66\n      0x04\n      dup1\n      calldatasize\n      sub\n      dup2\n      add\n      swap1\n      tag_67\n      swap2\n      swap1\n      tag_33\n      jump\t// in\n    tag_67:\n      tag_68\n      jump\t// in\n    tag_66:\n      mload(0x40)\n      tag_69\n      swap2\n      swap1\n      tag_70\n      jump\t// in\n    tag_69:\n      mload(0x40)\n      dup1\n      swap2\n      sub\n      swap1\n      return\n        /* \"src/contracts/Platform.sol\":4999:5699  function claimMoney(uint256 project_id) public {... */\n    tag_12:\n      callvalue\n      dup1\n      iszero\n      tag_71\n      jumpi\n      0x00\n      dup1\n      revert\n    tag_71:\n      pop\n      tag_72\n      0x04\n      dup1\n      calldatasize\n      sub\n      dup2\n      add\n      swap1\n      tag_73\n      swap2\n      swap1\n      tag_33\n      jump\t// in\n    tag_73:\n      tag_74\n      jump\t// in\n    tag_72:\n      stop\n        /* \"src/contracts/Platform.sol\":3165:3376  function getTarget(uint256 project_id) external view returns (uint256) {... */\n    tag_13:\n      callvalue\n      dup1\n      iszero\n      tag_75\n      jumpi\n      0x00\n      dup1\n      revert\n    tag_75:\n      pop\n      tag_76\n      0x04\n      dup1\n      calldatasize\n      sub\n      dup2\n      add\n      swap1\n      tag_77\n      swap2\n      swap1\n      tag_33\n      jump\t// in\n    tag_77:\n      tag_78\n      jump\t// in\n    tag_76:\n      mload(0x40)\n      tag_79\n      swap2\n      swap1\n      tag_36\n      jump\t// in\n    tag_79:\n      mload(0x40)\n      dup1\n      swap2\n      sub\n      swap1\n      return\n        /* \"src/contracts/Platform.sol\":1107:1430  function setProjectName(uint256 project_id, string memory name) external {... */\n    tag_14:\n      callvalue\n      dup1\n      iszero\n      tag_80\n      jumpi\n      0x00\n      dup1\n      revert\n    tag_80:\n      pop\n      tag_81\n      0x04\n      dup1\n      calldatasize\n      sub\n      dup2\n      add\n      swap1\n      tag_82\n      swap2\n      swap1\n      tag_23\n      jump\t// in\n    tag_82:\n      tag_83\n      jump\t// in\n    tag_81:\n      stop\n        /* \"src/contracts/Platform.sol\":2681:2906  function getProjectName(uint256 project_id) public view returns (string memory) {... */\n    tag_15:\n      callvalue\n      dup1\n      iszero\n      tag_84\n      jumpi\n      0x00\n      dup1\n      revert\n    tag_84:\n      pop\n      tag_85\n      0x04\n      dup1\n      calldatasize\n      sub\n      dup2\n      add\n      swap1\n      tag_86\n      swap2\n      swap1\n      tag_33\n      jump\t// in\n    tag_86:\n      tag_87\n      jump\t// in\n    tag_85:\n      mload(0x40)\n      tag_88\n      swap2\n      swap1\n      tag_55\n      jump\t// in\n    tag_88:\n      mload(0x40)\n      dup1\n      swap2\n      sub\n      swap1\n      return\n        /* \"src/contracts/Platform.sol\":601:690  function test() external view returns (address){... */\n    tag_16:\n      callvalue\n      dup1\n      iszero\n      tag_89\n      jumpi\n      0x00\n      dup1\n      revert\n    tag_89:\n      pop\n      tag_90\n      tag_91\n      jump\t// in\n    tag_90:\n      mload(0x40)\n      tag_92\n      swap2\n      swap1\n      tag_70\n      jump\t// in\n    tag_92:\n      mload(0x40)\n      dup1\n      swap2\n      sub\n      swap1\n      return\n        /* \"src/contracts/Platform.sol\":1438:1794  function setProjectDescription(uint256 project_id, string memory description) public {... */\n    tag_24:\n        /* \"src/contracts/Platform.sol\":1581:1582  0 */\n      0x00\n        /* \"src/contracts/Platform.sol\":1543:1583  projects[project_id].owner != address(0) */\n      0xffffffffffffffffffffffffffffffffffffffff\n      and\n        /* \"src/contracts/Platform.sol\":1543:1551  projects */\n      0x03\n        /* \"src/contracts/Platform.sol\":1543:1563  projects[project_id] */\n      0x00\n        /* \"src/contracts/Platform.sol\":1552:1562  project_id */\n      dup5\n        /* \"src/contracts/Platform.sol\":1543:1563  projects[project_id] */\n      dup2\n      mstore\n      0x20\n      add\n      swap1\n      dup2\n      mstore\n      0x20\n      add\n      0x00\n      keccak256\n        /* \"src/contracts/Platform.sol\":1543:1569  projects[project_id].owner */\n      0x00\n      add\n      0x00\n      swap1\n      sload\n      swap1\n      0x0100\n      exp\n      swap1\n      div\n      0xffffffffffffffffffffffffffffffffffffffff\n      and\n        /* \"src/contracts/Platform.sol\":1543:1583  projects[project_id].owner != address(0) */\n      0xffffffffffffffffffffffffffffffffffffffff\n      and\n      sub\n        /* \"src/contracts/Platform.sol\":1534:1610  require (projects[project_id].owner != address(0), \"Project does not exist\") */\n      tag_94\n      jumpi\n      mload(0x40)\n      0x08c379a000000000000000000000000000000000000000000000000000000000\n      dup2\n      mstore\n      0x04\n      add\n      tag_95\n      swap1\n      tag_96\n      jump\t// in\n    tag_95:\n      mload(0x40)\n      dup1\n      swap2\n      sub\n      swap1\n      revert\n    tag_94:\n        /* \"src/contracts/Platform.sol\":1644:1652  projects */\n      0x03\n        /* \"src/contracts/Platform.sol\":1644:1664  projects[project_id] */\n      0x00\n        /* \"src/contracts/Platform.sol\":1653:1663  project_id */\n      dup4\n        /* \"src/contracts/Platform.sol\":1644:1664  projects[project_id] */\n      dup2\n      mstore\n      0x20\n      add\n      swap1\n      dup2\n      mstore\n      0x20\n      add\n      0x00\n      keccak256\n        /* \"src/contracts/Platform.sol\":1644:1670  projects[project_id].owner */\n      0x00\n      add\n      0x00\n      swap1\n      sload\n      swap1\n      0x0100\n      exp\n      swap1\n      div\n      0xffffffffffffffffffffffffffffffffffffffff\n      and\n        /* \"src/contracts/Platform.sol\":1630:1670  msg.sender == projects[project_id].owner */\n      0xffffffffffffffffffffffffffffffffffffffff\n      and\n        /* \"src/contracts/Platform.sol\":1630:1640  msg.sender */\n      caller\n        /* \"src/contracts/Platform.sol\":1630:1670  msg.sender == projects[project_id].owner */\n      0xffffffffffffffffffffffffffffffffffffffff\n      and\n      eq\n        /* \"src/contracts/Platform.sol\":1621:1721  require (msg.sender == projects[project_id].owner, \"Only the owner can set the project description\") */\n      tag_97\n      jumpi\n      mload(0x40)\n      0x08c379a000000000000000000000000000000000000000000000000000000000\n      dup2\n      mstore\n      0x04\n      add\n      tag_98\n      swap1\n      tag_99\n      jump\t// in\n    tag_98:\n      mload(0x40)\n      dup1\n      swap2\n      sub\n      swap1\n      revert\n    tag_97:\n        /* \"src/contracts/Platform.sol\":1775:1786  description */\n      dup1\n        /* \"src/contracts/Platform.sol\":1733:1741  projects */\n      0x03\n        /* \"src/contracts/Platform.sol\":1733:1753  projects[project_id] */\n      0x00\n        /* \"src/contracts/Platform.sol\":1742:1752  project_id */\n      dup5\n        /* \"src/contracts/Platform.sol\":1733:1753  projects[project_id] */\n      dup2\n      mstore\n      0x20\n      add\n      swap1\n      dup2\n      mstore\n      0x20\n      add\n      0x00\n      keccak256\n        /* \"src/contracts/Platform.sol\":1733:1772  projects[project_id].projectDescription */\n      0x02\n      add\n        /* \"src/contracts/Platform.sol\":1733:1786  projects[project_id].projectDescription = description */\n      swap1\n      dup2\n      tag_100\n      swap2\n      swap1\n      tag_101\n      jump\t// in\n    tag_100:\n      pop\n        /* \"src/contracts/Platform.sol\":1438:1794  function setProjectDescription(uint256 project_id, string memory description) public {... */\n      pop\n      pop\n      jump\t// out\n        /* \"src/contracts/Platform.sol\":1802:2343  function setTarget(uint256 project_id, uint256 _target) external {... */\n    tag_29:\n        /* \"src/contracts/Platform.sol\":1925:1926  0 */\n      0x00\n        /* \"src/contracts/Platform.sol\":1887:1927  projects[project_id].owner != address(0) */\n      0xffffffffffffffffffffffffffffffffffffffff\n      and\n        /* \"src/contracts/Platform.sol\":1887:1895  projects */\n      0x03\n        /* \"src/contracts/Platform.sol\":1887:1907  projects[project_id] */\n      0x00\n        /* \"src/contracts/Platform.sol\":1896:1906  project_id */\n      dup5\n        /* \"src/contracts/Platform.sol\":1887:1907  projects[project_id] */\n      dup2\n      mstore\n      0x20\n      add\n      swap1\n      dup2\n      mstore\n      0x20\n      add\n      0x00\n      keccak256\n        /* \"src/contracts/Platform.sol\":1887:1913  projects[project_id].owner */\n      0x00\n      add\n      0x00\n      swap1\n      sload\n      swap1\n      0x0100\n      exp\n      swap1\n      div\n      0xffffffffffffffffffffffffffffffffffffffff\n      and\n        /* \"src/contracts/Platform.sol\":1887:1927  projects[project_id].owner != address(0) */\n      0xffffffffffffffffffffffffffffffffffffffff\n      and\n      sub\n        /* \"src/contracts/Platform.sol\":1878:1954  require (projects[project_id].owner != address(0), \"Project does not exist\") */\n      tag_103\n      jumpi\n      mload(0x40)\n      0x08c379a000000000000000000000000000000000000000000000000000000000\n      dup2\n      mstore\n      0x04\n      add\n      tag_104\n      swap1\n      tag_96\n      jump\t// in\n    tag_104:\n      mload(0x40)\n      dup1\n      swap2\n      sub\n      swap1\n      revert\n    tag_103:\n        /* \"src/contracts/Platform.sol\":1988:1996  projects */\n      0x03\n        /* \"src/contracts/Platform.sol\":1988:2008  projects[project_id] */\n      0x00\n        /* \"src/contracts/Platform.sol\":1997:2007  project_id */\n      dup4\n        /* \"src/contracts/Platform.sol\":1988:2008  projects[project_id] */\n      dup2\n      mstore\n      0x20\n      add\n      swap1\n      dup2\n      mstore\n      0x20\n      add\n      0x00\n      keccak256\n        /* \"src/contracts/Platform.sol\":1988:2014  projects[project_id].owner */\n      0x00\n      add\n      0x00\n      swap1\n      sload\n      swap1\n      0x0100\n      exp\n      swap1\n      div\n      0xffffffffffffffffffffffffffffffffffffffff\n      and\n        /* \"src/contracts/Platform.sol\":1974:2014  msg.sender == projects[project_id].owner */\n      0xffffffffffffffffffffffffffffffffffffffff\n      and\n        /* \"src/contracts/Platform.sol\":1974:1984  msg.sender */\n      caller\n        /* \"src/contracts/Platform.sol\":1974:2014  msg.sender == projects[project_id].owner */\n      0xffffffffffffffffffffffffffffffffffffffff\n      and\n      eq\n        /* \"src/contracts/Platform.sol\":1965:2052  require (msg.sender == projects[project_id].owner, \"Only the owner can set the target\") */\n      tag_105\n      jumpi\n      mload(0x40)\n      0x08c379a000000000000000000000000000000000000000000000000000000000\n      dup2\n      mstore\n      0x04\n      add\n      tag_106\n      swap1\n      tag_107\n      jump\t// in\n    tag_106:\n      mload(0x40)\n      dup1\n      swap2\n      sub\n      swap1\n      revert\n    tag_105:\n        /* \"src/contracts/Platform.sol\":2099:2100  0 */\n      0x00\n        /* \"src/contracts/Platform.sol\":2068:2076  projects */\n      0x03\n        /* \"src/contracts/Platform.sol\":2068:2088  projects[project_id] */\n      0x00\n        /* \"src/contracts/Platform.sol\":2077:2087  project_id */\n      dup5\n        /* \"src/contracts/Platform.sol\":2068:2088  projects[project_id] */\n      dup2\n      mstore\n      0x20\n      add\n      swap1\n      dup2\n      mstore\n      0x20\n      add\n      0x00\n      keccak256\n        /* \"src/contracts/Platform.sol\":2068:2095  projects[project_id].target */\n      0x03\n      add\n      sload\n        /* \"src/contracts/Platform.sol\":2068:2100  projects[project_id].target == 0 */\n      sub\n        /* \"src/contracts/Platform.sol\":2064:2336  if (projects[project_id].target == 0) {... */\n      tag_108\n      jumpi\n        /* \"src/contracts/Platform.sol\":2147:2154  _target */\n      dup1\n        /* \"src/contracts/Platform.sol\":2117:2125  projects */\n      0x03\n        /* \"src/contracts/Platform.sol\":2117:2137  projects[project_id] */\n      0x00\n        /* \"src/contracts/Platform.sol\":2126:2136  project_id */\n      dup5\n        /* \"src/contracts/Platform.sol\":2117:2137  projects[project_id] */\n      dup2\n      mstore\n      0x20\n      add\n      swap1\n      dup2\n      mstore\n      0x20\n      add\n      0x00\n      keccak256\n        /* \"src/contracts/Platform.sol\":2117:2144  projects[project_id].target */\n      0x03\n      add\n        /* \"src/contracts/Platform.sol\":2117:2154  projects[project_id].target = _target */\n      dup2\n      swap1\n      sstore\n      pop\n        /* \"src/contracts/Platform.sol\":2064:2336  if (projects[project_id].target == 0) {... */\n      jump(tag_109)\n    tag_108:\n        /* \"src/contracts/Platform.sol\":2215:2223  projects */\n      0x03\n        /* \"src/contracts/Platform.sol\":2215:2235  projects[project_id] */\n      0x00\n        /* \"src/contracts/Platform.sol\":2224:2234  project_id */\n      dup4\n        /* \"src/contracts/Platform.sol\":2215:2235  projects[project_id] */\n      dup2\n      mstore\n      0x20\n      add\n      swap1\n      dup2\n      mstore\n      0x20\n      add\n      0x00\n      keccak256\n        /* \"src/contracts/Platform.sol\":2215:2242  projects[project_id].target */\n      0x03\n      add\n      sload\n        /* \"src/contracts/Platform.sol\":2205:2212  _target */\n      dup2\n        /* \"src/contracts/Platform.sol\":2205:2242  _target > projects[project_id].target */\n      gt\n        /* \"src/contracts/Platform.sol\":2196:2272  require (_target > projects[project_id].target, \"Target cannot be reduced.\") */\n      tag_110\n      jumpi\n      mload(0x40)\n      0x08c379a000000000000000000000000000000000000000000000000000000000\n      dup2\n      mstore\n      0x04\n      add\n      tag_111\n      swap1\n      tag_112\n      jump\t// in\n    tag_111:\n      mload(0x40)\n      dup1\n      swap2\n      sub\n      swap1\n      revert\n    tag_110:\n        /* \"src/contracts/Platform.sol\":2317:2324  _target */\n      dup1\n        /* \"src/contracts/Platform.sol\":2287:2295  projects */\n      0x03\n        /* \"src/contracts/Platform.sol\":2287:2307  projects[project_id] */\n      0x00\n        /* \"src/contracts/Platform.sol\":2296:2306  project_id */\n      dup5\n        /* \"src/contracts/Platform.sol\":2287:2307  projects[project_id] */\n      dup2\n      mstore\n      0x20\n      add\n      swap1\n      dup2\n      mstore\n      0x20\n      add\n      0x00\n      keccak256\n        /* \"src/contracts/Platform.sol\":2287:2314  projects[project_id].target */\n      0x03\n      add\n        /* \"src/contracts/Platform.sol\":2287:2324  projects[project_id].target = _target */\n      dup2\n      swap1\n      sstore\n      pop\n        /* \"src/contracts/Platform.sol\":2064:2336  if (projects[project_id].target == 0) {... */\n    tag_109:\n        /* \"src/contracts/Platform.sol\":1802:2343  function setTarget(uint256 project_id, uint256 _target) external {... */\n      pop\n      pop\n      jump\t// out\n        /* \"src/contracts/Platform.sol\":3384:3595  function getRaised(uint256 project_id) external view returns (uint256) {... */\n    tag_34:\n        /* \"src/contracts/Platform.sol\":3446:3453  uint256 */\n      0x00\n        /* \"src/contracts/Platform.sol\":3513:3514  0 */\n      dup1\n        /* \"src/contracts/Platform.sol\":3475:3515  projects[project_id].owner != address(0) */\n      0xffffffffffffffffffffffffffffffffffffffff\n      and\n        /* \"src/contracts/Platform.sol\":3475:3483  projects */\n      0x03\n        /* \"src/contracts/Platform.sol\":3475:3495  projects[project_id] */\n      0x00\n        /* \"src/contracts/Platform.sol\":3484:3494  project_id */\n      dup5\n        /* \"src/contracts/Platform.sol\":3475:3495  projects[project_id] */\n      dup2\n      mstore\n      0x20\n      add\n      swap1\n      dup2\n      mstore\n      0x20\n      add\n      0x00\n      keccak256\n        /* \"src/contracts/Platform.sol\":3475:3501  projects[project_id].owner */\n      0x00\n      add\n      0x00\n      swap1\n      sload\n      swap1\n      0x0100\n      exp\n      swap1\n      div\n      0xffffffffffffffffffffffffffffffffffffffff\n      and\n        /* \"src/contracts/Platform.sol\":3475:3515  projects[project_id].owner != address(0) */\n      0xffffffffffffffffffffffffffffffffffffffff\n      and\n      sub\n        /* \"src/contracts/Platform.sol\":3466:3542  require (projects[project_id].owner != address(0), \"Project does not exist\") */\n      tag_114\n      jumpi\n      mload(0x40)\n      0x08c379a000000000000000000000000000000000000000000000000000000000\n      dup2\n      mstore\n      0x04\n      add\n      tag_115\n      swap1\n      tag_96\n      jump\t// in\n    tag_115:\n      mload(0x40)\n      dup1\n      swap2\n      sub\n      swap1\n      revert\n    tag_114:\n        /* \"src/contracts/Platform.sol\":3560:3568  projects */\n      0x03\n        /* \"src/contracts/Platform.sol\":3560:3580  projects[project_id] */\n      0x00\n        /* \"src/contracts/Platform.sol\":3569:3579  project_id */\n      dup4\n        /* \"src/contracts/Platform.sol\":3560:3580  projects[project_id] */\n      dup2\n      mstore\n      0x20\n      add\n      swap1\n      dup2\n      mstore\n      0x20\n      add\n      0x00\n      keccak256\n        /* \"src/contracts/Platform.sol\":3560:3587  projects[project_id].raised */\n      0x04\n      add\n      sload\n        /* \"src/contracts/Platform.sol\":3553:3587  return projects[project_id].raised */\n      swap1\n      pop\n        /* \"src/contracts/Platform.sol\":3384:3595  function getRaised(uint256 project_id) external view returns (uint256) {... */\n      swap2\n      swap1\n      pop\n      jump\t// out\n        /* \"src/contracts/Platform.sol\":2366:2456  function getNextid() external view returns (uint256) {... */\n    tag_39:\n        /* \"src/contracts/Platform.sol\":2410:2417  uint256 */\n      0x00\n        /* \"src/contracts/Platform.sol\":2437:2448  contract_id */\n      sload(0x02)\n        /* \"src/contracts/Platform.sol\":2430:2448  return contract_id */\n      swap1\n      pop\n        /* \"src/contracts/Platform.sol\":2366:2456  function getNextid() external view returns (uint256) {... */\n      swap1\n      jump\t// out\n        /* \"src/contracts/Platform.sol\":4292:4924  function withdraw(uint256 project_id, uint256 amount) public {... */\n    tag_44:\n        /* \"src/contracts/Platform.sol\":4411:4412  0 */\n      0x00\n        /* \"src/contracts/Platform.sol\":4373:4413  projects[project_id].owner != address(0) */\n      0xffffffffffffffffffffffffffffffffffffffff\n      and\n        /* \"src/contracts/Platform.sol\":4373:4381  projects */\n      0x03\n        /* \"src/contracts/Platform.sol\":4373:4393  projects[project_id] */\n      0x00\n        /* \"src/contracts/Platform.sol\":4382:4392  project_id */\n      dup5\n        /* \"src/contracts/Platform.sol\":4373:4393  projects[project_id] */\n      dup2\n      mstore\n      0x20\n      add\n      swap1\n      dup2\n      mstore\n      0x20\n      add\n      0x00\n      keccak256\n        /* \"src/contracts/Platform.sol\":4373:4399  projects[project_id].owner */\n      0x00\n      add\n      0x00\n      swap1\n      sload\n      swap1\n      0x0100\n      exp\n      swap1\n      div\n      0xffffffffffffffffffffffffffffffffffffffff\n      and\n        /* \"src/contracts/Platform.sol\":4373:4413  projects[project_id].owner != address(0) */\n      0xffffffffffffffffffffffffffffffffffffffff\n      and\n      sub\n        /* \"src/contracts/Platform.sol\":4364:4440  require (projects[project_id].owner != address(0), \"Project does not exist\") */\n      tag_118\n      jumpi\n      mload(0x40)\n      0x08c379a000000000000000000000000000000000000000000000000000000000\n      dup2\n      mstore\n      0x04\n      add\n      tag_119\n      swap1\n      tag_96\n      jump\t// in\n    tag_119:\n      mload(0x40)\n      dup1\n      swap2\n      sub\n      swap1\n      revert\n    tag_118:\n        /* \"src/contracts/Platform.sol\":4479:4487  projects */\n      0x03\n        /* \"src/contracts/Platform.sol\":4479:4499  projects[project_id] */\n      0x00\n        /* \"src/contracts/Platform.sol\":4488:4498  project_id */\n      dup4\n        /* \"src/contracts/Platform.sol\":4479:4499  projects[project_id] */\n      dup2\n      mstore\n      0x20\n      add\n      swap1\n      dup2\n      mstore\n      0x20\n      add\n      0x00\n      keccak256\n        /* \"src/contracts/Platform.sol\":4479:4511  projects[project_id].releaseTime */\n      0x05\n      add\n      sload\n        /* \"src/contracts/Platform.sol\":4460:4475  block.timestamp */\n      timestamp\n        /* \"src/contracts/Platform.sol\":4460:4511  block.timestamp >= projects[project_id].releaseTime */\n      lt\n      iszero\n        /* \"src/contracts/Platform.sol\":4451:4545  require (block.timestamp >= projects[project_id].releaseTime, \"Project has still not expired\") */\n      tag_120\n      jumpi\n      mload(0x40)\n      0x08c379a000000000000000000000000000000000000000000000000000000000\n      dup2\n      mstore\n      0x04\n      add\n      tag_121\n      swap1\n      tag_122\n      jump\t// in\n    tag_121:\n      mload(0x40)\n      dup1\n      swap2\n      sub\n      swap1\n      revert\n    tag_120:\n        /* \"src/contracts/Platform.sol\":4595:4603  projects */\n      0x03\n        /* \"src/contracts/Platform.sol\":4595:4615  projects[project_id] */\n      0x00\n        /* \"src/contracts/Platform.sol\":4604:4614  project_id */\n      dup4\n        /* \"src/contracts/Platform.sol\":4595:4615  projects[project_id] */\n      dup2\n      mstore\n      0x20\n      add\n      swap1\n      dup2\n      mstore\n      0x20\n      add\n      0x00\n      keccak256\n        /* \"src/contracts/Platform.sol\":4595:4622  projects[project_id].target */\n      0x03\n      add\n      sload\n        /* \"src/contracts/Platform.sol\":4565:4573  projects */\n      0x03\n        /* \"src/contracts/Platform.sol\":4565:4585  projects[project_id] */\n      0x00\n        /* \"src/contracts/Platform.sol\":4574:4584  project_id */\n      dup5\n        /* \"src/contracts/Platform.sol\":4565:4585  projects[project_id] */\n      dup2\n      mstore\n      0x20\n      add\n      swap1\n      dup2\n      mstore\n      0x20\n      add\n      0x00\n      keccak256\n        /* \"src/contracts/Platform.sol\":4565:4592  projects[project_id].raised */\n      0x04\n      add\n      sload\n        /* \"src/contracts/Platform.sol\":4565:4622  projects[project_id].raised < projects[project_id].target */\n      lt\n        /* \"src/contracts/Platform.sol\":4556:4665  require (projects[project_id].raised < projects[project_id].target, \"Project has already reached its target\") */\n      tag_123\n      jumpi\n      mload(0x40)\n      0x08c379a000000000000000000000000000000000000000000000000000000000\n      dup2\n      mstore\n      0x04\n      add\n      tag_124\n      swap1\n      tag_125\n      jump\t// in\n    tag_124:\n      mload(0x40)\n      dup1\n      swap2\n      sub\n      swap1\n      revert\n    tag_123:\n        /* \"src/contracts/Platform.sol\":4729:4735  amount */\n      dup1\n        /* \"src/contracts/Platform.sol\":4685:4693  projects */\n      0x03\n        /* \"src/contracts/Platform.sol\":4685:4705  projects[project_id] */\n      0x00\n        /* \"src/contracts/Platform.sol\":4694:4704  project_id */\n      dup5\n        /* \"src/contracts/Platform.sol\":4685:4705  projects[project_id] */\n      dup2\n      mstore\n      0x20\n      add\n      swap1\n      dup2\n      mstore\n      0x20\n      add\n      0x00\n      keccak256\n        /* \"src/contracts/Platform.sol\":4685:4713  projects[project_id].balance */\n      0x07\n      add\n        /* \"src/contracts/Platform.sol\":4685:4725  projects[project_id].balance[msg.sender] */\n      0x00\n        /* \"src/contracts/Platform.sol\":4714:4724  msg.sender */\n      caller\n        /* \"src/contracts/Platform.sol\":4685:4725  projects[project_id].balance[msg.sender] */\n      0xffffffffffffffffffffffffffffffffffffffff\n      and\n      0xffffffffffffffffffffffffffffffffffffffff\n      and\n      dup2\n      mstore\n      0x20\n      add\n      swap1\n      dup2\n      mstore\n      0x20\n      add\n      0x00\n      keccak256\n      sload\n        /* \"src/contracts/Platform.sol\":4685:4735  projects[project_id].balance[msg.sender] >= amount */\n      lt\n      iszero\n        /* \"src/contracts/Platform.sol\":4676:4760  require (projects[project_id].balance[msg.sender] >= amount, \"Insufficient balance\") */\n      tag_126\n      jumpi\n      mload(0x40)\n      0x08c379a000000000000000000000000000000000000000000000000000000000\n      dup2\n      mstore\n      0x04\n      add\n      tag_127\n      swap1\n      tag_128\n      jump\t// in\n    tag_127:\n      mload(0x40)\n      dup1\n      swap2\n      sub\n      swap1\n      revert\n    tag_126:\n        /* \"src/contracts/Platform.sol\":4815:4821  amount */\n      dup1\n        /* \"src/contracts/Platform.sol\":4771:4779  projects */\n      0x03\n        /* \"src/contracts/Platform.sol\":4771:4791  projects[project_id] */\n      0x00\n        /* \"src/contracts/Platform.sol\":4780:4790  project_id */\n      dup5\n        /* \"src/contracts/Platform.sol\":4771:4791  projects[project_id] */\n      dup2\n      mstore\n      0x20\n      add\n      swap1\n      dup2\n      mstore\n      0x20\n      add\n      0x00\n      keccak256\n        /* \"src/contracts/Platform.sol\":4771:4799  projects[project_id].balance */\n      0x07\n      add\n        /* \"src/contracts/Platform.sol\":4771:4811  projects[project_id].balance[msg.sender] */\n      0x00\n        /* \"src/contracts/Platform.sol\":4800:4810  msg.sender */\n      caller\n        /* \"src/contracts/Platform.sol\":4771:4811  projects[project_id].balance[msg.sender] */\n      0xffffffffffffffffffffffffffffffffffffffff\n      and\n      0xffffffffffffffffffffffffffffffffffffffff\n      and\n      dup2\n      mstore\n      0x20\n      add\n      swap1\n      dup2\n      mstore\n      0x20\n      add\n      0x00\n      keccak256\n      0x00\n        /* \"src/contracts/Platform.sol\":4771:4821  projects[project_id].balance[msg.sender] -= amount */\n      dup3\n      dup3\n      sload\n      tag_129\n      swap2\n      swap1\n      tag_130\n      jump\t// in\n    tag_129:\n      swap3\n      pop\n      pop\n      dup2\n      swap1\n      sstore\n      pop\n        /* \"src/contracts/Platform.sol\":4863:4869  amount */\n      dup1\n        /* \"src/contracts/Platform.sol\":4832:4840  projects */\n      0x03\n        /* \"src/contracts/Platform.sol\":4832:4852  projects[project_id] */\n      0x00\n        /* \"src/contracts/Platform.sol\":4841:4851  project_id */\n      dup5\n        /* \"src/contracts/Platform.sol\":4832:4852  projects[project_id] */\n      dup2\n      mstore\n      0x20\n      add\n      swap1\n      dup2\n      mstore\n      0x20\n      add\n      0x00\n      keccak256\n        /* \"src/contracts/Platform.sol\":4832:4859  projects[project_id].wallet */\n      0x06\n      add\n      0x00\n        /* \"src/contracts/Platform.sol\":4832:4869  projects[project_id].wallet -= amount */\n      dup3\n      dup3\n      sload\n      tag_131\n      swap2\n      swap1\n      tag_130\n      jump\t// in\n    tag_131:\n      swap3\n      pop\n      pop\n      dup2\n      swap1\n      sstore\n      pop\n        /* \"src/contracts/Platform.sol\":4888:4898  msg.sender */\n      caller\n        /* \"src/contracts/Platform.sol\":4880:4908  payable(msg.sender).transfer */\n      0xffffffffffffffffffffffffffffffffffffffff\n      and\n        /* \"src/contracts/Platform.sol\":4880:4916  payable(msg.sender).transfer(amount) */\n      0x08fc\n        /* \"src/contracts/Platform.sol\":4909:4915  amount */\n      dup3\n        /* \"src/contracts/Platform.sol\":4880:4916  payable(msg.sender).transfer(amount) */\n      swap1\n      dup2\n      iszero\n      mul\n      swap1\n      mload(0x40)\n      0x00\n      mload(0x40)\n      dup1\n      dup4\n      sub\n      dup2\n      dup6\n      dup9\n      dup9\n      call\n      swap4\n      pop\n      pop\n      pop\n      pop\n      iszero\n      dup1\n      iszero\n      tag_133\n      jumpi\n      returndatasize\n      0x00\n      dup1\n      returndatacopy\n      revert(0x00, returndatasize)\n    tag_133:\n      pop\n        /* \"src/contracts/Platform.sol\":4292:4924  function withdraw(uint256 project_id, uint256 amount) public {... */\n      pop\n      pop\n      jump\t// out\n        /* \"src/contracts/Platform.sol\":3603:3824  function getReleaseTime(uint256 project_id) external view returns (uint256) {... */\n    tag_48:\n        /* \"src/contracts/Platform.sol\":3670:3677  uint256 */\n      0x00\n        /* \"src/contracts/Platform.sol\":3737:3738  0 */\n      dup1\n        /* \"src/contracts/Platform.sol\":3699:3739  projects[project_id].owner != address(0) */\n      0xffffffffffffffffffffffffffffffffffffffff\n      and\n        /* \"src/contracts/Platform.sol\":3699:3707  projects */\n      0x03\n        /* \"src/contracts/Platform.sol\":3699:3719  projects[project_id] */\n      0x00\n        /* \"src/contracts/Platform.sol\":3708:3718  project_id */\n      dup5\n        /* \"src/contracts/Platform.sol\":3699:3719  projects[project_id] */\n      dup2\n      mstore\n      0x20\n      add\n      swap1\n      dup2\n      mstore\n      0x20\n      add\n      0x00\n      keccak256\n        /* \"src/contracts/Platform.sol\":3699:3725  projects[project_id].owner */\n      0x00\n      add\n      0x00\n      swap1\n      sload\n      swap1\n      0x0100\n      exp\n      swap1\n      div\n      0xffffffffffffffffffffffffffffffffffffffff\n      and\n        /* \"src/contracts/Platform.sol\":3699:3739  projects[project_id].owner != address(0) */\n      0xffffffffffffffffffffffffffffffffffffffff\n      and\n      sub\n        /* \"src/contracts/Platform.sol\":3690:3766  require (projects[project_id].owner != address(0), \"Project does not exist\") */\n      tag_135\n      jumpi\n      mload(0x40)\n      0x08c379a000000000000000000000000000000000000000000000000000000000\n      dup2\n      mstore\n      0x04\n      add\n      tag_136\n      swap1\n      tag_96\n      jump\t// in\n    tag_136:\n      mload(0x40)\n      dup1\n      swap2\n      sub\n      swap1\n      revert\n    tag_135:\n        /* \"src/contracts/Platform.sol\":3784:3792  projects */\n      0x03\n        /* \"src/contracts/Platform.sol\":3784:3804  projects[project_id] */\n      0x00\n        /* \"src/contracts/Platform.sol\":3793:3803  project_id */\n      dup4\n        /* \"src/contracts/Platform.sol\":3784:3804  projects[project_id] */\n      dup2\n      mstore\n      0x20\n      add\n      swap1\n      dup2\n      mstore\n      0x20\n      add\n      0x00\n      keccak256\n        /* \"src/contracts/Platform.sol\":3784:3816  projects[project_id].releaseTime */\n      0x05\n      add\n      sload\n        /* \"src/contracts/Platform.sol\":3777:3816  return projects[project_id].releaseTime */\n      swap1\n      pop\n        /* \"src/contracts/Platform.sol\":3603:3824  function getReleaseTime(uint256 project_id) external view returns (uint256) {... */\n      swap2\n      swap1\n      pop\n      jump\t// out\n        /* \"src/contracts/Platform.sol\":2918:3157  function getProjectDescription(uint256 project_id) public view returns (string memory) {... */\n    tag_53:\n        /* \"src/contracts/Platform.sol\":2990:3003  string memory */\n      0x60\n        /* \"src/contracts/Platform.sol\":3063:3064  0 */\n      0x00\n        /* \"src/contracts/Platform.sol\":3025:3065  projects[project_id].owner != address(0) */\n      0xffffffffffffffffffffffffffffffffffffffff\n      and\n        /* \"src/contracts/Platform.sol\":3025:3033  projects */\n      0x03\n        /* \"src/contracts/Platform.sol\":3025:3045  projects[project_id] */\n      0x00\n        /* \"src/contracts/Platform.sol\":3034:3044  project_id */\n      dup5\n        /* \"src/contracts/Platform.sol\":3025:3045  projects[project_id] */\n      dup2\n      mstore\n      0x20\n      add\n      swap1\n      dup2\n      mstore\n      0x20\n      add\n      0x00\n      keccak256\n        /* \"src/contracts/Platform.sol\":3025:3051  projects[project_id].owner */\n      0x00\n      add\n      0x00\n      swap1\n      sload\n      swap1\n      0x0100\n      exp\n      swap1\n      div\n      0xffffffffffffffffffffffffffffffffffffffff\n      and\n        /* \"src/contracts/Platform.sol\":3025:3065  projects[project_id].owner != address(0) */\n      0xffffffffffffffffffffffffffffffffffffffff\n      and\n      sub\n        /* \"src/contracts/Platform.sol\":3016:3092  require (projects[project_id].owner != address(0), \"Project does not exist\") */\n      tag_138\n      jumpi\n      mload(0x40)\n      0x08c379a000000000000000000000000000000000000000000000000000000000\n      dup2\n      mstore\n      0x04\n      add\n      tag_139\n      swap1\n      tag_96\n      jump\t// in\n    tag_139:\n      mload(0x40)\n      dup1\n      swap2\n      sub\n      swap1\n      revert\n    tag_138:\n        /* \"src/contracts/Platform.sol\":3110:3118  projects */\n      0x03\n        /* \"src/contracts/Platform.sol\":3110:3130  projects[project_id] */\n      0x00\n        /* \"src/contracts/Platform.sol\":3119:3129  project_id */\n      dup4\n        /* \"src/contracts/Platform.sol\":3110:3130  projects[project_id] */\n      dup2\n      mstore\n      0x20\n      add\n      swap1\n      dup2\n      mstore\n      0x20\n      add\n      0x00\n      keccak256\n        /* \"src/contracts/Platform.sol\":3110:3149  projects[project_id].projectDescription */\n      0x02\n      add\n        /* \"src/contracts/Platform.sol\":3103:3149  return projects[project_id].projectDescription */\n      dup1\n      sload\n      tag_140\n      swap1\n      tag_141\n      jump\t// in\n    tag_140:\n      dup1\n      0x1f\n      add\n      0x20\n      dup1\n      swap2\n      div\n      mul\n      0x20\n      add\n      mload(0x40)\n      swap1\n      dup2\n      add\n      0x40\n      mstore\n      dup1\n      swap3\n      swap2\n      swap1\n      dup2\n      dup2\n      mstore\n      0x20\n      add\n      dup3\n      dup1\n      sload\n      tag_142\n      swap1\n      tag_141\n      jump\t// in\n    tag_142:\n      dup1\n      iszero\n      tag_143\n      jumpi\n      dup1\n      0x1f\n      lt\n      tag_144\n      jumpi\n      0x0100\n      dup1\n      dup4\n      sload\n      div\n      mul\n      dup4\n      mstore\n      swap2\n      0x20\n      add\n      swap2\n      jump(tag_143)\n    tag_144:\n      dup3\n      add\n      swap2\n      swap1\n      0x00\n      mstore\n      keccak256(0x00, 0x20)\n      swap1\n    tag_145:\n      dup2\n      sload\n      dup2\n      mstore\n      swap1\n      0x01\n      add\n      swap1\n      0x20\n      add\n      dup1\n      dup4\n      gt\n      tag_145\n      jumpi\n      dup3\n      swap1\n      sub\n      0x1f\n      and\n      dup3\n      add\n      swap2\n    tag_143:\n      pop\n      pop\n      pop\n      pop\n      pop\n      swap1\n      pop\n        /* \"src/contracts/Platform.sol\":2918:3157  function getProjectDescription(uint256 project_id) public view returns (string memory) {... */\n      swap2\n      swap1\n      pop\n      jump\t// out\n        /* \"src/contracts/Platform.sol\":698:1084  function createProject(string memory projectName, uint256 no_of_date) external returns (uint256){... */\n    tag_60:\n        /* \"src/contracts/Platform.sol\":786:793  uint256 */\n      0x00\n        /* \"src/contracts/Platform.sol\":805:831  Project storage newProject */\n      dup1\n        /* \"src/contracts/Platform.sol\":834:842  projects */\n      0x03\n        /* \"src/contracts/Platform.sol\":834:855  projects[contract_id] */\n      0x00\n        /* \"src/contracts/Platform.sol\":843:854  contract_id */\n      sload(0x02)\n        /* \"src/contracts/Platform.sol\":834:855  projects[contract_id] */\n      dup2\n      mstore\n      0x20\n      add\n      swap1\n      dup2\n      mstore\n      0x20\n      add\n      0x00\n      keccak256\n        /* \"src/contracts/Platform.sol\":805:855  Project storage newProject = projects[contract_id] */\n      swap1\n      pop\n        /* \"src/contracts/Platform.sol\":885:895  msg.sender */\n      caller\n        /* \"src/contracts/Platform.sol\":866:876  newProject */\n      dup2\n        /* \"src/contracts/Platform.sol\":866:882  newProject.owner */\n      0x00\n      add\n      0x00\n        /* \"src/contracts/Platform.sol\":866:895  newProject.owner = msg.sender */\n      0x0100\n      exp\n      dup2\n      sload\n      dup2\n      0xffffffffffffffffffffffffffffffffffffffff\n      mul\n      not\n      and\n      swap1\n      dup4\n      0xffffffffffffffffffffffffffffffffffffffff\n      and\n      mul\n      or\n      swap1\n      sstore\n      pop\n        /* \"src/contracts/Platform.sol\":931:942  projectName */\n      dup4\n        /* \"src/contracts/Platform.sol\":906:916  newProject */\n      dup2\n        /* \"src/contracts/Platform.sol\":906:928  newProject.projectName */\n      0x01\n      add\n        /* \"src/contracts/Platform.sol\":906:942  newProject.projectName = projectName */\n      swap1\n      dup2\n      tag_147\n      swap2\n      swap1\n      tag_101\n      jump\t// in\n    tag_147:\n      pop\n        /* \"src/contracts/Platform.sol\":1009:1014  86400 */\n      0x015180\n        /* \"src/contracts/Platform.sol\":996:1006  no_of_date */\n      dup4\n        /* \"src/contracts/Platform.sol\":996:1014  no_of_date * 86400 */\n      tag_148\n      swap2\n      swap1\n      tag_149\n      jump\t// in\n    tag_148:\n        /* \"src/contracts/Platform.sol\":978:993  block.timestamp */\n      timestamp\n        /* \"src/contracts/Platform.sol\":978:1014  block.timestamp + no_of_date * 86400 */\n      tag_150\n      swap2\n      swap1\n      tag_151\n      jump\t// in\n    tag_150:\n        /* \"src/contracts/Platform.sol\":953:963  newProject */\n      dup2\n        /* \"src/contracts/Platform.sol\":953:975  newProject.releaseTime */\n      0x05\n      add\n        /* \"src/contracts/Platform.sol\":953:1014  newProject.releaseTime = block.timestamp + no_of_date * 86400 */\n      dup2\n      swap1\n      sstore\n      pop\n        /* \"src/contracts/Platform.sol\":1040:1041  1 */\n      0x01\n        /* \"src/contracts/Platform.sol\":1025:1036  contract_id */\n      0x02\n      0x00\n        /* \"src/contracts/Platform.sol\":1025:1041  contract_id += 1 */\n      dup3\n      dup3\n      sload\n      tag_152\n      swap2\n      swap1\n      tag_151\n      jump\t// in\n    tag_152:\n      swap3\n      pop\n      pop\n      dup2\n      swap1\n      sstore\n      pop\n        /* \"src/contracts/Platform.sol\":1074:1075  1 */\n      0x01\n        /* \"src/contracts/Platform.sol\":1060:1071  contract_id */\n      sload(0x02)\n        /* \"src/contracts/Platform.sol\":1060:1075  contract_id - 1 */\n      tag_153\n      swap2\n      swap1\n      tag_130\n      jump\t// in\n    tag_153:\n        /* \"src/contracts/Platform.sol\":1052:1076  return (contract_id - 1) */\n      swap2\n      pop\n      pop\n        /* \"src/contracts/Platform.sol\":698:1084  function createProject(string memory projectName, uint256 no_of_date) external returns (uint256){... */\n      swap3\n      swap2\n      pop\n      pop\n      jump\t// out\n        /* \"src/contracts/Platform.sol\":3832:4220  function deposit(uint256 project_id) public payable {... */\n    tag_64:\n        /* \"src/contracts/Platform.sol\":3942:3943  0 */\n      0x00\n        /* \"src/contracts/Platform.sol\":3904:3944  projects[project_id].owner != address(0) */\n      0xffffffffffffffffffffffffffffffffffffffff\n      and\n        /* \"src/contracts/Platform.sol\":3904:3912  projects */\n      0x03\n        /* \"src/contracts/Platform.sol\":3904:3924  projects[project_id] */\n      0x00\n        /* \"src/contracts/Platform.sol\":3913:3923  project_id */\n      dup4\n        /* \"src/contracts/Platform.sol\":3904:3924  projects[project_id] */\n      dup2\n      mstore\n      0x20\n      add\n      swap1\n      dup2\n      mstore\n      0x20\n      add\n      0x00\n      keccak256\n        /* \"src/contracts/Platform.sol\":3904:3930  projects[project_id].owner */\n      0x00\n      add\n      0x00\n      swap1\n      sload\n      swap1\n      0x0100\n      exp\n      swap1\n      div\n      0xffffffffffffffffffffffffffffffffffffffff\n      and\n        /* \"src/contracts/Platform.sol\":3904:3944  projects[project_id].owner != address(0) */\n      0xffffffffffffffffffffffffffffffffffffffff\n      and\n      sub\n        /* \"src/contracts/Platform.sol\":3895:3971  require (projects[project_id].owner != address(0), \"Project does not exist\") */\n      tag_155\n      jumpi\n      mload(0x40)\n      0x08c379a000000000000000000000000000000000000000000000000000000000\n      dup2\n      mstore\n      0x04\n      add\n      tag_156\n      swap1\n      tag_96\n      jump\t// in\n    tag_156:\n      mload(0x40)\n      dup1\n      swap2\n      sub\n      swap1\n      revert\n    tag_155:\n        /* \"src/contracts/Platform.sol\":4022:4023  0 */\n      0x00\n        /* \"src/contracts/Platform.sol\":3991:3999  projects */\n      0x03\n        /* \"src/contracts/Platform.sol\":3991:4011  projects[project_id] */\n      0x00\n        /* \"src/contracts/Platform.sol\":4000:4010  project_id */\n      dup4\n        /* \"src/contracts/Platform.sol\":3991:4011  projects[project_id] */\n      dup2\n      mstore\n      0x20\n      add\n      swap1\n      dup2\n      mstore\n      0x20\n      add\n      0x00\n      keccak256\n        /* \"src/contracts/Platform.sol\":3991:4018  projects[project_id].target */\n      0x03\n      add\n      sload\n        /* \"src/contracts/Platform.sol\":3991:4023  projects[project_id].target != 0 */\n      sub\n        /* \"src/contracts/Platform.sol\":3982:4046  require (projects[project_id].target != 0, \"Target not yet set\") */\n      tag_157\n      jumpi\n      mload(0x40)\n      0x08c379a000000000000000000000000000000000000000000000000000000000\n      dup2\n      mstore\n      0x04\n      add\n      tag_158\n      swap1\n      tag_159\n      jump\t// in\n    tag_158:\n      mload(0x40)\n      dup1\n      swap2\n      sub\n      swap1\n      revert\n    tag_157:\n        /* \"src/contracts/Platform.sol\":4101:4110  msg.value */\n      callvalue\n        /* \"src/contracts/Platform.sol\":4057:4065  projects */\n      0x03\n        /* \"src/contracts/Platform.sol\":4057:4077  projects[project_id] */\n      0x00\n        /* \"src/contracts/Platform.sol\":4066:4076  project_id */\n      dup4\n        /* \"src/contracts/Platform.sol\":4057:4077  projects[project_id] */\n      dup2\n      mstore\n      0x20\n      add\n      swap1\n      dup2\n      mstore\n      0x20\n      add\n      0x00\n      keccak256\n        /* \"src/contracts/Platform.sol\":4057:4085  projects[project_id].balance */\n      0x07\n      add\n        /* \"src/contracts/Platform.sol\":4057:4097  projects[project_id].balance[msg.sender] */\n      0x00\n        /* \"src/contracts/Platform.sol\":4086:4096  msg.sender */\n      caller\n        /* \"src/contracts/Platform.sol\":4057:4097  projects[project_id].balance[msg.sender] */\n      0xffffffffffffffffffffffffffffffffffffffff\n      and\n      0xffffffffffffffffffffffffffffffffffffffff\n      and\n      dup2\n      mstore\n      0x20\n      add\n      swap1\n      dup2\n      mstore\n      0x20\n      add\n      0x00\n      keccak256\n      0x00\n        /* \"src/contracts/Platform.sol\":4057:4110  projects[project_id].balance[msg.sender] += msg.value */\n      dup3\n      dup3\n      sload\n      tag_160\n      swap2\n      swap1\n      tag_151\n      jump\t// in\n    tag_160:\n      swap3\n      pop\n      pop\n      dup2\n      swap1\n      sstore\n      pop\n        /* \"src/contracts/Platform.sol\":4152:4161  msg.value */\n      callvalue\n        /* \"src/contracts/Platform.sol\":4121:4129  projects */\n      0x03\n        /* \"src/contracts/Platform.sol\":4121:4141  projects[project_id] */\n      0x00\n        /* \"src/contracts/Platform.sol\":4130:4140  project_id */\n      dup4\n        /* \"src/contracts/Platform.sol\":4121:4141  projects[project_id] */\n      dup2\n      mstore\n      0x20\n      add\n      swap1\n      dup2\n      mstore\n      0x20\n      add\n      0x00\n      keccak256\n        /* \"src/contracts/Platform.sol\":4121:4148  projects[project_id].raised */\n      0x04\n      add\n      0x00\n        /* \"src/contracts/Platform.sol\":4121:4161  projects[project_id].raised += msg.value */\n      dup3\n      dup3\n      sload\n      tag_161\n      swap2\n      swap1\n      tag_151\n      jump\t// in\n    tag_161:\n      swap3\n      pop\n      pop\n      dup2\n      swap1\n      sstore\n      pop\n        /* \"src/contracts/Platform.sol\":4203:4212  msg.value */\n      callvalue\n        /* \"src/contracts/Platform.sol\":4172:4180  projects */\n      0x03\n        /* \"src/contracts/Platform.sol\":4172:4192  projects[project_id] */\n      0x00\n        /* \"src/contracts/Platform.sol\":4181:4191  project_id */\n      dup4\n        /* \"src/contracts/Platform.sol\":4172:4192  projects[project_id] */\n      dup2\n      mstore\n      0x20\n      add\n      swap1\n      dup2\n      mstore\n      0x20\n      add\n      0x00\n      keccak256\n        /* \"src/contracts/Platform.sol\":4172:4199  projects[project_id].wallet */\n      0x06\n      add\n      0x00\n        /* \"src/contracts/Platform.sol\":4172:4212  projects[project_id].wallet += msg.value */\n      dup3\n      dup3\n      sload\n      tag_162\n      swap2\n      swap1\n      tag_151\n      jump\t// in\n    tag_162:\n      swap3\n      pop\n      pop\n      dup2\n      swap1\n      sstore\n      pop\n        /* \"src/contracts/Platform.sol\":3832:4220  function deposit(uint256 project_id) public payable {... */\n      pop\n      jump\t// out\n        /* \"src/contracts/Platform.sol\":2464:2673  function getOwner(uint256 project_id) external view returns (address) {... */\n    tag_68:\n        /* \"src/contracts/Platform.sol\":2525:2532  address */\n      0x00\n        /* \"src/contracts/Platform.sol\":2592:2593  0 */\n      dup1\n        /* \"src/contracts/Platform.sol\":2554:2594  projects[project_id].owner != address(0) */\n      0xffffffffffffffffffffffffffffffffffffffff\n      and\n        /* \"src/contracts/Platform.sol\":2554:2562  projects */\n      0x03\n        /* \"src/contracts/Platform.sol\":2554:2574  projects[project_id] */\n      0x00\n        /* \"src/contracts/Platform.sol\":2563:2573  project_id */\n      dup5\n        /* \"src/contracts/Platform.sol\":2554:2574  projects[project_id] */\n      dup2\n      mstore\n      0x20\n      add\n      swap1\n      dup2\n      mstore\n      0x20\n      add\n      0x00\n      keccak256\n        /* \"src/contracts/Platform.sol\":2554:2580  projects[project_id].owner */\n      0x00\n      add\n      0x00\n      swap1\n      sload\n      swap1\n      0x0100\n      exp\n      swap1\n      div\n      0xffffffffffffffffffffffffffffffffffffffff\n      and\n        /* \"src/contracts/Platform.sol\":2554:2594  projects[project_id].owner != address(0) */\n      0xffffffffffffffffffffffffffffffffffffffff\n      and\n      sub\n        /* \"src/contracts/Platform.sol\":2545:2621  require (projects[project_id].owner != address(0), \"Project does not exist\") */\n      tag_164\n      jumpi\n      mload(0x40)\n      0x08c379a000000000000000000000000000000000000000000000000000000000\n      dup2\n      mstore\n      0x04\n      add\n      tag_165\n      swap1\n      tag_96\n      jump\t// in\n    tag_165:\n      mload(0x40)\n      dup1\n      swap2\n      sub\n      swap1\n      revert\n    tag_164:\n        /* \"src/contracts/Platform.sol\":2639:2647  projects */\n      0x03\n        /* \"src/contracts/Platform.sol\":2639:2659  projects[project_id] */\n      0x00\n        /* \"src/contracts/Platform.sol\":2648:2658  project_id */\n      dup4\n        /* \"src/contracts/Platform.sol\":2639:2659  projects[project_id] */\n      dup2\n      mstore\n      0x20\n      add\n      swap1\n      dup2\n      mstore\n      0x20\n      add\n      0x00\n      keccak256\n        /* \"src/contracts/Platform.sol\":2639:2665  projects[project_id].owner */\n      0x00\n      add\n      0x00\n      swap1\n      sload\n      swap1\n      0x0100\n      exp\n      swap1\n      div\n      0xffffffffffffffffffffffffffffffffffffffff\n      and\n        /* \"src/contracts/Platform.sol\":2632:2665  return projects[project_id].owner */\n      swap1\n      pop\n        /* \"src/contracts/Platform.sol\":2464:2673  function getOwner(uint256 project_id) external view returns (address) {... */\n      swap2\n      swap1\n      pop\n      jump\t// out\n        /* \"src/contracts/Platform.sol\":4999:5699  function claimMoney(uint256 project_id) public {... */\n    tag_74:\n        /* \"src/contracts/Platform.sol\":5104:5105  0 */\n      0x00\n        /* \"src/contracts/Platform.sol\":5066:5106  projects[project_id].owner != address(0) */\n      0xffffffffffffffffffffffffffffffffffffffff\n      and\n        /* \"src/contracts/Platform.sol\":5066:5074  projects */\n      0x03\n        /* \"src/contracts/Platform.sol\":5066:5086  projects[project_id] */\n      0x00\n        /* \"src/contracts/Platform.sol\":5075:5085  project_id */\n      dup4\n        /* \"src/contracts/Platform.sol\":5066:5086  projects[project_id] */\n      dup2\n      mstore\n      0x20\n      add\n      swap1\n      dup2\n      mstore\n      0x20\n      add\n      0x00\n      keccak256\n        /* \"src/contracts/Platform.sol\":5066:5092  projects[project_id].owner */\n      0x00\n      add\n      0x00\n      swap1\n      sload\n      swap1\n      0x0100\n      exp\n      swap1\n      div\n      0xffffffffffffffffffffffffffffffffffffffff\n      and\n        /* \"src/contracts/Platform.sol\":5066:5106  projects[project_id].owner != address(0) */\n      0xffffffffffffffffffffffffffffffffffffffff\n      and\n      sub\n        /* \"src/contracts/Platform.sol\":5057:5133  require (projects[project_id].owner != address(0), \"Project does not exist\") */\n      tag_167\n      jumpi\n      mload(0x40)\n      0x08c379a000000000000000000000000000000000000000000000000000000000\n      dup2\n      mstore\n      0x04\n      add\n      tag_168\n      swap1\n      tag_96\n      jump\t// in\n    tag_168:\n      mload(0x40)\n      dup1\n      swap2\n      sub\n      swap1\n      revert\n    tag_167:\n        /* \"src/contracts/Platform.sol\":5172:5180  projects */\n      0x03\n        /* \"src/contracts/Platform.sol\":5172:5192  projects[project_id] */\n      0x00\n        /* \"src/contracts/Platform.sol\":5181:5191  project_id */\n      dup3\n        /* \"src/contracts/Platform.sol\":5172:5192  projects[project_id] */\n      dup2\n      mstore\n      0x20\n      add\n      swap1\n      dup2\n      mstore\n      0x20\n      add\n      0x00\n      keccak256\n        /* \"src/contracts/Platform.sol\":5172:5204  projects[project_id].releaseTime */\n      0x05\n      add\n      sload\n        /* \"src/contracts/Platform.sol\":5153:5168  block.timestamp */\n      timestamp\n        /* \"src/contracts/Platform.sol\":5153:5204  block.timestamp >= projects[project_id].releaseTime */\n      lt\n      iszero\n        /* \"src/contracts/Platform.sol\":5144:5238  require (block.timestamp >= projects[project_id].releaseTime, \"Project has still not expired\") */\n      tag_169\n      jumpi\n      mload(0x40)\n      0x08c379a000000000000000000000000000000000000000000000000000000000\n      dup2\n      mstore\n      0x04\n      add\n      tag_170\n      swap1\n      tag_122\n      jump\t// in\n    tag_170:\n      mload(0x40)\n      dup1\n      swap2\n      sub\n      swap1\n      revert\n    tag_169:\n        /* \"src/contracts/Platform.sol\":5289:5297  projects */\n      0x03\n        /* \"src/contracts/Platform.sol\":5289:5309  projects[project_id] */\n      0x00\n        /* \"src/contracts/Platform.sol\":5298:5308  project_id */\n      dup3\n        /* \"src/contracts/Platform.sol\":5289:5309  projects[project_id] */\n      dup2\n      mstore\n      0x20\n      add\n      swap1\n      dup2\n      mstore\n      0x20\n      add\n      0x00\n      keccak256\n        /* \"src/contracts/Platform.sol\":5289:5316  projects[project_id].target */\n      0x03\n      add\n      sload\n        /* \"src/contracts/Platform.sol\":5258:5266  projects */\n      0x03\n        /* \"src/contracts/Platform.sol\":5258:5278  projects[project_id] */\n      0x00\n        /* \"src/contracts/Platform.sol\":5267:5277  project_id */\n      dup4\n        /* \"src/contracts/Platform.sol\":5258:5278  projects[project_id] */\n      dup2\n      mstore\n      0x20\n      add\n      swap1\n      dup2\n      mstore\n      0x20\n      add\n      0x00\n      keccak256\n        /* \"src/contracts/Platform.sol\":5258:5285  projects[project_id].raised */\n      0x04\n      add\n      sload\n        /* \"src/contracts/Platform.sol\":5258:5316  projects[project_id].raised >= projects[project_id].target */\n      lt\n      iszero\n        /* \"src/contracts/Platform.sol\":5249:5359  require (projects[project_id].raised >= projects[project_id].target, \"Project has failed to reach its target\") */\n      tag_171\n      jumpi\n      mload(0x40)\n      0x08c379a000000000000000000000000000000000000000000000000000000000\n      dup2\n      mstore\n      0x04\n      add\n      tag_172\n      swap1\n      tag_173\n      jump\t// in\n    tag_172:\n      mload(0x40)\n      dup1\n      swap2\n      sub\n      swap1\n      revert\n    tag_171:\n        /* \"src/contracts/Platform.sol\":5393:5401  projects */\n      0x03\n        /* \"src/contracts/Platform.sol\":5393:5413  projects[project_id] */\n      0x00\n        /* \"src/contracts/Platform.sol\":5402:5412  project_id */\n      dup3\n        /* \"src/contracts/Platform.sol\":5393:5413  projects[project_id] */\n      dup2\n      mstore\n      0x20\n      add\n      swap1\n      dup2\n      mstore\n      0x20\n      add\n      0x00\n      keccak256\n        /* \"src/contracts/Platform.sol\":5393:5419  projects[project_id].owner */\n      0x00\n      add\n      0x00\n      swap1\n      sload\n      swap1\n      0x0100\n      exp\n      swap1\n      div\n      0xffffffffffffffffffffffffffffffffffffffff\n      and\n        /* \"src/contracts/Platform.sol\":5379:5419  msg.sender == projects[project_id].owner */\n      0xffffffffffffffffffffffffffffffffffffffff\n      and\n        /* \"src/contracts/Platform.sol\":5379:5389  msg.sender */\n      caller\n        /* \"src/contracts/Platform.sol\":5379:5419  msg.sender == projects[project_id].owner */\n      0xffffffffffffffffffffffffffffffffffffffff\n      and\n      eq\n        /* \"src/contracts/Platform.sol\":5370:5458  require (msg.sender == projects[project_id].owner, \"Only the owner can claim the money\") */\n      tag_174\n      jumpi\n      mload(0x40)\n      0x08c379a000000000000000000000000000000000000000000000000000000000\n      dup2\n      mstore\n      0x04\n      add\n      tag_175\n      swap1\n      tag_176\n      jump\t// in\n    tag_175:\n      mload(0x40)\n      dup1\n      swap2\n      sub\n      swap1\n      revert\n    tag_174:\n        /* \"src/contracts/Platform.sol\":5508:5509  0 */\n      0x00\n        /* \"src/contracts/Platform.sol\":5478:5486  projects */\n      0x03\n        /* \"src/contracts/Platform.sol\":5478:5498  projects[project_id] */\n      0x00\n        /* \"src/contracts/Platform.sol\":5487:5497  project_id */\n      dup4\n        /* \"src/contracts/Platform.sol\":5478:5498  projects[project_id] */\n      dup2\n      mstore\n      0x20\n      add\n      swap1\n      dup2\n      mstore\n      0x20\n      add\n      0x00\n      keccak256\n        /* \"src/contracts/Platform.sol\":5478:5505  projects[project_id].wallet */\n      0x06\n      add\n      sload\n        /* \"src/contracts/Platform.sol\":5478:5509  projects[project_id].wallet > 0 */\n      gt\n        /* \"src/contracts/Platform.sol\":5469:5531  require (projects[project_id].wallet > 0, \"No money to claim\") */\n      tag_177\n      jumpi\n      mload(0x40)\n      0x08c379a000000000000000000000000000000000000000000000000000000000\n      dup2\n      mstore\n      0x04\n      add\n      tag_178\n      swap1\n      tag_179\n      jump\t// in\n    tag_178:\n      mload(0x40)\n      dup1\n      swap2\n      sub\n      swap1\n      revert\n    tag_177:\n        /* \"src/contracts/Platform.sol\":5542:5556  uint256 amount */\n      0x00\n        /* \"src/contracts/Platform.sol\":5559:5567  projects */\n      0x03\n        /* \"src/contracts/Platform.sol\":5559:5579  projects[project_id] */\n      0x00\n        /* \"src/contracts/Platform.sol\":5568:5578  project_id */\n      dup4\n        /* \"src/contracts/Platform.sol\":5559:5579  projects[project_id] */\n      dup2\n      mstore\n      0x20\n      add\n      swap1\n      dup2\n      mstore\n      0x20\n      add\n      0x00\n      keccak256\n        /* \"src/contracts/Platform.sol\":5559:5586  projects[project_id].wallet */\n      0x06\n      add\n      sload\n        /* \"src/contracts/Platform.sol\":5542:5586  uint256 amount = projects[project_id].wallet */\n      swap1\n      pop\n        /* \"src/contracts/Platform.sol\":5627:5628  0 */\n      0x00\n        /* \"src/contracts/Platform.sol\":5597:5605  projects */\n      0x03\n        /* \"src/contracts/Platform.sol\":5597:5617  projects[project_id] */\n      0x00\n        /* \"src/contracts/Platform.sol\":5606:5616  project_id */\n      dup5\n        /* \"src/contracts/Platform.sol\":5597:5617  projects[project_id] */\n      dup2\n      mstore\n      0x20\n      add\n      swap1\n      dup2\n      mstore\n      0x20\n      add\n      0x00\n      keccak256\n        /* \"src/contracts/Platform.sol\":5597:5624  projects[project_id].wallet */\n      0x06\n      add\n        /* \"src/contracts/Platform.sol\":5597:5628  projects[project_id].wallet = 0 */\n      dup2\n      swap1\n      sstore\n      pop\n        /* \"src/contracts/Platform.sol\":5647:5655  projects */\n      0x03\n        /* \"src/contracts/Platform.sol\":5647:5667  projects[project_id] */\n      0x00\n        /* \"src/contracts/Platform.sol\":5656:5666  project_id */\n      dup4\n        /* \"src/contracts/Platform.sol\":5647:5667  projects[project_id] */\n      dup2\n      mstore\n      0x20\n      add\n      swap1\n      dup2\n      mstore\n      0x20\n      add\n      0x00\n      keccak256\n        /* \"src/contracts/Platform.sol\":5647:5673  projects[project_id].owner */\n      0x00\n      add\n      0x00\n      swap1\n      sload\n      swap1\n      0x0100\n      exp\n      swap1\n      div\n      0xffffffffffffffffffffffffffffffffffffffff\n      and\n        /* \"src/contracts/Platform.sol\":5639:5683  payable(projects[project_id].owner).transfer */\n      0xffffffffffffffffffffffffffffffffffffffff\n      and\n        /* \"src/contracts/Platform.sol\":5639:5691  payable(projects[project_id].owner).transfer(amount) */\n      0x08fc\n        /* \"src/contracts/Platform.sol\":5684:5690  amount */\n      dup3\n        /* \"src/contracts/Platform.sol\":5639:5691  payable(projects[project_id].owner).transfer(amount) */\n      swap1\n      dup2\n      iszero\n      mul\n      swap1\n      mload(0x40)\n      0x00\n      mload(0x40)\n      dup1\n      dup4\n      sub\n      dup2\n      dup6\n      dup9\n      dup9\n      call\n      swap4\n      pop\n      pop\n      pop\n      pop\n      iszero\n      dup1\n      iszero\n      tag_181\n      jumpi\n      returndatasize\n      0x00\n      dup1\n      returndatacopy\n      revert(0x00, returndatasize)\n    tag_181:\n      pop\n        /* \"src/contracts/Platform.sol\":5046:5699  {... */\n      pop\n        /* \"src/contracts/Platform.sol\":4999:5699  function claimMoney(uint256 project_id) public {... */\n      pop\n      jump\t// out\n        /* \"src/contracts/Platform.sol\":3165:3376  function getTarget(uint256 project_id) external view returns (uint256) {... */\n    tag_78:\n        /* \"src/contracts/Platform.sol\":3227:3234  uint256 */\n      0x00\n        /* \"src/contracts/Platform.sol\":3294:3295  0 */\n      dup1\n        /* \"src/contracts/Platform.sol\":3256:3296  projects[project_id].owner != address(0) */\n      0xffffffffffffffffffffffffffffffffffffffff\n      and\n        /* \"src/contracts/Platform.sol\":3256:3264  projects */\n      0x03\n        /* \"src/contracts/Platform.sol\":3256:3276  projects[project_id] */\n      0x00\n        /* \"src/contracts/Platform.sol\":3265:3275  project_id */\n      dup5\n        /* \"src/contracts/Platform.sol\":3256:3276  projects[project_id] */\n      dup2\n      mstore\n      0x20\n      add\n      swap1\n      dup2\n      mstore\n      0x20\n      add\n      0x00\n      keccak256\n        /* \"src/contracts/Platform.sol\":3256:3282  projects[project_id].owner */\n      0x00\n      add\n      0x00\n      swap1\n      sload\n      swap1\n      0x0100\n      exp\n      swap1\n      div\n      0xffffffffffffffffffffffffffffffffffffffff\n      and\n        /* \"src/contracts/Platform.sol\":3256:3296  projects[project_id].owner != address(0) */\n      0xffffffffffffffffffffffffffffffffffffffff\n      and\n      sub\n        /* \"src/contracts/Platform.sol\":3247:3323  require (projects[project_id].owner != address(0), \"Project does not exist\") */\n      tag_183\n      jumpi\n      mload(0x40)\n      0x08c379a000000000000000000000000000000000000000000000000000000000\n      dup2\n      mstore\n      0x04\n      add\n      tag_184\n      swap1\n      tag_96\n      jump\t// in\n    tag_184:\n      mload(0x40)\n      dup1\n      swap2\n      sub\n      swap1\n      revert\n    tag_183:\n        /* \"src/contracts/Platform.sol\":3341:3349  projects */\n      0x03\n        /* \"src/contracts/Platform.sol\":3341:3361  projects[project_id] */\n      0x00\n        /* \"src/contracts/Platform.sol\":3350:3360  project_id */\n      dup4\n        /* \"src/contracts/Platform.sol\":3341:3361  projects[project_id] */\n      dup2\n      mstore\n      0x20\n      add\n      swap1\n      dup2\n      mstore\n      0x20\n      add\n      0x00\n      keccak256\n        /* \"src/contracts/Platform.sol\":3341:3368  projects[project_id].target */\n      0x03\n      add\n      sload\n        /* \"src/contracts/Platform.sol\":3334:3368  return projects[project_id].target */\n      swap1\n      pop\n        /* \"src/contracts/Platform.sol\":3165:3376  function getTarget(uint256 project_id) external view returns (uint256) {... */\n      swap2\n      swap1\n      pop\n      jump\t// out\n        /* \"src/contracts/Platform.sol\":1107:1430  function setProjectName(uint256 project_id, string memory name) external {... */\n    tag_83:\n        /* \"src/contracts/Platform.sol\":1238:1239  0 */\n      0x00\n        /* \"src/contracts/Platform.sol\":1200:1240  projects[project_id].owner != address(0) */\n      0xffffffffffffffffffffffffffffffffffffffff\n      and\n        /* \"src/contracts/Platform.sol\":1200:1208  projects */\n      0x03\n        /* \"src/contracts/Platform.sol\":1200:1220  projects[project_id] */\n      0x00\n        /* \"src/contracts/Platform.sol\":1209:1219  project_id */\n      dup5\n        /* \"src/contracts/Platform.sol\":1200:1220  projects[project_id] */\n      dup2\n      mstore\n      0x20\n      add\n      swap1\n      dup2\n      mstore\n      0x20\n      add\n      0x00\n      keccak256\n        /* \"src/contracts/Platform.sol\":1200:1226  projects[project_id].owner */\n      0x00\n      add\n      0x00\n      swap1\n      sload\n      swap1\n      0x0100\n      exp\n      swap1\n      div\n      0xffffffffffffffffffffffffffffffffffffffff\n      and\n        /* \"src/contracts/Platform.sol\":1200:1240  projects[project_id].owner != address(0) */\n      0xffffffffffffffffffffffffffffffffffffffff\n      and\n      sub\n        /* \"src/contracts/Platform.sol\":1191:1267  require (projects[project_id].owner != address(0), \"Project does not exist\") */\n      tag_186\n      jumpi\n      mload(0x40)\n      0x08c379a000000000000000000000000000000000000000000000000000000000\n      dup2\n      mstore\n      0x04\n      add\n      tag_187\n      swap1\n      tag_96\n      jump\t// in\n    tag_187:\n      mload(0x40)\n      dup1\n      swap2\n      sub\n      swap1\n      revert\n    tag_186:\n        /* \"src/contracts/Platform.sol\":1301:1309  projects */\n      0x03\n        /* \"src/contracts/Platform.sol\":1301:1321  projects[project_id] */\n      0x00\n        /* \"src/contracts/Platform.sol\":1310:1320  project_id */\n      dup4\n        /* \"src/contracts/Platform.sol\":1301:1321  projects[project_id] */\n      dup2\n      mstore\n      0x20\n      add\n      swap1\n      dup2\n      mstore\n      0x20\n      add\n      0x00\n      keccak256\n        /* \"src/contracts/Platform.sol\":1301:1327  projects[project_id].owner */\n      0x00\n      add\n      0x00\n      swap1\n      sload\n      swap1\n      0x0100\n      exp\n      swap1\n      div\n      0xffffffffffffffffffffffffffffffffffffffff\n      and\n        /* \"src/contracts/Platform.sol\":1287:1327  msg.sender == projects[project_id].owner */\n      0xffffffffffffffffffffffffffffffffffffffff\n      and\n        /* \"src/contracts/Platform.sol\":1287:1297  msg.sender */\n      caller\n        /* \"src/contracts/Platform.sol\":1287:1327  msg.sender == projects[project_id].owner */\n      0xffffffffffffffffffffffffffffffffffffffff\n      and\n      eq\n        /* \"src/contracts/Platform.sol\":1278:1371  require (msg.sender == projects[project_id].owner, \"Only the owner can set the project name\") */\n      tag_188\n      jumpi\n      mload(0x40)\n      0x08c379a000000000000000000000000000000000000000000000000000000000\n      dup2\n      mstore\n      0x04\n      add\n      tag_189\n      swap1\n      tag_190\n      jump\t// in\n    tag_189:\n      mload(0x40)\n      dup1\n      swap2\n      sub\n      swap1\n      revert\n    tag_188:\n        /* \"src/contracts/Platform.sol\":1418:1422  name */\n      dup1\n        /* \"src/contracts/Platform.sol\":1383:1391  projects */\n      0x03\n        /* \"src/contracts/Platform.sol\":1383:1403  projects[project_id] */\n      0x00\n        /* \"src/contracts/Platform.sol\":1392:1402  project_id */\n      dup5\n        /* \"src/contracts/Platform.sol\":1383:1403  projects[project_id] */\n      dup2\n      mstore\n      0x20\n      add\n      swap1\n      dup2\n      mstore\n      0x20\n      add\n      0x00\n      keccak256\n        /* \"src/contracts/Platform.sol\":1383:1415  projects[project_id].projectName */\n      0x01\n      add\n        /* \"src/contracts/Platform.sol\":1383:1422  projects[project_id].projectName = name */\n      swap1\n      dup2\n      tag_191\n      swap2\n      swap1\n      tag_101\n      jump\t// in\n    tag_191:\n      pop\n        /* \"src/contracts/Platform.sol\":1107:1430  function setProjectName(uint256 project_id, string memory name) external {... */\n      pop\n      pop\n      jump\t// out\n        /* \"src/contracts/Platform.sol\":2681:2906  function getProjectName(uint256 project_id) public view returns (string memory) {... */\n    tag_87:\n        /* \"src/contracts/Platform.sol\":2746:2759  string memory */\n      0x60\n        /* \"src/contracts/Platform.sol\":2819:2820  0 */\n      0x00\n        /* \"src/contracts/Platform.sol\":2781:2821  projects[project_id].owner != address(0) */\n      0xffffffffffffffffffffffffffffffffffffffff\n      and\n        /* \"src/contracts/Platform.sol\":2781:2789  projects */\n      0x03\n        /* \"src/contracts/Platform.sol\":2781:2801  projects[project_id] */\n      0x00\n        /* \"src/contracts/Platform.sol\":2790:2800  project_id */\n      dup5\n        /* \"src/contracts/Platform.sol\":2781:2801  projects[project_id] */\n      dup2\n      mstore\n      0x20\n      add\n      swap1\n      dup2\n      mstore\n      0x20\n      add\n      0x00\n      keccak256\n        /* \"src/contracts/Platform.sol\":2781:2807  projects[project_id].owner */\n      0x00\n      add\n      0x00\n      swap1\n      sload\n      swap1\n      0x0100\n      exp\n      swap1\n      div\n      0xffffffffffffffffffffffffffffffffffffffff\n      and\n        /* \"src/contracts/Platform.sol\":2781:2821  projects[project_id].owner != address(0) */\n      0xffffffffffffffffffffffffffffffffffffffff\n      and\n      sub\n        /* \"src/contracts/Platform.sol\":2772:2848  require (projects[project_id].owner != address(0), \"Project does not exist\") */\n      tag_193\n      jumpi\n      mload(0x40)\n      0x08c379a000000000000000000000000000000000000000000000000000000000\n      dup2\n      mstore\n      0x04\n      add\n      tag_194\n      swap1\n      tag_96\n      jump\t// in\n    tag_194:\n      mload(0x40)\n      dup1\n      swap2\n      sub\n      swap1\n      revert\n    tag_193:\n        /* \"src/contracts/Platform.sol\":2866:2874  projects */\n      0x03\n        /* \"src/contracts/Platform.sol\":2866:2886  projects[project_id] */\n      0x00\n        /* \"src/contracts/Platform.sol\":2875:2885  project_id */\n      dup4\n        /* \"src/contracts/Platform.sol\":2866:2886  projects[project_id] */\n      dup2\n      mstore\n      0x20\n      add\n      swap1\n      dup2\n      mstore\n      0x20\n      add\n      0x00\n      keccak256\n        /* \"src/contracts/Platform.sol\":2866:2898  projects[project_id].projectName */\n      0x01\n      add\n        /* \"src/contracts/Platform.sol\":2859:2898  return projects[project_id].projectName */\n      dup1\n      sload\n      tag_195\n      swap1\n      tag_141\n      jump\t// in\n    tag_195:\n      dup1\n      0x1f\n      add\n      0x20\n      dup1\n      swap2\n      div\n      mul\n      0x20\n      add\n      mload(0x40)\n      swap1\n      dup2\n      add\n      0x40\n      mstore\n      dup1\n      swap3\n      swap2\n      swap1\n      dup2\n      dup2\n      mstore\n      0x20\n      add\n      dup3\n      dup1\n      sload\n      tag_196\n      swap1\n      tag_141\n      jump\t// in\n    tag_196:\n      dup1\n      iszero\n      tag_197\n      jumpi\n      dup1\n      0x1f\n      lt\n      tag_198\n      jumpi\n      0x0100\n      dup1\n      dup4\n      sload\n      div\n      mul\n      dup4\n      mstore\n      swap2\n      0x20\n      add\n      swap2\n      jump(tag_197)\n    tag_198:\n      dup3\n      add\n      swap2\n      swap1\n      0x00\n      mstore\n      keccak256(0x00, 0x20)\n      swap1\n    tag_199:\n      dup2\n      sload\n      dup2\n      mstore\n      swap1\n      0x01\n      add\n      swap1\n      0x20\n      add\n      dup1\n      dup4\n      gt\n      tag_199\n      jumpi\n      dup3\n      swap1\n      sub\n      0x1f\n      and\n      dup3\n      add\n      swap2\n    tag_197:\n      pop\n      pop\n      pop\n      pop\n      pop\n      swap1\n      pop\n        /* \"src/contracts/Platform.sol\":2681:2906  function getProjectName(uint256 project_id) public view returns (string memory) {... */\n      swap2\n      swap1\n      pop\n      jump\t// out\n        /* \"src/contracts/Platform.sol\":601:690  function test() external view returns (address){... */\n    tag_91:\n        /* \"src/contracts/Platform.sol\":640:647  address */\n      0x00\n        /* \"src/contracts/Platform.sol\":666:682  contract_creator */\n      dup1\n      0x00\n      swap1\n      sload\n      swap1\n      0x0100\n      exp\n      swap1\n      div\n      0xffffffffffffffffffffffffffffffffffffffff\n      and\n        /* \"src/contracts/Platform.sol\":659:682  return contract_creator */\n      swap1\n      pop\n        /* \"src/contracts/Platform.sol\":601:690  function test() external view returns (address){... */\n      swap1\n      jump\t// out\n        /* \"#utility.yul\":7:82   */\n    tag_201:\n        /* \"#utility.yul\":40:46   */\n      0x00\n        /* \"#utility.yul\":73:75   */\n      0x40\n        /* \"#utility.yul\":67:76   */\n      mload\n        /* \"#utility.yul\":57:76   */\n      swap1\n      pop\n        /* \"#utility.yul\":7:82   */\n      swap1\n      jump\t// out\n        /* \"#utility.yul\":88:205   */\n    tag_202:\n        /* \"#utility.yul\":197:198   */\n      0x00\n        /* \"#utility.yul\":194:195   */\n      dup1\n        /* \"#utility.yul\":187:199   */\n      revert\n        /* \"#utility.yul\":211:328   */\n    tag_203:\n        /* \"#utility.yul\":320:321   */\n      0x00\n        /* \"#utility.yul\":317:318   */\n      dup1\n        /* \"#utility.yul\":310:322   */\n      revert\n        /* \"#utility.yul\":334:411   */\n    tag_204:\n        /* \"#utility.yul\":371:378   */\n      0x00\n        /* \"#utility.yul\":400:405   */\n      dup2\n        /* \"#utility.yul\":389:405   */\n      swap1\n      pop\n        /* \"#utility.yul\":334:411   */\n      swap2\n      swap1\n      pop\n      jump\t// out\n        /* \"#utility.yul\":417:539   */\n    tag_205:\n        /* \"#utility.yul\":490:514   */\n      tag_272\n        /* \"#utility.yul\":508:513   */\n      dup2\n        /* \"#utility.yul\":490:514   */\n      tag_204\n      jump\t// in\n    tag_272:\n        /* \"#utility.yul\":483:488   */\n      dup2\n        /* \"#utility.yul\":480:515   */\n      eq\n        /* \"#utility.yul\":470:533   */\n      tag_273\n      jumpi\n        /* \"#utility.yul\":529:530   */\n      0x00\n        /* \"#utility.yul\":526:527   */\n      dup1\n        /* \"#utility.yul\":519:531   */\n      revert\n        /* \"#utility.yul\":470:533   */\n    tag_273:\n        /* \"#utility.yul\":417:539   */\n      pop\n      jump\t// out\n        /* \"#utility.yul\":545:684   */\n    tag_206:\n        /* \"#utility.yul\":591:596   */\n      0x00\n        /* \"#utility.yul\":629:635   */\n      dup2\n        /* \"#utility.yul\":616:636   */\n      calldataload\n        /* \"#utility.yul\":607:636   */\n      swap1\n      pop\n        /* \"#utility.yul\":645:678   */\n      tag_275\n        /* \"#utility.yul\":672:677   */\n      dup2\n        /* \"#utility.yul\":645:678   */\n      tag_205\n      jump\t// in\n    tag_275:\n        /* \"#utility.yul\":545:684   */\n      swap3\n      swap2\n      pop\n      pop\n      jump\t// out\n        /* \"#utility.yul\":690:807   */\n    tag_207:\n        /* \"#utility.yul\":799:800   */\n      0x00\n        /* \"#utility.yul\":796:797   */\n      dup1\n        /* \"#utility.yul\":789:801   */\n      revert\n        /* \"#utility.yul\":813:930   */\n    tag_208:\n        /* \"#utility.yul\":922:923   */\n      0x00\n        /* \"#utility.yul\":919:920   */\n      dup1\n        /* \"#utility.yul\":912:924   */\n      revert\n        /* \"#utility.yul\":936:1038   */\n    tag_209:\n        /* \"#utility.yul\":977:983   */\n      0x00\n        /* \"#utility.yul\":1028:1030   */\n      0x1f\n        /* \"#utility.yul\":1024:1031   */\n      not\n        /* \"#utility.yul\":1019:1021   */\n      0x1f\n        /* \"#utility.yul\":1012:1017   */\n      dup4\n        /* \"#utility.yul\":1008:1022   */\n      add\n        /* \"#utility.yul\":1004:1032   */\n      and\n        /* \"#utility.yul\":994:1032   */\n      swap1\n      pop\n        /* \"#utility.yul\":936:1038   */\n      swap2\n      swap1\n      pop\n      jump\t// out\n        /* \"#utility.yul\":1044:1224   */\n    tag_210:\n        /* \"#utility.yul\":1092:1169   */\n      0x4e487b7100000000000000000000000000000000000000000000000000000000\n        /* \"#utility.yul\":1089:1090   */\n      0x00\n        /* \"#utility.yul\":1082:1170   */\n      mstore\n        /* \"#utility.yul\":1189:1193   */\n      0x41\n        /* \"#utility.yul\":1186:1187   */\n      0x04\n        /* \"#utility.yul\":1179:1194   */\n      mstore\n        /* \"#utility.yul\":1213:1217   */\n      0x24\n        /* \"#utility.yul\":1210:1211   */\n      0x00\n        /* \"#utility.yul\":1203:1218   */\n      revert\n        /* \"#utility.yul\":1230:1511   */\n    tag_211:\n        /* \"#utility.yul\":1313:1340   */\n      tag_281\n        /* \"#utility.yul\":1335:1339   */\n      dup3\n        /* \"#utility.yul\":1313:1340   */\n      tag_209\n      jump\t// in\n    tag_281:\n        /* \"#utility.yul\":1305:1311   */\n      dup2\n        /* \"#utility.yul\":1301:1341   */\n      add\n        /* \"#utility.yul\":1443:1449   */\n      dup2\n        /* \"#utility.yul\":1431:1441   */\n      dup2\n        /* \"#utility.yul\":1428:1450   */\n      lt\n        /* \"#utility.yul\":1407:1425   */\n      0xffffffffffffffff\n        /* \"#utility.yul\":1395:1405   */\n      dup3\n        /* \"#utility.yul\":1392:1426   */\n      gt\n        /* \"#utility.yul\":1389:1451   */\n      or\n        /* \"#utility.yul\":1386:1474   */\n      iszero\n      tag_282\n      jumpi\n        /* \"#utility.yul\":1454:1472   */\n      tag_283\n      tag_210\n      jump\t// in\n    tag_283:\n        /* \"#utility.yul\":1386:1474   */\n    tag_282:\n        /* \"#utility.yul\":1494:1504   */\n      dup1\n        /* \"#utility.yul\":1490:1492   */\n      0x40\n        /* \"#utility.yul\":1483:1505   */\n      mstore\n        /* \"#utility.yul\":1273:1511   */\n      pop\n        /* \"#utility.yul\":1230:1511   */\n      pop\n      pop\n      jump\t// out\n        /* \"#utility.yul\":1517:1646   */\n    tag_212:\n        /* \"#utility.yul\":1551:1557   */\n      0x00\n        /* \"#utility.yul\":1578:1598   */\n      tag_285\n      tag_201\n      jump\t// in\n    tag_285:\n        /* \"#utility.yul\":1568:1598   */\n      swap1\n      pop\n        /* \"#utility.yul\":1607:1640   */\n      tag_286\n        /* \"#utility.yul\":1635:1639   */\n      dup3\n        /* \"#utility.yul\":1627:1633   */\n      dup3\n        /* \"#utility.yul\":1607:1640   */\n      tag_211\n      jump\t// in\n    tag_286:\n        /* \"#utility.yul\":1517:1646   */\n      swap2\n      swap1\n      pop\n      jump\t// out\n        /* \"#utility.yul\":1652:1960   */\n    tag_213:\n        /* \"#utility.yul\":1714:1718   */\n      0x00\n        /* \"#utility.yul\":1804:1822   */\n      0xffffffffffffffff\n        /* \"#utility.yul\":1796:1802   */\n      dup3\n        /* \"#utility.yul\":1793:1823   */\n      gt\n        /* \"#utility.yul\":1790:1846   */\n      iszero\n      tag_288\n      jumpi\n        /* \"#utility.yul\":1826:1844   */\n      tag_289\n      tag_210\n      jump\t// in\n    tag_289:\n        /* \"#utility.yul\":1790:1846   */\n    tag_288:\n        /* \"#utility.yul\":1864:1893   */\n      tag_290\n        /* \"#utility.yul\":1886:1892   */\n      dup3\n        /* \"#utility.yul\":1864:1893   */\n      tag_209\n      jump\t// in\n    tag_290:\n        /* \"#utility.yul\":1856:1893   */\n      swap1\n      pop\n        /* \"#utility.yul\":1948:1952   */\n      0x20\n        /* \"#utility.yul\":1942:1946   */\n      dup2\n        /* \"#utility.yul\":1938:1953   */\n      add\n        /* \"#utility.yul\":1930:1953   */\n      swap1\n      pop\n        /* \"#utility.yul\":1652:1960   */\n      swap2\n      swap1\n      pop\n      jump\t// out\n        /* \"#utility.yul\":1966:2112   */\n    tag_214:\n        /* \"#utility.yul\":2063:2069   */\n      dup3\n        /* \"#utility.yul\":2058:2061   */\n      dup2\n        /* \"#utility.yul\":2053:2056   */\n      dup4\n        /* \"#utility.yul\":2040:2070   */\n      calldatacopy\n        /* \"#utility.yul\":2104:2105   */\n      0x00\n        /* \"#utility.yul\":2095:2101   */\n      dup4\n        /* \"#utility.yul\":2090:2093   */\n      dup4\n        /* \"#utility.yul\":2086:2102   */\n      add\n        /* \"#utility.yul\":2079:2106   */\n      mstore\n        /* \"#utility.yul\":1966:2112   */\n      pop\n      pop\n      pop\n      jump\t// out\n        /* \"#utility.yul\":2118:2543   */\n    tag_215:\n        /* \"#utility.yul\":2196:2201   */\n      0x00\n        /* \"#utility.yul\":2221:2287   */\n      tag_293\n        /* \"#utility.yul\":2237:2286   */\n      tag_294\n        /* \"#utility.yul\":2279:2285   */\n      dup5\n        /* \"#utility.yul\":2237:2286   */\n      tag_213\n      jump\t// in\n    tag_294:\n        /* \"#utility.yul\":2221:2287   */\n      tag_212\n      jump\t// in\n    tag_293:\n        /* \"#utility.yul\":2212:2287   */\n      swap1\n      pop\n        /* \"#utility.yul\":2310:2316   */\n      dup3\n        /* \"#utility.yul\":2303:2308   */\n      dup2\n        /* \"#utility.yul\":2296:2317   */\n      mstore\n        /* \"#utility.yul\":2348:2352   */\n      0x20\n        /* \"#utility.yul\":2341:2346   */\n      dup2\n        /* \"#utility.yul\":2337:2353   */\n      add\n        /* \"#utility.yul\":2386:2389   */\n      dup5\n        /* \"#utility.yul\":2377:2383   */\n      dup5\n        /* \"#utility.yul\":2372:2375   */\n      dup5\n        /* \"#utility.yul\":2368:2384   */\n      add\n        /* \"#utility.yul\":2365:2390   */\n      gt\n        /* \"#utility.yul\":2362:2474   */\n      iszero\n      tag_295\n      jumpi\n        /* \"#utility.yul\":2393:2472   */\n      tag_296\n      tag_208\n      jump\t// in\n    tag_296:\n        /* \"#utility.yul\":2362:2474   */\n    tag_295:\n        /* \"#utility.yul\":2483:2537   */\n      tag_297\n        /* \"#utility.yul\":2530:2536   */\n      dup5\n        /* \"#utility.yul\":2525:2528   */\n      dup3\n        /* \"#utility.yul\":2520:2523   */\n      dup6\n        /* \"#utility.yul\":2483:2537   */\n      tag_214\n      jump\t// in\n    tag_297:\n        /* \"#utility.yul\":2202:2543   */\n      pop\n        /* \"#utility.yul\":2118:2543   */\n      swap4\n      swap3\n      pop\n      pop\n      pop\n      jump\t// out\n        /* \"#utility.yul\":2563:2903   */\n    tag_216:\n        /* \"#utility.yul\":2619:2624   */\n      0x00\n        /* \"#utility.yul\":2668:2671   */\n      dup3\n        /* \"#utility.yul\":2661:2665   */\n      0x1f\n        /* \"#utility.yul\":2653:2659   */\n      dup4\n        /* \"#utility.yul\":2649:2666   */\n      add\n        /* \"#utility.yul\":2645:2672   */\n      slt\n        /* \"#utility.yul\":2635:2757   */\n      tag_299\n      jumpi\n        /* \"#utility.yul\":2676:2755   */\n      tag_300\n      tag_207\n      jump\t// in\n    tag_300:\n        /* \"#utility.yul\":2635:2757   */\n    tag_299:\n        /* \"#utility.yul\":2793:2799   */\n      dup2\n        /* \"#utility.yul\":2780:2800   */\n      calldataload\n        /* \"#utility.yul\":2818:2897   */\n      tag_301\n        /* \"#utility.yul\":2893:2896   */\n      dup5\n        /* \"#utility.yul\":2885:2891   */\n      dup3\n        /* \"#utility.yul\":2878:2882   */\n      0x20\n        /* \"#utility.yul\":2870:2876   */\n      dup7\n        /* \"#utility.yul\":2866:2883   */\n      add\n        /* \"#utility.yul\":2818:2897   */\n      tag_215\n      jump\t// in\n    tag_301:\n        /* \"#utility.yul\":2809:2897   */\n      swap2\n      pop\n        /* \"#utility.yul\":2625:2903   */\n      pop\n        /* \"#utility.yul\":2563:2903   */\n      swap3\n      swap2\n      pop\n      pop\n      jump\t// out\n        /* \"#utility.yul\":2909:3563   */\n    tag_23:\n        /* \"#utility.yul\":2987:2993   */\n      0x00\n        /* \"#utility.yul\":2995:3001   */\n      dup1\n        /* \"#utility.yul\":3044:3046   */\n      0x40\n        /* \"#utility.yul\":3032:3041   */\n      dup4\n        /* \"#utility.yul\":3023:3030   */\n      dup6\n        /* \"#utility.yul\":3019:3042   */\n      sub\n        /* \"#utility.yul\":3015:3047   */\n      slt\n        /* \"#utility.yul\":3012:3131   */\n      iszero\n      tag_303\n      jumpi\n        /* \"#utility.yul\":3050:3129   */\n      tag_304\n      tag_202\n      jump\t// in\n    tag_304:\n        /* \"#utility.yul\":3012:3131   */\n    tag_303:\n        /* \"#utility.yul\":3170:3171   */\n      0x00\n        /* \"#utility.yul\":3195:3248   */\n      tag_305\n        /* \"#utility.yul\":3240:3247   */\n      dup6\n        /* \"#utility.yul\":3231:3237   */\n      dup3\n        /* \"#utility.yul\":3220:3229   */\n      dup7\n        /* \"#utility.yul\":3216:3238   */\n      add\n        /* \"#utility.yul\":3195:3248   */\n      tag_206\n      jump\t// in\n    tag_305:\n        /* \"#utility.yul\":3185:3248   */\n      swap3\n      pop\n        /* \"#utility.yul\":3141:3258   */\n      pop\n        /* \"#utility.yul\":3325:3327   */\n      0x20\n        /* \"#utility.yul\":3314:3323   */\n      dup4\n        /* \"#utility.yul\":3310:3328   */\n      add\n        /* \"#utility.yul\":3297:3329   */\n      calldataload\n        /* \"#utility.yul\":3356:3374   */\n      0xffffffffffffffff\n        /* \"#utility.yul\":3348:3354   */\n      dup2\n        /* \"#utility.yul\":3345:3375   */\n      gt\n        /* \"#utility.yul\":3342:3459   */\n      iszero\n      tag_306\n      jumpi\n        /* \"#utility.yul\":3378:3457   */\n      tag_307\n      tag_203\n      jump\t// in\n    tag_307:\n        /* \"#utility.yul\":3342:3459   */\n    tag_306:\n        /* \"#utility.yul\":3483:3546   */\n      tag_308\n        /* \"#utility.yul\":3538:3545   */\n      dup6\n        /* \"#utility.yul\":3529:3535   */\n      dup3\n        /* \"#utility.yul\":3518:3527   */\n      dup7\n        /* \"#utility.yul\":3514:3536   */\n      add\n        /* \"#utility.yul\":3483:3546   */\n      tag_216\n      jump\t// in\n    tag_308:\n        /* \"#utility.yul\":3473:3546   */\n      swap2\n      pop\n        /* \"#utility.yul\":3268:3556   */\n      pop\n        /* \"#utility.yul\":2909:3563   */\n      swap3\n      pop\n      swap3\n      swap1\n      pop\n      jump\t// out\n        /* \"#utility.yul\":3569:4043   */\n    tag_28:\n        /* \"#utility.yul\":3637:3643   */\n      0x00\n        /* \"#utility.yul\":3645:3651   */\n      dup1\n        /* \"#utility.yul\":3694:3696   */\n      0x40\n        /* \"#utility.yul\":3682:3691   */\n      dup4\n        /* \"#utility.yul\":3673:3680   */\n      dup6\n        /* \"#utility.yul\":3669:3692   */\n      sub\n        /* \"#utility.yul\":3665:3697   */\n      slt\n        /* \"#utility.yul\":3662:3781   */\n      iszero\n      tag_310\n      jumpi\n        /* \"#utility.yul\":3700:3779   */\n      tag_311\n      tag_202\n      jump\t// in\n    tag_311:\n        /* \"#utility.yul\":3662:3781   */\n    tag_310:\n        /* \"#utility.yul\":3820:3821   */\n      0x00\n        /* \"#utility.yul\":3845:3898   */\n      tag_312\n        /* \"#utility.yul\":3890:3897   */\n      dup6\n        /* \"#utility.yul\":3881:3887   */\n      dup3\n        /* \"#utility.yul\":3870:3879   */\n      dup7\n        /* \"#utility.yul\":3866:3888   */\n      add\n        /* \"#utility.yul\":3845:3898   */\n      tag_206\n      jump\t// in\n    tag_312:\n        /* \"#utility.yul\":3835:3898   */\n      swap3\n      pop\n        /* \"#utility.yul\":3791:3908   */\n      pop\n        /* \"#utility.yul\":3947:3949   */\n      0x20\n        /* \"#utility.yul\":3973:4026   */\n      tag_313\n        /* \"#utility.yul\":4018:4025   */\n      dup6\n        /* \"#utility.yul\":4009:4015   */\n      dup3\n        /* \"#utility.yul\":3998:4007   */\n      dup7\n        /* \"#utility.yul\":3994:4016   */\n      add\n        /* \"#utility.yul\":3973:4026   */\n      tag_206\n      jump\t// in\n    tag_313:\n        /* \"#utility.yul\":3963:4026   */\n      swap2\n      pop\n        /* \"#utility.yul\":3918:4036   */\n      pop\n        /* \"#utility.yul\":3569:4043   */\n      swap3\n      pop\n      swap3\n      swap1\n      pop\n      jump\t// out\n        /* \"#utility.yul\":4049:4378   */\n    tag_33:\n        /* \"#utility.yul\":4108:4114   */\n      0x00\n        /* \"#utility.yul\":4157:4159   */\n      0x20\n        /* \"#utility.yul\":4145:4154   */\n      dup3\n        /* \"#utility.yul\":4136:4143   */\n      dup5\n        /* \"#utility.yul\":4132:4155   */\n      sub\n        /* \"#utility.yul\":4128:4160   */\n      slt\n        /* \"#utility.yul\":4125:4244   */\n      iszero\n      tag_315\n      jumpi\n        /* \"#utility.yul\":4163:4242   */\n      tag_316\n      tag_202\n      jump\t// in\n    tag_316:\n        /* \"#utility.yul\":4125:4244   */\n    tag_315:\n        /* \"#utility.yul\":4283:4284   */\n      0x00\n        /* \"#utility.yul\":4308:4361   */\n      tag_317\n        /* \"#utility.yul\":4353:4360   */\n      dup5\n        /* \"#utility.yul\":4344:4350   */\n      dup3\n        /* \"#utility.yul\":4333:4342   */\n      dup6\n        /* \"#utility.yul\":4329:4351   */\n      add\n        /* \"#utility.yul\":4308:4361   */\n      tag_206\n      jump\t// in\n    tag_317:\n        /* \"#utility.yul\":4298:4361   */\n      swap2\n      pop\n        /* \"#utility.yul\":4254:4371   */\n      pop\n        /* \"#utility.yul\":4049:4378   */\n      swap3\n      swap2\n      pop\n      pop\n      jump\t// out\n        /* \"#utility.yul\":4384:4502   */\n    tag_217:\n        /* \"#utility.yul\":4471:4495   */\n      tag_319\n        /* \"#utility.yul\":4489:4494   */\n      dup2\n        /* \"#utility.yul\":4471:4495   */\n      tag_204\n      jump\t// in\n    tag_319:\n        /* \"#utility.yul\":4466:4469   */\n      dup3\n        /* \"#utility.yul\":4459:4496   */\n      mstore\n        /* \"#utility.yul\":4384:4502   */\n      pop\n      pop\n      jump\t// out\n        /* \"#utility.yul\":4508:4730   */\n    tag_36:\n        /* \"#utility.yul\":4601:4605   */\n      0x00\n        /* \"#utility.yul\":4639:4641   */\n      0x20\n        /* \"#utility.yul\":4628:4637   */\n      dup3\n        /* \"#utility.yul\":4624:4642   */\n      add\n        /* \"#utility.yul\":4616:4642   */\n      swap1\n      pop\n        /* \"#utility.yul\":4652:4723   */\n      tag_321\n        /* \"#utility.yul\":4720:4721   */\n      0x00\n        /* \"#utility.yul\":4709:4718   */\n      dup4\n        /* \"#utility.yul\":4705:4722   */\n      add\n        /* \"#utility.yul\":4696:4702   */\n      dup5\n        /* \"#utility.yul\":4652:4723   */\n      tag_217\n      jump\t// in\n    tag_321:\n        /* \"#utility.yul\":4508:4730   */\n      swap3\n      swap2\n      pop\n      pop\n      jump\t// out\n        /* \"#utility.yul\":4736:4835   */\n    tag_218:\n        /* \"#utility.yul\":4788:4794   */\n      0x00\n        /* \"#utility.yul\":4822:4827   */\n      dup2\n        /* \"#utility.yul\":4816:4828   */\n      mload\n        /* \"#utility.yul\":4806:4828   */\n      swap1\n      pop\n        /* \"#utility.yul\":4736:4835   */\n      swap2\n      swap1\n      pop\n      jump\t// out\n        /* \"#utility.yul\":4841:5010   */\n    tag_219:\n        /* \"#utility.yul\":4925:4936   */\n      0x00\n        /* \"#utility.yul\":4959:4965   */\n      dup3\n        /* \"#utility.yul\":4954:4957   */\n      dup3\n        /* \"#utility.yul\":4947:4966   */\n      mstore\n        /* \"#utility.yul\":4999:5003   */\n      0x20\n        /* \"#utility.yul\":4994:4997   */\n      dup3\n        /* \"#utility.yul\":4990:5004   */\n      add\n        /* \"#utility.yul\":4975:5004   */\n      swap1\n      pop\n        /* \"#utility.yul\":4841:5010   */\n      swap3\n      swap2\n      pop\n      pop\n      jump\t// out\n        /* \"#utility.yul\":5016:5262   */\n    tag_220:\n        /* \"#utility.yul\":5097:5098   */\n      0x00\n        /* \"#utility.yul\":5107:5220   */\n    tag_325:\n        /* \"#utility.yul\":5121:5127   */\n      dup4\n        /* \"#utility.yul\":5118:5119   */\n      dup2\n        /* \"#utility.yul\":5115:5128   */\n      lt\n        /* \"#utility.yul\":5107:5220   */\n      iszero\n      tag_327\n      jumpi\n        /* \"#utility.yul\":5206:5207   */\n      dup1\n        /* \"#utility.yul\":5201:5204   */\n      dup3\n        /* \"#utility.yul\":5197:5208   */\n      add\n        /* \"#utility.yul\":5191:5209   */\n      mload\n        /* \"#utility.yul\":5187:5188   */\n      dup2\n        /* \"#utility.yul\":5182:5185   */\n      dup5\n        /* \"#utility.yul\":5178:5189   */\n      add\n        /* \"#utility.yul\":5171:5210   */\n      mstore\n        /* \"#utility.yul\":5143:5145   */\n      0x20\n        /* \"#utility.yul\":5140:5141   */\n      dup2\n        /* \"#utility.yul\":5136:5146   */\n      add\n        /* \"#utility.yul\":5131:5146   */\n      swap1\n      pop\n        /* \"#utility.yul\":5107:5220   */\n      jump(tag_325)\n    tag_327:\n        /* \"#utility.yul\":5254:5255   */\n      0x00\n        /* \"#utility.yul\":5245:5251   */\n      dup5\n        /* \"#utility.yul\":5240:5243   */\n      dup5\n        /* \"#utility.yul\":5236:5252   */\n      add\n        /* \"#utility.yul\":5229:5256   */\n      mstore\n        /* \"#utility.yul\":5078:5262   */\n      pop\n        /* \"#utility.yul\":5016:5262   */\n      pop\n      pop\n      pop\n      jump\t// out\n        /* \"#utility.yul\":5268:5645   */\n    tag_221:\n        /* \"#utility.yul\":5356:5359   */\n      0x00\n        /* \"#utility.yul\":5384:5423   */\n      tag_329\n        /* \"#utility.yul\":5417:5422   */\n      dup3\n        /* \"#utility.yul\":5384:5423   */\n      tag_218\n      jump\t// in\n    tag_329:\n        /* \"#utility.yul\":5439:5510   */\n      tag_330\n        /* \"#utility.yul\":5503:5509   */\n      dup2\n        /* \"#utility.yul\":5498:5501   */\n      dup6\n        /* \"#utility.yul\":5439:5510   */\n      tag_219\n      jump\t// in\n    tag_330:\n        /* \"#utility.yul\":5432:5510   */\n      swap4\n      pop\n        /* \"#utility.yul\":5519:5584   */\n      tag_331\n        /* \"#utility.yul\":5577:5583   */\n      dup2\n        /* \"#utility.yul\":5572:5575   */\n      dup6\n        /* \"#utility.yul\":5565:5569   */\n      0x20\n        /* \"#utility.yul\":5558:5563   */\n      dup7\n        /* \"#utility.yul\":5554:5570   */\n      add\n        /* \"#utility.yul\":5519:5584   */\n      tag_220\n      jump\t// in\n    tag_331:\n        /* \"#utility.yul\":5609:5638   */\n      tag_332\n        /* \"#utility.yul\":5631:5637   */\n      dup2\n        /* \"#utility.yul\":5609:5638   */\n      tag_209\n      jump\t// in\n    tag_332:\n        /* \"#utility.yul\":5604:5607   */\n      dup5\n        /* \"#utility.yul\":5600:5639   */\n      add\n        /* \"#utility.yul\":5593:5639   */\n      swap2\n      pop\n        /* \"#utility.yul\":5360:5645   */\n      pop\n        /* \"#utility.yul\":5268:5645   */\n      swap3\n      swap2\n      pop\n      pop\n      jump\t// out\n        /* \"#utility.yul\":5651:5964   */\n    tag_55:\n        /* \"#utility.yul\":5764:5768   */\n      0x00\n        /* \"#utility.yul\":5802:5804   */\n      0x20\n        /* \"#utility.yul\":5791:5800   */\n      dup3\n        /* \"#utility.yul\":5787:5805   */\n      add\n        /* \"#utility.yul\":5779:5805   */\n      swap1\n      pop\n        /* \"#utility.yul\":5851:5860   */\n      dup2\n        /* \"#utility.yul\":5845:5849   */\n      dup2\n        /* \"#utility.yul\":5841:5861   */\n      sub\n        /* \"#utility.yul\":5837:5838   */\n      0x00\n        /* \"#utility.yul\":5826:5835   */\n      dup4\n        /* \"#utility.yul\":5822:5839   */\n      add\n        /* \"#utility.yul\":5815:5862   */\n      mstore\n        /* \"#utility.yul\":5879:5957   */\n      tag_334\n        /* \"#utility.yul\":5952:5956   */\n      dup2\n        /* \"#utility.yul\":5943:5949   */\n      dup5\n        /* \"#utility.yul\":5879:5957   */\n      tag_221\n      jump\t// in\n    tag_334:\n        /* \"#utility.yul\":5871:5957   */\n      swap1\n      pop\n        /* \"#utility.yul\":5651:5964   */\n      swap3\n      swap2\n      pop\n      pop\n      jump\t// out\n        /* \"#utility.yul\":5970:6624   */\n    tag_59:\n        /* \"#utility.yul\":6048:6054   */\n      0x00\n        /* \"#utility.yul\":6056:6062   */\n      dup1\n        /* \"#utility.yul\":6105:6107   */\n      0x40\n        /* \"#utility.yul\":6093:6102   */\n      dup4\n        /* \"#utility.yul\":6084:6091   */\n      dup6\n        /* \"#utility.yul\":6080:6103   */\n      sub\n        /* \"#utility.yul\":6076:6108   */\n      slt\n        /* \"#utility.yul\":6073:6192   */\n      iszero\n      tag_336\n      jumpi\n        /* \"#utility.yul\":6111:6190   */\n      tag_337\n      tag_202\n      jump\t// in\n    tag_337:\n        /* \"#utility.yul\":6073:6192   */\n    tag_336:\n        /* \"#utility.yul\":6259:6260   */\n      0x00\n        /* \"#utility.yul\":6248:6257   */\n      dup4\n        /* \"#utility.yul\":6244:6261   */\n      add\n        /* \"#utility.yul\":6231:6262   */\n      calldataload\n        /* \"#utility.yul\":6289:6307   */\n      0xffffffffffffffff\n        /* \"#utility.yul\":6281:6287   */\n      dup2\n        /* \"#utility.yul\":6278:6308   */\n      gt\n        /* \"#utility.yul\":6275:6392   */\n      iszero\n      tag_338\n      jumpi\n        /* \"#utility.yul\":6311:6390   */\n      tag_339\n      tag_203\n      jump\t// in\n    tag_339:\n        /* \"#utility.yul\":6275:6392   */\n    tag_338:\n        /* \"#utility.yul\":6416:6479   */\n      tag_340\n        /* \"#utility.yul\":6471:6478   */\n      dup6\n        /* \"#utility.yul\":6462:6468   */\n      dup3\n        /* \"#utility.yul\":6451:6460   */\n      dup7\n        /* \"#utility.yul\":6447:6469   */\n      add\n        /* \"#utility.yul\":6416:6479   */\n      tag_216\n      jump\t// in\n    tag_340:\n        /* \"#utility.yul\":6406:6479   */\n      swap3\n      pop\n        /* \"#utility.yul\":6202:6489   */\n      pop\n        /* \"#utility.yul\":6528:6530   */\n      0x20\n        /* \"#utility.yul\":6554:6607   */\n      tag_341\n        /* \"#utility.yul\":6599:6606   */\n      dup6\n        /* \"#utility.yul\":6590:6596   */\n      dup3\n        /* \"#utility.yul\":6579:6588   */\n      dup7\n        /* \"#utility.yul\":6575:6597   */\n      add\n        /* \"#utility.yul\":6554:6607   */\n      tag_206\n      jump\t// in\n    tag_341:\n        /* \"#utility.yul\":6544:6607   */\n      swap2\n      pop\n        /* \"#utility.yul\":6499:6617   */\n      pop\n        /* \"#utility.yul\":5970:6624   */\n      swap3\n      pop\n      swap3\n      swap1\n      pop\n      jump\t// out\n        /* \"#utility.yul\":6630:6756   */\n    tag_222:\n        /* \"#utility.yul\":6667:6674   */\n      0x00\n        /* \"#utility.yul\":6707:6749   */\n      0xffffffffffffffffffffffffffffffffffffffff\n        /* \"#utility.yul\":6700:6705   */\n      dup3\n        /* \"#utility.yul\":6696:6750   */\n      and\n        /* \"#utility.yul\":6685:6750   */\n      swap1\n      pop\n        /* \"#utility.yul\":6630:6756   */\n      swap2\n      swap1\n      pop\n      jump\t// out\n        /* \"#utility.yul\":6762:6858   */\n    tag_223:\n        /* \"#utility.yul\":6799:6806   */\n      0x00\n        /* \"#utility.yul\":6828:6852   */\n      tag_344\n        /* \"#utility.yul\":6846:6851   */\n      dup3\n        /* \"#utility.yul\":6828:6852   */\n      tag_222\n      jump\t// in\n    tag_344:\n        /* \"#utility.yul\":6817:6852   */\n      swap1\n      pop\n        /* \"#utility.yul\":6762:6858   */\n      swap2\n      swap1\n      pop\n      jump\t// out\n        /* \"#utility.yul\":6864:6982   */\n    tag_224:\n        /* \"#utility.yul\":6951:6975   */\n      tag_346\n        /* \"#utility.yul\":6969:6974   */\n      dup2\n        /* \"#utility.yul\":6951:6975   */\n      tag_223\n      jump\t// in\n    tag_346:\n        /* \"#utility.yul\":6946:6949   */\n      dup3\n        /* \"#utility.yul\":6939:6976   */\n      mstore\n        /* \"#utility.yul\":6864:6982   */\n      pop\n      pop\n      jump\t// out\n        /* \"#utility.yul\":6988:7210   */\n    tag_70:\n        /* \"#utility.yul\":7081:7085   */\n      0x00\n        /* \"#utility.yul\":7119:7121   */\n      0x20\n        /* \"#utility.yul\":7108:7117   */\n      dup3\n        /* \"#utility.yul\":7104:7122   */\n      add\n        /* \"#utility.yul\":7096:7122   */\n      swap1\n      pop\n        /* \"#utility.yul\":7132:7203   */\n      tag_348\n        /* \"#utility.yul\":7200:7201   */\n      0x00\n        /* \"#utility.yul\":7189:7198   */\n      dup4\n        /* \"#utility.yul\":7185:7202   */\n      add\n        /* \"#utility.yul\":7176:7182   */\n      dup5\n        /* \"#utility.yul\":7132:7203   */\n      tag_224\n      jump\t// in\n    tag_348:\n        /* \"#utility.yul\":6988:7210   */\n      swap3\n      swap2\n      pop\n      pop\n      jump\t// out\n        /* \"#utility.yul\":7216:7388   */\n    tag_225:\n        /* \"#utility.yul\":7356:7380   */\n      0x50726f6a65637420646f6573206e6f7420657869737400000000000000000000\n        /* \"#utility.yul\":7352:7353   */\n      0x00\n        /* \"#utility.yul\":7344:7350   */\n      dup3\n        /* \"#utility.yul\":7340:7354   */\n      add\n        /* \"#utility.yul\":7333:7381   */\n      mstore\n        /* \"#utility.yul\":7216:7388   */\n      pop\n      jump\t// out\n        /* \"#utility.yul\":7394:7760   */\n    tag_226:\n        /* \"#utility.yul\":7536:7539   */\n      0x00\n        /* \"#utility.yul\":7557:7624   */\n      tag_351\n        /* \"#utility.yul\":7621:7623   */\n      0x16\n        /* \"#utility.yul\":7616:7619   */\n      dup4\n        /* \"#utility.yul\":7557:7624   */\n      tag_219\n      jump\t// in\n    tag_351:\n        /* \"#utility.yul\":7550:7624   */\n      swap2\n      pop\n        /* \"#utility.yul\":7633:7726   */\n      tag_352\n        /* \"#utility.yul\":7722:7725   */\n      dup3\n        /* \"#utility.yul\":7633:7726   */\n      tag_225\n      jump\t// in\n    tag_352:\n        /* \"#utility.yul\":7751:7753   */\n      0x20\n        /* \"#utility.yul\":7746:7749   */\n      dup3\n        /* \"#utility.yul\":7742:7754   */\n      add\n        /* \"#utility.yul\":7735:7754   */\n      swap1\n      pop\n        /* \"#utility.yul\":7394:7760   */\n      swap2\n      swap1\n      pop\n      jump\t// out\n        /* \"#utility.yul\":7766:8185   */\n    tag_96:\n        /* \"#utility.yul\":7932:7936   */\n      0x00\n        /* \"#utility.yul\":7970:7972   */\n      0x20\n        /* \"#utility.yul\":7959:7968   */\n      dup3\n        /* \"#utility.yul\":7955:7973   */\n      add\n        /* \"#utility.yul\":7947:7973   */\n      swap1\n      pop\n        /* \"#utility.yul\":8019:8028   */\n      dup2\n        /* \"#utility.yul\":8013:8017   */\n      dup2\n        /* \"#utility.yul\":8009:8029   */\n      sub\n        /* \"#utility.yul\":8005:8006   */\n      0x00\n        /* \"#utility.yul\":7994:8003   */\n      dup4\n        /* \"#utility.yul\":7990:8007   */\n      add\n        /* \"#utility.yul\":7983:8030   */\n      mstore\n        /* \"#utility.yul\":8047:8178   */\n      tag_354\n        /* \"#utility.yul\":8173:8177   */\n      dup2\n        /* \"#utility.yul\":8047:8178   */\n      tag_226\n      jump\t// in\n    tag_354:\n        /* \"#utility.yul\":8039:8178   */\n      swap1\n      pop\n        /* \"#utility.yul\":7766:8185   */\n      swap2\n      swap1\n      pop\n      jump\t// out\n        /* \"#utility.yul\":8191:8424   */\n    tag_227:\n        /* \"#utility.yul\":8331:8365   */\n      0x4f6e6c7920746865206f776e65722063616e20736574207468652070726f6a65\n        /* \"#utility.yul\":8327:8328   */\n      0x00\n        /* \"#utility.yul\":8319:8325   */\n      dup3\n        /* \"#utility.yul\":8315:8329   */\n      add\n        /* \"#utility.yul\":8308:8366   */\n      mstore\n        /* \"#utility.yul\":8400:8416   */\n      0x6374206465736372697074696f6e000000000000000000000000000000000000\n        /* \"#utility.yul\":8395:8397   */\n      0x20\n        /* \"#utility.yul\":8387:8393   */\n      dup3\n        /* \"#utility.yul\":8383:8398   */\n      add\n        /* \"#utility.yul\":8376:8417   */\n      mstore\n        /* \"#utility.yul\":8191:8424   */\n      pop\n      jump\t// out\n        /* \"#utility.yul\":8430:8796   */\n    tag_228:\n        /* \"#utility.yul\":8572:8575   */\n      0x00\n        /* \"#utility.yul\":8593:8660   */\n      tag_357\n        /* \"#utility.yul\":8657:8659   */\n      0x2e\n        /* \"#utility.yul\":8652:8655   */\n      dup4\n        /* \"#utility.yul\":8593:8660   */\n      tag_219\n      jump\t// in\n    tag_357:\n        /* \"#utility.yul\":8586:8660   */\n      swap2\n      pop\n        /* \"#utility.yul\":8669:8762   */\n      tag_358\n        /* \"#utility.yul\":8758:8761   */\n      dup3\n        /* \"#utility.yul\":8669:8762   */\n      tag_227\n      jump\t// in\n    tag_358:\n        /* \"#utility.yul\":8787:8789   */\n      0x40\n        /* \"#utility.yul\":8782:8785   */\n      dup3\n        /* \"#utility.yul\":8778:8790   */\n      add\n        /* \"#utility.yul\":8771:8790   */\n      swap1\n      pop\n        /* \"#utility.yul\":8430:8796   */\n      swap2\n      swap1\n      pop\n      jump\t// out\n        /* \"#utility.yul\":8802:9221   */\n    tag_99:\n        /* \"#utility.yul\":8968:8972   */\n      0x00\n        /* \"#utility.yul\":9006:9008   */\n      0x20\n        /* \"#utility.yul\":8995:9004   */\n      dup3\n        /* \"#utility.yul\":8991:9009   */\n      add\n        /* \"#utility.yul\":8983:9009   */\n      swap1\n      pop\n        /* \"#utility.yul\":9055:9064   */\n      dup2\n        /* \"#utility.yul\":9049:9053   */\n      dup2\n        /* \"#utility.yul\":9045:9065   */\n      sub\n        /* \"#utility.yul\":9041:9042   */\n      0x00\n        /* \"#utility.yul\":9030:9039   */\n      dup4\n        /* \"#utility.yul\":9026:9043   */\n      add\n        /* \"#utility.yul\":9019:9066   */\n      mstore\n        /* \"#utility.yul\":9083:9214   */\n      tag_360\n        /* \"#utility.yul\":9209:9213   */\n      dup2\n        /* \"#utility.yul\":9083:9214   */\n      tag_228\n      jump\t// in\n    tag_360:\n        /* \"#utility.yul\":9075:9214   */\n      swap1\n      pop\n        /* \"#utility.yul\":8802:9221   */\n      swap2\n      swap1\n      pop\n      jump\t// out\n        /* \"#utility.yul\":9227:9407   */\n    tag_229:\n        /* \"#utility.yul\":9275:9352   */\n      0x4e487b7100000000000000000000000000000000000000000000000000000000\n        /* \"#utility.yul\":9272:9273   */\n      0x00\n        /* \"#utility.yul\":9265:9353   */\n      mstore\n        /* \"#utility.yul\":9372:9376   */\n      0x22\n        /* \"#utility.yul\":9369:9370   */\n      0x04\n        /* \"#utility.yul\":9362:9377   */\n      mstore\n        /* \"#utility.yul\":9396:9400   */\n      0x24\n        /* \"#utility.yul\":9393:9394   */\n      0x00\n        /* \"#utility.yul\":9386:9401   */\n      revert\n        /* \"#utility.yul\":9413:9733   */\n    tag_141:\n        /* \"#utility.yul\":9457:9463   */\n      0x00\n        /* \"#utility.yul\":9494:9495   */\n      0x02\n        /* \"#utility.yul\":9488:9492   */\n      dup3\n        /* \"#utility.yul\":9484:9496   */\n      div\n        /* \"#utility.yul\":9474:9496   */\n      swap1\n      pop\n        /* \"#utility.yul\":9541:9542   */\n      0x01\n        /* \"#utility.yul\":9535:9539   */\n      dup3\n        /* \"#utility.yul\":9531:9543   */\n      and\n        /* \"#utility.yul\":9562:9580   */\n      dup1\n        /* \"#utility.yul\":9552:9633   */\n      tag_363\n      jumpi\n        /* \"#utility.yul\":9618:9622   */\n      0x7f\n        /* \"#utility.yul\":9610:9616   */\n      dup3\n        /* \"#utility.yul\":9606:9623   */\n      and\n        /* \"#utility.yul\":9596:9623   */\n      swap2\n      pop\n        /* \"#utility.yul\":9552:9633   */\n    tag_363:\n        /* \"#utility.yul\":9680:9682   */\n      0x20\n        /* \"#utility.yul\":9672:9678   */\n      dup3\n        /* \"#utility.yul\":9669:9683   */\n      lt\n        /* \"#utility.yul\":9649:9667   */\n      dup2\n        /* \"#utility.yul\":9646:9684   */\n      sub\n        /* \"#utility.yul\":9643:9727   */\n      tag_364\n      jumpi\n        /* \"#utility.yul\":9699:9717   */\n      tag_365\n      tag_229\n      jump\t// in\n    tag_365:\n        /* \"#utility.yul\":9643:9727   */\n    tag_364:\n        /* \"#utility.yul\":9464:9733   */\n      pop\n        /* \"#utility.yul\":9413:9733   */\n      swap2\n      swap1\n      pop\n      jump\t// out\n        /* \"#utility.yul\":9739:9880   */\n    tag_230:\n        /* \"#utility.yul\":9788:9792   */\n      0x00\n        /* \"#utility.yul\":9811:9814   */\n      dup2\n        /* \"#utility.yul\":9803:9814   */\n      swap1\n      pop\n        /* \"#utility.yul\":9834:9837   */\n      dup2\n        /* \"#utility.yul\":9831:9832   */\n      0x00\n        /* \"#utility.yul\":9824:9838   */\n      mstore\n        /* \"#utility.yul\":9868:9872   */\n      0x20\n        /* \"#utility.yul\":9865:9866   */\n      0x00\n        /* \"#utility.yul\":9855:9873   */\n      keccak256\n        /* \"#utility.yul\":9847:9873   */\n      swap1\n      pop\n        /* \"#utility.yul\":9739:9880   */\n      swap2\n      swap1\n      pop\n      jump\t// out\n        /* \"#utility.yul\":9886:9979   */\n    tag_231:\n        /* \"#utility.yul\":9923:9929   */\n      0x00\n        /* \"#utility.yul\":9970:9972   */\n      0x20\n        /* \"#utility.yul\":9965:9967   */\n      0x1f\n        /* \"#utility.yul\":9958:9963   */\n      dup4\n        /* \"#utility.yul\":9954:9968   */\n      add\n        /* \"#utility.yul\":9950:9973   */\n      div\n        /* \"#utility.yul\":9940:9973   */\n      swap1\n      pop\n        /* \"#utility.yul\":9886:9979   */\n      swap2\n      swap1\n      pop\n      jump\t// out\n        /* \"#utility.yul\":9985:10092   */\n    tag_232:\n        /* \"#utility.yul\":10029:10037   */\n      0x00\n        /* \"#utility.yul\":10079:10084   */\n      dup3\n        /* \"#utility.yul\":10073:10077   */\n      dup3\n        /* \"#utility.yul\":10069:10085   */\n      shl\n        /* \"#utility.yul\":10048:10085   */\n      swap1\n      pop\n        /* \"#utility.yul\":9985:10092   */\n      swap3\n      swap2\n      pop\n      pop\n      jump\t// out\n        /* \"#utility.yul\":10098:10491   */\n    tag_233:\n        /* \"#utility.yul\":10167:10173   */\n      0x00\n        /* \"#utility.yul\":10217:10218   */\n      0x08\n        /* \"#utility.yul\":10205:10215   */\n      dup4\n        /* \"#utility.yul\":10201:10219   */\n      mul\n        /* \"#utility.yul\":10240:10337   */\n      tag_370\n        /* \"#utility.yul\":10270:10336   */\n      0xffffffffffffffffffffffffffffffffffffffffffffffffffffffffffffffff\n        /* \"#utility.yul\":10259:10268   */\n      dup3\n        /* \"#utility.yul\":10240:10337   */\n      tag_232\n      jump\t// in\n    tag_370:\n        /* \"#utility.yul\":10358:10397   */\n      tag_371\n        /* \"#utility.yul\":10388:10396   */\n      dup7\n        /* \"#utility.yul\":10377:10386   */\n      dup4\n        /* \"#utility.yul\":10358:10397   */\n      tag_232\n      jump\t// in\n    tag_371:\n        /* \"#utility.yul\":10346:10397   */\n      swap6\n      pop\n        /* \"#utility.yul\":10430:10434   */\n      dup1\n        /* \"#utility.yul\":10426:10435   */\n      not\n        /* \"#utility.yul\":10419:10424   */\n      dup5\n        /* \"#utility.yul\":10415:10436   */\n      and\n        /* \"#utility.yul\":10406:10436   */\n      swap4\n      pop\n        /* \"#utility.yul\":10479:10483   */\n      dup1\n        /* \"#utility.yul\":10469:10477   */\n      dup7\n        /* \"#utility.yul\":10465:10484   */\n      and\n        /* \"#utility.yul\":10458:10463   */\n      dup5\n        /* \"#utility.yul\":10455:10485   */\n      or\n        /* \"#utility.yul\":10445:10485   */\n      swap3\n      pop\n        /* \"#utility.yul\":10174:10491   */\n      pop\n      pop\n        /* \"#utility.yul\":10098:10491   */\n      swap4\n      swap3\n      pop\n      pop\n      pop\n      jump\t// out\n        /* \"#utility.yul\":10497:10557   */\n    tag_234:\n        /* \"#utility.yul\":10525:10528   */\n      0x00\n        /* \"#utility.yul\":10546:10551   */\n      dup2\n        /* \"#utility.yul\":10539:10551   */\n      swap1\n      pop\n        /* \"#utility.yul\":10497:10557   */\n      swap2\n      swap1\n      pop\n      jump\t// out\n        /* \"#utility.yul\":10563:10705   */\n    tag_235:\n        /* \"#utility.yul\":10613:10622   */\n      0x00\n        /* \"#utility.yul\":10646:10699   */\n      tag_374\n        /* \"#utility.yul\":10664:10698   */\n      tag_375\n        /* \"#utility.yul\":10673:10697   */\n      tag_376\n        /* \"#utility.yul\":10691:10696   */\n      dup5\n        /* \"#utility.yul\":10673:10697   */\n      tag_204\n      jump\t// in\n    tag_376:\n        /* \"#utility.yul\":10664:10698   */\n      tag_234\n      jump\t// in\n    tag_375:\n        /* \"#utility.yul\":10646:10699   */\n      tag_204\n      jump\t// in\n    tag_374:\n        /* \"#utility.yul\":10633:10699   */\n      swap1\n      pop\n        /* \"#utility.yul\":10563:10705   */\n      swap2\n      swap1\n      pop\n      jump\t// out\n        /* \"#utility.yul\":10711:10786   */\n    tag_236:\n        /* \"#utility.yul\":10754:10757   */\n      0x00\n        /* \"#utility.yul\":10775:10780   */\n      dup2\n        /* \"#utility.yul\":10768:10780   */\n      swap1\n      pop\n        /* \"#utility.yul\":10711:10786   */\n      swap2\n      swap1\n      pop\n      jump\t// out\n        /* \"#utility.yul\":10792:11061   */\n    tag_237:\n        /* \"#utility.yul\":10902:10941   */\n      tag_379\n        /* \"#utility.yul\":10933:10940   */\n      dup4\n        /* \"#utility.yul\":10902:10941   */\n      tag_235\n      jump\t// in\n    tag_379:\n        /* \"#utility.yul\":10963:11054   */\n      tag_380\n        /* \"#utility.yul\":11012:11053   */\n      tag_381\n        /* \"#utility.yul\":11036:11052   */\n      dup3\n        /* \"#utility.yul\":11012:11053   */\n      tag_236\n      jump\t// in\n    tag_381:\n        /* \"#utility.yul\":11004:11010   */\n      dup5\n        /* \"#utility.yul\":10997:11001   */\n      dup5\n        /* \"#utility.yul\":10991:11002   */\n      sload\n        /* \"#utility.yul\":10963:11054   */\n      tag_233\n      jump\t// in\n    tag_380:\n        /* \"#utility.yul\":10957:10961   */\n      dup3\n        /* \"#utility.yul\":10950:11055   */\n      sstore\n        /* \"#utility.yul\":10868:11061   */\n      pop\n        /* \"#utility.yul\":10792:11061   */\n      pop\n      pop\n      pop\n      jump\t// out\n        /* \"#utility.yul\":11067:11140   */\n    tag_238:\n        /* \"#utility.yul\":11112:11115   */\n      0x00\n        /* \"#utility.yul\":11067:11140   */\n      swap1\n      jump\t// out\n        /* \"#utility.yul\":11146:11335   */\n    tag_239:\n        /* \"#utility.yul\":11223:11255   */\n      tag_384\n      tag_238\n      jump\t// in\n    tag_384:\n        /* \"#utility.yul\":11264:11329   */\n      tag_385\n        /* \"#utility.yul\":11322:11328   */\n      dup2\n        /* \"#utility.yul\":11314:11320   */\n      dup5\n        /* \"#utility.yul\":11308:11312   */\n      dup5\n        /* \"#utility.yul\":11264:11329   */\n      tag_237\n      jump\t// in\n    tag_385:\n        /* \"#utility.yul\":11199:11335   */\n      pop\n        /* \"#utility.yul\":11146:11335   */\n      pop\n      pop\n      jump\t// out\n        /* \"#utility.yul\":11341:11527   */\n    tag_240:\n        /* \"#utility.yul\":11401:11521   */\n    tag_387:\n        /* \"#utility.yul\":11418:11421   */\n      dup2\n        /* \"#utility.yul\":11411:11416   */\n      dup2\n        /* \"#utility.yul\":11408:11422   */\n      lt\n        /* \"#utility.yul\":11401:11521   */\n      iszero\n      tag_389\n      jumpi\n        /* \"#utility.yul\":11472:11511   */\n      tag_390\n        /* \"#utility.yul\":11509:11510   */\n      0x00\n        /* \"#utility.yul\":11502:11507   */\n      dup3\n        /* \"#utility.yul\":11472:11511   */\n      tag_239\n      jump\t// in\n    tag_390:\n        /* \"#utility.yul\":11445:11446   */\n      0x01\n        /* \"#utility.yul\":11438:11443   */\n      dup2\n        /* \"#utility.yul\":11434:11447   */\n      add\n        /* \"#utility.yul\":11425:11447   */\n      swap1\n      pop\n        /* \"#utility.yul\":11401:11521   */\n      jump(tag_387)\n    tag_389:\n        /* \"#utility.yul\":11341:11527   */\n      pop\n      pop\n      jump\t// out\n        /* \"#utility.yul\":11533:12076   */\n    tag_241:\n        /* \"#utility.yul\":11634:11636   */\n      0x1f\n        /* \"#utility.yul\":11629:11632   */\n      dup3\n        /* \"#utility.yul\":11626:11637   */\n      gt\n        /* \"#utility.yul\":11623:12069   */\n      iszero\n      tag_392\n      jumpi\n        /* \"#utility.yul\":11668:11706   */\n      tag_393\n        /* \"#utility.yul\":11700:11705   */\n      dup2\n        /* \"#utility.yul\":11668:11706   */\n      tag_230\n      jump\t// in\n    tag_393:\n        /* \"#utility.yul\":11752:11781   */\n      tag_394\n        /* \"#utility.yul\":11770:11780   */\n      dup5\n        /* \"#utility.yul\":11752:11781   */\n      tag_231\n      jump\t// in\n    tag_394:\n        /* \"#utility.yul\":11742:11750   */\n      dup2\n        /* \"#utility.yul\":11738:11782   */\n      add\n        /* \"#utility.yul\":11935:11937   */\n      0x20\n        /* \"#utility.yul\":11923:11933   */\n      dup6\n        /* \"#utility.yul\":11920:11938   */\n      lt\n        /* \"#utility.yul\":11917:11966   */\n      iszero\n      tag_395\n      jumpi\n        /* \"#utility.yul\":11956:11964   */\n      dup2\n        /* \"#utility.yul\":11941:11964   */\n      swap1\n      pop\n        /* \"#utility.yul\":11917:11966   */\n    tag_395:\n        /* \"#utility.yul\":11979:12059   */\n      tag_396\n        /* \"#utility.yul\":12035:12057   */\n      tag_397\n        /* \"#utility.yul\":12053:12056   */\n      dup6\n        /* \"#utility.yul\":12035:12057   */\n      tag_231\n      jump\t// in\n    tag_397:\n        /* \"#utility.yul\":12025:12033   */\n      dup4\n        /* \"#utility.yul\":12021:12058   */\n      add\n        /* \"#utility.yul\":12008:12019   */\n      dup3\n        /* \"#utility.yul\":11979:12059   */\n      tag_240\n      jump\t// in\n    tag_396:\n        /* \"#utility.yul\":11638:12069   */\n      pop\n      pop\n        /* \"#utility.yul\":11623:12069   */\n    tag_392:\n        /* \"#utility.yul\":11533:12076   */\n      pop\n      pop\n      pop\n      jump\t// out\n        /* \"#utility.yul\":12082:12199   */\n    tag_242:\n        /* \"#utility.yul\":12136:12144   */\n      0x00\n        /* \"#utility.yul\":12186:12191   */\n      dup3\n        /* \"#utility.yul\":12180:12184   */\n      dup3\n        /* \"#utility.yul\":12176:12192   */\n      shr\n        /* \"#utility.yul\":12155:12192   */\n      swap1\n      pop\n        /* \"#utility.yul\":12082:12199   */\n      swap3\n      swap2\n      pop\n      pop\n      jump\t// out\n        /* \"#utility.yul\":12205:12374   */\n    tag_243:\n        /* \"#utility.yul\":12249:12255   */\n      0x00\n        /* \"#utility.yul\":12282:12333   */\n      tag_400\n        /* \"#utility.yul\":12330:12331   */\n      0x00\n        /* \"#utility.yul\":12326:12332   */\n      not\n        /* \"#utility.yul\":12318:12323   */\n      dup5\n        /* \"#utility.yul\":12315:12316   */\n      0x08\n        /* \"#utility.yul\":12311:12324   */\n      mul\n        /* \"#utility.yul\":12282:12333   */\n      tag_242\n      jump\t// in\n    tag_400:\n        /* \"#utility.yul\":12278:12334   */\n      not\n        /* \"#utility.yul\":12363:12367   */\n      dup1\n        /* \"#utility.yul\":12357:12361   */\n      dup4\n        /* \"#utility.yul\":12353:12368   */\n      and\n        /* \"#utility.yul\":12343:12368   */\n      swap2\n      pop\n        /* \"#utility.yul\":12256:12374   */\n      pop\n        /* \"#utility.yul\":12205:12374   */\n      swap3\n      swap2\n      pop\n      pop\n      jump\t// out\n        /* \"#utility.yul\":12379:12674   */\n    tag_244:\n        /* \"#utility.yul\":12455:12459   */\n      0x00\n        /* \"#utility.yul\":12601:12630   */\n      tag_402\n        /* \"#utility.yul\":12626:12629   */\n      dup4\n        /* \"#utility.yul\":12620:12624   */\n      dup4\n        /* \"#utility.yul\":12601:12630   */\n      tag_243\n      jump\t// in\n    tag_402:\n        /* \"#utility.yul\":12593:12630   */\n      swap2\n      pop\n        /* \"#utility.yul\":12663:12666   */\n      dup3\n        /* \"#utility.yul\":12660:12661   */\n      0x02\n        /* \"#utility.yul\":12656:12667   */\n      mul\n        /* \"#utility.yul\":12650:12654   */\n      dup3\n        /* \"#utility.yul\":12647:12668   */\n      or\n        /* \"#utility.yul\":12639:12668   */\n      swap1\n      pop\n        /* \"#utility.yul\":12379:12674   */\n      swap3\n      swap2\n      pop\n      pop\n      jump\t// out\n        /* \"#utility.yul\":12679:14074   */\n    tag_101:\n        /* \"#utility.yul\":12796:12833   */\n      tag_404\n        /* \"#utility.yul\":12829:12832   */\n      dup3\n        /* \"#utility.yul\":12796:12833   */\n      tag_218\n      jump\t// in\n    tag_404:\n        /* \"#utility.yul\":12898:12916   */\n      0xffffffffffffffff\n        /* \"#utility.yul\":12890:12896   */\n      dup2\n        /* \"#utility.yul\":12887:12917   */\n      gt\n        /* \"#utility.yul\":12884:12940   */\n      iszero\n      tag_405\n      jumpi\n        /* \"#utility.yul\":12920:12938   */\n      tag_406\n      tag_210\n      jump\t// in\n    tag_406:\n        /* \"#utility.yul\":12884:12940   */\n    tag_405:\n        /* \"#utility.yul\":12964:13002   */\n      tag_407\n        /* \"#utility.yul\":12996:13000   */\n      dup3\n        /* \"#utility.yul\":12990:13001   */\n      sload\n        /* \"#utility.yul\":12964:13002   */\n      tag_141\n      jump\t// in\n    tag_407:\n        /* \"#utility.yul\":13049:13116   */\n      tag_408\n        /* \"#utility.yul\":13109:13115   */\n      dup3\n        /* \"#utility.yul\":13101:13107   */\n      dup3\n        /* \"#utility.yul\":13095:13099   */\n      dup6\n        /* \"#utility.yul\":13049:13116   */\n      tag_241\n      jump\t// in\n    tag_408:\n        /* \"#utility.yul\":13143:13144   */\n      0x00\n        /* \"#utility.yul\":13167:13171   */\n      0x20\n        /* \"#utility.yul\":13154:13171   */\n      swap1\n      pop\n        /* \"#utility.yul\":13199:13201   */\n      0x1f\n        /* \"#utility.yul\":13191:13197   */\n      dup4\n        /* \"#utility.yul\":13188:13202   */\n      gt\n        /* \"#utility.yul\":13216:13217   */\n      0x01\n        /* \"#utility.yul\":13211:13829   */\n      dup2\n      eq\n      tag_410\n      jumpi\n        /* \"#utility.yul\":13873:13874   */\n      0x00\n        /* \"#utility.yul\":13890:13896   */\n      dup5\n        /* \"#utility.yul\":13887:13964   */\n      iszero\n      tag_411\n      jumpi\n        /* \"#utility.yul\":13939:13948   */\n      dup3\n        /* \"#utility.yul\":13934:13937   */\n      dup8\n        /* \"#utility.yul\":13930:13949   */\n      add\n        /* \"#utility.yul\":13924:13950   */\n      mload\n        /* \"#utility.yul\":13915:13950   */\n      swap1\n      pop\n        /* \"#utility.yul\":13887:13964   */\n    tag_411:\n        /* \"#utility.yul\":13990:14057   */\n      tag_412\n        /* \"#utility.yul\":14050:14056   */\n      dup6\n        /* \"#utility.yul\":14043:14048   */\n      dup3\n        /* \"#utility.yul\":13990:14057   */\n      tag_244\n      jump\t// in\n    tag_412:\n        /* \"#utility.yul\":13984:13988   */\n      dup7\n        /* \"#utility.yul\":13977:14058   */\n      sstore\n        /* \"#utility.yul\":13846:14068   */\n      pop\n        /* \"#utility.yul\":13181:14068   */\n      jump(tag_409)\n        /* \"#utility.yul\":13211:13829   */\n    tag_410:\n        /* \"#utility.yul\":13263:13267   */\n      0x1f\n        /* \"#utility.yul\":13259:13268   */\n      not\n        /* \"#utility.yul\":13251:13257   */\n      dup5\n        /* \"#utility.yul\":13247:13269   */\n      and\n        /* \"#utility.yul\":13297:13334   */\n      tag_413\n        /* \"#utility.yul\":13329:13333   */\n      dup7\n        /* \"#utility.yul\":13297:13334   */\n      tag_230\n      jump\t// in\n    tag_413:\n        /* \"#utility.yul\":13356:13357   */\n      0x00\n        /* \"#utility.yul\":13370:13578   */\n    tag_414:\n        /* \"#utility.yul\":13384:13391   */\n      dup3\n        /* \"#utility.yul\":13381:13382   */\n      dup2\n        /* \"#utility.yul\":13378:13392   */\n      lt\n        /* \"#utility.yul\":13370:13578   */\n      iszero\n      tag_416\n      jumpi\n        /* \"#utility.yul\":13463:13472   */\n      dup5\n        /* \"#utility.yul\":13458:13461   */\n      dup10\n        /* \"#utility.yul\":13454:13473   */\n      add\n        /* \"#utility.yul\":13448:13474   */\n      mload\n        /* \"#utility.yul\":13440:13446   */\n      dup3\n        /* \"#utility.yul\":13433:13475   */\n      sstore\n        /* \"#utility.yul\":13514:13515   */\n      0x01\n        /* \"#utility.yul\":13506:13512   */\n      dup3\n        /* \"#utility.yul\":13502:13516   */\n      add\n        /* \"#utility.yul\":13492:13516   */\n      swap2\n      pop\n        /* \"#utility.yul\":13561:13563   */\n      0x20\n        /* \"#utility.yul\":13550:13559   */\n      dup6\n        /* \"#utility.yul\":13546:13564   */\n      add\n        /* \"#utility.yul\":13533:13564   */\n      swap5\n      pop\n        /* \"#utility.yul\":13407:13411   */\n      0x20\n        /* \"#utility.yul\":13404:13405   */\n      dup2\n        /* \"#utility.yul\":13400:13412   */\n      add\n        /* \"#utility.yul\":13395:13412   */\n      swap1\n      pop\n        /* \"#utility.yul\":13370:13578   */\n      jump(tag_414)\n    tag_416:\n        /* \"#utility.yul\":13606:13612   */\n      dup7\n        /* \"#utility.yul\":13597:13604   */\n      dup4\n        /* \"#utility.yul\":13594:13613   */\n      lt\n        /* \"#utility.yul\":13591:13770   */\n      iszero\n      tag_417\n      jumpi\n        /* \"#utility.yul\":13664:13673   */\n      dup5\n        /* \"#utility.yul\":13659:13662   */\n      dup10\n        /* \"#utility.yul\":13655:13674   */\n      add\n        /* \"#utility.yul\":13649:13675   */\n      mload\n        /* \"#utility.yul\":13707:13755   */\n      tag_418\n        /* \"#utility.yul\":13749:13753   */\n      0x1f\n        /* \"#utility.yul\":13741:13747   */\n      dup10\n        /* \"#utility.yul\":13737:13754   */\n      and\n        /* \"#utility.yul\":13726:13735   */\n      dup3\n        /* \"#utility.yul\":13707:13755   */\n      tag_243\n      jump\t// in\n    tag_418:\n        /* \"#utility.yul\":13699:13705   */\n      dup4\n        /* \"#utility.yul\":13692:13756   */\n      sstore\n        /* \"#utility.yul\":13614:13770   */\n      pop\n        /* \"#utility.yul\":13591:13770   */\n    tag_417:\n        /* \"#utility.yul\":13816:13817   */\n      0x01\n        /* \"#utility.yul\":13812:13813   */\n      0x02\n        /* \"#utility.yul\":13804:13810   */\n      dup9\n        /* \"#utility.yul\":13800:13814   */\n      mul\n        /* \"#utility.yul\":13796:13818   */\n      add\n        /* \"#utility.yul\":13790:13794   */\n      dup9\n        /* \"#utility.yul\":13783:13819   */\n      sstore\n        /* \"#utility.yul\":13218:13829   */\n      pop\n      pop\n      pop\n        /* \"#utility.yul\":13181:14068   */\n    tag_409:\n      pop\n        /* \"#utility.yul\":12771:14074   */\n      pop\n      pop\n      pop\n        /* \"#utility.yul\":12679:14074   */\n      pop\n      pop\n      jump\t// out\n        /* \"#utility.yul\":14080:14300   */\n    tag_245:\n        /* \"#utility.yul\":14220:14254   */\n      0x4f6e6c7920746865206f776e65722063616e2073657420746865207461726765\n        /* \"#utility.yul\":14216:14217   */\n      0x00\n        /* \"#utility.yul\":14208:14214   */\n      dup3\n        /* \"#utility.yul\":14204:14218   */\n      add\n        /* \"#utility.yul\":14197:14255   */\n      mstore\n        /* \"#utility.yul\":14289:14292   */\n      0x7400000000000000000000000000000000000000000000000000000000000000\n        /* \"#utility.yul\":14284:14286   */\n      0x20\n        /* \"#utility.yul\":14276:14282   */\n      dup3\n        /* \"#utility.yul\":14272:14287   */\n      add\n        /* \"#utility.yul\":14265:14293   */\n      mstore\n        /* \"#utility.yul\":14080:14300   */\n      pop\n      jump\t// out\n        /* \"#utility.yul\":14306:14672   */\n    tag_246:\n        /* \"#utility.yul\":14448:14451   */\n      0x00\n        /* \"#utility.yul\":14469:14536   */\n      tag_421\n        /* \"#utility.yul\":14533:14535   */\n      0x21\n        /* \"#utility.yul\":14528:14531   */\n      dup4\n        /* \"#utility.yul\":14469:14536   */\n      tag_219\n      jump\t// in\n    tag_421:\n        /* \"#utility.yul\":14462:14536   */\n      swap2\n      pop\n        /* \"#utility.yul\":14545:14638   */\n      tag_422\n        /* \"#utility.yul\":14634:14637   */\n      dup3\n        /* \"#utility.yul\":14545:14638   */\n      tag_245\n      jump\t// in\n    tag_422:\n        /* \"#utility.yul\":14663:14665   */\n      0x40\n        /* \"#utility.yul\":14658:14661   */\n      dup3\n        /* \"#utility.yul\":14654:14666   */\n      add\n        /* \"#utility.yul\":14647:14666   */\n      swap1\n      pop\n        /* \"#utility.yul\":14306:14672   */\n      swap2\n      swap1\n      pop\n      jump\t// out\n        /* \"#utility.yul\":14678:15097   */\n    tag_107:\n        /* \"#utility.yul\":14844:14848   */\n      0x00\n        /* \"#utility.yul\":14882:14884   */\n      0x20\n        /* \"#utility.yul\":14871:14880   */\n      dup3\n        /* \"#utility.yul\":14867:14885   */\n      add\n        /* \"#utility.yul\":14859:14885   */\n      swap1\n      pop\n        /* \"#utility.yul\":14931:14940   */\n      dup2\n        /* \"#utility.yul\":14925:14929   */\n      dup2\n        /* \"#utility.yul\":14921:14941   */\n      sub\n        /* \"#utility.yul\":14917:14918   */\n      0x00\n        /* \"#utility.yul\":14906:14915   */\n      dup4\n        /* \"#utility.yul\":14902:14919   */\n      add\n        /* \"#utility.yul\":14895:14942   */\n      mstore\n        /* \"#utility.yul\":14959:15090   */\n      tag_424\n        /* \"#utility.yul\":15085:15089   */\n      dup2\n        /* \"#utility.yul\":14959:15090   */\n      tag_246\n      jump\t// in\n    tag_424:\n        /* \"#utility.yul\":14951:15090   */\n      swap1\n      pop\n        /* \"#utility.yul\":14678:15097   */\n      swap2\n      swap1\n      pop\n      jump\t// out\n        /* \"#utility.yul\":15103:15278   */\n    tag_247:\n        /* \"#utility.yul\":15243:15270   */\n      0x5461726765742063616e6e6f7420626520726564756365642e00000000000000\n        /* \"#utility.yul\":15239:15240   */\n      0x00\n        /* \"#utility.yul\":15231:15237   */\n      dup3\n        /* \"#utility.yul\":15227:15241   */\n      add\n        /* \"#utility.yul\":15220:15271   */\n      mstore\n        /* \"#utility.yul\":15103:15278   */\n      pop\n      jump\t// out\n        /* \"#utility.yul\":15284:15650   */\n    tag_248:\n        /* \"#utility.yul\":15426:15429   */\n      0x00\n        /* \"#utility.yul\":15447:15514   */\n      tag_427\n        /* \"#utility.yul\":15511:15513   */\n      0x19\n        /* \"#utility.yul\":15506:15509   */\n      dup4\n        /* \"#utility.yul\":15447:15514   */\n      tag_219\n      jump\t// in\n    tag_427:\n        /* \"#utility.yul\":15440:15514   */\n      swap2\n      pop\n        /* \"#utility.yul\":15523:15616   */\n      tag_428\n        /* \"#utility.yul\":15612:15615   */\n      dup3\n        /* \"#utility.yul\":15523:15616   */\n      tag_247\n      jump\t// in\n    tag_428:\n        /* \"#utility.yul\":15641:15643   */\n      0x20\n        /* \"#utility.yul\":15636:15639   */\n      dup3\n        /* \"#utility.yul\":15632:15644   */\n      add\n        /* \"#utility.yul\":15625:15644   */\n      swap1\n      pop\n        /* \"#utility.yul\":15284:15650   */\n      swap2\n      swap1\n      pop\n      jump\t// out\n        /* \"#utility.yul\":15656:16075   */\n    tag_112:\n        /* \"#utility.yul\":15822:15826   */\n      0x00\n        /* \"#utility.yul\":15860:15862   */\n      0x20\n        /* \"#utility.yul\":15849:15858   */\n      dup3\n        /* \"#utility.yul\":15845:15863   */\n      add\n        /* \"#utility.yul\":15837:15863   */\n      swap1\n      pop\n        /* \"#utility.yul\":15909:15918   */\n      dup2\n        /* \"#utility.yul\":15903:15907   */\n      dup2\n        /* \"#utility.yul\":15899:15919   */\n      sub\n        /* \"#utility.yul\":15895:15896   */\n      0x00\n        /* \"#utility.yul\":15884:15893   */\n      dup4\n        /* \"#utility.yul\":15880:15897   */\n      add\n        /* \"#utility.yul\":15873:15920   */\n      mstore\n        /* \"#utility.yul\":15937:16068   */\n      tag_430\n        /* \"#utility.yul\":16063:16067   */\n      dup2\n        /* \"#utility.yul\":15937:16068   */\n      tag_248\n      jump\t// in\n    tag_430:\n        /* \"#utility.yul\":15929:16068   */\n      swap1\n      pop\n        /* \"#utility.yul\":15656:16075   */\n      swap2\n      swap1\n      pop\n      jump\t// out\n        /* \"#utility.yul\":16081:16260   */\n    tag_249:\n        /* \"#utility.yul\":16221:16252   */\n      0x50726f6a65637420686173207374696c6c206e6f742065787069726564000000\n        /* \"#utility.yul\":16217:16218   */\n      0x00\n        /* \"#utility.yul\":16209:16215   */\n      dup3\n        /* \"#utility.yul\":16205:16219   */\n      add\n        /* \"#utility.yul\":16198:16253   */\n      mstore\n        /* \"#utility.yul\":16081:16260   */\n      pop\n      jump\t// out\n        /* \"#utility.yul\":16266:16632   */\n    tag_250:\n        /* \"#utility.yul\":16408:16411   */\n      0x00\n        /* \"#utility.yul\":16429:16496   */\n      tag_433\n        /* \"#utility.yul\":16493:16495   */\n      0x1d\n        /* \"#utility.yul\":16488:16491   */\n      dup4\n        /* \"#utility.yul\":16429:16496   */\n      tag_219\n      jump\t// in\n    tag_433:\n        /* \"#utility.yul\":16422:16496   */\n      swap2\n      pop\n        /* \"#utility.yul\":16505:16598   */\n      tag_434\n        /* \"#utility.yul\":16594:16597   */\n      dup3\n        /* \"#utility.yul\":16505:16598   */\n      tag_249\n      jump\t// in\n    tag_434:\n        /* \"#utility.yul\":16623:16625   */\n      0x20\n        /* \"#utility.yul\":16618:16621   */\n      dup3\n        /* \"#utility.yul\":16614:16626   */\n      add\n        /* \"#utility.yul\":16607:16626   */\n      swap1\n      pop\n        /* \"#utility.yul\":16266:16632   */\n      swap2\n      swap1\n      pop\n      jump\t// out\n        /* \"#utility.yul\":16638:17057   */\n    tag_122:\n        /* \"#utility.yul\":16804:16808   */\n      0x00\n        /* \"#utility.yul\":16842:16844   */\n      0x20\n        /* \"#utility.yul\":16831:16840   */\n      dup3\n        /* \"#utility.yul\":16827:16845   */\n      add\n        /* \"#utility.yul\":16819:16845   */\n      swap1\n      pop\n        /* \"#utility.yul\":16891:16900   */\n      dup2\n        /* \"#utility.yul\":16885:16889   */\n      dup2\n        /* \"#utility.yul\":16881:16901   */\n      sub\n        /* \"#utility.yul\":16877:16878   */\n      0x00\n        /* \"#utility.yul\":16866:16875   */\n      dup4\n        /* \"#utility.yul\":16862:16879   */\n      add\n        /* \"#utility.yul\":16855:16902   */\n      mstore\n        /* \"#utility.yul\":16919:17050   */\n      tag_436\n        /* \"#utility.yul\":17045:17049   */\n      dup2\n        /* \"#utility.yul\":16919:17050   */\n      tag_250\n      jump\t// in\n    tag_436:\n        /* \"#utility.yul\":16911:17050   */\n      swap1\n      pop\n        /* \"#utility.yul\":16638:17057   */\n      swap2\n      swap1\n      pop\n      jump\t// out\n        /* \"#utility.yul\":17063:17288   */\n    tag_251:\n        /* \"#utility.yul\":17203:17237   */\n      0x50726f6a6563742068617320616c726561647920726561636865642069747320\n        /* \"#utility.yul\":17199:17200   */\n      0x00\n        /* \"#utility.yul\":17191:17197   */\n      dup3\n        /* \"#utility.yul\":17187:17201   */\n      add\n        /* \"#utility.yul\":17180:17238   */\n      mstore\n        /* \"#utility.yul\":17272:17280   */\n      0x7461726765740000000000000000000000000000000000000000000000000000\n        /* \"#utility.yul\":17267:17269   */\n      0x20\n        /* \"#utility.yul\":17259:17265   */\n      dup3\n        /* \"#utility.yul\":17255:17270   */\n      add\n        /* \"#utility.yul\":17248:17281   */\n      mstore\n        /* \"#utility.yul\":17063:17288   */\n      pop\n      jump\t// out\n        /* \"#utility.yul\":17294:17660   */\n    tag_252:\n        /* \"#utility.yul\":17436:17439   */\n      0x00\n        /* \"#utility.yul\":17457:17524   */\n      tag_439\n        /* \"#utility.yul\":17521:17523   */\n      0x26\n        /* \"#utility.yul\":17516:17519   */\n      dup4\n        /* \"#utility.yul\":17457:17524   */\n      tag_219\n      jump\t// in\n    tag_439:\n        /* \"#utility.yul\":17450:17524   */\n      swap2\n      pop\n        /* \"#utility.yul\":17533:17626   */\n      tag_440\n        /* \"#utility.yul\":17622:17625   */\n      dup3\n        /* \"#utility.yul\":17533:17626   */\n      tag_251\n      jump\t// in\n    tag_440:\n        /* \"#utility.yul\":17651:17653   */\n      0x40\n        /* \"#utility.yul\":17646:17649   */\n      dup3\n        /* \"#utility.yul\":17642:17654   */\n      add\n        /* \"#utility.yul\":17635:17654   */\n      swap1\n      pop\n        /* \"#utility.yul\":17294:17660   */\n      swap2\n      swap1\n      pop\n      jump\t// out\n        /* \"#utility.yul\":17666:18085   */\n    tag_125:\n        /* \"#utility.yul\":17832:17836   */\n      0x00\n        /* \"#utility.yul\":17870:17872   */\n      0x20\n        /* \"#utility.yul\":17859:17868   */\n      dup3\n        /* \"#utility.yul\":17855:17873   */\n      add\n        /* \"#utility.yul\":17847:17873   */\n      swap1\n      pop\n        /* \"#utility.yul\":17919:17928   */\n      dup2\n        /* \"#utility.yul\":17913:17917   */\n      dup2\n        /* \"#utility.yul\":17909:17929   */\n      sub\n        /* \"#utility.yul\":17905:17906   */\n      0x00\n        /* \"#utility.yul\":17894:17903   */\n      dup4\n        /* \"#utility.yul\":17890:17907   */\n      add\n        /* \"#utility.yul\":17883:17930   */\n      mstore\n        /* \"#utility.yul\":17947:18078   */\n      tag_442\n        /* \"#utility.yul\":18073:18077   */\n      dup2\n        /* \"#utility.yul\":17947:18078   */\n      tag_252\n      jump\t// in\n    tag_442:\n        /* \"#utility.yul\":17939:18078   */\n      swap1\n      pop\n        /* \"#utility.yul\":17666:18085   */\n      swap2\n      swap1\n      pop\n      jump\t// out\n        /* \"#utility.yul\":18091:18261   */\n    tag_253:\n        /* \"#utility.yul\":18231:18253   */\n      0x496e73756666696369656e742062616c616e6365000000000000000000000000\n        /* \"#utility.yul\":18227:18228   */\n      0x00\n        /* \"#utility.yul\":18219:18225   */\n      dup3\n        /* \"#utility.yul\":18215:18229   */\n      add\n        /* \"#utility.yul\":18208:18254   */\n      mstore\n        /* \"#utility.yul\":18091:18261   */\n      pop\n      jump\t// out\n        /* \"#utility.yul\":18267:18633   */\n    tag_254:\n        /* \"#utility.yul\":18409:18412   */\n      0x00\n        /* \"#utility.yul\":18430:18497   */\n      tag_445\n        /* \"#utility.yul\":18494:18496   */\n      0x14\n        /* \"#utility.yul\":18489:18492   */\n      dup4\n        /* \"#utility.yul\":18430:18497   */\n      tag_219\n      jump\t// in\n    tag_445:\n        /* \"#utility.yul\":18423:18497   */\n      swap2\n      pop\n        /* \"#utility.yul\":18506:18599   */\n      tag_446\n        /* \"#utility.yul\":18595:18598   */\n      dup3\n        /* \"#utility.yul\":18506:18599   */\n      tag_253\n      jump\t// in\n    tag_446:\n        /* \"#utility.yul\":18624:18626   */\n      0x20\n        /* \"#utility.yul\":18619:18622   */\n      dup3\n        /* \"#utility.yul\":18615:18627   */\n      add\n        /* \"#utility.yul\":18608:18627   */\n      swap1\n      pop\n        /* \"#utility.yul\":18267:18633   */\n      swap2\n      swap1\n      pop\n      jump\t// out\n        /* \"#utility.yul\":18639:19058   */\n    tag_128:\n        /* \"#utility.yul\":18805:18809   */\n      0x00\n        /* \"#utility.yul\":18843:18845   */\n      0x20\n        /* \"#utility.yul\":18832:18841   */\n      dup3\n        /* \"#utility.yul\":18828:18846   */\n      add\n        /* \"#utility.yul\":18820:18846   */\n      swap1\n      pop\n        /* \"#utility.yul\":18892:18901   */\n      dup2\n        /* \"#utility.yul\":18886:18890   */\n      dup2\n        /* \"#utility.yul\":18882:18902   */\n      sub\n        /* \"#utility.yul\":18878:18879   */\n      0x00\n        /* \"#utility.yul\":18867:18876   */\n      dup4\n        /* \"#utility.yul\":18863:18880   */\n      add\n        /* \"#utility.yul\":18856:18903   */\n      mstore\n        /* \"#utility.yul\":18920:19051   */\n      tag_448\n        /* \"#utility.yul\":19046:19050   */\n      dup2\n        /* \"#utility.yul\":18920:19051   */\n      tag_254\n      jump\t// in\n    tag_448:\n        /* \"#utility.yul\":18912:19051   */\n      swap1\n      pop\n        /* \"#utility.yul\":18639:19058   */\n      swap2\n      swap1\n      pop\n      jump\t// out\n        /* \"#utility.yul\":19064:19244   */\n    tag_255:\n        /* \"#utility.yul\":19112:19189   */\n      0x4e487b7100000000000000000000000000000000000000000000000000000000\n        /* \"#utility.yul\":19109:19110   */\n      0x00\n        /* \"#utility.yul\":19102:19190   */\n      mstore\n        /* \"#utility.yul\":19209:19213   */\n      0x11\n        /* \"#utility.yul\":19206:19207   */\n      0x04\n        /* \"#utility.yul\":19199:19214   */\n      mstore\n        /* \"#utility.yul\":19233:19237   */\n      0x24\n        /* \"#utility.yul\":19230:19231   */\n      0x00\n        /* \"#utility.yul\":19223:19238   */\n      revert\n        /* \"#utility.yul\":19250:19444   */\n    tag_130:\n        /* \"#utility.yul\":19290:19294   */\n      0x00\n        /* \"#utility.yul\":19310:19330   */\n      tag_451\n        /* \"#utility.yul\":19328:19329   */\n      dup3\n        /* \"#utility.yul\":19310:19330   */\n      tag_204\n      jump\t// in\n    tag_451:\n        /* \"#utility.yul\":19305:19330   */\n      swap2\n      pop\n        /* \"#utility.yul\":19344:19364   */\n      tag_452\n        /* \"#utility.yul\":19362:19363   */\n      dup4\n        /* \"#utility.yul\":19344:19364   */\n      tag_204\n      jump\t// in\n    tag_452:\n        /* \"#utility.yul\":19339:19364   */\n      swap3\n      pop\n        /* \"#utility.yul\":19388:19389   */\n      dup3\n        /* \"#utility.yul\":19385:19386   */\n      dup3\n        /* \"#utility.yul\":19381:19390   */\n      sub\n        /* \"#utility.yul\":19373:19390   */\n      swap1\n      pop\n        /* \"#utility.yul\":19412:19413   */\n      dup2\n        /* \"#utility.yul\":19406:19410   */\n      dup2\n        /* \"#utility.yul\":19403:19414   */\n      gt\n        /* \"#utility.yul\":19400:19437   */\n      iszero\n      tag_453\n      jumpi\n        /* \"#utility.yul\":19417:19435   */\n      tag_454\n      tag_255\n      jump\t// in\n    tag_454:\n        /* \"#utility.yul\":19400:19437   */\n    tag_453:\n        /* \"#utility.yul\":19250:19444   */\n      swap3\n      swap2\n      pop\n      pop\n      jump\t// out\n        /* \"#utility.yul\":19450:19860   */\n    tag_149:\n        /* \"#utility.yul\":19490:19497   */\n      0x00\n        /* \"#utility.yul\":19513:19533   */\n      tag_456\n        /* \"#utility.yul\":19531:19532   */\n      dup3\n        /* \"#utility.yul\":19513:19533   */\n      tag_204\n      jump\t// in\n    tag_456:\n        /* \"#utility.yul\":19508:19533   */\n      swap2\n      pop\n        /* \"#utility.yul\":19547:19567   */\n      tag_457\n        /* \"#utility.yul\":19565:19566   */\n      dup4\n        /* \"#utility.yul\":19547:19567   */\n      tag_204\n      jump\t// in\n    tag_457:\n        /* \"#utility.yul\":19542:19567   */\n      swap3\n      pop\n        /* \"#utility.yul\":19602:19603   */\n      dup3\n        /* \"#utility.yul\":19599:19600   */\n      dup3\n        /* \"#utility.yul\":19595:19604   */\n      mul\n        /* \"#utility.yul\":19624:19654   */\n      tag_458\n        /* \"#utility.yul\":19642:19653   */\n      dup2\n        /* \"#utility.yul\":19624:19654   */\n      tag_204\n      jump\t// in\n    tag_458:\n        /* \"#utility.yul\":19613:19654   */\n      swap2\n      pop\n        /* \"#utility.yul\":19803:19804   */\n      dup3\n        /* \"#utility.yul\":19794:19801   */\n      dup3\n        /* \"#utility.yul\":19790:19805   */\n      div\n        /* \"#utility.yul\":19787:19788   */\n      dup5\n        /* \"#utility.yul\":19784:19806   */\n      eq\n        /* \"#utility.yul\":19764:19765   */\n      dup4\n        /* \"#utility.yul\":19757:19766   */\n      iszero\n        /* \"#utility.yul\":19737:19820   */\n      or\n        /* \"#utility.yul\":19714:19853   */\n      tag_459\n      jumpi\n        /* \"#utility.yul\":19833:19851   */\n      tag_460\n      tag_255\n      jump\t// in\n    tag_460:\n        /* \"#utility.yul\":19714:19853   */\n    tag_459:\n        /* \"#utility.yul\":19498:19860   */\n      pop\n        /* \"#utility.yul\":19450:19860   */\n      swap3\n      swap2\n      pop\n      pop\n      jump\t// out\n        /* \"#utility.yul\":19866:20057   */\n    tag_151:\n        /* \"#utility.yul\":19906:19909   */\n      0x00\n        /* \"#utility.yul\":19925:19945   */\n      tag_462\n        /* \"#utility.yul\":19943:19944   */\n      dup3\n        /* \"#utility.yul\":19925:19945   */\n      tag_204\n      jump\t// in\n    tag_462:\n        /* \"#utility.yul\":19920:19945   */\n      swap2\n      pop\n        /* \"#utility.yul\":19959:19979   */\n      tag_463\n        /* \"#utility.yul\":19977:19978   */\n      dup4\n        /* \"#utility.yul\":19959:19979   */\n      tag_204\n      jump\t// in\n    tag_463:\n        /* \"#utility.yul\":19954:19979   */\n      swap3\n      pop\n        /* \"#utility.yul\":20002:20003   */\n      dup3\n        /* \"#utility.yul\":19999:20000   */\n      dup3\n        /* \"#utility.yul\":19995:20004   */\n      add\n        /* \"#utility.yul\":19988:20004   */\n      swap1\n      pop\n        /* \"#utility.yul\":20023:20026   */\n      dup1\n        /* \"#utility.yul\":20020:20021   */\n      dup3\n        /* \"#utility.yul\":20017:20027   */\n      gt\n        /* \"#utility.yul\":20014:20050   */\n      iszero\n      tag_464\n      jumpi\n        /* \"#utility.yul\":20030:20048   */\n      tag_465\n      tag_255\n      jump\t// in\n    tag_465:\n        /* \"#utility.yul\":20014:20050   */\n    tag_464:\n        /* \"#utility.yul\":19866:20057   */\n      swap3\n      swap2\n      pop\n      pop\n      jump\t// out\n        /* \"#utility.yul\":20063:20231   */\n    tag_256:\n        /* \"#utility.yul\":20203:20223   */\n      0x546172676574206e6f7420796574207365740000000000000000000000000000\n        /* \"#utility.yul\":20199:20200   */\n      0x00\n        /* \"#utility.yul\":20191:20197   */\n      dup3\n        /* \"#utility.yul\":20187:20201   */\n      add\n        /* \"#utility.yul\":20180:20224   */\n      mstore\n        /* \"#utility.yul\":20063:20231   */\n      pop\n      jump\t// out\n        /* \"#utility.yul\":20237:20603   */\n    tag_257:\n        /* \"#utility.yul\":20379:20382   */\n      0x00\n        /* \"#utility.yul\":20400:20467   */\n      tag_468\n        /* \"#utility.yul\":20464:20466   */\n      0x12\n        /* \"#utility.yul\":20459:20462   */\n      dup4\n        /* \"#utility.yul\":20400:20467   */\n      tag_219\n      jump\t// in\n    tag_468:\n        /* \"#utility.yul\":20393:20467   */\n      swap2\n      pop\n        /* \"#utility.yul\":20476:20569   */\n      tag_469\n        /* \"#utility.yul\":20565:20568   */\n      dup3\n        /* \"#utility.yul\":20476:20569   */\n      tag_256\n      jump\t// in\n    tag_469:\n        /* \"#utility.yul\":20594:20596   */\n      0x20\n        /* \"#utility.yul\":20589:20592   */\n      dup3\n        /* \"#utility.yul\":20585:20597   */\n      add\n        /* \"#utility.yul\":20578:20597   */\n      swap1\n      pop\n        /* \"#utility.yul\":20237:20603   */\n      swap2\n      swap1\n      pop\n      jump\t// out\n        /* \"#utility.yul\":20609:21028   */\n    tag_159:\n        /* \"#utility.yul\":20775:20779   */\n      0x00\n        /* \"#utility.yul\":20813:20815   */\n      0x20\n        /* \"#utility.yul\":20802:20811   */\n      dup3\n        /* \"#utility.yul\":20798:20816   */\n      add\n        /* \"#utility.yul\":20790:20816   */\n      swap1\n      pop\n        /* \"#utility.yul\":20862:20871   */\n      dup2\n        /* \"#utility.yul\":20856:20860   */\n      dup2\n        /* \"#utility.yul\":20852:20872   */\n      sub\n        /* \"#utility.yul\":20848:20849   */\n      0x00\n        /* \"#utility.yul\":20837:20846   */\n      dup4\n        /* \"#utility.yul\":20833:20850   */\n      add\n        /* \"#utility.yul\":20826:20873   */\n      mstore\n        /* \"#utility.yul\":20890:21021   */\n      tag_471\n        /* \"#utility.yul\":21016:21020   */\n      dup2\n        /* \"#utility.yul\":20890:21021   */\n      tag_257\n      jump\t// in\n    tag_471:\n        /* \"#utility.yul\":20882:21021   */\n      swap1\n      pop\n        /* \"#utility.yul\":20609:21028   */\n      swap2\n      swap1\n      pop\n      jump\t// out\n        /* \"#utility.yul\":21034:21259   */\n    tag_258:\n        /* \"#utility.yul\":21174:21208   */\n      0x50726f6a65637420686173206661696c656420746f2072656163682069747320\n        /* \"#utility.yul\":21170:21171   */\n      0x00\n        /* \"#utility.yul\":21162:21168   */\n      dup3\n        /* \"#utility.yul\":21158:21172   */\n      add\n        /* \"#utility.yul\":21151:21209   */\n      mstore\n        /* \"#utility.yul\":21243:21251   */\n      0x7461726765740000000000000000000000000000000000000000000000000000\n        /* \"#utility.yul\":21238:21240   */\n      0x20\n        /* \"#utility.yul\":21230:21236   */\n      dup3\n        /* \"#utility.yul\":21226:21241   */\n      add\n        /* \"#utility.yul\":21219:21252   */\n      mstore\n        /* \"#utility.yul\":21034:21259   */\n      pop\n      jump\t// out\n        /* \"#utility.yul\":21265:21631   */\n    tag_259:\n        /* \"#utility.yul\":21407:21410   */\n      0x00\n        /* \"#utility.yul\":21428:21495   */\n      tag_474\n        /* \"#utility.yul\":21492:21494   */\n      0x26\n        /* \"#utility.yul\":21487:21490   */\n      dup4\n        /* \"#utility.yul\":21428:21495   */\n      tag_219\n      jump\t// in\n    tag_474:\n        /* \"#utility.yul\":21421:21495   */\n      swap2\n      pop\n        /* \"#utility.yul\":21504:21597   */\n      tag_475\n        /* \"#utility.yul\":21593:21596   */\n      dup3\n        /* \"#utility.yul\":21504:21597   */\n      tag_258\n      jump\t// in\n    tag_475:\n        /* \"#utility.yul\":21622:21624   */\n      0x40\n        /* \"#utility.yul\":21617:21620   */\n      dup3\n        /* \"#utility.yul\":21613:21625   */\n      add\n        /* \"#utility.yul\":21606:21625   */\n      swap1\n      pop\n        /* \"#utility.yul\":21265:21631   */\n      swap2\n      swap1\n      pop\n      jump\t// out\n        /* \"#utility.yul\":21637:22056   */\n    tag_173:\n        /* \"#utility.yul\":21803:21807   */\n      0x00\n        /* \"#utility.yul\":21841:21843   */\n      0x20\n        /* \"#utility.yul\":21830:21839   */\n      dup3\n        /* \"#utility.yul\":21826:21844   */\n      add\n        /* \"#utility.yul\":21818:21844   */\n      swap1\n      pop\n        /* \"#utility.yul\":21890:21899   */\n      dup2\n        /* \"#utility.yul\":21884:21888   */\n      dup2\n        /* \"#utility.yul\":21880:21900   */\n      sub\n        /* \"#utility.yul\":21876:21877   */\n      0x00\n        /* \"#utility.yul\":21865:21874   */\n      dup4\n        /* \"#utility.yul\":21861:21878   */\n      add\n        /* \"#utility.yul\":21854:21901   */\n      mstore\n        /* \"#utility.yul\":21918:22049   */\n      tag_477\n        /* \"#utility.yul\":22044:22048   */\n      dup2\n        /* \"#utility.yul\":21918:22049   */\n      tag_259\n      jump\t// in\n    tag_477:\n        /* \"#utility.yul\":21910:22049   */\n      swap1\n      pop\n        /* \"#utility.yul\":21637:22056   */\n      swap2\n      swap1\n      pop\n      jump\t// out\n        /* \"#utility.yul\":22062:22283   */\n    tag_260:\n        /* \"#utility.yul\":22202:22236   */\n      0x4f6e6c7920746865206f776e65722063616e20636c61696d20746865206d6f6e\n        /* \"#utility.yul\":22198:22199   */\n      0x00\n        /* \"#utility.yul\":22190:22196   */\n      dup3\n        /* \"#utility.yul\":22186:22200   */\n      add\n        /* \"#utility.yul\":22179:22237   */\n      mstore\n        /* \"#utility.yul\":22271:22275   */\n      0x6579000000000000000000000000000000000000000000000000000000000000\n        /* \"#utility.yul\":22266:22268   */\n      0x20\n        /* \"#utility.yul\":22258:22264   */\n      dup3\n        /* \"#utility.yul\":22254:22269   */\n      add\n        /* \"#utility.yul\":22247:22276   */\n      mstore\n        /* \"#utility.yul\":22062:22283   */\n      pop\n      jump\t// out\n        /* \"#utility.yul\":22289:22655   */\n    tag_261:\n        /* \"#utility.yul\":22431:22434   */\n      0x00\n        /* \"#utility.yul\":22452:22519   */\n      tag_480\n        /* \"#utility.yul\":22516:22518   */\n      0x22\n        /* \"#utility.yul\":22511:22514   */\n      dup4\n        /* \"#utility.yul\":22452:22519   */\n      tag_219\n      jump\t// in\n    tag_480:\n        /* \"#utility.yul\":22445:22519   */\n      swap2\n      pop\n        /* \"#utility.yul\":22528:22621   */\n      tag_481\n        /* \"#utility.yul\":22617:22620   */\n      dup3\n        /* \"#utility.yul\":22528:22621   */\n      tag_260\n      jump\t// in\n    tag_481:\n        /* \"#utility.yul\":22646:22648   */\n      0x40\n        /* \"#utility.yul\":22641:22644   */\n      dup3\n        /* \"#utility.yul\":22637:22649   */\n      add\n        /* \"#utility.yul\":22630:22649   */\n      swap1\n      pop\n        /* \"#utility.yul\":22289:22655   */\n      swap2\n      swap1\n      pop\n      jump\t// out\n        /* \"#utility.yul\":22661:23080   */\n    tag_176:\n        /* \"#utility.yul\":22827:22831   */\n      0x00\n        /* \"#utility.yul\":22865:22867   */\n      0x20\n        /* \"#utility.yul\":22854:22863   */\n      dup3\n        /* \"#utility.yul\":22850:22868   */\n      add\n        /* \"#utility.yul\":22842:22868   */\n      swap1\n      pop\n        /* \"#utility.yul\":22914:22923   */\n      dup2\n        /* \"#utility.yul\":22908:22912   */\n      dup2\n        /* \"#utility.yul\":22904:22924   */\n      sub\n        /* \"#utility.yul\":22900:22901   */\n      0x00\n        /* \"#utility.yul\":22889:22898   */\n      dup4\n        /* \"#utility.yul\":22885:22902   */\n      add\n        /* \"#utility.yul\":22878:22925   */\n      mstore\n        /* \"#utility.yul\":22942:23073   */\n      tag_483\n        /* \"#utility.yul\":23068:23072   */\n      dup2\n        /* \"#utility.yul\":22942:23073   */\n      tag_261\n      jump\t// in\n    tag_483:\n        /* \"#utility.yul\":22934:23073   */\n      swap1\n      pop\n        /* \"#utility.yul\":22661:23080   */\n      swap2\n      swap1\n      pop\n      jump\t// out\n        /* \"#utility.yul\":23086:23253   */\n    tag_262:\n        /* \"#utility.yul\":23226:23245   */\n      0x4e6f206d6f6e657920746f20636c61696d000000000000000000000000000000\n        /* \"#utility.yul\":23222:23223   */\n      0x00\n        /* \"#utility.yul\":23214:23220   */\n      dup3\n        /* \"#utility.yul\":23210:23224   */\n      add\n        /* \"#utility.yul\":23203:23246   */\n      mstore\n        /* \"#utility.yul\":23086:23253   */\n      pop\n      jump\t// out\n        /* \"#utility.yul\":23259:23625   */\n    tag_263:\n        /* \"#utility.yul\":23401:23404   */\n      0x00\n        /* \"#utility.yul\":23422:23489   */\n      tag_486\n        /* \"#utility.yul\":23486:23488   */\n      0x11\n        /* \"#utility.yul\":23481:23484   */\n      dup4\n        /* \"#utility.yul\":23422:23489   */\n      tag_219\n      jump\t// in\n    tag_486:\n        /* \"#utility.yul\":23415:23489   */\n      swap2\n      pop\n        /* \"#utility.yul\":23498:23591   */\n      tag_487\n        /* \"#utility.yul\":23587:23590   */\n      dup3\n        /* \"#utility.yul\":23498:23591   */\n      tag_262\n      jump\t// in\n    tag_487:\n        /* \"#utility.yul\":23616:23618   */\n      0x20\n        /* \"#utility.yul\":23611:23614   */\n      dup3\n        /* \"#utility.yul\":23607:23619   */\n      add\n        /* \"#utility.yul\":23600:23619   */\n      swap1\n      pop\n        /* \"#utility.yul\":23259:23625   */\n      swap2\n      swap1\n      pop\n      jump\t// out\n        /* \"#utility.yul\":23631:24050   */\n    tag_179:\n        /* \"#utility.yul\":23797:23801   */\n      0x00\n        /* \"#utility.yul\":23835:23837   */\n      0x20\n        /* \"#utility.yul\":23824:23833   */\n      dup3\n        /* \"#utility.yul\":23820:23838   */\n      add\n        /* \"#utility.yul\":23812:23838   */\n      swap1\n      pop\n        /* \"#utility.yul\":23884:23893   */\n      dup2\n        /* \"#utility.yul\":23878:23882   */\n      dup2\n        /* \"#utility.yul\":23874:23894   */\n      sub\n        /* \"#utility.yul\":23870:23871   */\n      0x00\n        /* \"#utility.yul\":23859:23868   */\n      dup4\n        /* \"#utility.yul\":23855:23872   */\n      add\n        /* \"#utility.yul\":23848:23895   */\n      mstore\n        /* \"#utility.yul\":23912:24043   */\n      tag_489\n        /* \"#utility.yul\":24038:24042   */\n      dup2\n        /* \"#utility.yul\":23912:24043   */\n      tag_263\n      jump\t// in\n    tag_489:\n        /* \"#utility.yul\":23904:24043   */\n      swap1\n      pop\n        /* \"#utility.yul\":23631:24050   */\n      swap2\n      swap1\n      pop\n      jump\t// out\n        /* \"#utility.yul\":24056:24282   */\n    tag_264:\n        /* \"#utility.yul\":24196:24230   */\n      0x4f6e6c7920746865206f776e65722063616e20736574207468652070726f6a65\n        /* \"#utility.yul\":24192:24193   */\n      0x00\n        /* \"#utility.yul\":24184:24190   */\n      dup3\n        /* \"#utility.yul\":24180:24194   */\n      add\n        /* \"#utility.yul\":24173:24231   */\n      mstore\n        /* \"#utility.yul\":24265:24274   */\n      0x6374206e616d6500000000000000000000000000000000000000000000000000\n        /* \"#utility.yul\":24260:24262   */\n      0x20\n        /* \"#utility.yul\":24252:24258   */\n      dup3\n        /* \"#utility.yul\":24248:24263   */\n      add\n        /* \"#utility.yul\":24241:24275   */\n      mstore\n        /* \"#utility.yul\":24056:24282   */\n      pop\n      jump\t// out\n        /* \"#utility.yul\":24288:24654   */\n    tag_265:\n        /* \"#utility.yul\":24430:24433   */\n      0x00\n        /* \"#utility.yul\":24451:24518   */\n      tag_492\n        /* \"#utility.yul\":24515:24517   */\n      0x27\n        /* \"#utility.yul\":24510:24513   */\n      dup4\n        /* \"#utility.yul\":24451:24518   */\n      tag_219\n      jump\t// in\n    tag_492:\n        /* \"#utility.yul\":24444:24518   */\n      swap2\n      pop\n        /* \"#utility.yul\":24527:24620   */\n      tag_493\n        /* \"#utility.yul\":24616:24619   */\n      dup3\n        /* \"#utility.yul\":24527:24620   */\n      tag_264\n      jump\t// in\n    tag_493:\n        /* \"#utility.yul\":24645:24647   */\n      0x40\n        /* \"#utility.yul\":24640:24643   */\n      dup3\n        /* \"#utility.yul\":24636:24648   */\n      add\n        /* \"#utility.yul\":24629:24648   */\n      swap1\n      pop\n        /* \"#utility.yul\":24288:24654   */\n      swap2\n      swap1\n      pop\n      jump\t// out\n        /* \"#utility.yul\":24660:25079   */\n    tag_190:\n        /* \"#utility.yul\":24826:24830   */\n      0x00\n        /* \"#utility.yul\":24864:24866   */\n      0x20\n        /* \"#utility.yul\":24853:24862   */\n      dup3\n        /* \"#utility.yul\":24849:24867   */\n      add\n        /* \"#utility.yul\":24841:24867   */\n      swap1\n      pop\n        /* \"#utility.yul\":24913:24922   */\n      dup2\n        /* \"#utility.yul\":24907:24911   */\n      dup2\n        /* \"#utility.yul\":24903:24923   */\n      sub\n        /* \"#utility.yul\":24899:24900   */\n      0x00\n        /* \"#utility.yul\":24888:24897   */\n      dup4\n        /* \"#utility.yul\":24884:24901   */\n      add\n        /* \"#utility.yul\":24877:24924   */\n      mstore\n        /* \"#utility.yul\":24941:25072   */\n      tag_495\n        /* \"#utility.yul\":25067:25071   */\n      dup2\n        /* \"#utility.yul\":24941:25072   */\n      tag_265\n      jump\t// in\n    tag_495:\n        /* \"#utility.yul\":24933:25072   */\n      swap1\n      pop\n        /* \"#utility.yul\":24660:25079   */\n      swap2\n      swap1\n      pop\n      jump\t// out\n\n    auxdata: 0xa26469706673582212201663307b156ec6246253c41adfe04bafdce640a9e47ddbc1f9e17daf7f2b8ee664736f6c63430008160033\n}\n",
				"bytecode": {
					"linkReferences": {},
					"object": "60806040525f600255348015610013575f80fd5b50335f806101000a81548173ffffffffffffffffffffffffffffffffffffffff021916908373ffffffffffffffffffffffffffffffffffffffff160217905550600133908060018154018082558091505060019003905f5260205f20015f9091909190916101000a81548173ffffffffffffffffffffffffffffffffffffffff021916908373ffffffffffffffffffffffffffffffffffffffff1602179055506123d4806100c05f395ff3fe6080604052600436106100e7575f3560e01c806391754a5d11610089578063e6acc7cd11610058578063e6acc7cd146102fd578063f0d5307414610339578063f1fa906c14610361578063f8a8fd6d1461039d576100e7565b806391754a5d14610241578063b6b55f251461027d578063c41a360a14610299578063d44eb910146102d5576100e7565b806326030e57116100c557806326030e5714610177578063441a3e70146101a157806352db191f146101c9578063845ab42514610205576100e7565b80630c2e038a146100eb5780631d0f2c991461011357806323b53ba61461013b575b5f80fd5b3480156100f6575f80fd5b50610111600480360381019061010c9190611806565b6103c7565b005b34801561011e575f80fd5b5061013960048036038101906101349190611860565b61052d565b005b348015610146575f80fd5b50610161600480360381019061015c919061189e565b61071a565b60405161016e91906118d8565b60405180910390f35b348015610182575f80fd5b5061018b6107d7565b60405161019891906118d8565b60405180910390f35b3480156101ac575f80fd5b506101c760048036038101906101c29190611860565b6107e0565b005b3480156101d4575f80fd5b506101ef60048036038101906101ea919061189e565b610aaa565b6040516101fc91906118d8565b60405180910390f35b348015610210575f80fd5b5061022b6004803603810190610226919061189e565b610b67565b604051610238919061196b565b60405180910390f35b34801561024c575f80fd5b506102676004803603810190610262919061198b565b610cab565b60405161027491906118d8565b60405180910390f35b6102976004803603810190610292919061189e565b610d68565b005b3480156102a4575f80fd5b506102bf60048036038101906102ba919061189e565b610f1a565b6040516102cc9190611a24565b60405180910390f35b3480156102e0575f80fd5b506102fb60048036038101906102f6919061189e565b610ff5565b005b348015610308575f80fd5b50610323600480360381019061031e919061189e565b6112f8565b60405161033091906118d8565b60405180910390f35b348015610344575f80fd5b5061035f600480360381019061035a9190611806565b6113b5565b005b34801561036c575f80fd5b506103876004803603810190610382919061189e565b61151b565b604051610394919061196b565b60405180910390f35b3480156103a8575f80fd5b506103b161165f565b6040516103be9190611a24565b60405180910390f35b5f73ffffffffffffffffffffffffffffffffffffffff1660035f8481526020019081526020015f205f015f9054906101000a900473ffffffffffffffffffffffffffffffffffffffff1673ffffffffffffffffffffffffffffffffffffffff1603610467576040517f08c379a000000000000000000000000000000000000000000000000000000000815260040161045e90611a87565b60405180910390fd5b60035f8381526020019081526020015f205f015f9054906101000a900473ffffffffffffffffffffffffffffffffffffffff1673ffffffffffffffffffffffffffffffffffffffff163373ffffffffffffffffffffffffffffffffffffffff1614610507576040517f08c379a00000000000000000000000000000000000000000000000000000000081526004016104fe90611b15565b60405180910390fd5b8060035f8481526020019081526020015f2060020190816105289190611d2d565b505050565b5f73ffffffffffffffffffffffffffffffffffffffff1660035f8481526020019081526020015f205f015f9054906101000a900473ffffffffffffffffffffffffffffffffffffffff1673ffffffffffffffffffffffffffffffffffffffff16036105cd576040517f08c379a00000000000000000000000000000000000000000000000000000000081526004016105c490611a87565b60405180910390fd5b60035f8381526020019081526020015f205f015f9054906101000a900473ffffffffffffffffffffffffffffffffffffffff1673ffffffffffffffffffffffffffffffffffffffff163373ffffffffffffffffffffffffffffffffffffffff161461066d576040517f08c379a000000000000000000000000000000000000000000000000000000000815260040161066490611e6c565b60405180910390fd5b5f60035f8481526020019081526020015f2060030154036106a6578060035f8481526020019081526020015f2060030181905550610716565b60035f8381526020019081526020015f206003015481116106fc576040517f08c379a00000000000000000000000000000000000000000000000000000000081526004016106f390611ed4565b60405180910390fd5b8060035f8481526020019081526020015f20600301819055505b5050565b5f8073ffffffffffffffffffffffffffffffffffffffff1660035f8481526020019081526020015f205f015f9054906101000a900473ffffffffffffffffffffffffffffffffffffffff1673ffffffffffffffffffffffffffffffffffffffff16036107bb576040517f08c379a00000000000000000000000000000000000000000000000000000000081526004016107b290611a87565b60405180910390fd5b60035f8381526020019081526020015f20600401549050919050565b5f600254905090565b5f73ffffffffffffffffffffffffffffffffffffffff1660035f8481526020019081526020015f205f015f9054906101000a900473ffffffffffffffffffffffffffffffffffffffff1673ffffffffffffffffffffffffffffffffffffffff1603610880576040517f08c379a000000000000000000000000000000000000000000000000000000000815260040161087790611a87565b60405180910390fd5b60035f8381526020019081526020015f20600501544210156108d7576040517f08c379a00000000000000000000000000000000000000000000000000000000081526004016108ce90611f3c565b60405180910390fd5b60035f8381526020019081526020015f206003015460035f8481526020019081526020015f206004015410610941576040517f08c379a000000000000000000000000000000000000000000000000000000000815260040161093890611fca565b60405180910390fd5b8060035f8481526020019081526020015f206007015f3373ffffffffffffffffffffffffffffffffffffffff1673ffffffffffffffffffffffffffffffffffffffff1681526020019081526020015f205410156109d3576040517f08c379a00000000000000000000000000000000000000000000000000000000081526004016109ca90612032565b60405180910390fd5b8060035f8481526020019081526020015f206007015f3373ffffffffffffffffffffffffffffffffffffffff1673ffffffffffffffffffffffffffffffffffffffff1681526020019081526020015f205f828254610a31919061207d565b925050819055508060035f8481526020019081526020015f206006015f828254610a5b919061207d565b925050819055503373ffffffffffffffffffffffffffffffffffffffff166108fc8290811502906040515f60405180830381858888f19350505050158015610aa5573d5f803e3d5ffd5b505050565b5f8073ffffffffffffffffffffffffffffffffffffffff1660035f8481526020019081526020015f205f015f9054906101000a900473ffffffffffffffffffffffffffffffffffffffff1673ffffffffffffffffffffffffffffffffffffffff1603610b4b576040517f08c379a0000000000000000000000000000000000000000000000000000000008152600401610b4290611a87565b60405180910390fd5b60035f8381526020019081526020015f20600501549050919050565b60605f73ffffffffffffffffffffffffffffffffffffffff1660035f8481526020019081526020015f205f015f9054906101000a900473ffffffffffffffffffffffffffffffffffffffff1673ffffffffffffffffffffffffffffffffffffffff1603610c09576040517f08c379a0000000000000000000000000000000000000000000000000000000008152600401610c0090611a87565b60405180910390fd5b60035f8381526020019081526020015f206002018054610c2890611b60565b80601f0160208091040260200160405190810160405280929190818152602001828054610c5490611b60565b8015610c9f5780601f10610c7657610100808354040283529160200191610c9f565b820191905f5260205f20905b815481529060010190602001808311610c8257829003601f168201915b50505050509050919050565b5f8060035f60025481526020019081526020015f20905033815f015f6101000a81548173ffffffffffffffffffffffffffffffffffffffff021916908373ffffffffffffffffffffffffffffffffffffffff16021790555083816001019081610d149190611d2d565b506201518083610d2491906120b0565b42610d2f91906120f1565b8160050181905550600160025f828254610d4991906120f1565b925050819055506001600254610d5f919061207d565b91505092915050565b5f73ffffffffffffffffffffffffffffffffffffffff1660035f8381526020019081526020015f205f015f9054906101000a900473ffffffffffffffffffffffffffffffffffffffff1673ffffffffffffffffffffffffffffffffffffffff1603610e08576040517f08c379a0000000000000000000000000000000000000000000000000000000008152600401610dff90611a87565b60405180910390fd5b5f60035f8381526020019081526020015f206003015403610e5e576040517f08c379a0000000000000000000000000000000000000000000000000000000008152600401610e559061216e565b60405180910390fd5b3460035f8381526020019081526020015f206007015f3373ffffffffffffffffffffffffffffffffffffffff1673ffffffffffffffffffffffffffffffffffffffff1681526020019081526020015f205f828254610ebc91906120f1565b925050819055503460035f8381526020019081526020015f206004015f828254610ee691906120f1565b925050819055503460035f8381526020019081526020015f206006015f828254610f1091906120f1565b9250508190555050565b5f8073ffffffffffffffffffffffffffffffffffffffff1660035f8481526020019081526020015f205f015f9054906101000a900473ffffffffffffffffffffffffffffffffffffffff1673ffffffffffffffffffffffffffffffffffffffff1603610fbb576040517f08c379a0000000000000000000000000000000000000000000000000000000008152600401610fb290611a87565b60405180910390fd5b60035f8381526020019081526020015f205f015f9054906101000a900473ffffffffffffffffffffffffffffffffffffffff169050919050565b5f73ffffffffffffffffffffffffffffffffffffffff1660035f8381526020019081526020015f205f015f9054906101000a900473ffffffffffffffffffffffffffffffffffffffff1673ffffffffffffffffffffffffffffffffffffffff1603611095576040517f08c379a000000000000000000000000000000000000000000000000000000000815260040161108c90611a87565b60405180910390fd5b60035f8281526020019081526020015f20600501544210156110ec576040517f08c379a00000000000000000000000000000000000000000000000000000000081526004016110e390611f3c565b60405180910390fd5b60035f8281526020019081526020015f206003015460035f8381526020019081526020015f20600401541015611157576040517f08c379a000000000000000000000000000000000000000000000000000000000815260040161114e906121fc565b60405180910390fd5b60035f8281526020019081526020015f205f015f9054906101000a900473ffffffffffffffffffffffffffffffffffffffff1673ffffffffffffffffffffffffffffffffffffffff163373ffffffffffffffffffffffffffffffffffffffff16146111f7576040517f08c379a00000000000000000000000000000000000000000000000000000000081526004016111ee9061228a565b60405180910390fd5b5f60035f8381526020019081526020015f20600601541161124d576040517f08c379a0000000000000000000000000000000000000000000000000000000008152600401611244906122f2565b60405180910390fd5b5f60035f8381526020019081526020015f206006015490505f60035f8481526020019081526020015f206006018190555060035f8381526020019081526020015f205f015f9054906101000a900473ffffffffffffffffffffffffffffffffffffffff1673ffffffffffffffffffffffffffffffffffffffff166108fc8290811502906040515f60405180830381858888f193505050501580156112f3573d5f803e3d5ffd5b505050565b5f8073ffffffffffffffffffffffffffffffffffffffff1660035f8481526020019081526020015f205f015f9054906101000a900473ffffffffffffffffffffffffffffffffffffffff1673ffffffffffffffffffffffffffffffffffffffff1603611399576040517f08c379a000000000000000000000000000000000000000000000000000000000815260040161139090611a87565b60405180910390fd5b60035f8381526020019081526020015f20600301549050919050565b5f73ffffffffffffffffffffffffffffffffffffffff1660035f8481526020019081526020015f205f015f9054906101000a900473ffffffffffffffffffffffffffffffffffffffff1673ffffffffffffffffffffffffffffffffffffffff1603611455576040517f08c379a000000000000000000000000000000000000000000000000000000000815260040161144c90611a87565b60405180910390fd5b60035f8381526020019081526020015f205f015f9054906101000a900473ffffffffffffffffffffffffffffffffffffffff1673ffffffffffffffffffffffffffffffffffffffff163373ffffffffffffffffffffffffffffffffffffffff16146114f5576040517f08c379a00000000000000000000000000000000000000000000000000000000081526004016114ec90612380565b60405180910390fd5b8060035f8481526020019081526020015f2060010190816115169190611d2d565b505050565b60605f73ffffffffffffffffffffffffffffffffffffffff1660035f8481526020019081526020015f205f015f9054906101000a900473ffffffffffffffffffffffffffffffffffffffff1673ffffffffffffffffffffffffffffffffffffffff16036115bd576040517f08c379a00000000000000000000000000000000000000000000000000000000081526004016115b490611a87565b60405180910390fd5b60035f8381526020019081526020015f2060010180546115dc90611b60565b80601f016020809104026020016040519081016040528092919081815260200182805461160890611b60565b80156116535780601f1061162a57610100808354040283529160200191611653565b820191905f5260205f20905b81548152906001019060200180831161163657829003601f168201915b50505050509050919050565b5f805f9054906101000a900473ffffffffffffffffffffffffffffffffffffffff16905090565b5f604051905090565b5f80fd5b5f80fd5b5f819050919050565b6116a981611697565b81146116b3575f80fd5b50565b5f813590506116c4816116a0565b92915050565b5f80fd5b5f80fd5b5f601f19601f8301169050919050565b7f4e487b71000000000000000000000000000000000000000000000000000000005f52604160045260245ffd5b611718826116d2565b810181811067ffffffffffffffff82111715611737576117366116e2565b5b80604052505050565b5f611749611686565b9050611755828261170f565b919050565b5f67ffffffffffffffff821115611774576117736116e2565b5b61177d826116d2565b9050602081019050919050565b828183375f83830152505050565b5f6117aa6117a58461175a565b611740565b9050828152602081018484840111156117c6576117c56116ce565b5b6117d184828561178a565b509392505050565b5f82601f8301126117ed576117ec6116ca565b5b81356117fd848260208601611798565b91505092915050565b5f806040838503121561181c5761181b61168f565b5b5f611829858286016116b6565b925050602083013567ffffffffffffffff81111561184a57611849611693565b5b611856858286016117d9565b9150509250929050565b5f80604083850312156118765761187561168f565b5b5f611883858286016116b6565b9250506020611894858286016116b6565b9150509250929050565b5f602082840312156118b3576118b261168f565b5b5f6118c0848285016116b6565b91505092915050565b6118d281611697565b82525050565b5f6020820190506118eb5f8301846118c9565b92915050565b5f81519050919050565b5f82825260208201905092915050565b5f5b8381101561192857808201518184015260208101905061190d565b5f8484015250505050565b5f61193d826118f1565b61194781856118fb565b935061195781856020860161190b565b611960816116d2565b840191505092915050565b5f6020820190508181035f8301526119838184611933565b905092915050565b5f80604083850312156119a1576119a061168f565b5b5f83013567ffffffffffffffff8111156119be576119bd611693565b5b6119ca858286016117d9565b92505060206119db858286016116b6565b9150509250929050565b5f73ffffffffffffffffffffffffffffffffffffffff82169050919050565b5f611a0e826119e5565b9050919050565b611a1e81611a04565b82525050565b5f602082019050611a375f830184611a15565b92915050565b7f50726f6a65637420646f6573206e6f74206578697374000000000000000000005f82015250565b5f611a716016836118fb565b9150611a7c82611a3d565b602082019050919050565b5f6020820190508181035f830152611a9e81611a65565b9050919050565b7f4f6e6c7920746865206f776e65722063616e20736574207468652070726f6a655f8201527f6374206465736372697074696f6e000000000000000000000000000000000000602082015250565b5f611aff602e836118fb565b9150611b0a82611aa5565b604082019050919050565b5f6020820190508181035f830152611b2c81611af3565b9050919050565b7f4e487b71000000000000000000000000000000000000000000000000000000005f52602260045260245ffd5b5f6002820490506001821680611b7757607f821691505b602082108103611b8a57611b89611b33565b5b50919050565b5f819050815f5260205f209050919050565b5f6020601f8301049050919050565b5f82821b905092915050565b5f60088302611bec7fffffffffffffffffffffffffffffffffffffffffffffffffffffffffffffffff82611bb1565b611bf68683611bb1565b95508019841693508086168417925050509392505050565b5f819050919050565b5f611c31611c2c611c2784611697565b611c0e565b611697565b9050919050565b5f819050919050565b611c4a83611c17565b611c5e611c5682611c38565b848454611bbd565b825550505050565b5f90565b611c72611c66565b611c7d818484611c41565b505050565b5b81811015611ca057611c955f82611c6a565b600181019050611c83565b5050565b601f821115611ce557611cb681611b90565b611cbf84611ba2565b81016020851015611cce578190505b611ce2611cda85611ba2565b830182611c82565b50505b505050565b5f82821c905092915050565b5f611d055f1984600802611cea565b1980831691505092915050565b5f611d1d8383611cf6565b9150826002028217905092915050565b611d36826118f1565b67ffffffffffffffff811115611d4f57611d4e6116e2565b5b611d598254611b60565b611d64828285611ca4565b5f60209050601f831160018114611d95575f8415611d83578287015190505b611d8d8582611d12565b865550611df4565b601f198416611da386611b90565b5f5b82811015611dca57848901518255600182019150602085019450602081019050611da5565b86831015611de75784890151611de3601f891682611cf6565b8355505b6001600288020188555050505b505050505050565b7f4f6e6c7920746865206f776e65722063616e20736574207468652074617267655f8201527f7400000000000000000000000000000000000000000000000000000000000000602082015250565b5f611e566021836118fb565b9150611e6182611dfc565b604082019050919050565b5f6020820190508181035f830152611e8381611e4a565b9050919050565b7f5461726765742063616e6e6f7420626520726564756365642e000000000000005f82015250565b5f611ebe6019836118fb565b9150611ec982611e8a565b602082019050919050565b5f6020820190508181035f830152611eeb81611eb2565b9050919050565b7f50726f6a65637420686173207374696c6c206e6f7420657870697265640000005f82015250565b5f611f26601d836118fb565b9150611f3182611ef2565b602082019050919050565b5f6020820190508181035f830152611f5381611f1a565b9050919050565b7f50726f6a6563742068617320616c7265616479207265616368656420697473205f8201527f7461726765740000000000000000000000000000000000000000000000000000602082015250565b5f611fb46026836118fb565b9150611fbf82611f5a565b604082019050919050565b5f6020820190508181035f830152611fe181611fa8565b9050919050565b7f496e73756666696369656e742062616c616e63650000000000000000000000005f82015250565b5f61201c6014836118fb565b915061202782611fe8565b602082019050919050565b5f6020820190508181035f83015261204981612010565b9050919050565b7f4e487b71000000000000000000000000000000000000000000000000000000005f52601160045260245ffd5b5f61208782611697565b915061209283611697565b92508282039050818111156120aa576120a9612050565b5b92915050565b5f6120ba82611697565b91506120c583611697565b92508282026120d381611697565b915082820484148315176120ea576120e9612050565b5b5092915050565b5f6120fb82611697565b915061210683611697565b925082820190508082111561211e5761211d612050565b5b92915050565b7f546172676574206e6f74207965742073657400000000000000000000000000005f82015250565b5f6121586012836118fb565b915061216382612124565b602082019050919050565b5f6020820190508181035f8301526121858161214c565b9050919050565b7f50726f6a65637420686173206661696c656420746f20726561636820697473205f8201527f7461726765740000000000000000000000000000000000000000000000000000602082015250565b5f6121e66026836118fb565b91506121f18261218c565b604082019050919050565b5f6020820190508181035f830152612213816121da565b9050919050565b7f4f6e6c7920746865206f776e65722063616e20636c61696d20746865206d6f6e5f8201527f6579000000000000000000000000000000000000000000000000000000000000602082015250565b5f6122746022836118fb565b915061227f8261221a565b604082019050919050565b5f6020820190508181035f8301526122a181612268565b9050919050565b7f4e6f206d6f6e657920746f20636c61696d0000000000000000000000000000005f82015250565b5f6122dc6011836118fb565b91506122e7826122a8565b602082019050919050565b5f6020820190508181035f830152612309816122d0565b9050919050565b7f4f6e6c7920746865206f776e65722063616e20736574207468652070726f6a655f8201527f6374206e616d6500000000000000000000000000000000000000000000000000602082015250565b5f61236a6027836118fb565b915061237582612310565b604082019050919050565b5f6020820190508181035f8301526123978161235e565b905091905056fea26469706673582212201663307b156ec6246253c41adfe04bafdce640a9e47ddbc1f9e17daf7f2b8ee664736f6c63430008160033",
					"opcodes": "PUSH1 0x80 PUSH1 0x40 MSTORE PUSH0 PUSH1 0x2 SSTORE CALLVALUE DUP1 ISZERO PUSH2 0x13 JUMPI PUSH0 DUP1 REVERT JUMPDEST POP CALLER PUSH0 DUP1 PUSH2 0x100 EXP DUP2 SLOAD DUP2 PUSH20 0xFFFFFFFFFFFFFFFFFFFFFFFFFFFFFFFFFFFFFFFF MUL NOT AND SWAP1 DUP4 PUSH20 0xFFFFFFFFFFFFFFFFFFFFFFFFFFFFFFFFFFFFFFFF AND MUL OR SWAP1 SSTORE POP PUSH1 0x1 CALLER SWAP1 DUP1 PUSH1 0x1 DUP2 SLOAD ADD DUP1 DUP3 SSTORE DUP1 SWAP2 POP POP PUSH1 0x1 SWAP1 SUB SWAP1 PUSH0 MSTORE PUSH1 0x20 PUSH0 KECCAK256 ADD PUSH0 SWAP1 SWAP2 SWAP1 SWAP2 SWAP1 SWAP2 PUSH2 0x100 EXP DUP2 SLOAD DUP2 PUSH20 0xFFFFFFFFFFFFFFFFFFFFFFFFFFFFFFFFFFFFFFFF MUL NOT AND SWAP1 DUP4 PUSH20 0xFFFFFFFFFFFFFFFFFFFFFFFFFFFFFFFFFFFFFFFF AND MUL OR SWAP1 SSTORE POP PUSH2 0x23D4 DUP1 PUSH2 0xC0 PUSH0 CODECOPY PUSH0 RETURN INVALID PUSH1 0x80 PUSH1 0x40 MSTORE PUSH1 0x4 CALLDATASIZE LT PUSH2 0xE7 JUMPI PUSH0 CALLDATALOAD PUSH1 0xE0 SHR DUP1 PUSH4 0x91754A5D GT PUSH2 0x89 JUMPI DUP1 PUSH4 0xE6ACC7CD GT PUSH2 0x58 JUMPI DUP1 PUSH4 0xE6ACC7CD EQ PUSH2 0x2FD JUMPI DUP1 PUSH4 0xF0D53074 EQ PUSH2 0x339 JUMPI DUP1 PUSH4 0xF1FA906C EQ PUSH2 0x361 JUMPI DUP1 PUSH4 0xF8A8FD6D EQ PUSH2 0x39D JUMPI PUSH2 0xE7 JUMP JUMPDEST DUP1 PUSH4 0x91754A5D EQ PUSH2 0x241 JUMPI DUP1 PUSH4 0xB6B55F25 EQ PUSH2 0x27D JUMPI DUP1 PUSH4 0xC41A360A EQ PUSH2 0x299 JUMPI DUP1 PUSH4 0xD44EB910 EQ PUSH2 0x2D5 JUMPI PUSH2 0xE7 JUMP JUMPDEST DUP1 PUSH4 0x26030E57 GT PUSH2 0xC5 JUMPI DUP1 PUSH4 0x26030E57 EQ PUSH2 0x177 JUMPI DUP1 PUSH4 0x441A3E70 EQ PUSH2 0x1A1 JUMPI DUP1 PUSH4 0x52DB191F EQ PUSH2 0x1C9 JUMPI DUP1 PUSH4 0x845AB425 EQ PUSH2 0x205 JUMPI PUSH2 0xE7 JUMP JUMPDEST DUP1 PUSH4 0xC2E038A EQ PUSH2 0xEB JUMPI DUP1 PUSH4 0x1D0F2C99 EQ PUSH2 0x113 JUMPI DUP1 PUSH4 0x23B53BA6 EQ PUSH2 0x13B JUMPI JUMPDEST PUSH0 DUP1 REVERT JUMPDEST CALLVALUE DUP1 ISZERO PUSH2 0xF6 JUMPI PUSH0 DUP1 REVERT JUMPDEST POP PUSH2 0x111 PUSH1 0x4 DUP1 CALLDATASIZE SUB DUP2 ADD SWAP1 PUSH2 0x10C SWAP2 SWAP1 PUSH2 0x1806 JUMP JUMPDEST PUSH2 0x3C7 JUMP JUMPDEST STOP JUMPDEST CALLVALUE DUP1 ISZERO PUSH2 0x11E JUMPI PUSH0 DUP1 REVERT JUMPDEST POP PUSH2 0x139 PUSH1 0x4 DUP1 CALLDATASIZE SUB DUP2 ADD SWAP1 PUSH2 0x134 SWAP2 SWAP1 PUSH2 0x1860 JUMP JUMPDEST PUSH2 0x52D JUMP JUMPDEST STOP JUMPDEST CALLVALUE DUP1 ISZERO PUSH2 0x146 JUMPI PUSH0 DUP1 REVERT JUMPDEST POP PUSH2 0x161 PUSH1 0x4 DUP1 CALLDATASIZE SUB DUP2 ADD SWAP1 PUSH2 0x15C SWAP2 SWAP1 PUSH2 0x189E JUMP JUMPDEST PUSH2 0x71A JUMP JUMPDEST PUSH1 0x40 MLOAD PUSH2 0x16E SWAP2 SWAP1 PUSH2 0x18D8 JUMP JUMPDEST PUSH1 0x40 MLOAD DUP1 SWAP2 SUB SWAP1 RETURN JUMPDEST CALLVALUE DUP1 ISZERO PUSH2 0x182 JUMPI PUSH0 DUP1 REVERT JUMPDEST POP PUSH2 0x18B PUSH2 0x7D7 JUMP JUMPDEST PUSH1 0x40 MLOAD PUSH2 0x198 SWAP2 SWAP1 PUSH2 0x18D8 JUMP JUMPDEST PUSH1 0x40 MLOAD DUP1 SWAP2 SUB SWAP1 RETURN JUMPDEST CALLVALUE DUP1 ISZERO PUSH2 0x1AC JUMPI PUSH0 DUP1 REVERT JUMPDEST POP PUSH2 0x1C7 PUSH1 0x4 DUP1 CALLDATASIZE SUB DUP2 ADD SWAP1 PUSH2 0x1C2 SWAP2 SWAP1 PUSH2 0x1860 JUMP JUMPDEST PUSH2 0x7E0 JUMP JUMPDEST STOP JUMPDEST CALLVALUE DUP1 ISZERO PUSH2 0x1D4 JUMPI PUSH0 DUP1 REVERT JUMPDEST POP PUSH2 0x1EF PUSH1 0x4 DUP1 CALLDATASIZE SUB DUP2 ADD SWAP1 PUSH2 0x1EA SWAP2 SWAP1 PUSH2 0x189E JUMP JUMPDEST PUSH2 0xAAA JUMP JUMPDEST PUSH1 0x40 MLOAD PUSH2 0x1FC SWAP2 SWAP1 PUSH2 0x18D8 JUMP JUMPDEST PUSH1 0x40 MLOAD DUP1 SWAP2 SUB SWAP1 RETURN JUMPDEST CALLVALUE DUP1 ISZERO PUSH2 0x210 JUMPI PUSH0 DUP1 REVERT JUMPDEST POP PUSH2 0x22B PUSH1 0x4 DUP1 CALLDATASIZE SUB DUP2 ADD SWAP1 PUSH2 0x226 SWAP2 SWAP1 PUSH2 0x189E JUMP JUMPDEST PUSH2 0xB67 JUMP JUMPDEST PUSH1 0x40 MLOAD PUSH2 0x238 SWAP2 SWAP1 PUSH2 0x196B JUMP JUMPDEST PUSH1 0x40 MLOAD DUP1 SWAP2 SUB SWAP1 RETURN JUMPDEST CALLVALUE DUP1 ISZERO PUSH2 0x24C JUMPI PUSH0 DUP1 REVERT JUMPDEST POP PUSH2 0x267 PUSH1 0x4 DUP1 CALLDATASIZE SUB DUP2 ADD SWAP1 PUSH2 0x262 SWAP2 SWAP1 PUSH2 0x198B JUMP JUMPDEST PUSH2 0xCAB JUMP JUMPDEST PUSH1 0x40 MLOAD PUSH2 0x274 SWAP2 SWAP1 PUSH2 0x18D8 JUMP JUMPDEST PUSH1 0x40 MLOAD DUP1 SWAP2 SUB SWAP1 RETURN JUMPDEST PUSH2 0x297 PUSH1 0x4 DUP1 CALLDATASIZE SUB DUP2 ADD SWAP1 PUSH2 0x292 SWAP2 SWAP1 PUSH2 0x189E JUMP JUMPDEST PUSH2 0xD68 JUMP JUMPDEST STOP JUMPDEST CALLVALUE DUP1 ISZERO PUSH2 0x2A4 JUMPI PUSH0 DUP1 REVERT JUMPDEST POP PUSH2 0x2BF PUSH1 0x4 DUP1 CALLDATASIZE SUB DUP2 ADD SWAP1 PUSH2 0x2BA SWAP2 SWAP1 PUSH2 0x189E JUMP JUMPDEST PUSH2 0xF1A JUMP JUMPDEST PUSH1 0x40 MLOAD PUSH2 0x2CC SWAP2 SWAP1 PUSH2 0x1A24 JUMP JUMPDEST PUSH1 0x40 MLOAD DUP1 SWAP2 SUB SWAP1 RETURN JUMPDEST CALLVALUE DUP1 ISZERO PUSH2 0x2E0 JUMPI PUSH0 DUP1 REVERT JUMPDEST POP PUSH2 0x2FB PUSH1 0x4 DUP1 CALLDATASIZE SUB DUP2 ADD SWAP1 PUSH2 0x2F6 SWAP2 SWAP1 PUSH2 0x189E JUMP JUMPDEST PUSH2 0xFF5 JUMP JUMPDEST STOP JUMPDEST CALLVALUE DUP1 ISZERO PUSH2 0x308 JUMPI PUSH0 DUP1 REVERT JUMPDEST POP PUSH2 0x323 PUSH1 0x4 DUP1 CALLDATASIZE SUB DUP2 ADD SWAP1 PUSH2 0x31E SWAP2 SWAP1 PUSH2 0x189E JUMP JUMPDEST PUSH2 0x12F8 JUMP JUMPDEST PUSH1 0x40 MLOAD PUSH2 0x330 SWAP2 SWAP1 PUSH2 0x18D8 JUMP JUMPDEST PUSH1 0x40 MLOAD DUP1 SWAP2 SUB SWAP1 RETURN JUMPDEST CALLVALUE DUP1 ISZERO PUSH2 0x344 JUMPI PUSH0 DUP1 REVERT JUMPDEST POP PUSH2 0x35F PUSH1 0x4 DUP1 CALLDATASIZE SUB DUP2 ADD SWAP1 PUSH2 0x35A SWAP2 SWAP1 PUSH2 0x1806 JUMP JUMPDEST PUSH2 0x13B5 JUMP JUMPDEST STOP JUMPDEST CALLVALUE DUP1 ISZERO PUSH2 0x36C JUMPI PUSH0 DUP1 REVERT JUMPDEST POP PUSH2 0x387 PUSH1 0x4 DUP1 CALLDATASIZE SUB DUP2 ADD SWAP1 PUSH2 0x382 SWAP2 SWAP1 PUSH2 0x189E JUMP JUMPDEST PUSH2 0x151B JUMP JUMPDEST PUSH1 0x40 MLOAD PUSH2 0x394 SWAP2 SWAP1 PUSH2 0x196B JUMP JUMPDEST PUSH1 0x40 MLOAD DUP1 SWAP2 SUB SWAP1 RETURN JUMPDEST CALLVALUE DUP1 ISZERO PUSH2 0x3A8 JUMPI PUSH0 DUP1 REVERT JUMPDEST POP PUSH2 0x3B1 PUSH2 0x165F JUMP JUMPDEST PUSH1 0x40 MLOAD PUSH2 0x3BE SWAP2 SWAP1 PUSH2 0x1A24 JUMP JUMPDEST PUSH1 0x40 MLOAD DUP1 SWAP2 SUB SWAP1 RETURN JUMPDEST PUSH0 PUSH20 0xFFFFFFFFFFFFFFFFFFFFFFFFFFFFFFFFFFFFFFFF AND PUSH1 0x3 PUSH0 DUP5 DUP2 MSTORE PUSH1 0x20 ADD SWAP1 DUP2 MSTORE PUSH1 0x20 ADD PUSH0 KECCAK256 PUSH0 ADD PUSH0 SWAP1 SLOAD SWAP1 PUSH2 0x100 EXP SWAP1 DIV PUSH20 0xFFFFFFFFFFFFFFFFFFFFFFFFFFFFFFFFFFFFFFFF AND PUSH20 0xFFFFFFFFFFFFFFFFFFFFFFFFFFFFFFFFFFFFFFFF AND SUB PUSH2 0x467 JUMPI PUSH1 0x40 MLOAD PUSH32 0x8C379A000000000000000000000000000000000000000000000000000000000 DUP2 MSTORE PUSH1 0x4 ADD PUSH2 0x45E SWAP1 PUSH2 0x1A87 JUMP JUMPDEST PUSH1 0x40 MLOAD DUP1 SWAP2 SUB SWAP1 REVERT JUMPDEST PUSH1 0x3 PUSH0 DUP4 DUP2 MSTORE PUSH1 0x20 ADD SWAP1 DUP2 MSTORE PUSH1 0x20 ADD PUSH0 KECCAK256 PUSH0 ADD PUSH0 SWAP1 SLOAD SWAP1 PUSH2 0x100 EXP SWAP1 DIV PUSH20 0xFFFFFFFFFFFFFFFFFFFFFFFFFFFFFFFFFFFFFFFF AND PUSH20 0xFFFFFFFFFFFFFFFFFFFFFFFFFFFFFFFFFFFFFFFF AND CALLER PUSH20 0xFFFFFFFFFFFFFFFFFFFFFFFFFFFFFFFFFFFFFFFF AND EQ PUSH2 0x507 JUMPI PUSH1 0x40 MLOAD PUSH32 0x8C379A000000000000000000000000000000000000000000000000000000000 DUP2 MSTORE PUSH1 0x4 ADD PUSH2 0x4FE SWAP1 PUSH2 0x1B15 JUMP JUMPDEST PUSH1 0x40 MLOAD DUP1 SWAP2 SUB SWAP1 REVERT JUMPDEST DUP1 PUSH1 0x3 PUSH0 DUP5 DUP2 MSTORE PUSH1 0x20 ADD SWAP1 DUP2 MSTORE PUSH1 0x20 ADD PUSH0 KECCAK256 PUSH1 0x2 ADD SWAP1 DUP2 PUSH2 0x528 SWAP2 SWAP1 PUSH2 0x1D2D JUMP JUMPDEST POP POP POP JUMP JUMPDEST PUSH0 PUSH20 0xFFFFFFFFFFFFFFFFFFFFFFFFFFFFFFFFFFFFFFFF AND PUSH1 0x3 PUSH0 DUP5 DUP2 MSTORE PUSH1 0x20 ADD SWAP1 DUP2 MSTORE PUSH1 0x20 ADD PUSH0 KECCAK256 PUSH0 ADD PUSH0 SWAP1 SLOAD SWAP1 PUSH2 0x100 EXP SWAP1 DIV PUSH20 0xFFFFFFFFFFFFFFFFFFFFFFFFFFFFFFFFFFFFFFFF AND PUSH20 0xFFFFFFFFFFFFFFFFFFFFFFFFFFFFFFFFFFFFFFFF AND SUB PUSH2 0x5CD JUMPI PUSH1 0x40 MLOAD PUSH32 0x8C379A000000000000000000000000000000000000000000000000000000000 DUP2 MSTORE PUSH1 0x4 ADD PUSH2 0x5C4 SWAP1 PUSH2 0x1A87 JUMP JUMPDEST PUSH1 0x40 MLOAD DUP1 SWAP2 SUB SWAP1 REVERT JUMPDEST PUSH1 0x3 PUSH0 DUP4 DUP2 MSTORE PUSH1 0x20 ADD SWAP1 DUP2 MSTORE PUSH1 0x20 ADD PUSH0 KECCAK256 PUSH0 ADD PUSH0 SWAP1 SLOAD SWAP1 PUSH2 0x100 EXP SWAP1 DIV PUSH20 0xFFFFFFFFFFFFFFFFFFFFFFFFFFFFFFFFFFFFFFFF AND PUSH20 0xFFFFFFFFFFFFFFFFFFFFFFFFFFFFFFFFFFFFFFFF AND CALLER PUSH20 0xFFFFFFFFFFFFFFFFFFFFFFFFFFFFFFFFFFFFFFFF AND EQ PUSH2 0x66D JUMPI PUSH1 0x40 MLOAD PUSH32 0x8C379A000000000000000000000000000000000000000000000000000000000 DUP2 MSTORE PUSH1 0x4 ADD PUSH2 0x664 SWAP1 PUSH2 0x1E6C JUMP JUMPDEST PUSH1 0x40 MLOAD DUP1 SWAP2 SUB SWAP1 REVERT JUMPDEST PUSH0 PUSH1 0x3 PUSH0 DUP5 DUP2 MSTORE PUSH1 0x20 ADD SWAP1 DUP2 MSTORE PUSH1 0x20 ADD PUSH0 KECCAK256 PUSH1 0x3 ADD SLOAD SUB PUSH2 0x6A6 JUMPI DUP1 PUSH1 0x3 PUSH0 DUP5 DUP2 MSTORE PUSH1 0x20 ADD SWAP1 DUP2 MSTORE PUSH1 0x20 ADD PUSH0 KECCAK256 PUSH1 0x3 ADD DUP2 SWAP1 SSTORE POP PUSH2 0x716 JUMP JUMPDEST PUSH1 0x3 PUSH0 DUP4 DUP2 MSTORE PUSH1 0x20 ADD SWAP1 DUP2 MSTORE PUSH1 0x20 ADD PUSH0 KECCAK256 PUSH1 0x3 ADD SLOAD DUP2 GT PUSH2 0x6FC JUMPI PUSH1 0x40 MLOAD PUSH32 0x8C379A000000000000000000000000000000000000000000000000000000000 DUP2 MSTORE PUSH1 0x4 ADD PUSH2 0x6F3 SWAP1 PUSH2 0x1ED4 JUMP JUMPDEST PUSH1 0x40 MLOAD DUP1 SWAP2 SUB SWAP1 REVERT JUMPDEST DUP1 PUSH1 0x3 PUSH0 DUP5 DUP2 MSTORE PUSH1 0x20 ADD SWAP1 DUP2 MSTORE PUSH1 0x20 ADD PUSH0 KECCAK256 PUSH1 0x3 ADD DUP2 SWAP1 SSTORE POP JUMPDEST POP POP JUMP JUMPDEST PUSH0 DUP1 PUSH20 0xFFFFFFFFFFFFFFFFFFFFFFFFFFFFFFFFFFFFFFFF AND PUSH1 0x3 PUSH0 DUP5 DUP2 MSTORE PUSH1 0x20 ADD SWAP1 DUP2 MSTORE PUSH1 0x20 ADD PUSH0 KECCAK256 PUSH0 ADD PUSH0 SWAP1 SLOAD SWAP1 PUSH2 0x100 EXP SWAP1 DIV PUSH20 0xFFFFFFFFFFFFFFFFFFFFFFFFFFFFFFFFFFFFFFFF AND PUSH20 0xFFFFFFFFFFFFFFFFFFFFFFFFFFFFFFFFFFFFFFFF AND SUB PUSH2 0x7BB JUMPI PUSH1 0x40 MLOAD PUSH32 0x8C379A000000000000000000000000000000000000000000000000000000000 DUP2 MSTORE PUSH1 0x4 ADD PUSH2 0x7B2 SWAP1 PUSH2 0x1A87 JUMP JUMPDEST PUSH1 0x40 MLOAD DUP1 SWAP2 SUB SWAP1 REVERT JUMPDEST PUSH1 0x3 PUSH0 DUP4 DUP2 MSTORE PUSH1 0x20 ADD SWAP1 DUP2 MSTORE PUSH1 0x20 ADD PUSH0 KECCAK256 PUSH1 0x4 ADD SLOAD SWAP1 POP SWAP2 SWAP1 POP JUMP JUMPDEST PUSH0 PUSH1 0x2 SLOAD SWAP1 POP SWAP1 JUMP JUMPDEST PUSH0 PUSH20 0xFFFFFFFFFFFFFFFFFFFFFFFFFFFFFFFFFFFFFFFF AND PUSH1 0x3 PUSH0 DUP5 DUP2 MSTORE PUSH1 0x20 ADD SWAP1 DUP2 MSTORE PUSH1 0x20 ADD PUSH0 KECCAK256 PUSH0 ADD PUSH0 SWAP1 SLOAD SWAP1 PUSH2 0x100 EXP SWAP1 DIV PUSH20 0xFFFFFFFFFFFFFFFFFFFFFFFFFFFFFFFFFFFFFFFF AND PUSH20 0xFFFFFFFFFFFFFFFFFFFFFFFFFFFFFFFFFFFFFFFF AND SUB PUSH2 0x880 JUMPI PUSH1 0x40 MLOAD PUSH32 0x8C379A000000000000000000000000000000000000000000000000000000000 DUP2 MSTORE PUSH1 0x4 ADD PUSH2 0x877 SWAP1 PUSH2 0x1A87 JUMP JUMPDEST PUSH1 0x40 MLOAD DUP1 SWAP2 SUB SWAP1 REVERT JUMPDEST PUSH1 0x3 PUSH0 DUP4 DUP2 MSTORE PUSH1 0x20 ADD SWAP1 DUP2 MSTORE PUSH1 0x20 ADD PUSH0 KECCAK256 PUSH1 0x5 ADD SLOAD TIMESTAMP LT ISZERO PUSH2 0x8D7 JUMPI PUSH1 0x40 MLOAD PUSH32 0x8C379A000000000000000000000000000000000000000000000000000000000 DUP2 MSTORE PUSH1 0x4 ADD PUSH2 0x8CE SWAP1 PUSH2 0x1F3C JUMP JUMPDEST PUSH1 0x40 MLOAD DUP1 SWAP2 SUB SWAP1 REVERT JUMPDEST PUSH1 0x3 PUSH0 DUP4 DUP2 MSTORE PUSH1 0x20 ADD SWAP1 DUP2 MSTORE PUSH1 0x20 ADD PUSH0 KECCAK256 PUSH1 0x3 ADD SLOAD PUSH1 0x3 PUSH0 DUP5 DUP2 MSTORE PUSH1 0x20 ADD SWAP1 DUP2 MSTORE PUSH1 0x20 ADD PUSH0 KECCAK256 PUSH1 0x4 ADD SLOAD LT PUSH2 0x941 JUMPI PUSH1 0x40 MLOAD PUSH32 0x8C379A000000000000000000000000000000000000000000000000000000000 DUP2 MSTORE PUSH1 0x4 ADD PUSH2 0x938 SWAP1 PUSH2 0x1FCA JUMP JUMPDEST PUSH1 0x40 MLOAD DUP1 SWAP2 SUB SWAP1 REVERT JUMPDEST DUP1 PUSH1 0x3 PUSH0 DUP5 DUP2 MSTORE PUSH1 0x20 ADD SWAP1 DUP2 MSTORE PUSH1 0x20 ADD PUSH0 KECCAK256 PUSH1 0x7 ADD PUSH0 CALLER PUSH20 0xFFFFFFFFFFFFFFFFFFFFFFFFFFFFFFFFFFFFFFFF AND PUSH20 0xFFFFFFFFFFFFFFFFFFFFFFFFFFFFFFFFFFFFFFFF AND DUP2 MSTORE PUSH1 0x20 ADD SWAP1 DUP2 MSTORE PUSH1 0x20 ADD PUSH0 KECCAK256 SLOAD LT ISZERO PUSH2 0x9D3 JUMPI PUSH1 0x40 MLOAD PUSH32 0x8C379A000000000000000000000000000000000000000000000000000000000 DUP2 MSTORE PUSH1 0x4 ADD PUSH2 0x9CA SWAP1 PUSH2 0x2032 JUMP JUMPDEST PUSH1 0x40 MLOAD DUP1 SWAP2 SUB SWAP1 REVERT JUMPDEST DUP1 PUSH1 0x3 PUSH0 DUP5 DUP2 MSTORE PUSH1 0x20 ADD SWAP1 DUP2 MSTORE PUSH1 0x20 ADD PUSH0 KECCAK256 PUSH1 0x7 ADD PUSH0 CALLER PUSH20 0xFFFFFFFFFFFFFFFFFFFFFFFFFFFFFFFFFFFFFFFF AND PUSH20 0xFFFFFFFFFFFFFFFFFFFFFFFFFFFFFFFFFFFFFFFF AND DUP2 MSTORE PUSH1 0x20 ADD SWAP1 DUP2 MSTORE PUSH1 0x20 ADD PUSH0 KECCAK256 PUSH0 DUP3 DUP3 SLOAD PUSH2 0xA31 SWAP2 SWAP1 PUSH2 0x207D JUMP JUMPDEST SWAP3 POP POP DUP2 SWAP1 SSTORE POP DUP1 PUSH1 0x3 PUSH0 DUP5 DUP2 MSTORE PUSH1 0x20 ADD SWAP1 DUP2 MSTORE PUSH1 0x20 ADD PUSH0 KECCAK256 PUSH1 0x6 ADD PUSH0 DUP3 DUP3 SLOAD PUSH2 0xA5B SWAP2 SWAP1 PUSH2 0x207D JUMP JUMPDEST SWAP3 POP POP DUP2 SWAP1 SSTORE POP CALLER PUSH20 0xFFFFFFFFFFFFFFFFFFFFFFFFFFFFFFFFFFFFFFFF AND PUSH2 0x8FC DUP3 SWAP1 DUP2 ISZERO MUL SWAP1 PUSH1 0x40 MLOAD PUSH0 PUSH1 0x40 MLOAD DUP1 DUP4 SUB DUP2 DUP6 DUP9 DUP9 CALL SWAP4 POP POP POP POP ISZERO DUP1 ISZERO PUSH2 0xAA5 JUMPI RETURNDATASIZE PUSH0 DUP1 RETURNDATACOPY RETURNDATASIZE PUSH0 REVERT JUMPDEST POP POP POP JUMP JUMPDEST PUSH0 DUP1 PUSH20 0xFFFFFFFFFFFFFFFFFFFFFFFFFFFFFFFFFFFFFFFF AND PUSH1 0x3 PUSH0 DUP5 DUP2 MSTORE PUSH1 0x20 ADD SWAP1 DUP2 MSTORE PUSH1 0x20 ADD PUSH0 KECCAK256 PUSH0 ADD PUSH0 SWAP1 SLOAD SWAP1 PUSH2 0x100 EXP SWAP1 DIV PUSH20 0xFFFFFFFFFFFFFFFFFFFFFFFFFFFFFFFFFFFFFFFF AND PUSH20 0xFFFFFFFFFFFFFFFFFFFFFFFFFFFFFFFFFFFFFFFF AND SUB PUSH2 0xB4B JUMPI PUSH1 0x40 MLOAD PUSH32 0x8C379A000000000000000000000000000000000000000000000000000000000 DUP2 MSTORE PUSH1 0x4 ADD PUSH2 0xB42 SWAP1 PUSH2 0x1A87 JUMP JUMPDEST PUSH1 0x40 MLOAD DUP1 SWAP2 SUB SWAP1 REVERT JUMPDEST PUSH1 0x3 PUSH0 DUP4 DUP2 MSTORE PUSH1 0x20 ADD SWAP1 DUP2 MSTORE PUSH1 0x20 ADD PUSH0 KECCAK256 PUSH1 0x5 ADD SLOAD SWAP1 POP SWAP2 SWAP1 POP JUMP JUMPDEST PUSH1 0x60 PUSH0 PUSH20 0xFFFFFFFFFFFFFFFFFFFFFFFFFFFFFFFFFFFFFFFF AND PUSH1 0x3 PUSH0 DUP5 DUP2 MSTORE PUSH1 0x20 ADD SWAP1 DUP2 MSTORE PUSH1 0x20 ADD PUSH0 KECCAK256 PUSH0 ADD PUSH0 SWAP1 SLOAD SWAP1 PUSH2 0x100 EXP SWAP1 DIV PUSH20 0xFFFFFFFFFFFFFFFFFFFFFFFFFFFFFFFFFFFFFFFF AND PUSH20 0xFFFFFFFFFFFFFFFFFFFFFFFFFFFFFFFFFFFFFFFF AND SUB PUSH2 0xC09 JUMPI PUSH1 0x40 MLOAD PUSH32 0x8C379A000000000000000000000000000000000000000000000000000000000 DUP2 MSTORE PUSH1 0x4 ADD PUSH2 0xC00 SWAP1 PUSH2 0x1A87 JUMP JUMPDEST PUSH1 0x40 MLOAD DUP1 SWAP2 SUB SWAP1 REVERT JUMPDEST PUSH1 0x3 PUSH0 DUP4 DUP2 MSTORE PUSH1 0x20 ADD SWAP1 DUP2 MSTORE PUSH1 0x20 ADD PUSH0 KECCAK256 PUSH1 0x2 ADD DUP1 SLOAD PUSH2 0xC28 SWAP1 PUSH2 0x1B60 JUMP JUMPDEST DUP1 PUSH1 0x1F ADD PUSH1 0x20 DUP1 SWAP2 DIV MUL PUSH1 0x20 ADD PUSH1 0x40 MLOAD SWAP1 DUP2 ADD PUSH1 0x40 MSTORE DUP1 SWAP3 SWAP2 SWAP1 DUP2 DUP2 MSTORE PUSH1 0x20 ADD DUP3 DUP1 SLOAD PUSH2 0xC54 SWAP1 PUSH2 0x1B60 JUMP JUMPDEST DUP1 ISZERO PUSH2 0xC9F JUMPI DUP1 PUSH1 0x1F LT PUSH2 0xC76 JUMPI PUSH2 0x100 DUP1 DUP4 SLOAD DIV MUL DUP4 MSTORE SWAP2 PUSH1 0x20 ADD SWAP2 PUSH2 0xC9F JUMP JUMPDEST DUP3 ADD SWAP2 SWAP1 PUSH0 MSTORE PUSH1 0x20 PUSH0 KECCAK256 SWAP1 JUMPDEST DUP2 SLOAD DUP2 MSTORE SWAP1 PUSH1 0x1 ADD SWAP1 PUSH1 0x20 ADD DUP1 DUP4 GT PUSH2 0xC82 JUMPI DUP3 SWAP1 SUB PUSH1 0x1F AND DUP3 ADD SWAP2 JUMPDEST POP POP POP POP POP SWAP1 POP SWAP2 SWAP1 POP JUMP JUMPDEST PUSH0 DUP1 PUSH1 0x3 PUSH0 PUSH1 0x2 SLOAD DUP2 MSTORE PUSH1 0x20 ADD SWAP1 DUP2 MSTORE PUSH1 0x20 ADD PUSH0 KECCAK256 SWAP1 POP CALLER DUP2 PUSH0 ADD PUSH0 PUSH2 0x100 EXP DUP2 SLOAD DUP2 PUSH20 0xFFFFFFFFFFFFFFFFFFFFFFFFFFFFFFFFFFFFFFFF MUL NOT AND SWAP1 DUP4 PUSH20 0xFFFFFFFFFFFFFFFFFFFFFFFFFFFFFFFFFFFFFFFF AND MUL OR SWAP1 SSTORE POP DUP4 DUP2 PUSH1 0x1 ADD SWAP1 DUP2 PUSH2 0xD14 SWAP2 SWAP1 PUSH2 0x1D2D JUMP JUMPDEST POP PUSH3 0x15180 DUP4 PUSH2 0xD24 SWAP2 SWAP1 PUSH2 0x20B0 JUMP JUMPDEST TIMESTAMP PUSH2 0xD2F SWAP2 SWAP1 PUSH2 0x20F1 JUMP JUMPDEST DUP2 PUSH1 0x5 ADD DUP2 SWAP1 SSTORE POP PUSH1 0x1 PUSH1 0x2 PUSH0 DUP3 DUP3 SLOAD PUSH2 0xD49 SWAP2 SWAP1 PUSH2 0x20F1 JUMP JUMPDEST SWAP3 POP POP DUP2 SWAP1 SSTORE POP PUSH1 0x1 PUSH1 0x2 SLOAD PUSH2 0xD5F SWAP2 SWAP1 PUSH2 0x207D JUMP JUMPDEST SWAP2 POP POP SWAP3 SWAP2 POP POP JUMP JUMPDEST PUSH0 PUSH20 0xFFFFFFFFFFFFFFFFFFFFFFFFFFFFFFFFFFFFFFFF AND PUSH1 0x3 PUSH0 DUP4 DUP2 MSTORE PUSH1 0x20 ADD SWAP1 DUP2 MSTORE PUSH1 0x20 ADD PUSH0 KECCAK256 PUSH0 ADD PUSH0 SWAP1 SLOAD SWAP1 PUSH2 0x100 EXP SWAP1 DIV PUSH20 0xFFFFFFFFFFFFFFFFFFFFFFFFFFFFFFFFFFFFFFFF AND PUSH20 0xFFFFFFFFFFFFFFFFFFFFFFFFFFFFFFFFFFFFFFFF AND SUB PUSH2 0xE08 JUMPI PUSH1 0x40 MLOAD PUSH32 0x8C379A000000000000000000000000000000000000000000000000000000000 DUP2 MSTORE PUSH1 0x4 ADD PUSH2 0xDFF SWAP1 PUSH2 0x1A87 JUMP JUMPDEST PUSH1 0x40 MLOAD DUP1 SWAP2 SUB SWAP1 REVERT JUMPDEST PUSH0 PUSH1 0x3 PUSH0 DUP4 DUP2 MSTORE PUSH1 0x20 ADD SWAP1 DUP2 MSTORE PUSH1 0x20 ADD PUSH0 KECCAK256 PUSH1 0x3 ADD SLOAD SUB PUSH2 0xE5E JUMPI PUSH1 0x40 MLOAD PUSH32 0x8C379A000000000000000000000000000000000000000000000000000000000 DUP2 MSTORE PUSH1 0x4 ADD PUSH2 0xE55 SWAP1 PUSH2 0x216E JUMP JUMPDEST PUSH1 0x40 MLOAD DUP1 SWAP2 SUB SWAP1 REVERT JUMPDEST CALLVALUE PUSH1 0x3 PUSH0 DUP4 DUP2 MSTORE PUSH1 0x20 ADD SWAP1 DUP2 MSTORE PUSH1 0x20 ADD PUSH0 KECCAK256 PUSH1 0x7 ADD PUSH0 CALLER PUSH20 0xFFFFFFFFFFFFFFFFFFFFFFFFFFFFFFFFFFFFFFFF AND PUSH20 0xFFFFFFFFFFFFFFFFFFFFFFFFFFFFFFFFFFFFFFFF AND DUP2 MSTORE PUSH1 0x20 ADD SWAP1 DUP2 MSTORE PUSH1 0x20 ADD PUSH0 KECCAK256 PUSH0 DUP3 DUP3 SLOAD PUSH2 0xEBC SWAP2 SWAP1 PUSH2 0x20F1 JUMP JUMPDEST SWAP3 POP POP DUP2 SWAP1 SSTORE POP CALLVALUE PUSH1 0x3 PUSH0 DUP4 DUP2 MSTORE PUSH1 0x20 ADD SWAP1 DUP2 MSTORE PUSH1 0x20 ADD PUSH0 KECCAK256 PUSH1 0x4 ADD PUSH0 DUP3 DUP3 SLOAD PUSH2 0xEE6 SWAP2 SWAP1 PUSH2 0x20F1 JUMP JUMPDEST SWAP3 POP POP DUP2 SWAP1 SSTORE POP CALLVALUE PUSH1 0x3 PUSH0 DUP4 DUP2 MSTORE PUSH1 0x20 ADD SWAP1 DUP2 MSTORE PUSH1 0x20 ADD PUSH0 KECCAK256 PUSH1 0x6 ADD PUSH0 DUP3 DUP3 SLOAD PUSH2 0xF10 SWAP2 SWAP1 PUSH2 0x20F1 JUMP JUMPDEST SWAP3 POP POP DUP2 SWAP1 SSTORE POP POP JUMP JUMPDEST PUSH0 DUP1 PUSH20 0xFFFFFFFFFFFFFFFFFFFFFFFFFFFFFFFFFFFFFFFF AND PUSH1 0x3 PUSH0 DUP5 DUP2 MSTORE PUSH1 0x20 ADD SWAP1 DUP2 MSTORE PUSH1 0x20 ADD PUSH0 KECCAK256 PUSH0 ADD PUSH0 SWAP1 SLOAD SWAP1 PUSH2 0x100 EXP SWAP1 DIV PUSH20 0xFFFFFFFFFFFFFFFFFFFFFFFFFFFFFFFFFFFFFFFF AND PUSH20 0xFFFFFFFFFFFFFFFFFFFFFFFFFFFFFFFFFFFFFFFF AND SUB PUSH2 0xFBB JUMPI PUSH1 0x40 MLOAD PUSH32 0x8C379A000000000000000000000000000000000000000000000000000000000 DUP2 MSTORE PUSH1 0x4 ADD PUSH2 0xFB2 SWAP1 PUSH2 0x1A87 JUMP JUMPDEST PUSH1 0x40 MLOAD DUP1 SWAP2 SUB SWAP1 REVERT JUMPDEST PUSH1 0x3 PUSH0 DUP4 DUP2 MSTORE PUSH1 0x20 ADD SWAP1 DUP2 MSTORE PUSH1 0x20 ADD PUSH0 KECCAK256 PUSH0 ADD PUSH0 SWAP1 SLOAD SWAP1 PUSH2 0x100 EXP SWAP1 DIV PUSH20 0xFFFFFFFFFFFFFFFFFFFFFFFFFFFFFFFFFFFFFFFF AND SWAP1 POP SWAP2 SWAP1 POP JUMP JUMPDEST PUSH0 PUSH20 0xFFFFFFFFFFFFFFFFFFFFFFFFFFFFFFFFFFFFFFFF AND PUSH1 0x3 PUSH0 DUP4 DUP2 MSTORE PUSH1 0x20 ADD SWAP1 DUP2 MSTORE PUSH1 0x20 ADD PUSH0 KECCAK256 PUSH0 ADD PUSH0 SWAP1 SLOAD SWAP1 PUSH2 0x100 EXP SWAP1 DIV PUSH20 0xFFFFFFFFFFFFFFFFFFFFFFFFFFFFFFFFFFFFFFFF AND PUSH20 0xFFFFFFFFFFFFFFFFFFFFFFFFFFFFFFFFFFFFFFFF AND SUB PUSH2 0x1095 JUMPI PUSH1 0x40 MLOAD PUSH32 0x8C379A000000000000000000000000000000000000000000000000000000000 DUP2 MSTORE PUSH1 0x4 ADD PUSH2 0x108C SWAP1 PUSH2 0x1A87 JUMP JUMPDEST PUSH1 0x40 MLOAD DUP1 SWAP2 SUB SWAP1 REVERT JUMPDEST PUSH1 0x3 PUSH0 DUP3 DUP2 MSTORE PUSH1 0x20 ADD SWAP1 DUP2 MSTORE PUSH1 0x20 ADD PUSH0 KECCAK256 PUSH1 0x5 ADD SLOAD TIMESTAMP LT ISZERO PUSH2 0x10EC JUMPI PUSH1 0x40 MLOAD PUSH32 0x8C379A000000000000000000000000000000000000000000000000000000000 DUP2 MSTORE PUSH1 0x4 ADD PUSH2 0x10E3 SWAP1 PUSH2 0x1F3C JUMP JUMPDEST PUSH1 0x40 MLOAD DUP1 SWAP2 SUB SWAP1 REVERT JUMPDEST PUSH1 0x3 PUSH0 DUP3 DUP2 MSTORE PUSH1 0x20 ADD SWAP1 DUP2 MSTORE PUSH1 0x20 ADD PUSH0 KECCAK256 PUSH1 0x3 ADD SLOAD PUSH1 0x3 PUSH0 DUP4 DUP2 MSTORE PUSH1 0x20 ADD SWAP1 DUP2 MSTORE PUSH1 0x20 ADD PUSH0 KECCAK256 PUSH1 0x4 ADD SLOAD LT ISZERO PUSH2 0x1157 JUMPI PUSH1 0x40 MLOAD PUSH32 0x8C379A000000000000000000000000000000000000000000000000000000000 DUP2 MSTORE PUSH1 0x4 ADD PUSH2 0x114E SWAP1 PUSH2 0x21FC JUMP JUMPDEST PUSH1 0x40 MLOAD DUP1 SWAP2 SUB SWAP1 REVERT JUMPDEST PUSH1 0x3 PUSH0 DUP3 DUP2 MSTORE PUSH1 0x20 ADD SWAP1 DUP2 MSTORE PUSH1 0x20 ADD PUSH0 KECCAK256 PUSH0 ADD PUSH0 SWAP1 SLOAD SWAP1 PUSH2 0x100 EXP SWAP1 DIV PUSH20 0xFFFFFFFFFFFFFFFFFFFFFFFFFFFFFFFFFFFFFFFF AND PUSH20 0xFFFFFFFFFFFFFFFFFFFFFFFFFFFFFFFFFFFFFFFF AND CALLER PUSH20 0xFFFFFFFFFFFFFFFFFFFFFFFFFFFFFFFFFFFFFFFF AND EQ PUSH2 0x11F7 JUMPI PUSH1 0x40 MLOAD PUSH32 0x8C379A000000000000000000000000000000000000000000000000000000000 DUP2 MSTORE PUSH1 0x4 ADD PUSH2 0x11EE SWAP1 PUSH2 0x228A JUMP JUMPDEST PUSH1 0x40 MLOAD DUP1 SWAP2 SUB SWAP1 REVERT JUMPDEST PUSH0 PUSH1 0x3 PUSH0 DUP4 DUP2 MSTORE PUSH1 0x20 ADD SWAP1 DUP2 MSTORE PUSH1 0x20 ADD PUSH0 KECCAK256 PUSH1 0x6 ADD SLOAD GT PUSH2 0x124D JUMPI PUSH1 0x40 MLOAD PUSH32 0x8C379A000000000000000000000000000000000000000000000000000000000 DUP2 MSTORE PUSH1 0x4 ADD PUSH2 0x1244 SWAP1 PUSH2 0x22F2 JUMP JUMPDEST PUSH1 0x40 MLOAD DUP1 SWAP2 SUB SWAP1 REVERT JUMPDEST PUSH0 PUSH1 0x3 PUSH0 DUP4 DUP2 MSTORE PUSH1 0x20 ADD SWAP1 DUP2 MSTORE PUSH1 0x20 ADD PUSH0 KECCAK256 PUSH1 0x6 ADD SLOAD SWAP1 POP PUSH0 PUSH1 0x3 PUSH0 DUP5 DUP2 MSTORE PUSH1 0x20 ADD SWAP1 DUP2 MSTORE PUSH1 0x20 ADD PUSH0 KECCAK256 PUSH1 0x6 ADD DUP2 SWAP1 SSTORE POP PUSH1 0x3 PUSH0 DUP4 DUP2 MSTORE PUSH1 0x20 ADD SWAP1 DUP2 MSTORE PUSH1 0x20 ADD PUSH0 KECCAK256 PUSH0 ADD PUSH0 SWAP1 SLOAD SWAP1 PUSH2 0x100 EXP SWAP1 DIV PUSH20 0xFFFFFFFFFFFFFFFFFFFFFFFFFFFFFFFFFFFFFFFF AND PUSH20 0xFFFFFFFFFFFFFFFFFFFFFFFFFFFFFFFFFFFFFFFF AND PUSH2 0x8FC DUP3 SWAP1 DUP2 ISZERO MUL SWAP1 PUSH1 0x40 MLOAD PUSH0 PUSH1 0x40 MLOAD DUP1 DUP4 SUB DUP2 DUP6 DUP9 DUP9 CALL SWAP4 POP POP POP POP ISZERO DUP1 ISZERO PUSH2 0x12F3 JUMPI RETURNDATASIZE PUSH0 DUP1 RETURNDATACOPY RETURNDATASIZE PUSH0 REVERT JUMPDEST POP POP POP JUMP JUMPDEST PUSH0 DUP1 PUSH20 0xFFFFFFFFFFFFFFFFFFFFFFFFFFFFFFFFFFFFFFFF AND PUSH1 0x3 PUSH0 DUP5 DUP2 MSTORE PUSH1 0x20 ADD SWAP1 DUP2 MSTORE PUSH1 0x20 ADD PUSH0 KECCAK256 PUSH0 ADD PUSH0 SWAP1 SLOAD SWAP1 PUSH2 0x100 EXP SWAP1 DIV PUSH20 0xFFFFFFFFFFFFFFFFFFFFFFFFFFFFFFFFFFFFFFFF AND PUSH20 0xFFFFFFFFFFFFFFFFFFFFFFFFFFFFFFFFFFFFFFFF AND SUB PUSH2 0x1399 JUMPI PUSH1 0x40 MLOAD PUSH32 0x8C379A000000000000000000000000000000000000000000000000000000000 DUP2 MSTORE PUSH1 0x4 ADD PUSH2 0x1390 SWAP1 PUSH2 0x1A87 JUMP JUMPDEST PUSH1 0x40 MLOAD DUP1 SWAP2 SUB SWAP1 REVERT JUMPDEST PUSH1 0x3 PUSH0 DUP4 DUP2 MSTORE PUSH1 0x20 ADD SWAP1 DUP2 MSTORE PUSH1 0x20 ADD PUSH0 KECCAK256 PUSH1 0x3 ADD SLOAD SWAP1 POP SWAP2 SWAP1 POP JUMP JUMPDEST PUSH0 PUSH20 0xFFFFFFFFFFFFFFFFFFFFFFFFFFFFFFFFFFFFFFFF AND PUSH1 0x3 PUSH0 DUP5 DUP2 MSTORE PUSH1 0x20 ADD SWAP1 DUP2 MSTORE PUSH1 0x20 ADD PUSH0 KECCAK256 PUSH0 ADD PUSH0 SWAP1 SLOAD SWAP1 PUSH2 0x100 EXP SWAP1 DIV PUSH20 0xFFFFFFFFFFFFFFFFFFFFFFFFFFFFFFFFFFFFFFFF AND PUSH20 0xFFFFFFFFFFFFFFFFFFFFFFFFFFFFFFFFFFFFFFFF AND SUB PUSH2 0x1455 JUMPI PUSH1 0x40 MLOAD PUSH32 0x8C379A000000000000000000000000000000000000000000000000000000000 DUP2 MSTORE PUSH1 0x4 ADD PUSH2 0x144C SWAP1 PUSH2 0x1A87 JUMP JUMPDEST PUSH1 0x40 MLOAD DUP1 SWAP2 SUB SWAP1 REVERT JUMPDEST PUSH1 0x3 PUSH0 DUP4 DUP2 MSTORE PUSH1 0x20 ADD SWAP1 DUP2 MSTORE PUSH1 0x20 ADD PUSH0 KECCAK256 PUSH0 ADD PUSH0 SWAP1 SLOAD SWAP1 PUSH2 0x100 EXP SWAP1 DIV PUSH20 0xFFFFFFFFFFFFFFFFFFFFFFFFFFFFFFFFFFFFFFFF AND PUSH20 0xFFFFFFFFFFFFFFFFFFFFFFFFFFFFFFFFFFFFFFFF AND CALLER PUSH20 0xFFFFFFFFFFFFFFFFFFFFFFFFFFFFFFFFFFFFFFFF AND EQ PUSH2 0x14F5 JUMPI PUSH1 0x40 MLOAD PUSH32 0x8C379A000000000000000000000000000000000000000000000000000000000 DUP2 MSTORE PUSH1 0x4 ADD PUSH2 0x14EC SWAP1 PUSH2 0x2380 JUMP JUMPDEST PUSH1 0x40 MLOAD DUP1 SWAP2 SUB SWAP1 REVERT JUMPDEST DUP1 PUSH1 0x3 PUSH0 DUP5 DUP2 MSTORE PUSH1 0x20 ADD SWAP1 DUP2 MSTORE PUSH1 0x20 ADD PUSH0 KECCAK256 PUSH1 0x1 ADD SWAP1 DUP2 PUSH2 0x1516 SWAP2 SWAP1 PUSH2 0x1D2D JUMP JUMPDEST POP POP POP JUMP JUMPDEST PUSH1 0x60 PUSH0 PUSH20 0xFFFFFFFFFFFFFFFFFFFFFFFFFFFFFFFFFFFFFFFF AND PUSH1 0x3 PUSH0 DUP5 DUP2 MSTORE PUSH1 0x20 ADD SWAP1 DUP2 MSTORE PUSH1 0x20 ADD PUSH0 KECCAK256 PUSH0 ADD PUSH0 SWAP1 SLOAD SWAP1 PUSH2 0x100 EXP SWAP1 DIV PUSH20 0xFFFFFFFFFFFFFFFFFFFFFFFFFFFFFFFFFFFFFFFF AND PUSH20 0xFFFFFFFFFFFFFFFFFFFFFFFFFFFFFFFFFFFFFFFF AND SUB PUSH2 0x15BD JUMPI PUSH1 0x40 MLOAD PUSH32 0x8C379A000000000000000000000000000000000000000000000000000000000 DUP2 MSTORE PUSH1 0x4 ADD PUSH2 0x15B4 SWAP1 PUSH2 0x1A87 JUMP JUMPDEST PUSH1 0x40 MLOAD DUP1 SWAP2 SUB SWAP1 REVERT JUMPDEST PUSH1 0x3 PUSH0 DUP4 DUP2 MSTORE PUSH1 0x20 ADD SWAP1 DUP2 MSTORE PUSH1 0x20 ADD PUSH0 KECCAK256 PUSH1 0x1 ADD DUP1 SLOAD PUSH2 0x15DC SWAP1 PUSH2 0x1B60 JUMP JUMPDEST DUP1 PUSH1 0x1F ADD PUSH1 0x20 DUP1 SWAP2 DIV MUL PUSH1 0x20 ADD PUSH1 0x40 MLOAD SWAP1 DUP2 ADD PUSH1 0x40 MSTORE DUP1 SWAP3 SWAP2 SWAP1 DUP2 DUP2 MSTORE PUSH1 0x20 ADD DUP3 DUP1 SLOAD PUSH2 0x1608 SWAP1 PUSH2 0x1B60 JUMP JUMPDEST DUP1 ISZERO PUSH2 0x1653 JUMPI DUP1 PUSH1 0x1F LT PUSH2 0x162A JUMPI PUSH2 0x100 DUP1 DUP4 SLOAD DIV MUL DUP4 MSTORE SWAP2 PUSH1 0x20 ADD SWAP2 PUSH2 0x1653 JUMP JUMPDEST DUP3 ADD SWAP2 SWAP1 PUSH0 MSTORE PUSH1 0x20 PUSH0 KECCAK256 SWAP1 JUMPDEST DUP2 SLOAD DUP2 MSTORE SWAP1 PUSH1 0x1 ADD SWAP1 PUSH1 0x20 ADD DUP1 DUP4 GT PUSH2 0x1636 JUMPI DUP3 SWAP1 SUB PUSH1 0x1F AND DUP3 ADD SWAP2 JUMPDEST POP POP POP POP POP SWAP1 POP SWAP2 SWAP1 POP JUMP JUMPDEST PUSH0 DUP1 PUSH0 SWAP1 SLOAD SWAP1 PUSH2 0x100 EXP SWAP1 DIV PUSH20 0xFFFFFFFFFFFFFFFFFFFFFFFFFFFFFFFFFFFFFFFF AND SWAP1 POP SWAP1 JUMP JUMPDEST PUSH0 PUSH1 0x40 MLOAD SWAP1 POP SWAP1 JUMP JUMPDEST PUSH0 DUP1 REVERT JUMPDEST PUSH0 DUP1 REVERT JUMPDEST PUSH0 DUP2 SWAP1 POP SWAP2 SWAP1 POP JUMP JUMPDEST PUSH2 0x16A9 DUP2 PUSH2 0x1697 JUMP JUMPDEST DUP2 EQ PUSH2 0x16B3 JUMPI PUSH0 DUP1 REVERT JUMPDEST POP JUMP JUMPDEST PUSH0 DUP2 CALLDATALOAD SWAP1 POP PUSH2 0x16C4 DUP2 PUSH2 0x16A0 JUMP JUMPDEST SWAP3 SWAP2 POP POP JUMP JUMPDEST PUSH0 DUP1 REVERT JUMPDEST PUSH0 DUP1 REVERT JUMPDEST PUSH0 PUSH1 0x1F NOT PUSH1 0x1F DUP4 ADD AND SWAP1 POP SWAP2 SWAP1 POP JUMP JUMPDEST PUSH32 0x4E487B7100000000000000000000000000000000000000000000000000000000 PUSH0 MSTORE PUSH1 0x41 PUSH1 0x4 MSTORE PUSH1 0x24 PUSH0 REVERT JUMPDEST PUSH2 0x1718 DUP3 PUSH2 0x16D2 JUMP JUMPDEST DUP2 ADD DUP2 DUP2 LT PUSH8 0xFFFFFFFFFFFFFFFF DUP3 GT OR ISZERO PUSH2 0x1737 JUMPI PUSH2 0x1736 PUSH2 0x16E2 JUMP JUMPDEST JUMPDEST DUP1 PUSH1 0x40 MSTORE POP POP POP JUMP JUMPDEST PUSH0 PUSH2 0x1749 PUSH2 0x1686 JUMP JUMPDEST SWAP1 POP PUSH2 0x1755 DUP3 DUP3 PUSH2 0x170F JUMP JUMPDEST SWAP2 SWAP1 POP JUMP JUMPDEST PUSH0 PUSH8 0xFFFFFFFFFFFFFFFF DUP3 GT ISZERO PUSH2 0x1774 JUMPI PUSH2 0x1773 PUSH2 0x16E2 JUMP JUMPDEST JUMPDEST PUSH2 0x177D DUP3 PUSH2 0x16D2 JUMP JUMPDEST SWAP1 POP PUSH1 0x20 DUP2 ADD SWAP1 POP SWAP2 SWAP1 POP JUMP JUMPDEST DUP3 DUP2 DUP4 CALLDATACOPY PUSH0 DUP4 DUP4 ADD MSTORE POP POP POP JUMP JUMPDEST PUSH0 PUSH2 0x17AA PUSH2 0x17A5 DUP5 PUSH2 0x175A JUMP JUMPDEST PUSH2 0x1740 JUMP JUMPDEST SWAP1 POP DUP3 DUP2 MSTORE PUSH1 0x20 DUP2 ADD DUP5 DUP5 DUP5 ADD GT ISZERO PUSH2 0x17C6 JUMPI PUSH2 0x17C5 PUSH2 0x16CE JUMP JUMPDEST JUMPDEST PUSH2 0x17D1 DUP5 DUP3 DUP6 PUSH2 0x178A JUMP JUMPDEST POP SWAP4 SWAP3 POP POP POP JUMP JUMPDEST PUSH0 DUP3 PUSH1 0x1F DUP4 ADD SLT PUSH2 0x17ED JUMPI PUSH2 0x17EC PUSH2 0x16CA JUMP JUMPDEST JUMPDEST DUP2 CALLDATALOAD PUSH2 0x17FD DUP5 DUP3 PUSH1 0x20 DUP7 ADD PUSH2 0x1798 JUMP JUMPDEST SWAP2 POP POP SWAP3 SWAP2 POP POP JUMP JUMPDEST PUSH0 DUP1 PUSH1 0x40 DUP4 DUP6 SUB SLT ISZERO PUSH2 0x181C JUMPI PUSH2 0x181B PUSH2 0x168F JUMP JUMPDEST JUMPDEST PUSH0 PUSH2 0x1829 DUP6 DUP3 DUP7 ADD PUSH2 0x16B6 JUMP JUMPDEST SWAP3 POP POP PUSH1 0x20 DUP4 ADD CALLDATALOAD PUSH8 0xFFFFFFFFFFFFFFFF DUP2 GT ISZERO PUSH2 0x184A JUMPI PUSH2 0x1849 PUSH2 0x1693 JUMP JUMPDEST JUMPDEST PUSH2 0x1856 DUP6 DUP3 DUP7 ADD PUSH2 0x17D9 JUMP JUMPDEST SWAP2 POP POP SWAP3 POP SWAP3 SWAP1 POP JUMP JUMPDEST PUSH0 DUP1 PUSH1 0x40 DUP4 DUP6 SUB SLT ISZERO PUSH2 0x1876 JUMPI PUSH2 0x1875 PUSH2 0x168F JUMP JUMPDEST JUMPDEST PUSH0 PUSH2 0x1883 DUP6 DUP3 DUP7 ADD PUSH2 0x16B6 JUMP JUMPDEST SWAP3 POP POP PUSH1 0x20 PUSH2 0x1894 DUP6 DUP3 DUP7 ADD PUSH2 0x16B6 JUMP JUMPDEST SWAP2 POP POP SWAP3 POP SWAP3 SWAP1 POP JUMP JUMPDEST PUSH0 PUSH1 0x20 DUP3 DUP5 SUB SLT ISZERO PUSH2 0x18B3 JUMPI PUSH2 0x18B2 PUSH2 0x168F JUMP JUMPDEST JUMPDEST PUSH0 PUSH2 0x18C0 DUP5 DUP3 DUP6 ADD PUSH2 0x16B6 JUMP JUMPDEST SWAP2 POP POP SWAP3 SWAP2 POP POP JUMP JUMPDEST PUSH2 0x18D2 DUP2 PUSH2 0x1697 JUMP JUMPDEST DUP3 MSTORE POP POP JUMP JUMPDEST PUSH0 PUSH1 0x20 DUP3 ADD SWAP1 POP PUSH2 0x18EB PUSH0 DUP4 ADD DUP5 PUSH2 0x18C9 JUMP JUMPDEST SWAP3 SWAP2 POP POP JUMP JUMPDEST PUSH0 DUP2 MLOAD SWAP1 POP SWAP2 SWAP1 POP JUMP JUMPDEST PUSH0 DUP3 DUP3 MSTORE PUSH1 0x20 DUP3 ADD SWAP1 POP SWAP3 SWAP2 POP POP JUMP JUMPDEST PUSH0 JUMPDEST DUP4 DUP2 LT ISZERO PUSH2 0x1928 JUMPI DUP1 DUP3 ADD MLOAD DUP2 DUP5 ADD MSTORE PUSH1 0x20 DUP2 ADD SWAP1 POP PUSH2 0x190D JUMP JUMPDEST PUSH0 DUP5 DUP5 ADD MSTORE POP POP POP POP JUMP JUMPDEST PUSH0 PUSH2 0x193D DUP3 PUSH2 0x18F1 JUMP JUMPDEST PUSH2 0x1947 DUP2 DUP6 PUSH2 0x18FB JUMP JUMPDEST SWAP4 POP PUSH2 0x1957 DUP2 DUP6 PUSH1 0x20 DUP7 ADD PUSH2 0x190B JUMP JUMPDEST PUSH2 0x1960 DUP2 PUSH2 0x16D2 JUMP JUMPDEST DUP5 ADD SWAP2 POP POP SWAP3 SWAP2 POP POP JUMP JUMPDEST PUSH0 PUSH1 0x20 DUP3 ADD SWAP1 POP DUP2 DUP2 SUB PUSH0 DUP4 ADD MSTORE PUSH2 0x1983 DUP2 DUP5 PUSH2 0x1933 JUMP JUMPDEST SWAP1 POP SWAP3 SWAP2 POP POP JUMP JUMPDEST PUSH0 DUP1 PUSH1 0x40 DUP4 DUP6 SUB SLT ISZERO PUSH2 0x19A1 JUMPI PUSH2 0x19A0 PUSH2 0x168F JUMP JUMPDEST JUMPDEST PUSH0 DUP4 ADD CALLDATALOAD PUSH8 0xFFFFFFFFFFFFFFFF DUP2 GT ISZERO PUSH2 0x19BE JUMPI PUSH2 0x19BD PUSH2 0x1693 JUMP JUMPDEST JUMPDEST PUSH2 0x19CA DUP6 DUP3 DUP7 ADD PUSH2 0x17D9 JUMP JUMPDEST SWAP3 POP POP PUSH1 0x20 PUSH2 0x19DB DUP6 DUP3 DUP7 ADD PUSH2 0x16B6 JUMP JUMPDEST SWAP2 POP POP SWAP3 POP SWAP3 SWAP1 POP JUMP JUMPDEST PUSH0 PUSH20 0xFFFFFFFFFFFFFFFFFFFFFFFFFFFFFFFFFFFFFFFF DUP3 AND SWAP1 POP SWAP2 SWAP1 POP JUMP JUMPDEST PUSH0 PUSH2 0x1A0E DUP3 PUSH2 0x19E5 JUMP JUMPDEST SWAP1 POP SWAP2 SWAP1 POP JUMP JUMPDEST PUSH2 0x1A1E DUP2 PUSH2 0x1A04 JUMP JUMPDEST DUP3 MSTORE POP POP JUMP JUMPDEST PUSH0 PUSH1 0x20 DUP3 ADD SWAP1 POP PUSH2 0x1A37 PUSH0 DUP4 ADD DUP5 PUSH2 0x1A15 JUMP JUMPDEST SWAP3 SWAP2 POP POP JUMP JUMPDEST PUSH32 0x50726F6A65637420646F6573206E6F7420657869737400000000000000000000 PUSH0 DUP3 ADD MSTORE POP JUMP JUMPDEST PUSH0 PUSH2 0x1A71 PUSH1 0x16 DUP4 PUSH2 0x18FB JUMP JUMPDEST SWAP2 POP PUSH2 0x1A7C DUP3 PUSH2 0x1A3D JUMP JUMPDEST PUSH1 0x20 DUP3 ADD SWAP1 POP SWAP2 SWAP1 POP JUMP JUMPDEST PUSH0 PUSH1 0x20 DUP3 ADD SWAP1 POP DUP2 DUP2 SUB PUSH0 DUP4 ADD MSTORE PUSH2 0x1A9E DUP2 PUSH2 0x1A65 JUMP JUMPDEST SWAP1 POP SWAP2 SWAP1 POP JUMP JUMPDEST PUSH32 0x4F6E6C7920746865206F776E65722063616E20736574207468652070726F6A65 PUSH0 DUP3 ADD MSTORE PUSH32 0x6374206465736372697074696F6E000000000000000000000000000000000000 PUSH1 0x20 DUP3 ADD MSTORE POP JUMP JUMPDEST PUSH0 PUSH2 0x1AFF PUSH1 0x2E DUP4 PUSH2 0x18FB JUMP JUMPDEST SWAP2 POP PUSH2 0x1B0A DUP3 PUSH2 0x1AA5 JUMP JUMPDEST PUSH1 0x40 DUP3 ADD SWAP1 POP SWAP2 SWAP1 POP JUMP JUMPDEST PUSH0 PUSH1 0x20 DUP3 ADD SWAP1 POP DUP2 DUP2 SUB PUSH0 DUP4 ADD MSTORE PUSH2 0x1B2C DUP2 PUSH2 0x1AF3 JUMP JUMPDEST SWAP1 POP SWAP2 SWAP1 POP JUMP JUMPDEST PUSH32 0x4E487B7100000000000000000000000000000000000000000000000000000000 PUSH0 MSTORE PUSH1 0x22 PUSH1 0x4 MSTORE PUSH1 0x24 PUSH0 REVERT JUMPDEST PUSH0 PUSH1 0x2 DUP3 DIV SWAP1 POP PUSH1 0x1 DUP3 AND DUP1 PUSH2 0x1B77 JUMPI PUSH1 0x7F DUP3 AND SWAP2 POP JUMPDEST PUSH1 0x20 DUP3 LT DUP2 SUB PUSH2 0x1B8A JUMPI PUSH2 0x1B89 PUSH2 0x1B33 JUMP JUMPDEST JUMPDEST POP SWAP2 SWAP1 POP JUMP JUMPDEST PUSH0 DUP2 SWAP1 POP DUP2 PUSH0 MSTORE PUSH1 0x20 PUSH0 KECCAK256 SWAP1 POP SWAP2 SWAP1 POP JUMP JUMPDEST PUSH0 PUSH1 0x20 PUSH1 0x1F DUP4 ADD DIV SWAP1 POP SWAP2 SWAP1 POP JUMP JUMPDEST PUSH0 DUP3 DUP3 SHL SWAP1 POP SWAP3 SWAP2 POP POP JUMP JUMPDEST PUSH0 PUSH1 0x8 DUP4 MUL PUSH2 0x1BEC PUSH32 0xFFFFFFFFFFFFFFFFFFFFFFFFFFFFFFFFFFFFFFFFFFFFFFFFFFFFFFFFFFFFFFFF DUP3 PUSH2 0x1BB1 JUMP JUMPDEST PUSH2 0x1BF6 DUP7 DUP4 PUSH2 0x1BB1 JUMP JUMPDEST SWAP6 POP DUP1 NOT DUP5 AND SWAP4 POP DUP1 DUP7 AND DUP5 OR SWAP3 POP POP POP SWAP4 SWAP3 POP POP POP JUMP JUMPDEST PUSH0 DUP2 SWAP1 POP SWAP2 SWAP1 POP JUMP JUMPDEST PUSH0 PUSH2 0x1C31 PUSH2 0x1C2C PUSH2 0x1C27 DUP5 PUSH2 0x1697 JUMP JUMPDEST PUSH2 0x1C0E JUMP JUMPDEST PUSH2 0x1697 JUMP JUMPDEST SWAP1 POP SWAP2 SWAP1 POP JUMP JUMPDEST PUSH0 DUP2 SWAP1 POP SWAP2 SWAP1 POP JUMP JUMPDEST PUSH2 0x1C4A DUP4 PUSH2 0x1C17 JUMP JUMPDEST PUSH2 0x1C5E PUSH2 0x1C56 DUP3 PUSH2 0x1C38 JUMP JUMPDEST DUP5 DUP5 SLOAD PUSH2 0x1BBD JUMP JUMPDEST DUP3 SSTORE POP POP POP POP JUMP JUMPDEST PUSH0 SWAP1 JUMP JUMPDEST PUSH2 0x1C72 PUSH2 0x1C66 JUMP JUMPDEST PUSH2 0x1C7D DUP2 DUP5 DUP5 PUSH2 0x1C41 JUMP JUMPDEST POP POP POP JUMP JUMPDEST JUMPDEST DUP2 DUP2 LT ISZERO PUSH2 0x1CA0 JUMPI PUSH2 0x1C95 PUSH0 DUP3 PUSH2 0x1C6A JUMP JUMPDEST PUSH1 0x1 DUP2 ADD SWAP1 POP PUSH2 0x1C83 JUMP JUMPDEST POP POP JUMP JUMPDEST PUSH1 0x1F DUP3 GT ISZERO PUSH2 0x1CE5 JUMPI PUSH2 0x1CB6 DUP2 PUSH2 0x1B90 JUMP JUMPDEST PUSH2 0x1CBF DUP5 PUSH2 0x1BA2 JUMP JUMPDEST DUP2 ADD PUSH1 0x20 DUP6 LT ISZERO PUSH2 0x1CCE JUMPI DUP2 SWAP1 POP JUMPDEST PUSH2 0x1CE2 PUSH2 0x1CDA DUP6 PUSH2 0x1BA2 JUMP JUMPDEST DUP4 ADD DUP3 PUSH2 0x1C82 JUMP JUMPDEST POP POP JUMPDEST POP POP POP JUMP JUMPDEST PUSH0 DUP3 DUP3 SHR SWAP1 POP SWAP3 SWAP2 POP POP JUMP JUMPDEST PUSH0 PUSH2 0x1D05 PUSH0 NOT DUP5 PUSH1 0x8 MUL PUSH2 0x1CEA JUMP JUMPDEST NOT DUP1 DUP4 AND SWAP2 POP POP SWAP3 SWAP2 POP POP JUMP JUMPDEST PUSH0 PUSH2 0x1D1D DUP4 DUP4 PUSH2 0x1CF6 JUMP JUMPDEST SWAP2 POP DUP3 PUSH1 0x2 MUL DUP3 OR SWAP1 POP SWAP3 SWAP2 POP POP JUMP JUMPDEST PUSH2 0x1D36 DUP3 PUSH2 0x18F1 JUMP JUMPDEST PUSH8 0xFFFFFFFFFFFFFFFF DUP2 GT ISZERO PUSH2 0x1D4F JUMPI PUSH2 0x1D4E PUSH2 0x16E2 JUMP JUMPDEST JUMPDEST PUSH2 0x1D59 DUP3 SLOAD PUSH2 0x1B60 JUMP JUMPDEST PUSH2 0x1D64 DUP3 DUP3 DUP6 PUSH2 0x1CA4 JUMP JUMPDEST PUSH0 PUSH1 0x20 SWAP1 POP PUSH1 0x1F DUP4 GT PUSH1 0x1 DUP2 EQ PUSH2 0x1D95 JUMPI PUSH0 DUP5 ISZERO PUSH2 0x1D83 JUMPI DUP3 DUP8 ADD MLOAD SWAP1 POP JUMPDEST PUSH2 0x1D8D DUP6 DUP3 PUSH2 0x1D12 JUMP JUMPDEST DUP7 SSTORE POP PUSH2 0x1DF4 JUMP JUMPDEST PUSH1 0x1F NOT DUP5 AND PUSH2 0x1DA3 DUP7 PUSH2 0x1B90 JUMP JUMPDEST PUSH0 JUMPDEST DUP3 DUP2 LT ISZERO PUSH2 0x1DCA JUMPI DUP5 DUP10 ADD MLOAD DUP3 SSTORE PUSH1 0x1 DUP3 ADD SWAP2 POP PUSH1 0x20 DUP6 ADD SWAP5 POP PUSH1 0x20 DUP2 ADD SWAP1 POP PUSH2 0x1DA5 JUMP JUMPDEST DUP7 DUP4 LT ISZERO PUSH2 0x1DE7 JUMPI DUP5 DUP10 ADD MLOAD PUSH2 0x1DE3 PUSH1 0x1F DUP10 AND DUP3 PUSH2 0x1CF6 JUMP JUMPDEST DUP4 SSTORE POP JUMPDEST PUSH1 0x1 PUSH1 0x2 DUP9 MUL ADD DUP9 SSTORE POP POP POP JUMPDEST POP POP POP POP POP POP JUMP JUMPDEST PUSH32 0x4F6E6C7920746865206F776E65722063616E2073657420746865207461726765 PUSH0 DUP3 ADD MSTORE PUSH32 0x7400000000000000000000000000000000000000000000000000000000000000 PUSH1 0x20 DUP3 ADD MSTORE POP JUMP JUMPDEST PUSH0 PUSH2 0x1E56 PUSH1 0x21 DUP4 PUSH2 0x18FB JUMP JUMPDEST SWAP2 POP PUSH2 0x1E61 DUP3 PUSH2 0x1DFC JUMP JUMPDEST PUSH1 0x40 DUP3 ADD SWAP1 POP SWAP2 SWAP1 POP JUMP JUMPDEST PUSH0 PUSH1 0x20 DUP3 ADD SWAP1 POP DUP2 DUP2 SUB PUSH0 DUP4 ADD MSTORE PUSH2 0x1E83 DUP2 PUSH2 0x1E4A JUMP JUMPDEST SWAP1 POP SWAP2 SWAP1 POP JUMP JUMPDEST PUSH32 0x5461726765742063616E6E6F7420626520726564756365642E00000000000000 PUSH0 DUP3 ADD MSTORE POP JUMP JUMPDEST PUSH0 PUSH2 0x1EBE PUSH1 0x19 DUP4 PUSH2 0x18FB JUMP JUMPDEST SWAP2 POP PUSH2 0x1EC9 DUP3 PUSH2 0x1E8A JUMP JUMPDEST PUSH1 0x20 DUP3 ADD SWAP1 POP SWAP2 SWAP1 POP JUMP JUMPDEST PUSH0 PUSH1 0x20 DUP3 ADD SWAP1 POP DUP2 DUP2 SUB PUSH0 DUP4 ADD MSTORE PUSH2 0x1EEB DUP2 PUSH2 0x1EB2 JUMP JUMPDEST SWAP1 POP SWAP2 SWAP1 POP JUMP JUMPDEST PUSH32 0x50726F6A65637420686173207374696C6C206E6F742065787069726564000000 PUSH0 DUP3 ADD MSTORE POP JUMP JUMPDEST PUSH0 PUSH2 0x1F26 PUSH1 0x1D DUP4 PUSH2 0x18FB JUMP JUMPDEST SWAP2 POP PUSH2 0x1F31 DUP3 PUSH2 0x1EF2 JUMP JUMPDEST PUSH1 0x20 DUP3 ADD SWAP1 POP SWAP2 SWAP1 POP JUMP JUMPDEST PUSH0 PUSH1 0x20 DUP3 ADD SWAP1 POP DUP2 DUP2 SUB PUSH0 DUP4 ADD MSTORE PUSH2 0x1F53 DUP2 PUSH2 0x1F1A JUMP JUMPDEST SWAP1 POP SWAP2 SWAP1 POP JUMP JUMPDEST PUSH32 0x50726F6A6563742068617320616C726561647920726561636865642069747320 PUSH0 DUP3 ADD MSTORE PUSH32 0x7461726765740000000000000000000000000000000000000000000000000000 PUSH1 0x20 DUP3 ADD MSTORE POP JUMP JUMPDEST PUSH0 PUSH2 0x1FB4 PUSH1 0x26 DUP4 PUSH2 0x18FB JUMP JUMPDEST SWAP2 POP PUSH2 0x1FBF DUP3 PUSH2 0x1F5A JUMP JUMPDEST PUSH1 0x40 DUP3 ADD SWAP1 POP SWAP2 SWAP1 POP JUMP JUMPDEST PUSH0 PUSH1 0x20 DUP3 ADD SWAP1 POP DUP2 DUP2 SUB PUSH0 DUP4 ADD MSTORE PUSH2 0x1FE1 DUP2 PUSH2 0x1FA8 JUMP JUMPDEST SWAP1 POP SWAP2 SWAP1 POP JUMP JUMPDEST PUSH32 0x496E73756666696369656E742062616C616E6365000000000000000000000000 PUSH0 DUP3 ADD MSTORE POP JUMP JUMPDEST PUSH0 PUSH2 0x201C PUSH1 0x14 DUP4 PUSH2 0x18FB JUMP JUMPDEST SWAP2 POP PUSH2 0x2027 DUP3 PUSH2 0x1FE8 JUMP JUMPDEST PUSH1 0x20 DUP3 ADD SWAP1 POP SWAP2 SWAP1 POP JUMP JUMPDEST PUSH0 PUSH1 0x20 DUP3 ADD SWAP1 POP DUP2 DUP2 SUB PUSH0 DUP4 ADD MSTORE PUSH2 0x2049 DUP2 PUSH2 0x2010 JUMP JUMPDEST SWAP1 POP SWAP2 SWAP1 POP JUMP JUMPDEST PUSH32 0x4E487B7100000000000000000000000000000000000000000000000000000000 PUSH0 MSTORE PUSH1 0x11 PUSH1 0x4 MSTORE PUSH1 0x24 PUSH0 REVERT JUMPDEST PUSH0 PUSH2 0x2087 DUP3 PUSH2 0x1697 JUMP JUMPDEST SWAP2 POP PUSH2 0x2092 DUP4 PUSH2 0x1697 JUMP JUMPDEST SWAP3 POP DUP3 DUP3 SUB SWAP1 POP DUP2 DUP2 GT ISZERO PUSH2 0x20AA JUMPI PUSH2 0x20A9 PUSH2 0x2050 JUMP JUMPDEST JUMPDEST SWAP3 SWAP2 POP POP JUMP JUMPDEST PUSH0 PUSH2 0x20BA DUP3 PUSH2 0x1697 JUMP JUMPDEST SWAP2 POP PUSH2 0x20C5 DUP4 PUSH2 0x1697 JUMP JUMPDEST SWAP3 POP DUP3 DUP3 MUL PUSH2 0x20D3 DUP2 PUSH2 0x1697 JUMP JUMPDEST SWAP2 POP DUP3 DUP3 DIV DUP5 EQ DUP4 ISZERO OR PUSH2 0x20EA JUMPI PUSH2 0x20E9 PUSH2 0x2050 JUMP JUMPDEST JUMPDEST POP SWAP3 SWAP2 POP POP JUMP JUMPDEST PUSH0 PUSH2 0x20FB DUP3 PUSH2 0x1697 JUMP JUMPDEST SWAP2 POP PUSH2 0x2106 DUP4 PUSH2 0x1697 JUMP JUMPDEST SWAP3 POP DUP3 DUP3 ADD SWAP1 POP DUP1 DUP3 GT ISZERO PUSH2 0x211E JUMPI PUSH2 0x211D PUSH2 0x2050 JUMP JUMPDEST JUMPDEST SWAP3 SWAP2 POP POP JUMP JUMPDEST PUSH32 0x546172676574206E6F7420796574207365740000000000000000000000000000 PUSH0 DUP3 ADD MSTORE POP JUMP JUMPDEST PUSH0 PUSH2 0x2158 PUSH1 0x12 DUP4 PUSH2 0x18FB JUMP JUMPDEST SWAP2 POP PUSH2 0x2163 DUP3 PUSH2 0x2124 JUMP JUMPDEST PUSH1 0x20 DUP3 ADD SWAP1 POP SWAP2 SWAP1 POP JUMP JUMPDEST PUSH0 PUSH1 0x20 DUP3 ADD SWAP1 POP DUP2 DUP2 SUB PUSH0 DUP4 ADD MSTORE PUSH2 0x2185 DUP2 PUSH2 0x214C JUMP JUMPDEST SWAP1 POP SWAP2 SWAP1 POP JUMP JUMPDEST PUSH32 0x50726F6A65637420686173206661696C656420746F2072656163682069747320 PUSH0 DUP3 ADD MSTORE PUSH32 0x7461726765740000000000000000000000000000000000000000000000000000 PUSH1 0x20 DUP3 ADD MSTORE POP JUMP JUMPDEST PUSH0 PUSH2 0x21E6 PUSH1 0x26 DUP4 PUSH2 0x18FB JUMP JUMPDEST SWAP2 POP PUSH2 0x21F1 DUP3 PUSH2 0x218C JUMP JUMPDEST PUSH1 0x40 DUP3 ADD SWAP1 POP SWAP2 SWAP1 POP JUMP JUMPDEST PUSH0 PUSH1 0x20 DUP3 ADD SWAP1 POP DUP2 DUP2 SUB PUSH0 DUP4 ADD MSTORE PUSH2 0x2213 DUP2 PUSH2 0x21DA JUMP JUMPDEST SWAP1 POP SWAP2 SWAP1 POP JUMP JUMPDEST PUSH32 0x4F6E6C7920746865206F776E65722063616E20636C61696D20746865206D6F6E PUSH0 DUP3 ADD MSTORE PUSH32 0x6579000000000000000000000000000000000000000000000000000000000000 PUSH1 0x20 DUP3 ADD MSTORE POP JUMP JUMPDEST PUSH0 PUSH2 0x2274 PUSH1 0x22 DUP4 PUSH2 0x18FB JUMP JUMPDEST SWAP2 POP PUSH2 0x227F DUP3 PUSH2 0x221A JUMP JUMPDEST PUSH1 0x40 DUP3 ADD SWAP1 POP SWAP2 SWAP1 POP JUMP JUMPDEST PUSH0 PUSH1 0x20 DUP3 ADD SWAP1 POP DUP2 DUP2 SUB PUSH0 DUP4 ADD MSTORE PUSH2 0x22A1 DUP2 PUSH2 0x2268 JUMP JUMPDEST SWAP1 POP SWAP2 SWAP1 POP JUMP JUMPDEST PUSH32 0x4E6F206D6F6E657920746F20636C61696D000000000000000000000000000000 PUSH0 DUP3 ADD MSTORE POP JUMP JUMPDEST PUSH0 PUSH2 0x22DC PUSH1 0x11 DUP4 PUSH2 0x18FB JUMP JUMPDEST SWAP2 POP PUSH2 0x22E7 DUP3 PUSH2 0x22A8 JUMP JUMPDEST PUSH1 0x20 DUP3 ADD SWAP1 POP SWAP2 SWAP1 POP JUMP JUMPDEST PUSH0 PUSH1 0x20 DUP3 ADD SWAP1 POP DUP2 DUP2 SUB PUSH0 DUP4 ADD MSTORE PUSH2 0x2309 DUP2 PUSH2 0x22D0 JUMP JUMPDEST SWAP1 POP SWAP2 SWAP1 POP JUMP JUMPDEST PUSH32 0x4F6E6C7920746865206F776E65722063616E20736574207468652070726F6A65 PUSH0 DUP3 ADD MSTORE PUSH32 0x6374206E616D6500000000000000000000000000000000000000000000000000 PUSH1 0x20 DUP3 ADD MSTORE POP JUMP JUMPDEST PUSH0 PUSH2 0x236A PUSH1 0x27 DUP4 PUSH2 0x18FB JUMP JUMPDEST SWAP2 POP PUSH2 0x2375 DUP3 PUSH2 0x2310 JUMP JUMPDEST PUSH1 0x40 DUP3 ADD SWAP1 POP SWAP2 SWAP1 POP JUMP JUMPDEST PUSH0 PUSH1 0x20 DUP3 ADD SWAP1 POP DUP2 DUP2 SUB PUSH0 DUP4 ADD MSTORE PUSH2 0x2397 DUP2 PUSH2 0x235E JUMP JUMPDEST SWAP1 POP SWAP2 SWAP1 POP JUMP INVALID LOG2 PUSH5 0x6970667358 0x22 SLT KECCAK256 AND PUSH4 0x307B156E 0xC6 0x24 PUSH3 0x53C41A 0xDF 0xE0 0x4B 0xAF 0xDC 0xE6 BLOCKHASH 0xA9 0xE4 PUSH30 0xDBC1F9E17DAF7F2B8EE664736F6C63430008160033000000000000000000 "
				},
				"gasEstimates": {
					"creation": {
						"codeDepositCost": "1834400",
						"executionCost": "79776",
						"totalCost": "1914176"
					},
					"external": {
						"claimMoney(uint256)": "infinite",
						"createProject(string,uint256)": "infinite",
						"deposit(uint256)": "infinite",
						"getNextid()": "2455",
						"getOwner(uint256)": "5175",
						"getProjectDescription(uint256)": "infinite",
						"getProjectName(uint256)": "infinite",
						"getRaised(uint256)": "infinite",
						"getReleaseTime(uint256)": "infinite",
						"getTarget(uint256)": "infinite",
						"setProjectDescription(uint256,string)": "infinite",
						"setProjectName(uint256,string)": "infinite",
						"setTarget(uint256,uint256)": "infinite",
						"test()": "2603",
						"withdraw(uint256,uint256)": "infinite"
					}
				},
				"methodIdentifiers": {
					"claimMoney(uint256)": "d44eb910",
					"createProject(string,uint256)": "91754a5d",
					"deposit(uint256)": "b6b55f25",
					"getNextid()": "26030e57",
					"getOwner(uint256)": "c41a360a",
					"getProjectDescription(uint256)": "845ab425",
					"getProjectName(uint256)": "f1fa906c",
					"getRaised(uint256)": "23b53ba6",
					"getReleaseTime(uint256)": "52db191f",
					"getTarget(uint256)": "e6acc7cd",
					"setProjectDescription(uint256,string)": "0c2e038a",
					"setProjectName(uint256,string)": "f0d53074",
					"setTarget(uint256,uint256)": "1d0f2c99",
					"test()": "f8a8fd6d",
					"withdraw(uint256,uint256)": "441a3e70"
				}
			},
			"storageLayout": {
				"storage": [
					{
						"astId": 3,
						"contract": "src/contracts/Platform.sol:Platform",
						"label": "contract_creator",
						"offset": 0,
						"slot": "0",
						"type": "t_address"
					},
					{
						"astId": 6,
						"contract": "src/contracts/Platform.sol:Platform",
						"label": "admin",
						"offset": 0,
						"slot": "1",
						"type": "t_array(t_address)dyn_storage"
					},
					{
						"astId": 9,
						"contract": "src/contracts/Platform.sol:Platform",
						"label": "contract_id",
						"offset": 0,
						"slot": "2",
						"type": "t_uint256"
					},
					{
						"astId": 14,
						"contract": "src/contracts/Platform.sol:Platform",
						"label": "projects",
						"offset": 0,
						"slot": "3",
						"type": "t_mapping(t_uint256,t_struct(Project)33_storage)"
					}
				],
				"types": {
					"t_address": {
						"encoding": "inplace",
						"label": "address",
						"numberOfBytes": "20"
					},
					"t_array(t_address)dyn_storage": {
						"base": "t_address",
						"encoding": "dynamic_array",
						"label": "address[]",
						"numberOfBytes": "32"
					},
					"t_mapping(t_address,t_uint256)": {
						"encoding": "mapping",
						"key": "t_address",
						"label": "mapping(address => uint256)",
						"numberOfBytes": "32",
						"value": "t_uint256"
					},
					"t_mapping(t_uint256,t_struct(Project)33_storage)": {
						"encoding": "mapping",
						"key": "t_uint256",
						"label": "mapping(uint256 => struct Platform.Project)",
						"numberOfBytes": "32",
						"value": "t_struct(Project)33_storage"
					},
					"t_string_storage": {
						"encoding": "bytes",
						"label": "string",
						"numberOfBytes": "32"
					},
					"t_struct(Project)33_storage": {
						"encoding": "inplace",
						"label": "struct Platform.Project",
						"members": [
							{
								"astId": 16,
								"contract": "src/contracts/Platform.sol:Platform",
								"label": "owner",
								"offset": 0,
								"slot": "0",
								"type": "t_address"
							},
							{
								"astId": 18,
								"contract": "src/contracts/Platform.sol:Platform",
								"label": "projectName",
								"offset": 0,
								"slot": "1",
								"type": "t_string_storage"
							},
							{
								"astId": 20,
								"contract": "src/contracts/Platform.sol:Platform",
								"label": "projectDescription",
								"offset": 0,
								"slot": "2",
								"type": "t_string_storage"
							},
							{
								"astId": 22,
								"contract": "src/contracts/Platform.sol:Platform",
								"label": "target",
								"offset": 0,
								"slot": "3",
								"type": "t_uint256"
							},
							{
								"astId": 24,
								"contract": "src/contracts/Platform.sol:Platform",
								"label": "raised",
								"offset": 0,
								"slot": "4",
								"type": "t_uint256"
							},
							{
								"astId": 26,
								"contract": "src/contracts/Platform.sol:Platform",
								"label": "releaseTime",
								"offset": 0,
								"slot": "5",
								"type": "t_uint256"
							},
							{
								"astId": 28,
								"contract": "src/contracts/Platform.sol:Platform",
								"label": "wallet",
								"offset": 0,
								"slot": "6",
								"type": "t_uint256"
							},
							{
								"astId": 32,
								"contract": "src/contracts/Platform.sol:Platform",
								"label": "balance",
								"offset": 0,
								"slot": "7",
								"type": "t_mapping(t_address,t_uint256)"
							}
						],
						"numberOfBytes": "256"
					},
					"t_uint256": {
						"encoding": "inplace",
						"label": "uint256",
						"numberOfBytes": "32"
					}
				}
			},
			"userdoc": {
				"kind": "user",
				"methods": {},
				"version": 1
			}
		}
	}
}