{
	"data": {
		"bytecode": {
			"linkReferences": {},
			"object": "60806040525f6001553480156012575f80fd5b50335f806101000a81548173ffffffffffffffffffffffffffffffffffffffff021916908373ffffffffffffffffffffffffffffffffffffffff160217905550612c098061005f5f395ff3fe6080604052600436106100fd575f3560e01c806352db191f11610094578063d44eb91011610063578063d44eb9101461033b578063e3b5d76814610363578063e6acc7cd1461039f578063f0d53074146103db578063f1fa906c14610403576100fd565b806352db191f1461026b578063845ab425146102a7578063b6b55f25146102e3578063c41a360a146102ff576100fd565b806323c55448116100d057806323c55448146101b557806326030e57146101f15780632e1a7d4d1461021b5780633f99b2e614610243576100fd565b806308de9f2f146101015780630c2e038a146101295780631d0f2c991461015157806323b53ba614610179575b5f80fd5b34801561010c575f80fd5b5061012760048036038101906101229190611d51565b61043f565b005b348015610134575f80fd5b5061014f600480360381019061014a9190611d51565b6105a5565b005b34801561015c575f80fd5b5061017760048036038101906101729190611dab565b61070b565b005b348015610184575f80fd5b5061019f600480360381019061019a9190611de9565b6108f8565b6040516101ac9190611e23565b60405180910390f35b3480156101c0575f80fd5b506101db60048036038101906101d69190611e3c565b6109b5565b6040516101e89190611e23565b60405180910390f35b3480156101fc575f80fd5b50610205610ad4565b6040516102129190611e23565b60405180910390f35b348015610226575f80fd5b50610241600480360381019061023c9190611de9565b610add565b005b34801561024e575f80fd5b5061026960048036038101906102649190611ec4565b610de9565b005b348015610276575f80fd5b50610291600480360381019061028c9190611de9565b610f95565b60405161029e9190611e23565b60405180910390f35b3480156102b2575f80fd5b506102cd60048036038101906102c89190611de9565b611052565b6040516102da9190611f90565b60405180910390f35b6102fd60048036038101906102f89190611de9565b611196565b005b34801561030a575f80fd5b5061032560048036038101906103209190611de9565b611348565b6040516103329190611fef565b60405180910390f35b348015610346575f80fd5b50610361600480360381019061035c9190611de9565b611423565b005b34801561036e575f80fd5b5061038960048036038101906103849190611de9565b611726565b6040516103969190611f90565b60405180910390f35b3480156103aa575f80fd5b506103c560048036038101906103c09190611de9565b61186a565b6040516103d29190611e23565b60405180910390f35b3480156103e6575f80fd5b5061040160048036038101906103fc9190611d51565b611927565b005b34801561040e575f80fd5b5061042960048036038101906104249190611de9565b611a8d565b6040516104369190611f90565b60405180910390f35b5f73ffffffffffffffffffffffffffffffffffffffff1660025f8481526020019081526020015f205f015f9054906101000a900473ffffffffffffffffffffffffffffffffffffffff1673ffffffffffffffffffffffffffffffffffffffff16036104df576040517f08c379a00000000000000000000000000000000000000000000000000000000081526004016104d690612052565b60405180910390fd5b60025f8381526020019081526020015f205f015f9054906101000a900473ffffffffffffffffffffffffffffffffffffffff1673ffffffffffffffffffffffffffffffffffffffff163373ffffffffffffffffffffffffffffffffffffffff161461057f576040517f08c379a0000000000000000000000000000000000000000000000000000000008152600401610576906120e0565b60405180910390fd5b8060025f8481526020019081526020015f2060030190816105a091906122f8565b505050565b5f73ffffffffffffffffffffffffffffffffffffffff1660025f8481526020019081526020015f205f015f9054906101000a900473ffffffffffffffffffffffffffffffffffffffff1673ffffffffffffffffffffffffffffffffffffffff1603610645576040517f08c379a000000000000000000000000000000000000000000000000000000000815260040161063c90612052565b60405180910390fd5b60025f8381526020019081526020015f205f015f9054906101000a900473ffffffffffffffffffffffffffffffffffffffff1673ffffffffffffffffffffffffffffffffffffffff163373ffffffffffffffffffffffffffffffffffffffff16146106e5576040517f08c379a00000000000000000000000000000000000000000000000000000000081526004016106dc90612437565b60405180910390fd5b8060025f8481526020019081526020015f20600201908161070691906122f8565b505050565b5f73ffffffffffffffffffffffffffffffffffffffff1660025f8481526020019081526020015f205f015f9054906101000a900473ffffffffffffffffffffffffffffffffffffffff1673ffffffffffffffffffffffffffffffffffffffff16036107ab576040517f08c379a00000000000000000000000000000000000000000000000000000000081526004016107a290612052565b60405180910390fd5b60025f8381526020019081526020015f205f015f9054906101000a900473ffffffffffffffffffffffffffffffffffffffff1673ffffffffffffffffffffffffffffffffffffffff163373ffffffffffffffffffffffffffffffffffffffff161461084b576040517f08c379a0000000000000000000000000000000000000000000000000000000008152600401610842906124c5565b60405180910390fd5b5f60025f8481526020019081526020015f206004015403610884578060025f8481526020019081526020015f20600401819055506108f4565b60025f8381526020019081526020015f206004015481116108da576040517f08c379a00000000000000000000000000000000000000000000000000000000081526004016108d19061252d565b60405180910390fd5b8060025f8481526020019081526020015f20600401819055505b5050565b5f8073ffffffffffffffffffffffffffffffffffffffff1660025f8481526020019081526020015f205f015f9054906101000a900473ffffffffffffffffffffffffffffffffffffffff1673ffffffffffffffffffffffffffffffffffffffff1603610999576040517f08c379a000000000000000000000000000000000000000000000000000000000815260040161099090612052565b60405180910390fd5b60025f8381526020019081526020015f20600501549050919050565b5f8060025f60015481526020019081526020015f20905033815f015f6101000a81548173ffffffffffffffffffffffffffffffffffffffff021916908373ffffffffffffffffffffffffffffffffffffffff16021790555084816001019081610a1e91906122f8565b5083816003019081610a3091906122f8565b506201518083610a409190612578565b42610a4b91906125b9565b81600601819055506001805f828254610a6491906125b9565b9250508190555060018054610a7991906125ec565b3373ffffffffffffffffffffffffffffffffffffffff167fa175ba4c2d4faa174fa933f9200abefdd3c9cc7d3928ec6ccd6aafde3015c01260405160405180910390a360018054610aca91906125ec565b9150509392505050565b5f600154905090565b5f73ffffffffffffffffffffffffffffffffffffffff1660025f8381526020019081526020015f205f015f9054906101000a900473ffffffffffffffffffffffffffffffffffffffff1673ffffffffffffffffffffffffffffffffffffffff1603610b7d576040517f08c379a0000000000000000000000000000000000000000000000000000000008152600401610b7490612052565b60405180910390fd5b60025f8281526020019081526020015f2060060154421015610bd4576040517f08c379a0000000000000000000000000000000000000000000000000000000008152600401610bcb90612669565b60405180910390fd5b60025f8281526020019081526020015f206004015460025f8381526020019081526020015f206005015410610c3e576040517f08c379a0000000000000000000000000000000000000000000000000000000008152600401610c35906126f7565b60405180910390fd5b5f60025f8381526020019081526020015f206008015f3373ffffffffffffffffffffffffffffffffffffffff1673ffffffffffffffffffffffffffffffffffffffff1681526020019081526020015f20541015610cd0576040517f08c379a0000000000000000000000000000000000000000000000000000000008152600401610cc79061275f565b60405180910390fd5b5f60025f8381526020019081526020015f206008015f3373ffffffffffffffffffffffffffffffffffffffff1673ffffffffffffffffffffffffffffffffffffffff1681526020019081526020015f205490505f60025f8481526020019081526020015f206008015f3373ffffffffffffffffffffffffffffffffffffffff1673ffffffffffffffffffffffffffffffffffffffff1681526020019081526020015f20819055508060025f8481526020019081526020015f206007015f828254610d9a91906125ec565b925050819055503373ffffffffffffffffffffffffffffffffffffffff166108fc8290811502906040515f60405180830381858888f19350505050158015610de4573d5f803e3d5ffd5b505050565b5f8054906101000a900473ffffffffffffffffffffffffffffffffffffffff1673ffffffffffffffffffffffffffffffffffffffff163373ffffffffffffffffffffffffffffffffffffffff1614610e76576040517f08c379a0000000000000000000000000000000000000000000000000000000008152600401610e6d906127c7565b60405180910390fd5b604051602001610e8590612839565b6040516020818303038152906040528051906020012083604051602001610eac919061287d565b6040516020818303038152906040528051906020012003610ee5578060025f8481526020019081526020015f2060040181905550610f90565b604051602001610ef4906128dd565b6040516020818303038152906040528051906020012083604051602001610f1b919061287d565b6040516020818303038152906040528051906020012003610f54578060025f8481526020019081526020015f2060060181905550610f8f565b6040517f08c379a0000000000000000000000000000000000000000000000000000000008152600401610f869061293b565b60405180910390fd5b5b505050565b5f8073ffffffffffffffffffffffffffffffffffffffff1660025f8481526020019081526020015f205f015f9054906101000a900473ffffffffffffffffffffffffffffffffffffffff1673ffffffffffffffffffffffffffffffffffffffff1603611036576040517f08c379a000000000000000000000000000000000000000000000000000000000815260040161102d90612052565b60405180910390fd5b60025f8381526020019081526020015f20600601549050919050565b60605f73ffffffffffffffffffffffffffffffffffffffff1660025f8481526020019081526020015f205f015f9054906101000a900473ffffffffffffffffffffffffffffffffffffffff1673ffffffffffffffffffffffffffffffffffffffff16036110f4576040517f08c379a00000000000000000000000000000000000000000000000000000000081526004016110eb90612052565b60405180910390fd5b60025f8381526020019081526020015f2060020180546111139061212b565b80601f016020809104026020016040519081016040528092919081815260200182805461113f9061212b565b801561118a5780601f106111615761010080835404028352916020019161118a565b820191905f5260205f20905b81548152906001019060200180831161116d57829003601f168201915b50505050509050919050565b5f73ffffffffffffffffffffffffffffffffffffffff1660025f8381526020019081526020015f205f015f9054906101000a900473ffffffffffffffffffffffffffffffffffffffff1673ffffffffffffffffffffffffffffffffffffffff1603611236576040517f08c379a000000000000000000000000000000000000000000000000000000000815260040161122d90612052565b60405180910390fd5b5f60025f8381526020019081526020015f20600401540361128c576040517f08c379a0000000000000000000000000000000000000000000000000000000008152600401611283906129a3565b60405180910390fd5b3460025f8381526020019081526020015f206008015f3373ffffffffffffffffffffffffffffffffffffffff1673ffffffffffffffffffffffffffffffffffffffff1681526020019081526020015f205f8282546112ea91906125b9565b925050819055503460025f8381526020019081526020015f206005015f82825461131491906125b9565b925050819055503460025f8381526020019081526020015f206007015f82825461133e91906125b9565b9250508190555050565b5f8073ffffffffffffffffffffffffffffffffffffffff1660025f8481526020019081526020015f205f015f9054906101000a900473ffffffffffffffffffffffffffffffffffffffff1673ffffffffffffffffffffffffffffffffffffffff16036113e9576040517f08c379a00000000000000000000000000000000000000000000000000000000081526004016113e090612052565b60405180910390fd5b60025f8381526020019081526020015f205f015f9054906101000a900473ffffffffffffffffffffffffffffffffffffffff169050919050565b5f73ffffffffffffffffffffffffffffffffffffffff1660025f8381526020019081526020015f205f015f9054906101000a900473ffffffffffffffffffffffffffffffffffffffff1673ffffffffffffffffffffffffffffffffffffffff16036114c3576040517f08c379a00000000000000000000000000000000000000000000000000000000081526004016114ba90612052565b60405180910390fd5b60025f8281526020019081526020015f206006015442101561151a576040517f08c379a000000000000000000000000000000000000000000000000000000000815260040161151190612669565b60405180910390fd5b60025f8281526020019081526020015f206004015460025f8381526020019081526020015f20600501541015611585576040517f08c379a000000000000000000000000000000000000000000000000000000000815260040161157c90612a31565b60405180910390fd5b60025f8281526020019081526020015f205f015f9054906101000a900473ffffffffffffffffffffffffffffffffffffffff1673ffffffffffffffffffffffffffffffffffffffff163373ffffffffffffffffffffffffffffffffffffffff1614611625576040517f08c379a000000000000000000000000000000000000000000000000000000000815260040161161c90612abf565b60405180910390fd5b5f60025f8381526020019081526020015f20600701541161167b576040517f08c379a000000000000000000000000000000000000000000000000000000000815260040161167290612b27565b60405180910390fd5b5f60025f8381526020019081526020015f206007015490505f60025f8481526020019081526020015f206007018190555060025f8381526020019081526020015f205f015f9054906101000a900473ffffffffffffffffffffffffffffffffffffffff1673ffffffffffffffffffffffffffffffffffffffff166108fc8290811502906040515f60405180830381858888f19350505050158015611721573d5f803e3d5ffd5b505050565b60605f73ffffffffffffffffffffffffffffffffffffffff1660025f8481526020019081526020015f205f015f9054906101000a900473ffffffffffffffffffffffffffffffffffffffff1673ffffffffffffffffffffffffffffffffffffffff16036117c8576040517f08c379a00000000000000000000000000000000000000000000000000000000081526004016117bf90612052565b60405180910390fd5b60025f8381526020019081526020015f2060030180546117e79061212b565b80601f01602080910402602001604051908101604052809291908181526020018280546118139061212b565b801561185e5780601f106118355761010080835404028352916020019161185e565b820191905f5260205f20905b81548152906001019060200180831161184157829003601f168201915b50505050509050919050565b5f8073ffffffffffffffffffffffffffffffffffffffff1660025f8481526020019081526020015f205f015f9054906101000a900473ffffffffffffffffffffffffffffffffffffffff1673ffffffffffffffffffffffffffffffffffffffff160361190b576040517f08c379a000000000000000000000000000000000000000000000000000000000815260040161190290612052565b60405180910390fd5b60025f8381526020019081526020015f20600401549050919050565b5f73ffffffffffffffffffffffffffffffffffffffff1660025f8481526020019081526020015f205f015f9054906101000a900473ffffffffffffffffffffffffffffffffffffffff1673ffffffffffffffffffffffffffffffffffffffff16036119c7576040517f08c379a00000000000000000000000000000000000000000000000000000000081526004016119be90612052565b60405180910390fd5b60025f8381526020019081526020015f205f015f9054906101000a900473ffffffffffffffffffffffffffffffffffffffff1673ffffffffffffffffffffffffffffffffffffffff163373ffffffffffffffffffffffffffffffffffffffff1614611a67576040517f08c379a0000000000000000000000000000000000000000000000000000000008152600401611a5e90612bb5565b60405180910390fd5b8060025f8481526020019081526020015f206001019081611a8891906122f8565b505050565b60605f73ffffffffffffffffffffffffffffffffffffffff1660025f8481526020019081526020015f205f015f9054906101000a900473ffffffffffffffffffffffffffffffffffffffff1673ffffffffffffffffffffffffffffffffffffffff1603611b2f576040517f08c379a0000000000000000000000000000000000000000000000000000000008152600401611b2690612052565b60405180910390fd5b60025f8381526020019081526020015f206001018054611b4e9061212b565b80601f0160208091040260200160405190810160405280929190818152602001828054611b7a9061212b565b8015611bc55780601f10611b9c57610100808354040283529160200191611bc5565b820191905f5260205f20905b815481529060010190602001808311611ba857829003601f168201915b50505050509050919050565b5f604051905090565b5f80fd5b5f80fd5b5f819050919050565b611bf481611be2565b8114611bfe575f80fd5b50565b5f81359050611c0f81611beb565b92915050565b5f80fd5b5f80fd5b5f601f19601f8301169050919050565b7f4e487b71000000000000000000000000000000000000000000000000000000005f52604160045260245ffd5b611c6382611c1d565b810181811067ffffffffffffffff82111715611c8257611c81611c2d565b5b80604052505050565b5f611c94611bd1565b9050611ca08282611c5a565b919050565b5f67ffffffffffffffff821115611cbf57611cbe611c2d565b5b611cc882611c1d565b9050602081019050919050565b828183375f83830152505050565b5f611cf5611cf084611ca5565b611c8b565b905082815260208101848484011115611d1157611d10611c19565b5b611d1c848285611cd5565b509392505050565b5f82601f830112611d3857611d37611c15565b5b8135611d48848260208601611ce3565b91505092915050565b5f8060408385031215611d6757611d66611bda565b5b5f611d7485828601611c01565b925050602083013567ffffffffffffffff811115611d9557611d94611bde565b5b611da185828601611d24565b9150509250929050565b5f8060408385031215611dc157611dc0611bda565b5b5f611dce85828601611c01565b9250506020611ddf85828601611c01565b9150509250929050565b5f60208284031215611dfe57611dfd611bda565b5b5f611e0b84828501611c01565b91505092915050565b611e1d81611be2565b82525050565b5f602082019050611e365f830184611e14565b92915050565b5f805f60608486031215611e5357611e52611bda565b5b5f84013567ffffffffffffffff811115611e7057611e6f611bde565b5b611e7c86828701611d24565b935050602084013567ffffffffffffffff811115611e9d57611e9c611bde565b5b611ea986828701611d24565b9250506040611eba86828701611c01565b9150509250925092565b5f805f60608486031215611edb57611eda611bda565b5b5f84013567ffffffffffffffff811115611ef857611ef7611bde565b5b611f0486828701611d24565b9350506020611f1586828701611c01565b9250506040611f2686828701611c01565b9150509250925092565b5f81519050919050565b5f82825260208201905092915050565b8281835e5f83830152505050565b5f611f6282611f30565b611f6c8185611f3a565b9350611f7c818560208601611f4a565b611f8581611c1d565b840191505092915050565b5f6020820190508181035f830152611fa88184611f58565b905092915050565b5f73ffffffffffffffffffffffffffffffffffffffff82169050919050565b5f611fd982611fb0565b9050919050565b611fe981611fcf565b82525050565b5f6020820190506120025f830184611fe0565b92915050565b7f50726f6a65637420646f6573206e6f74206578697374000000000000000000005f82015250565b5f61203c601683611f3a565b915061204782612008565b602082019050919050565b5f6020820190508181035f83015261206981612030565b9050919050565b7f4f6e6c7920746865206f776e65722063616e20736574207468652070726f6a655f8201527f637420696d616765000000000000000000000000000000000000000000000000602082015250565b5f6120ca602883611f3a565b91506120d582612070565b604082019050919050565b5f6020820190508181035f8301526120f7816120be565b9050919050565b7f4e487b71000000000000000000000000000000000000000000000000000000005f52602260045260245ffd5b5f600282049050600182168061214257607f821691505b602082108103612155576121546120fe565b5b50919050565b5f819050815f5260205f209050919050565b5f6020601f8301049050919050565b5f82821b905092915050565b5f600883026121b77fffffffffffffffffffffffffffffffffffffffffffffffffffffffffffffffff8261217c565b6121c1868361217c565b95508019841693508086168417925050509392505050565b5f819050919050565b5f6121fc6121f76121f284611be2565b6121d9565b611be2565b9050919050565b5f819050919050565b612215836121e2565b61222961222182612203565b848454612188565b825550505050565b5f90565b61223d612231565b61224881848461220c565b505050565b5b8181101561226b576122605f82612235565b60018101905061224e565b5050565b601f8211156122b0576122818161215b565b61228a8461216d565b81016020851015612299578190505b6122ad6122a58561216d565b83018261224d565b50505b505050565b5f82821c905092915050565b5f6122d05f19846008026122b5565b1980831691505092915050565b5f6122e883836122c1565b9150826002028217905092915050565b61230182611f30565b67ffffffffffffffff81111561231a57612319611c2d565b5b612324825461212b565b61232f82828561226f565b5f60209050601f831160018114612360575f841561234e578287015190505b61235885826122dd565b8655506123bf565b601f19841661236e8661215b565b5f5b8281101561239557848901518255600182019150602085019450602081019050612370565b868310156123b257848901516123ae601f8916826122c1565b8355505b6001600288020188555050505b505050505050565b7f4f6e6c7920746865206f776e65722063616e20736574207468652070726f6a655f8201527f6374206465736372697074696f6e000000000000000000000000000000000000602082015250565b5f612421602e83611f3a565b915061242c826123c7565b604082019050919050565b5f6020820190508181035f83015261244e81612415565b9050919050565b7f4f6e6c7920746865206f776e65722063616e20736574207468652074617267655f8201527f7400000000000000000000000000000000000000000000000000000000000000602082015250565b5f6124af602183611f3a565b91506124ba82612455565b604082019050919050565b5f6020820190508181035f8301526124dc816124a3565b9050919050565b7f5461726765742063616e6e6f7420626520726564756365642e000000000000005f82015250565b5f612517601983611f3a565b9150612522826124e3565b602082019050919050565b5f6020820190508181035f8301526125448161250b565b9050919050565b7f4e487b71000000000000000000000000000000000000000000000000000000005f52601160045260245ffd5b5f61258282611be2565b915061258d83611be2565b925082820261259b81611be2565b915082820484148315176125b2576125b161254b565b5b5092915050565b5f6125c382611be2565b91506125ce83611be2565b92508282019050808211156125e6576125e561254b565b5b92915050565b5f6125f682611be2565b915061260183611be2565b92508282039050818111156126195761261861254b565b5b92915050565b7f50726f6a65637420686173207374696c6c206e6f7420657870697265640000005f82015250565b5f612653601d83611f3a565b915061265e8261261f565b602082019050919050565b5f6020820190508181035f83015261268081612647565b9050919050565b7f50726f6a6563742068617320616c7265616479207265616368656420697473205f8201527f7461726765740000000000000000000000000000000000000000000000000000602082015250565b5f6126e1602683611f3a565b91506126ec82612687565b604082019050919050565b5f6020820190508181035f83015261270e816126d5565b9050919050565b7f496e73756666696369656e742062616c616e63650000000000000000000000005f82015250565b5f612749601483611f3a565b915061275482612715565b602082019050919050565b5f6020820190508181035f8301526127768161273d565b9050919050565b7f4e6f74207065726d6974746564000000000000000000000000000000000000005f82015250565b5f6127b1600d83611f3a565b91506127bc8261277d565b602082019050919050565b5f6020820190508181035f8301526127de816127a5565b9050919050565b5f81905092915050565b7f73657454617267657400000000000000000000000000000000000000000000005f82015250565b5f6128236009836127e5565b915061282e826127ef565b600982019050919050565b5f61284382612817565b9150819050919050565b5f61285782611f30565b61286181856127e5565b9350612871818560208601611f4a565b80840191505092915050565b5f612888828461284d565b915081905092915050565b7f73657452656c6561736554696d650000000000000000000000000000000000005f82015250565b5f6128c7600e836127e5565b91506128d282612893565b600e82019050919050565b5f6128e7826128bb565b9150819050919050565b7f496e76616c696420616374696f6e0000000000000000000000000000000000005f82015250565b5f612925600e83611f3a565b9150612930826128f1565b602082019050919050565b5f6020820190508181035f83015261295281612919565b9050919050565b7f546172676574206e6f74207965742073657400000000000000000000000000005f82015250565b5f61298d601283611f3a565b915061299882612959565b602082019050919050565b5f6020820190508181035f8301526129ba81612981565b9050919050565b7f50726f6a65637420686173206661696c656420746f20726561636820697473205f8201527f7461726765740000000000000000000000000000000000000000000000000000602082015250565b5f612a1b602683611f3a565b9150612a26826129c1565b604082019050919050565b5f6020820190508181035f830152612a4881612a0f565b9050919050565b7f4f6e6c7920746865206f776e65722063616e20636c61696d20746865206d6f6e5f8201527f6579000000000000000000000000000000000000000000000000000000000000602082015250565b5f612aa9602283611f3a565b9150612ab482612a4f565b604082019050919050565b5f6020820190508181035f830152612ad681612a9d565b9050919050565b7f4e6f206d6f6e657920746f20636c61696d0000000000000000000000000000005f82015250565b5f612b11601183611f3a565b9150612b1c82612add565b602082019050919050565b5f6020820190508181035f830152612b3e81612b05565b9050919050565b7f4f6e6c7920746865206f776e65722063616e20736574207468652070726f6a655f8201527f6374206e616d6500000000000000000000000000000000000000000000000000602082015250565b5f612b9f602783611f3a565b9150612baa82612b45565b604082019050919050565b5f6020820190508181035f830152612bcc81612b93565b905091905056fea2646970667358221220ae319128533959575a37b4388e9601fb95b7198746990f769e20531a3a79169864736f6c63430008190033",
			"opcodes": "PUSH1 0x80 PUSH1 0x40 MSTORE PUSH0 PUSH1 0x1 SSTORE CALLVALUE DUP1 ISZERO PUSH1 0x12 JUMPI PUSH0 DUP1 REVERT JUMPDEST POP CALLER PUSH0 DUP1 PUSH2 0x100 EXP DUP2 SLOAD DUP2 PUSH20 0xFFFFFFFFFFFFFFFFFFFFFFFFFFFFFFFFFFFFFFFF MUL NOT AND SWAP1 DUP4 PUSH20 0xFFFFFFFFFFFFFFFFFFFFFFFFFFFFFFFFFFFFFFFF AND MUL OR SWAP1 SSTORE POP PUSH2 0x2C09 DUP1 PUSH2 0x5F PUSH0 CODECOPY PUSH0 RETURN INVALID PUSH1 0x80 PUSH1 0x40 MSTORE PUSH1 0x4 CALLDATASIZE LT PUSH2 0xFD JUMPI PUSH0 CALLDATALOAD PUSH1 0xE0 SHR DUP1 PUSH4 0x52DB191F GT PUSH2 0x94 JUMPI DUP1 PUSH4 0xD44EB910 GT PUSH2 0x63 JUMPI DUP1 PUSH4 0xD44EB910 EQ PUSH2 0x33B JUMPI DUP1 PUSH4 0xE3B5D768 EQ PUSH2 0x363 JUMPI DUP1 PUSH4 0xE6ACC7CD EQ PUSH2 0x39F JUMPI DUP1 PUSH4 0xF0D53074 EQ PUSH2 0x3DB JUMPI DUP1 PUSH4 0xF1FA906C EQ PUSH2 0x403 JUMPI PUSH2 0xFD JUMP JUMPDEST DUP1 PUSH4 0x52DB191F EQ PUSH2 0x26B JUMPI DUP1 PUSH4 0x845AB425 EQ PUSH2 0x2A7 JUMPI DUP1 PUSH4 0xB6B55F25 EQ PUSH2 0x2E3 JUMPI DUP1 PUSH4 0xC41A360A EQ PUSH2 0x2FF JUMPI PUSH2 0xFD JUMP JUMPDEST DUP1 PUSH4 0x23C55448 GT PUSH2 0xD0 JUMPI DUP1 PUSH4 0x23C55448 EQ PUSH2 0x1B5 JUMPI DUP1 PUSH4 0x26030E57 EQ PUSH2 0x1F1 JUMPI DUP1 PUSH4 0x2E1A7D4D EQ PUSH2 0x21B JUMPI DUP1 PUSH4 0x3F99B2E6 EQ PUSH2 0x243 JUMPI PUSH2 0xFD JUMP JUMPDEST DUP1 PUSH4 0x8DE9F2F EQ PUSH2 0x101 JUMPI DUP1 PUSH4 0xC2E038A EQ PUSH2 0x129 JUMPI DUP1 PUSH4 0x1D0F2C99 EQ PUSH2 0x151 JUMPI DUP1 PUSH4 0x23B53BA6 EQ PUSH2 0x179 JUMPI JUMPDEST PUSH0 DUP1 REVERT JUMPDEST CALLVALUE DUP1 ISZERO PUSH2 0x10C JUMPI PUSH0 DUP1 REVERT JUMPDEST POP PUSH2 0x127 PUSH1 0x4 DUP1 CALLDATASIZE SUB DUP2 ADD SWAP1 PUSH2 0x122 SWAP2 SWAP1 PUSH2 0x1D51 JUMP JUMPDEST PUSH2 0x43F JUMP JUMPDEST STOP JUMPDEST CALLVALUE DUP1 ISZERO PUSH2 0x134 JUMPI PUSH0 DUP1 REVERT JUMPDEST POP PUSH2 0x14F PUSH1 0x4 DUP1 CALLDATASIZE SUB DUP2 ADD SWAP1 PUSH2 0x14A SWAP2 SWAP1 PUSH2 0x1D51 JUMP JUMPDEST PUSH2 0x5A5 JUMP JUMPDEST STOP JUMPDEST CALLVALUE DUP1 ISZERO PUSH2 0x15C JUMPI PUSH0 DUP1 REVERT JUMPDEST POP PUSH2 0x177 PUSH1 0x4 DUP1 CALLDATASIZE SUB DUP2 ADD SWAP1 PUSH2 0x172 SWAP2 SWAP1 PUSH2 0x1DAB JUMP JUMPDEST PUSH2 0x70B JUMP JUMPDEST STOP JUMPDEST CALLVALUE DUP1 ISZERO PUSH2 0x184 JUMPI PUSH0 DUP1 REVERT JUMPDEST POP PUSH2 0x19F PUSH1 0x4 DUP1 CALLDATASIZE SUB DUP2 ADD SWAP1 PUSH2 0x19A SWAP2 SWAP1 PUSH2 0x1DE9 JUMP JUMPDEST PUSH2 0x8F8 JUMP JUMPDEST PUSH1 0x40 MLOAD PUSH2 0x1AC SWAP2 SWAP1 PUSH2 0x1E23 JUMP JUMPDEST PUSH1 0x40 MLOAD DUP1 SWAP2 SUB SWAP1 RETURN JUMPDEST CALLVALUE DUP1 ISZERO PUSH2 0x1C0 JUMPI PUSH0 DUP1 REVERT JUMPDEST POP PUSH2 0x1DB PUSH1 0x4 DUP1 CALLDATASIZE SUB DUP2 ADD SWAP1 PUSH2 0x1D6 SWAP2 SWAP1 PUSH2 0x1E3C JUMP JUMPDEST PUSH2 0x9B5 JUMP JUMPDEST PUSH1 0x40 MLOAD PUSH2 0x1E8 SWAP2 SWAP1 PUSH2 0x1E23 JUMP JUMPDEST PUSH1 0x40 MLOAD DUP1 SWAP2 SUB SWAP1 RETURN JUMPDEST CALLVALUE DUP1 ISZERO PUSH2 0x1FC JUMPI PUSH0 DUP1 REVERT JUMPDEST POP PUSH2 0x205 PUSH2 0xAD4 JUMP JUMPDEST PUSH1 0x40 MLOAD PUSH2 0x212 SWAP2 SWAP1 PUSH2 0x1E23 JUMP JUMPDEST PUSH1 0x40 MLOAD DUP1 SWAP2 SUB SWAP1 RETURN JUMPDEST CALLVALUE DUP1 ISZERO PUSH2 0x226 JUMPI PUSH0 DUP1 REVERT JUMPDEST POP PUSH2 0x241 PUSH1 0x4 DUP1 CALLDATASIZE SUB DUP2 ADD SWAP1 PUSH2 0x23C SWAP2 SWAP1 PUSH2 0x1DE9 JUMP JUMPDEST PUSH2 0xADD JUMP JUMPDEST STOP JUMPDEST CALLVALUE DUP1 ISZERO PUSH2 0x24E JUMPI PUSH0 DUP1 REVERT JUMPDEST POP PUSH2 0x269 PUSH1 0x4 DUP1 CALLDATASIZE SUB DUP2 ADD SWAP1 PUSH2 0x264 SWAP2 SWAP1 PUSH2 0x1EC4 JUMP JUMPDEST PUSH2 0xDE9 JUMP JUMPDEST STOP JUMPDEST CALLVALUE DUP1 ISZERO PUSH2 0x276 JUMPI PUSH0 DUP1 REVERT JUMPDEST POP PUSH2 0x291 PUSH1 0x4 DUP1 CALLDATASIZE SUB DUP2 ADD SWAP1 PUSH2 0x28C SWAP2 SWAP1 PUSH2 0x1DE9 JUMP JUMPDEST PUSH2 0xF95 JUMP JUMPDEST PUSH1 0x40 MLOAD PUSH2 0x29E SWAP2 SWAP1 PUSH2 0x1E23 JUMP JUMPDEST PUSH1 0x40 MLOAD DUP1 SWAP2 SUB SWAP1 RETURN JUMPDEST CALLVALUE DUP1 ISZERO PUSH2 0x2B2 JUMPI PUSH0 DUP1 REVERT JUMPDEST POP PUSH2 0x2CD PUSH1 0x4 DUP1 CALLDATASIZE SUB DUP2 ADD SWAP1 PUSH2 0x2C8 SWAP2 SWAP1 PUSH2 0x1DE9 JUMP JUMPDEST PUSH2 0x1052 JUMP JUMPDEST PUSH1 0x40 MLOAD PUSH2 0x2DA SWAP2 SWAP1 PUSH2 0x1F90 JUMP JUMPDEST PUSH1 0x40 MLOAD DUP1 SWAP2 SUB SWAP1 RETURN JUMPDEST PUSH2 0x2FD PUSH1 0x4 DUP1 CALLDATASIZE SUB DUP2 ADD SWAP1 PUSH2 0x2F8 SWAP2 SWAP1 PUSH2 0x1DE9 JUMP JUMPDEST PUSH2 0x1196 JUMP JUMPDEST STOP JUMPDEST CALLVALUE DUP1 ISZERO PUSH2 0x30A JUMPI PUSH0 DUP1 REVERT JUMPDEST POP PUSH2 0x325 PUSH1 0x4 DUP1 CALLDATASIZE SUB DUP2 ADD SWAP1 PUSH2 0x320 SWAP2 SWAP1 PUSH2 0x1DE9 JUMP JUMPDEST PUSH2 0x1348 JUMP JUMPDEST PUSH1 0x40 MLOAD PUSH2 0x332 SWAP2 SWAP1 PUSH2 0x1FEF JUMP JUMPDEST PUSH1 0x40 MLOAD DUP1 SWAP2 SUB SWAP1 RETURN JUMPDEST CALLVALUE DUP1 ISZERO PUSH2 0x346 JUMPI PUSH0 DUP1 REVERT JUMPDEST POP PUSH2 0x361 PUSH1 0x4 DUP1 CALLDATASIZE SUB DUP2 ADD SWAP1 PUSH2 0x35C SWAP2 SWAP1 PUSH2 0x1DE9 JUMP JUMPDEST PUSH2 0x1423 JUMP JUMPDEST STOP JUMPDEST CALLVALUE DUP1 ISZERO PUSH2 0x36E JUMPI PUSH0 DUP1 REVERT JUMPDEST POP PUSH2 0x389 PUSH1 0x4 DUP1 CALLDATASIZE SUB DUP2 ADD SWAP1 PUSH2 0x384 SWAP2 SWAP1 PUSH2 0x1DE9 JUMP JUMPDEST PUSH2 0x1726 JUMP JUMPDEST PUSH1 0x40 MLOAD PUSH2 0x396 SWAP2 SWAP1 PUSH2 0x1F90 JUMP JUMPDEST PUSH1 0x40 MLOAD DUP1 SWAP2 SUB SWAP1 RETURN JUMPDEST CALLVALUE DUP1 ISZERO PUSH2 0x3AA JUMPI PUSH0 DUP1 REVERT JUMPDEST POP PUSH2 0x3C5 PUSH1 0x4 DUP1 CALLDATASIZE SUB DUP2 ADD SWAP1 PUSH2 0x3C0 SWAP2 SWAP1 PUSH2 0x1DE9 JUMP JUMPDEST PUSH2 0x186A JUMP JUMPDEST PUSH1 0x40 MLOAD PUSH2 0x3D2 SWAP2 SWAP1 PUSH2 0x1E23 JUMP JUMPDEST PUSH1 0x40 MLOAD DUP1 SWAP2 SUB SWAP1 RETURN JUMPDEST CALLVALUE DUP1 ISZERO PUSH2 0x3E6 JUMPI PUSH0 DUP1 REVERT JUMPDEST POP PUSH2 0x401 PUSH1 0x4 DUP1 CALLDATASIZE SUB DUP2 ADD SWAP1 PUSH2 0x3FC SWAP2 SWAP1 PUSH2 0x1D51 JUMP JUMPDEST PUSH2 0x1927 JUMP JUMPDEST STOP JUMPDEST CALLVALUE DUP1 ISZERO PUSH2 0x40E JUMPI PUSH0 DUP1 REVERT JUMPDEST POP PUSH2 0x429 PUSH1 0x4 DUP1 CALLDATASIZE SUB DUP2 ADD SWAP1 PUSH2 0x424 SWAP2 SWAP1 PUSH2 0x1DE9 JUMP JUMPDEST PUSH2 0x1A8D JUMP JUMPDEST PUSH1 0x40 MLOAD PUSH2 0x436 SWAP2 SWAP1 PUSH2 0x1F90 JUMP JUMPDEST PUSH1 0x40 MLOAD DUP1 SWAP2 SUB SWAP1 RETURN JUMPDEST PUSH0 PUSH20 0xFFFFFFFFFFFFFFFFFFFFFFFFFFFFFFFFFFFFFFFF AND PUSH1 0x2 PUSH0 DUP5 DUP2 MSTORE PUSH1 0x20 ADD SWAP1 DUP2 MSTORE PUSH1 0x20 ADD PUSH0 KECCAK256 PUSH0 ADD PUSH0 SWAP1 SLOAD SWAP1 PUSH2 0x100 EXP SWAP1 DIV PUSH20 0xFFFFFFFFFFFFFFFFFFFFFFFFFFFFFFFFFFFFFFFF AND PUSH20 0xFFFFFFFFFFFFFFFFFFFFFFFFFFFFFFFFFFFFFFFF AND SUB PUSH2 0x4DF JUMPI PUSH1 0x40 MLOAD PUSH32 0x8C379A000000000000000000000000000000000000000000000000000000000 DUP2 MSTORE PUSH1 0x4 ADD PUSH2 0x4D6 SWAP1 PUSH2 0x2052 JUMP JUMPDEST PUSH1 0x40 MLOAD DUP1 SWAP2 SUB SWAP1 REVERT JUMPDEST PUSH1 0x2 PUSH0 DUP4 DUP2 MSTORE PUSH1 0x20 ADD SWAP1 DUP2 MSTORE PUSH1 0x20 ADD PUSH0 KECCAK256 PUSH0 ADD PUSH0 SWAP1 SLOAD SWAP1 PUSH2 0x100 EXP SWAP1 DIV PUSH20 0xFFFFFFFFFFFFFFFFFFFFFFFFFFFFFFFFFFFFFFFF AND PUSH20 0xFFFFFFFFFFFFFFFFFFFFFFFFFFFFFFFFFFFFFFFF AND CALLER PUSH20 0xFFFFFFFFFFFFFFFFFFFFFFFFFFFFFFFFFFFFFFFF AND EQ PUSH2 0x57F JUMPI PUSH1 0x40 MLOAD PUSH32 0x8C379A000000000000000000000000000000000000000000000000000000000 DUP2 MSTORE PUSH1 0x4 ADD PUSH2 0x576 SWAP1 PUSH2 0x20E0 JUMP JUMPDEST PUSH1 0x40 MLOAD DUP1 SWAP2 SUB SWAP1 REVERT JUMPDEST DUP1 PUSH1 0x2 PUSH0 DUP5 DUP2 MSTORE PUSH1 0x20 ADD SWAP1 DUP2 MSTORE PUSH1 0x20 ADD PUSH0 KECCAK256 PUSH1 0x3 ADD SWAP1 DUP2 PUSH2 0x5A0 SWAP2 SWAP1 PUSH2 0x22F8 JUMP JUMPDEST POP POP POP JUMP JUMPDEST PUSH0 PUSH20 0xFFFFFFFFFFFFFFFFFFFFFFFFFFFFFFFFFFFFFFFF AND PUSH1 0x2 PUSH0 DUP5 DUP2 MSTORE PUSH1 0x20 ADD SWAP1 DUP2 MSTORE PUSH1 0x20 ADD PUSH0 KECCAK256 PUSH0 ADD PUSH0 SWAP1 SLOAD SWAP1 PUSH2 0x100 EXP SWAP1 DIV PUSH20 0xFFFFFFFFFFFFFFFFFFFFFFFFFFFFFFFFFFFFFFFF AND PUSH20 0xFFFFFFFFFFFFFFFFFFFFFFFFFFFFFFFFFFFFFFFF AND SUB PUSH2 0x645 JUMPI PUSH1 0x40 MLOAD PUSH32 0x8C379A000000000000000000000000000000000000000000000000000000000 DUP2 MSTORE PUSH1 0x4 ADD PUSH2 0x63C SWAP1 PUSH2 0x2052 JUMP JUMPDEST PUSH1 0x40 MLOAD DUP1 SWAP2 SUB SWAP1 REVERT JUMPDEST PUSH1 0x2 PUSH0 DUP4 DUP2 MSTORE PUSH1 0x20 ADD SWAP1 DUP2 MSTORE PUSH1 0x20 ADD PUSH0 KECCAK256 PUSH0 ADD PUSH0 SWAP1 SLOAD SWAP1 PUSH2 0x100 EXP SWAP1 DIV PUSH20 0xFFFFFFFFFFFFFFFFFFFFFFFFFFFFFFFFFFFFFFFF AND PUSH20 0xFFFFFFFFFFFFFFFFFFFFFFFFFFFFFFFFFFFFFFFF AND CALLER PUSH20 0xFFFFFFFFFFFFFFFFFFFFFFFFFFFFFFFFFFFFFFFF AND EQ PUSH2 0x6E5 JUMPI PUSH1 0x40 MLOAD PUSH32 0x8C379A000000000000000000000000000000000000000000000000000000000 DUP2 MSTORE PUSH1 0x4 ADD PUSH2 0x6DC SWAP1 PUSH2 0x2437 JUMP JUMPDEST PUSH1 0x40 MLOAD DUP1 SWAP2 SUB SWAP1 REVERT JUMPDEST DUP1 PUSH1 0x2 PUSH0 DUP5 DUP2 MSTORE PUSH1 0x20 ADD SWAP1 DUP2 MSTORE PUSH1 0x20 ADD PUSH0 KECCAK256 PUSH1 0x2 ADD SWAP1 DUP2 PUSH2 0x706 SWAP2 SWAP1 PUSH2 0x22F8 JUMP JUMPDEST POP POP POP JUMP JUMPDEST PUSH0 PUSH20 0xFFFFFFFFFFFFFFFFFFFFFFFFFFFFFFFFFFFFFFFF AND PUSH1 0x2 PUSH0 DUP5 DUP2 MSTORE PUSH1 0x20 ADD SWAP1 DUP2 MSTORE PUSH1 0x20 ADD PUSH0 KECCAK256 PUSH0 ADD PUSH0 SWAP1 SLOAD SWAP1 PUSH2 0x100 EXP SWAP1 DIV PUSH20 0xFFFFFFFFFFFFFFFFFFFFFFFFFFFFFFFFFFFFFFFF AND PUSH20 0xFFFFFFFFFFFFFFFFFFFFFFFFFFFFFFFFFFFFFFFF AND SUB PUSH2 0x7AB JUMPI PUSH1 0x40 MLOAD PUSH32 0x8C379A000000000000000000000000000000000000000000000000000000000 DUP2 MSTORE PUSH1 0x4 ADD PUSH2 0x7A2 SWAP1 PUSH2 0x2052 JUMP JUMPDEST PUSH1 0x40 MLOAD DUP1 SWAP2 SUB SWAP1 REVERT JUMPDEST PUSH1 0x2 PUSH0 DUP4 DUP2 MSTORE PUSH1 0x20 ADD SWAP1 DUP2 MSTORE PUSH1 0x20 ADD PUSH0 KECCAK256 PUSH0 ADD PUSH0 SWAP1 SLOAD SWAP1 PUSH2 0x100 EXP SWAP1 DIV PUSH20 0xFFFFFFFFFFFFFFFFFFFFFFFFFFFFFFFFFFFFFFFF AND PUSH20 0xFFFFFFFFFFFFFFFFFFFFFFFFFFFFFFFFFFFFFFFF AND CALLER PUSH20 0xFFFFFFFFFFFFFFFFFFFFFFFFFFFFFFFFFFFFFFFF AND EQ PUSH2 0x84B JUMPI PUSH1 0x40 MLOAD PUSH32 0x8C379A000000000000000000000000000000000000000000000000000000000 DUP2 MSTORE PUSH1 0x4 ADD PUSH2 0x842 SWAP1 PUSH2 0x24C5 JUMP JUMPDEST PUSH1 0x40 MLOAD DUP1 SWAP2 SUB SWAP1 REVERT JUMPDEST PUSH0 PUSH1 0x2 PUSH0 DUP5 DUP2 MSTORE PUSH1 0x20 ADD SWAP1 DUP2 MSTORE PUSH1 0x20 ADD PUSH0 KECCAK256 PUSH1 0x4 ADD SLOAD SUB PUSH2 0x884 JUMPI DUP1 PUSH1 0x2 PUSH0 DUP5 DUP2 MSTORE PUSH1 0x20 ADD SWAP1 DUP2 MSTORE PUSH1 0x20 ADD PUSH0 KECCAK256 PUSH1 0x4 ADD DUP2 SWAP1 SSTORE POP PUSH2 0x8F4 JUMP JUMPDEST PUSH1 0x2 PUSH0 DUP4 DUP2 MSTORE PUSH1 0x20 ADD SWAP1 DUP2 MSTORE PUSH1 0x20 ADD PUSH0 KECCAK256 PUSH1 0x4 ADD SLOAD DUP2 GT PUSH2 0x8DA JUMPI PUSH1 0x40 MLOAD PUSH32 0x8C379A000000000000000000000000000000000000000000000000000000000 DUP2 MSTORE PUSH1 0x4 ADD PUSH2 0x8D1 SWAP1 PUSH2 0x252D JUMP JUMPDEST PUSH1 0x40 MLOAD DUP1 SWAP2 SUB SWAP1 REVERT JUMPDEST DUP1 PUSH1 0x2 PUSH0 DUP5 DUP2 MSTORE PUSH1 0x20 ADD SWAP1 DUP2 MSTORE PUSH1 0x20 ADD PUSH0 KECCAK256 PUSH1 0x4 ADD DUP2 SWAP1 SSTORE POP JUMPDEST POP POP JUMP JUMPDEST PUSH0 DUP1 PUSH20 0xFFFFFFFFFFFFFFFFFFFFFFFFFFFFFFFFFFFFFFFF AND PUSH1 0x2 PUSH0 DUP5 DUP2 MSTORE PUSH1 0x20 ADD SWAP1 DUP2 MSTORE PUSH1 0x20 ADD PUSH0 KECCAK256 PUSH0 ADD PUSH0 SWAP1 SLOAD SWAP1 PUSH2 0x100 EXP SWAP1 DIV PUSH20 0xFFFFFFFFFFFFFFFFFFFFFFFFFFFFFFFFFFFFFFFF AND PUSH20 0xFFFFFFFFFFFFFFFFFFFFFFFFFFFFFFFFFFFFFFFF AND SUB PUSH2 0x999 JUMPI PUSH1 0x40 MLOAD PUSH32 0x8C379A000000000000000000000000000000000000000000000000000000000 DUP2 MSTORE PUSH1 0x4 ADD PUSH2 0x990 SWAP1 PUSH2 0x2052 JUMP JUMPDEST PUSH1 0x40 MLOAD DUP1 SWAP2 SUB SWAP1 REVERT JUMPDEST PUSH1 0x2 PUSH0 DUP4 DUP2 MSTORE PUSH1 0x20 ADD SWAP1 DUP2 MSTORE PUSH1 0x20 ADD PUSH0 KECCAK256 PUSH1 0x5 ADD SLOAD SWAP1 POP SWAP2 SWAP1 POP JUMP JUMPDEST PUSH0 DUP1 PUSH1 0x2 PUSH0 PUSH1 0x1 SLOAD DUP2 MSTORE PUSH1 0x20 ADD SWAP1 DUP2 MSTORE PUSH1 0x20 ADD PUSH0 KECCAK256 SWAP1 POP CALLER DUP2 PUSH0 ADD PUSH0 PUSH2 0x100 EXP DUP2 SLOAD DUP2 PUSH20 0xFFFFFFFFFFFFFFFFFFFFFFFFFFFFFFFFFFFFFFFF MUL NOT AND SWAP1 DUP4 PUSH20 0xFFFFFFFFFFFFFFFFFFFFFFFFFFFFFFFFFFFFFFFF AND MUL OR SWAP1 SSTORE POP DUP5 DUP2 PUSH1 0x1 ADD SWAP1 DUP2 PUSH2 0xA1E SWAP2 SWAP1 PUSH2 0x22F8 JUMP JUMPDEST POP DUP4 DUP2 PUSH1 0x3 ADD SWAP1 DUP2 PUSH2 0xA30 SWAP2 SWAP1 PUSH2 0x22F8 JUMP JUMPDEST POP PUSH3 0x15180 DUP4 PUSH2 0xA40 SWAP2 SWAP1 PUSH2 0x2578 JUMP JUMPDEST TIMESTAMP PUSH2 0xA4B SWAP2 SWAP1 PUSH2 0x25B9 JUMP JUMPDEST DUP2 PUSH1 0x6 ADD DUP2 SWAP1 SSTORE POP PUSH1 0x1 DUP1 PUSH0 DUP3 DUP3 SLOAD PUSH2 0xA64 SWAP2 SWAP1 PUSH2 0x25B9 JUMP JUMPDEST SWAP3 POP POP DUP2 SWAP1 SSTORE POP PUSH1 0x1 DUP1 SLOAD PUSH2 0xA79 SWAP2 SWAP1 PUSH2 0x25EC JUMP JUMPDEST CALLER PUSH20 0xFFFFFFFFFFFFFFFFFFFFFFFFFFFFFFFFFFFFFFFF AND PUSH32 0xA175BA4C2D4FAA174FA933F9200ABEFDD3C9CC7D3928EC6CCD6AAFDE3015C012 PUSH1 0x40 MLOAD PUSH1 0x40 MLOAD DUP1 SWAP2 SUB SWAP1 LOG3 PUSH1 0x1 DUP1 SLOAD PUSH2 0xACA SWAP2 SWAP1 PUSH2 0x25EC JUMP JUMPDEST SWAP2 POP POP SWAP4 SWAP3 POP POP POP JUMP JUMPDEST PUSH0 PUSH1 0x1 SLOAD SWAP1 POP SWAP1 JUMP JUMPDEST PUSH0 PUSH20 0xFFFFFFFFFFFFFFFFFFFFFFFFFFFFFFFFFFFFFFFF AND PUSH1 0x2 PUSH0 DUP4 DUP2 MSTORE PUSH1 0x20 ADD SWAP1 DUP2 MSTORE PUSH1 0x20 ADD PUSH0 KECCAK256 PUSH0 ADD PUSH0 SWAP1 SLOAD SWAP1 PUSH2 0x100 EXP SWAP1 DIV PUSH20 0xFFFFFFFFFFFFFFFFFFFFFFFFFFFFFFFFFFFFFFFF AND PUSH20 0xFFFFFFFFFFFFFFFFFFFFFFFFFFFFFFFFFFFFFFFF AND SUB PUSH2 0xB7D JUMPI PUSH1 0x40 MLOAD PUSH32 0x8C379A000000000000000000000000000000000000000000000000000000000 DUP2 MSTORE PUSH1 0x4 ADD PUSH2 0xB74 SWAP1 PUSH2 0x2052 JUMP JUMPDEST PUSH1 0x40 MLOAD DUP1 SWAP2 SUB SWAP1 REVERT JUMPDEST PUSH1 0x2 PUSH0 DUP3 DUP2 MSTORE PUSH1 0x20 ADD SWAP1 DUP2 MSTORE PUSH1 0x20 ADD PUSH0 KECCAK256 PUSH1 0x6 ADD SLOAD TIMESTAMP LT ISZERO PUSH2 0xBD4 JUMPI PUSH1 0x40 MLOAD PUSH32 0x8C379A000000000000000000000000000000000000000000000000000000000 DUP2 MSTORE PUSH1 0x4 ADD PUSH2 0xBCB SWAP1 PUSH2 0x2669 JUMP JUMPDEST PUSH1 0x40 MLOAD DUP1 SWAP2 SUB SWAP1 REVERT JUMPDEST PUSH1 0x2 PUSH0 DUP3 DUP2 MSTORE PUSH1 0x20 ADD SWAP1 DUP2 MSTORE PUSH1 0x20 ADD PUSH0 KECCAK256 PUSH1 0x4 ADD SLOAD PUSH1 0x2 PUSH0 DUP4 DUP2 MSTORE PUSH1 0x20 ADD SWAP1 DUP2 MSTORE PUSH1 0x20 ADD PUSH0 KECCAK256 PUSH1 0x5 ADD SLOAD LT PUSH2 0xC3E JUMPI PUSH1 0x40 MLOAD PUSH32 0x8C379A000000000000000000000000000000000000000000000000000000000 DUP2 MSTORE PUSH1 0x4 ADD PUSH2 0xC35 SWAP1 PUSH2 0x26F7 JUMP JUMPDEST PUSH1 0x40 MLOAD DUP1 SWAP2 SUB SWAP1 REVERT JUMPDEST PUSH0 PUSH1 0x2 PUSH0 DUP4 DUP2 MSTORE PUSH1 0x20 ADD SWAP1 DUP2 MSTORE PUSH1 0x20 ADD PUSH0 KECCAK256 PUSH1 0x8 ADD PUSH0 CALLER PUSH20 0xFFFFFFFFFFFFFFFFFFFFFFFFFFFFFFFFFFFFFFFF AND PUSH20 0xFFFFFFFFFFFFFFFFFFFFFFFFFFFFFFFFFFFFFFFF AND DUP2 MSTORE PUSH1 0x20 ADD SWAP1 DUP2 MSTORE PUSH1 0x20 ADD PUSH0 KECCAK256 SLOAD LT ISZERO PUSH2 0xCD0 JUMPI PUSH1 0x40 MLOAD PUSH32 0x8C379A000000000000000000000000000000000000000000000000000000000 DUP2 MSTORE PUSH1 0x4 ADD PUSH2 0xCC7 SWAP1 PUSH2 0x275F JUMP JUMPDEST PUSH1 0x40 MLOAD DUP1 SWAP2 SUB SWAP1 REVERT JUMPDEST PUSH0 PUSH1 0x2 PUSH0 DUP4 DUP2 MSTORE PUSH1 0x20 ADD SWAP1 DUP2 MSTORE PUSH1 0x20 ADD PUSH0 KECCAK256 PUSH1 0x8 ADD PUSH0 CALLER PUSH20 0xFFFFFFFFFFFFFFFFFFFFFFFFFFFFFFFFFFFFFFFF AND PUSH20 0xFFFFFFFFFFFFFFFFFFFFFFFFFFFFFFFFFFFFFFFF AND DUP2 MSTORE PUSH1 0x20 ADD SWAP1 DUP2 MSTORE PUSH1 0x20 ADD PUSH0 KECCAK256 SLOAD SWAP1 POP PUSH0 PUSH1 0x2 PUSH0 DUP5 DUP2 MSTORE PUSH1 0x20 ADD SWAP1 DUP2 MSTORE PUSH1 0x20 ADD PUSH0 KECCAK256 PUSH1 0x8 ADD PUSH0 CALLER PUSH20 0xFFFFFFFFFFFFFFFFFFFFFFFFFFFFFFFFFFFFFFFF AND PUSH20 0xFFFFFFFFFFFFFFFFFFFFFFFFFFFFFFFFFFFFFFFF AND DUP2 MSTORE PUSH1 0x20 ADD SWAP1 DUP2 MSTORE PUSH1 0x20 ADD PUSH0 KECCAK256 DUP2 SWAP1 SSTORE POP DUP1 PUSH1 0x2 PUSH0 DUP5 DUP2 MSTORE PUSH1 0x20 ADD SWAP1 DUP2 MSTORE PUSH1 0x20 ADD PUSH0 KECCAK256 PUSH1 0x7 ADD PUSH0 DUP3 DUP3 SLOAD PUSH2 0xD9A SWAP2 SWAP1 PUSH2 0x25EC JUMP JUMPDEST SWAP3 POP POP DUP2 SWAP1 SSTORE POP CALLER PUSH20 0xFFFFFFFFFFFFFFFFFFFFFFFFFFFFFFFFFFFFFFFF AND PUSH2 0x8FC DUP3 SWAP1 DUP2 ISZERO MUL SWAP1 PUSH1 0x40 MLOAD PUSH0 PUSH1 0x40 MLOAD DUP1 DUP4 SUB DUP2 DUP6 DUP9 DUP9 CALL SWAP4 POP POP POP POP ISZERO DUP1 ISZERO PUSH2 0xDE4 JUMPI RETURNDATASIZE PUSH0 DUP1 RETURNDATACOPY RETURNDATASIZE PUSH0 REVERT JUMPDEST POP POP POP JUMP JUMPDEST PUSH0 DUP1 SLOAD SWAP1 PUSH2 0x100 EXP SWAP1 DIV PUSH20 0xFFFFFFFFFFFFFFFFFFFFFFFFFFFFFFFFFFFFFFFF AND PUSH20 0xFFFFFFFFFFFFFFFFFFFFFFFFFFFFFFFFFFFFFFFF AND CALLER PUSH20 0xFFFFFFFFFFFFFFFFFFFFFFFFFFFFFFFFFFFFFFFF AND EQ PUSH2 0xE76 JUMPI PUSH1 0x40 MLOAD PUSH32 0x8C379A000000000000000000000000000000000000000000000000000000000 DUP2 MSTORE PUSH1 0x4 ADD PUSH2 0xE6D SWAP1 PUSH2 0x27C7 JUMP JUMPDEST PUSH1 0x40 MLOAD DUP1 SWAP2 SUB SWAP1 REVERT JUMPDEST PUSH1 0x40 MLOAD PUSH1 0x20 ADD PUSH2 0xE85 SWAP1 PUSH2 0x2839 JUMP JUMPDEST PUSH1 0x40 MLOAD PUSH1 0x20 DUP2 DUP4 SUB SUB DUP2 MSTORE SWAP1 PUSH1 0x40 MSTORE DUP1 MLOAD SWAP1 PUSH1 0x20 ADD KECCAK256 DUP4 PUSH1 0x40 MLOAD PUSH1 0x20 ADD PUSH2 0xEAC SWAP2 SWAP1 PUSH2 0x287D JUMP JUMPDEST PUSH1 0x40 MLOAD PUSH1 0x20 DUP2 DUP4 SUB SUB DUP2 MSTORE SWAP1 PUSH1 0x40 MSTORE DUP1 MLOAD SWAP1 PUSH1 0x20 ADD KECCAK256 SUB PUSH2 0xEE5 JUMPI DUP1 PUSH1 0x2 PUSH0 DUP5 DUP2 MSTORE PUSH1 0x20 ADD SWAP1 DUP2 MSTORE PUSH1 0x20 ADD PUSH0 KECCAK256 PUSH1 0x4 ADD DUP2 SWAP1 SSTORE POP PUSH2 0xF90 JUMP JUMPDEST PUSH1 0x40 MLOAD PUSH1 0x20 ADD PUSH2 0xEF4 SWAP1 PUSH2 0x28DD JUMP JUMPDEST PUSH1 0x40 MLOAD PUSH1 0x20 DUP2 DUP4 SUB SUB DUP2 MSTORE SWAP1 PUSH1 0x40 MSTORE DUP1 MLOAD SWAP1 PUSH1 0x20 ADD KECCAK256 DUP4 PUSH1 0x40 MLOAD PUSH1 0x20 ADD PUSH2 0xF1B SWAP2 SWAP1 PUSH2 0x287D JUMP JUMPDEST PUSH1 0x40 MLOAD PUSH1 0x20 DUP2 DUP4 SUB SUB DUP2 MSTORE SWAP1 PUSH1 0x40 MSTORE DUP1 MLOAD SWAP1 PUSH1 0x20 ADD KECCAK256 SUB PUSH2 0xF54 JUMPI DUP1 PUSH1 0x2 PUSH0 DUP5 DUP2 MSTORE PUSH1 0x20 ADD SWAP1 DUP2 MSTORE PUSH1 0x20 ADD PUSH0 KECCAK256 PUSH1 0x6 ADD DUP2 SWAP1 SSTORE POP PUSH2 0xF8F JUMP JUMPDEST PUSH1 0x40 MLOAD PUSH32 0x8C379A000000000000000000000000000000000000000000000000000000000 DUP2 MSTORE PUSH1 0x4 ADD PUSH2 0xF86 SWAP1 PUSH2 0x293B JUMP JUMPDEST PUSH1 0x40 MLOAD DUP1 SWAP2 SUB SWAP1 REVERT JUMPDEST JUMPDEST POP POP POP JUMP JUMPDEST PUSH0 DUP1 PUSH20 0xFFFFFFFFFFFFFFFFFFFFFFFFFFFFFFFFFFFFFFFF AND PUSH1 0x2 PUSH0 DUP5 DUP2 MSTORE PUSH1 0x20 ADD SWAP1 DUP2 MSTORE PUSH1 0x20 ADD PUSH0 KECCAK256 PUSH0 ADD PUSH0 SWAP1 SLOAD SWAP1 PUSH2 0x100 EXP SWAP1 DIV PUSH20 0xFFFFFFFFFFFFFFFFFFFFFFFFFFFFFFFFFFFFFFFF AND PUSH20 0xFFFFFFFFFFFFFFFFFFFFFFFFFFFFFFFFFFFFFFFF AND SUB PUSH2 0x1036 JUMPI PUSH1 0x40 MLOAD PUSH32 0x8C379A000000000000000000000000000000000000000000000000000000000 DUP2 MSTORE PUSH1 0x4 ADD PUSH2 0x102D SWAP1 PUSH2 0x2052 JUMP JUMPDEST PUSH1 0x40 MLOAD DUP1 SWAP2 SUB SWAP1 REVERT JUMPDEST PUSH1 0x2 PUSH0 DUP4 DUP2 MSTORE PUSH1 0x20 ADD SWAP1 DUP2 MSTORE PUSH1 0x20 ADD PUSH0 KECCAK256 PUSH1 0x6 ADD SLOAD SWAP1 POP SWAP2 SWAP1 POP JUMP JUMPDEST PUSH1 0x60 PUSH0 PUSH20 0xFFFFFFFFFFFFFFFFFFFFFFFFFFFFFFFFFFFFFFFF AND PUSH1 0x2 PUSH0 DUP5 DUP2 MSTORE PUSH1 0x20 ADD SWAP1 DUP2 MSTORE PUSH1 0x20 ADD PUSH0 KECCAK256 PUSH0 ADD PUSH0 SWAP1 SLOAD SWAP1 PUSH2 0x100 EXP SWAP1 DIV PUSH20 0xFFFFFFFFFFFFFFFFFFFFFFFFFFFFFFFFFFFFFFFF AND PUSH20 0xFFFFFFFFFFFFFFFFFFFFFFFFFFFFFFFFFFFFFFFF AND SUB PUSH2 0x10F4 JUMPI PUSH1 0x40 MLOAD PUSH32 0x8C379A000000000000000000000000000000000000000000000000000000000 DUP2 MSTORE PUSH1 0x4 ADD PUSH2 0x10EB SWAP1 PUSH2 0x2052 JUMP JUMPDEST PUSH1 0x40 MLOAD DUP1 SWAP2 SUB SWAP1 REVERT JUMPDEST PUSH1 0x2 PUSH0 DUP4 DUP2 MSTORE PUSH1 0x20 ADD SWAP1 DUP2 MSTORE PUSH1 0x20 ADD PUSH0 KECCAK256 PUSH1 0x2 ADD DUP1 SLOAD PUSH2 0x1113 SWAP1 PUSH2 0x212B JUMP JUMPDEST DUP1 PUSH1 0x1F ADD PUSH1 0x20 DUP1 SWAP2 DIV MUL PUSH1 0x20 ADD PUSH1 0x40 MLOAD SWAP1 DUP2 ADD PUSH1 0x40 MSTORE DUP1 SWAP3 SWAP2 SWAP1 DUP2 DUP2 MSTORE PUSH1 0x20 ADD DUP3 DUP1 SLOAD PUSH2 0x113F SWAP1 PUSH2 0x212B JUMP JUMPDEST DUP1 ISZERO PUSH2 0x118A JUMPI DUP1 PUSH1 0x1F LT PUSH2 0x1161 JUMPI PUSH2 0x100 DUP1 DUP4 SLOAD DIV MUL DUP4 MSTORE SWAP2 PUSH1 0x20 ADD SWAP2 PUSH2 0x118A JUMP JUMPDEST DUP3 ADD SWAP2 SWAP1 PUSH0 MSTORE PUSH1 0x20 PUSH0 KECCAK256 SWAP1 JUMPDEST DUP2 SLOAD DUP2 MSTORE SWAP1 PUSH1 0x1 ADD SWAP1 PUSH1 0x20 ADD DUP1 DUP4 GT PUSH2 0x116D JUMPI DUP3 SWAP1 SUB PUSH1 0x1F AND DUP3 ADD SWAP2 JUMPDEST POP POP POP POP POP SWAP1 POP SWAP2 SWAP1 POP JUMP JUMPDEST PUSH0 PUSH20 0xFFFFFFFFFFFFFFFFFFFFFFFFFFFFFFFFFFFFFFFF AND PUSH1 0x2 PUSH0 DUP4 DUP2 MSTORE PUSH1 0x20 ADD SWAP1 DUP2 MSTORE PUSH1 0x20 ADD PUSH0 KECCAK256 PUSH0 ADD PUSH0 SWAP1 SLOAD SWAP1 PUSH2 0x100 EXP SWAP1 DIV PUSH20 0xFFFFFFFFFFFFFFFFFFFFFFFFFFFFFFFFFFFFFFFF AND PUSH20 0xFFFFFFFFFFFFFFFFFFFFFFFFFFFFFFFFFFFFFFFF AND SUB PUSH2 0x1236 JUMPI PUSH1 0x40 MLOAD PUSH32 0x8C379A000000000000000000000000000000000000000000000000000000000 DUP2 MSTORE PUSH1 0x4 ADD PUSH2 0x122D SWAP1 PUSH2 0x2052 JUMP JUMPDEST PUSH1 0x40 MLOAD DUP1 SWAP2 SUB SWAP1 REVERT JUMPDEST PUSH0 PUSH1 0x2 PUSH0 DUP4 DUP2 MSTORE PUSH1 0x20 ADD SWAP1 DUP2 MSTORE PUSH1 0x20 ADD PUSH0 KECCAK256 PUSH1 0x4 ADD SLOAD SUB PUSH2 0x128C JUMPI PUSH1 0x40 MLOAD PUSH32 0x8C379A000000000000000000000000000000000000000000000000000000000 DUP2 MSTORE PUSH1 0x4 ADD PUSH2 0x1283 SWAP1 PUSH2 0x29A3 JUMP JUMPDEST PUSH1 0x40 MLOAD DUP1 SWAP2 SUB SWAP1 REVERT JUMPDEST CALLVALUE PUSH1 0x2 PUSH0 DUP4 DUP2 MSTORE PUSH1 0x20 ADD SWAP1 DUP2 MSTORE PUSH1 0x20 ADD PUSH0 KECCAK256 PUSH1 0x8 ADD PUSH0 CALLER PUSH20 0xFFFFFFFFFFFFFFFFFFFFFFFFFFFFFFFFFFFFFFFF AND PUSH20 0xFFFFFFFFFFFFFFFFFFFFFFFFFFFFFFFFFFFFFFFF AND DUP2 MSTORE PUSH1 0x20 ADD SWAP1 DUP2 MSTORE PUSH1 0x20 ADD PUSH0 KECCAK256 PUSH0 DUP3 DUP3 SLOAD PUSH2 0x12EA SWAP2 SWAP1 PUSH2 0x25B9 JUMP JUMPDEST SWAP3 POP POP DUP2 SWAP1 SSTORE POP CALLVALUE PUSH1 0x2 PUSH0 DUP4 DUP2 MSTORE PUSH1 0x20 ADD SWAP1 DUP2 MSTORE PUSH1 0x20 ADD PUSH0 KECCAK256 PUSH1 0x5 ADD PUSH0 DUP3 DUP3 SLOAD PUSH2 0x1314 SWAP2 SWAP1 PUSH2 0x25B9 JUMP JUMPDEST SWAP3 POP POP DUP2 SWAP1 SSTORE POP CALLVALUE PUSH1 0x2 PUSH0 DUP4 DUP2 MSTORE PUSH1 0x20 ADD SWAP1 DUP2 MSTORE PUSH1 0x20 ADD PUSH0 KECCAK256 PUSH1 0x7 ADD PUSH0 DUP3 DUP3 SLOAD PUSH2 0x133E SWAP2 SWAP1 PUSH2 0x25B9 JUMP JUMPDEST SWAP3 POP POP DUP2 SWAP1 SSTORE POP POP JUMP JUMPDEST PUSH0 DUP1 PUSH20 0xFFFFFFFFFFFFFFFFFFFFFFFFFFFFFFFFFFFFFFFF AND PUSH1 0x2 PUSH0 DUP5 DUP2 MSTORE PUSH1 0x20 ADD SWAP1 DUP2 MSTORE PUSH1 0x20 ADD PUSH0 KECCAK256 PUSH0 ADD PUSH0 SWAP1 SLOAD SWAP1 PUSH2 0x100 EXP SWAP1 DIV PUSH20 0xFFFFFFFFFFFFFFFFFFFFFFFFFFFFFFFFFFFFFFFF AND PUSH20 0xFFFFFFFFFFFFFFFFFFFFFFFFFFFFFFFFFFFFFFFF AND SUB PUSH2 0x13E9 JUMPI PUSH1 0x40 MLOAD PUSH32 0x8C379A000000000000000000000000000000000000000000000000000000000 DUP2 MSTORE PUSH1 0x4 ADD PUSH2 0x13E0 SWAP1 PUSH2 0x2052 JUMP JUMPDEST PUSH1 0x40 MLOAD DUP1 SWAP2 SUB SWAP1 REVERT JUMPDEST PUSH1 0x2 PUSH0 DUP4 DUP2 MSTORE PUSH1 0x20 ADD SWAP1 DUP2 MSTORE PUSH1 0x20 ADD PUSH0 KECCAK256 PUSH0 ADD PUSH0 SWAP1 SLOAD SWAP1 PUSH2 0x100 EXP SWAP1 DIV PUSH20 0xFFFFFFFFFFFFFFFFFFFFFFFFFFFFFFFFFFFFFFFF AND SWAP1 POP SWAP2 SWAP1 POP JUMP JUMPDEST PUSH0 PUSH20 0xFFFFFFFFFFFFFFFFFFFFFFFFFFFFFFFFFFFFFFFF AND PUSH1 0x2 PUSH0 DUP4 DUP2 MSTORE PUSH1 0x20 ADD SWAP1 DUP2 MSTORE PUSH1 0x20 ADD PUSH0 KECCAK256 PUSH0 ADD PUSH0 SWAP1 SLOAD SWAP1 PUSH2 0x100 EXP SWAP1 DIV PUSH20 0xFFFFFFFFFFFFFFFFFFFFFFFFFFFFFFFFFFFFFFFF AND PUSH20 0xFFFFFFFFFFFFFFFFFFFFFFFFFFFFFFFFFFFFFFFF AND SUB PUSH2 0x14C3 JUMPI PUSH1 0x40 MLOAD PUSH32 0x8C379A000000000000000000000000000000000000000000000000000000000 DUP2 MSTORE PUSH1 0x4 ADD PUSH2 0x14BA SWAP1 PUSH2 0x2052 JUMP JUMPDEST PUSH1 0x40 MLOAD DUP1 SWAP2 SUB SWAP1 REVERT JUMPDEST PUSH1 0x2 PUSH0 DUP3 DUP2 MSTORE PUSH1 0x20 ADD SWAP1 DUP2 MSTORE PUSH1 0x20 ADD PUSH0 KECCAK256 PUSH1 0x6 ADD SLOAD TIMESTAMP LT ISZERO PUSH2 0x151A JUMPI PUSH1 0x40 MLOAD PUSH32 0x8C379A000000000000000000000000000000000000000000000000000000000 DUP2 MSTORE PUSH1 0x4 ADD PUSH2 0x1511 SWAP1 PUSH2 0x2669 JUMP JUMPDEST PUSH1 0x40 MLOAD DUP1 SWAP2 SUB SWAP1 REVERT JUMPDEST PUSH1 0x2 PUSH0 DUP3 DUP2 MSTORE PUSH1 0x20 ADD SWAP1 DUP2 MSTORE PUSH1 0x20 ADD PUSH0 KECCAK256 PUSH1 0x4 ADD SLOAD PUSH1 0x2 PUSH0 DUP4 DUP2 MSTORE PUSH1 0x20 ADD SWAP1 DUP2 MSTORE PUSH1 0x20 ADD PUSH0 KECCAK256 PUSH1 0x5 ADD SLOAD LT ISZERO PUSH2 0x1585 JUMPI PUSH1 0x40 MLOAD PUSH32 0x8C379A000000000000000000000000000000000000000000000000000000000 DUP2 MSTORE PUSH1 0x4 ADD PUSH2 0x157C SWAP1 PUSH2 0x2A31 JUMP JUMPDEST PUSH1 0x40 MLOAD DUP1 SWAP2 SUB SWAP1 REVERT JUMPDEST PUSH1 0x2 PUSH0 DUP3 DUP2 MSTORE PUSH1 0x20 ADD SWAP1 DUP2 MSTORE PUSH1 0x20 ADD PUSH0 KECCAK256 PUSH0 ADD PUSH0 SWAP1 SLOAD SWAP1 PUSH2 0x100 EXP SWAP1 DIV PUSH20 0xFFFFFFFFFFFFFFFFFFFFFFFFFFFFFFFFFFFFFFFF AND PUSH20 0xFFFFFFFFFFFFFFFFFFFFFFFFFFFFFFFFFFFFFFFF AND CALLER PUSH20 0xFFFFFFFFFFFFFFFFFFFFFFFFFFFFFFFFFFFFFFFF AND EQ PUSH2 0x1625 JUMPI PUSH1 0x40 MLOAD PUSH32 0x8C379A000000000000000000000000000000000000000000000000000000000 DUP2 MSTORE PUSH1 0x4 ADD PUSH2 0x161C SWAP1 PUSH2 0x2ABF JUMP JUMPDEST PUSH1 0x40 MLOAD DUP1 SWAP2 SUB SWAP1 REVERT JUMPDEST PUSH0 PUSH1 0x2 PUSH0 DUP4 DUP2 MSTORE PUSH1 0x20 ADD SWAP1 DUP2 MSTORE PUSH1 0x20 ADD PUSH0 KECCAK256 PUSH1 0x7 ADD SLOAD GT PUSH2 0x167B JUMPI PUSH1 0x40 MLOAD PUSH32 0x8C379A000000000000000000000000000000000000000000000000000000000 DUP2 MSTORE PUSH1 0x4 ADD PUSH2 0x1672 SWAP1 PUSH2 0x2B27 JUMP JUMPDEST PUSH1 0x40 MLOAD DUP1 SWAP2 SUB SWAP1 REVERT JUMPDEST PUSH0 PUSH1 0x2 PUSH0 DUP4 DUP2 MSTORE PUSH1 0x20 ADD SWAP1 DUP2 MSTORE PUSH1 0x20 ADD PUSH0 KECCAK256 PUSH1 0x7 ADD SLOAD SWAP1 POP PUSH0 PUSH1 0x2 PUSH0 DUP5 DUP2 MSTORE PUSH1 0x20 ADD SWAP1 DUP2 MSTORE PUSH1 0x20 ADD PUSH0 KECCAK256 PUSH1 0x7 ADD DUP2 SWAP1 SSTORE POP PUSH1 0x2 PUSH0 DUP4 DUP2 MSTORE PUSH1 0x20 ADD SWAP1 DUP2 MSTORE PUSH1 0x20 ADD PUSH0 KECCAK256 PUSH0 ADD PUSH0 SWAP1 SLOAD SWAP1 PUSH2 0x100 EXP SWAP1 DIV PUSH20 0xFFFFFFFFFFFFFFFFFFFFFFFFFFFFFFFFFFFFFFFF AND PUSH20 0xFFFFFFFFFFFFFFFFFFFFFFFFFFFFFFFFFFFFFFFF AND PUSH2 0x8FC DUP3 SWAP1 DUP2 ISZERO MUL SWAP1 PUSH1 0x40 MLOAD PUSH0 PUSH1 0x40 MLOAD DUP1 DUP4 SUB DUP2 DUP6 DUP9 DUP9 CALL SWAP4 POP POP POP POP ISZERO DUP1 ISZERO PUSH2 0x1721 JUMPI RETURNDATASIZE PUSH0 DUP1 RETURNDATACOPY RETURNDATASIZE PUSH0 REVERT JUMPDEST POP POP POP JUMP JUMPDEST PUSH1 0x60 PUSH0 PUSH20 0xFFFFFFFFFFFFFFFFFFFFFFFFFFFFFFFFFFFFFFFF AND PUSH1 0x2 PUSH0 DUP5 DUP2 MSTORE PUSH1 0x20 ADD SWAP1 DUP2 MSTORE PUSH1 0x20 ADD PUSH0 KECCAK256 PUSH0 ADD PUSH0 SWAP1 SLOAD SWAP1 PUSH2 0x100 EXP SWAP1 DIV PUSH20 0xFFFFFFFFFFFFFFFFFFFFFFFFFFFFFFFFFFFFFFFF AND PUSH20 0xFFFFFFFFFFFFFFFFFFFFFFFFFFFFFFFFFFFFFFFF AND SUB PUSH2 0x17C8 JUMPI PUSH1 0x40 MLOAD PUSH32 0x8C379A000000000000000000000000000000000000000000000000000000000 DUP2 MSTORE PUSH1 0x4 ADD PUSH2 0x17BF SWAP1 PUSH2 0x2052 JUMP JUMPDEST PUSH1 0x40 MLOAD DUP1 SWAP2 SUB SWAP1 REVERT JUMPDEST PUSH1 0x2 PUSH0 DUP4 DUP2 MSTORE PUSH1 0x20 ADD SWAP1 DUP2 MSTORE PUSH1 0x20 ADD PUSH0 KECCAK256 PUSH1 0x3 ADD DUP1 SLOAD PUSH2 0x17E7 SWAP1 PUSH2 0x212B JUMP JUMPDEST DUP1 PUSH1 0x1F ADD PUSH1 0x20 DUP1 SWAP2 DIV MUL PUSH1 0x20 ADD PUSH1 0x40 MLOAD SWAP1 DUP2 ADD PUSH1 0x40 MSTORE DUP1 SWAP3 SWAP2 SWAP1 DUP2 DUP2 MSTORE PUSH1 0x20 ADD DUP3 DUP1 SLOAD PUSH2 0x1813 SWAP1 PUSH2 0x212B JUMP JUMPDEST DUP1 ISZERO PUSH2 0x185E JUMPI DUP1 PUSH1 0x1F LT PUSH2 0x1835 JUMPI PUSH2 0x100 DUP1 DUP4 SLOAD DIV MUL DUP4 MSTORE SWAP2 PUSH1 0x20 ADD SWAP2 PUSH2 0x185E JUMP JUMPDEST DUP3 ADD SWAP2 SWAP1 PUSH0 MSTORE PUSH1 0x20 PUSH0 KECCAK256 SWAP1 JUMPDEST DUP2 SLOAD DUP2 MSTORE SWAP1 PUSH1 0x1 ADD SWAP1 PUSH1 0x20 ADD DUP1 DUP4 GT PUSH2 0x1841 JUMPI DUP3 SWAP1 SUB PUSH1 0x1F AND DUP3 ADD SWAP2 JUMPDEST POP POP POP POP POP SWAP1 POP SWAP2 SWAP1 POP JUMP JUMPDEST PUSH0 DUP1 PUSH20 0xFFFFFFFFFFFFFFFFFFFFFFFFFFFFFFFFFFFFFFFF AND PUSH1 0x2 PUSH0 DUP5 DUP2 MSTORE PUSH1 0x20 ADD SWAP1 DUP2 MSTORE PUSH1 0x20 ADD PUSH0 KECCAK256 PUSH0 ADD PUSH0 SWAP1 SLOAD SWAP1 PUSH2 0x100 EXP SWAP1 DIV PUSH20 0xFFFFFFFFFFFFFFFFFFFFFFFFFFFFFFFFFFFFFFFF AND PUSH20 0xFFFFFFFFFFFFFFFFFFFFFFFFFFFFFFFFFFFFFFFF AND SUB PUSH2 0x190B JUMPI PUSH1 0x40 MLOAD PUSH32 0x8C379A000000000000000000000000000000000000000000000000000000000 DUP2 MSTORE PUSH1 0x4 ADD PUSH2 0x1902 SWAP1 PUSH2 0x2052 JUMP JUMPDEST PUSH1 0x40 MLOAD DUP1 SWAP2 SUB SWAP1 REVERT JUMPDEST PUSH1 0x2 PUSH0 DUP4 DUP2 MSTORE PUSH1 0x20 ADD SWAP1 DUP2 MSTORE PUSH1 0x20 ADD PUSH0 KECCAK256 PUSH1 0x4 ADD SLOAD SWAP1 POP SWAP2 SWAP1 POP JUMP JUMPDEST PUSH0 PUSH20 0xFFFFFFFFFFFFFFFFFFFFFFFFFFFFFFFFFFFFFFFF AND PUSH1 0x2 PUSH0 DUP5 DUP2 MSTORE PUSH1 0x20 ADD SWAP1 DUP2 MSTORE PUSH1 0x20 ADD PUSH0 KECCAK256 PUSH0 ADD PUSH0 SWAP1 SLOAD SWAP1 PUSH2 0x100 EXP SWAP1 DIV PUSH20 0xFFFFFFFFFFFFFFFFFFFFFFFFFFFFFFFFFFFFFFFF AND PUSH20 0xFFFFFFFFFFFFFFFFFFFFFFFFFFFFFFFFFFFFFFFF AND SUB PUSH2 0x19C7 JUMPI PUSH1 0x40 MLOAD PUSH32 0x8C379A000000000000000000000000000000000000000000000000000000000 DUP2 MSTORE PUSH1 0x4 ADD PUSH2 0x19BE SWAP1 PUSH2 0x2052 JUMP JUMPDEST PUSH1 0x40 MLOAD DUP1 SWAP2 SUB SWAP1 REVERT JUMPDEST PUSH1 0x2 PUSH0 DUP4 DUP2 MSTORE PUSH1 0x20 ADD SWAP1 DUP2 MSTORE PUSH1 0x20 ADD PUSH0 KECCAK256 PUSH0 ADD PUSH0 SWAP1 SLOAD SWAP1 PUSH2 0x100 EXP SWAP1 DIV PUSH20 0xFFFFFFFFFFFFFFFFFFFFFFFFFFFFFFFFFFFFFFFF AND PUSH20 0xFFFFFFFFFFFFFFFFFFFFFFFFFFFFFFFFFFFFFFFF AND CALLER PUSH20 0xFFFFFFFFFFFFFFFFFFFFFFFFFFFFFFFFFFFFFFFF AND EQ PUSH2 0x1A67 JUMPI PUSH1 0x40 MLOAD PUSH32 0x8C379A000000000000000000000000000000000000000000000000000000000 DUP2 MSTORE PUSH1 0x4 ADD PUSH2 0x1A5E SWAP1 PUSH2 0x2BB5 JUMP JUMPDEST PUSH1 0x40 MLOAD DUP1 SWAP2 SUB SWAP1 REVERT JUMPDEST DUP1 PUSH1 0x2 PUSH0 DUP5 DUP2 MSTORE PUSH1 0x20 ADD SWAP1 DUP2 MSTORE PUSH1 0x20 ADD PUSH0 KECCAK256 PUSH1 0x1 ADD SWAP1 DUP2 PUSH2 0x1A88 SWAP2 SWAP1 PUSH2 0x22F8 JUMP JUMPDEST POP POP POP JUMP JUMPDEST PUSH1 0x60 PUSH0 PUSH20 0xFFFFFFFFFFFFFFFFFFFFFFFFFFFFFFFFFFFFFFFF AND PUSH1 0x2 PUSH0 DUP5 DUP2 MSTORE PUSH1 0x20 ADD SWAP1 DUP2 MSTORE PUSH1 0x20 ADD PUSH0 KECCAK256 PUSH0 ADD PUSH0 SWAP1 SLOAD SWAP1 PUSH2 0x100 EXP SWAP1 DIV PUSH20 0xFFFFFFFFFFFFFFFFFFFFFFFFFFFFFFFFFFFFFFFF AND PUSH20 0xFFFFFFFFFFFFFFFFFFFFFFFFFFFFFFFFFFFFFFFF AND SUB PUSH2 0x1B2F JUMPI PUSH1 0x40 MLOAD PUSH32 0x8C379A000000000000000000000000000000000000000000000000000000000 DUP2 MSTORE PUSH1 0x4 ADD PUSH2 0x1B26 SWAP1 PUSH2 0x2052 JUMP JUMPDEST PUSH1 0x40 MLOAD DUP1 SWAP2 SUB SWAP1 REVERT JUMPDEST PUSH1 0x2 PUSH0 DUP4 DUP2 MSTORE PUSH1 0x20 ADD SWAP1 DUP2 MSTORE PUSH1 0x20 ADD PUSH0 KECCAK256 PUSH1 0x1 ADD DUP1 SLOAD PUSH2 0x1B4E SWAP1 PUSH2 0x212B JUMP JUMPDEST DUP1 PUSH1 0x1F ADD PUSH1 0x20 DUP1 SWAP2 DIV MUL PUSH1 0x20 ADD PUSH1 0x40 MLOAD SWAP1 DUP2 ADD PUSH1 0x40 MSTORE DUP1 SWAP3 SWAP2 SWAP1 DUP2 DUP2 MSTORE PUSH1 0x20 ADD DUP3 DUP1 SLOAD PUSH2 0x1B7A SWAP1 PUSH2 0x212B JUMP JUMPDEST DUP1 ISZERO PUSH2 0x1BC5 JUMPI DUP1 PUSH1 0x1F LT PUSH2 0x1B9C JUMPI PUSH2 0x100 DUP1 DUP4 SLOAD DIV MUL DUP4 MSTORE SWAP2 PUSH1 0x20 ADD SWAP2 PUSH2 0x1BC5 JUMP JUMPDEST DUP3 ADD SWAP2 SWAP1 PUSH0 MSTORE PUSH1 0x20 PUSH0 KECCAK256 SWAP1 JUMPDEST DUP2 SLOAD DUP2 MSTORE SWAP1 PUSH1 0x1 ADD SWAP1 PUSH1 0x20 ADD DUP1 DUP4 GT PUSH2 0x1BA8 JUMPI DUP3 SWAP1 SUB PUSH1 0x1F AND DUP3 ADD SWAP2 JUMPDEST POP POP POP POP POP SWAP1 POP SWAP2 SWAP1 POP JUMP JUMPDEST PUSH0 PUSH1 0x40 MLOAD SWAP1 POP SWAP1 JUMP JUMPDEST PUSH0 DUP1 REVERT JUMPDEST PUSH0 DUP1 REVERT JUMPDEST PUSH0 DUP2 SWAP1 POP SWAP2 SWAP1 POP JUMP JUMPDEST PUSH2 0x1BF4 DUP2 PUSH2 0x1BE2 JUMP JUMPDEST DUP2 EQ PUSH2 0x1BFE JUMPI PUSH0 DUP1 REVERT JUMPDEST POP JUMP JUMPDEST PUSH0 DUP2 CALLDATALOAD SWAP1 POP PUSH2 0x1C0F DUP2 PUSH2 0x1BEB JUMP JUMPDEST SWAP3 SWAP2 POP POP JUMP JUMPDEST PUSH0 DUP1 REVERT JUMPDEST PUSH0 DUP1 REVERT JUMPDEST PUSH0 PUSH1 0x1F NOT PUSH1 0x1F DUP4 ADD AND SWAP1 POP SWAP2 SWAP1 POP JUMP JUMPDEST PUSH32 0x4E487B7100000000000000000000000000000000000000000000000000000000 PUSH0 MSTORE PUSH1 0x41 PUSH1 0x4 MSTORE PUSH1 0x24 PUSH0 REVERT JUMPDEST PUSH2 0x1C63 DUP3 PUSH2 0x1C1D JUMP JUMPDEST DUP2 ADD DUP2 DUP2 LT PUSH8 0xFFFFFFFFFFFFFFFF DUP3 GT OR ISZERO PUSH2 0x1C82 JUMPI PUSH2 0x1C81 PUSH2 0x1C2D JUMP JUMPDEST JUMPDEST DUP1 PUSH1 0x40 MSTORE POP POP POP JUMP JUMPDEST PUSH0 PUSH2 0x1C94 PUSH2 0x1BD1 JUMP JUMPDEST SWAP1 POP PUSH2 0x1CA0 DUP3 DUP3 PUSH2 0x1C5A JUMP JUMPDEST SWAP2 SWAP1 POP JUMP JUMPDEST PUSH0 PUSH8 0xFFFFFFFFFFFFFFFF DUP3 GT ISZERO PUSH2 0x1CBF JUMPI PUSH2 0x1CBE PUSH2 0x1C2D JUMP JUMPDEST JUMPDEST PUSH2 0x1CC8 DUP3 PUSH2 0x1C1D JUMP JUMPDEST SWAP1 POP PUSH1 0x20 DUP2 ADD SWAP1 POP SWAP2 SWAP1 POP JUMP JUMPDEST DUP3 DUP2 DUP4 CALLDATACOPY PUSH0 DUP4 DUP4 ADD MSTORE POP POP POP JUMP JUMPDEST PUSH0 PUSH2 0x1CF5 PUSH2 0x1CF0 DUP5 PUSH2 0x1CA5 JUMP JUMPDEST PUSH2 0x1C8B JUMP JUMPDEST SWAP1 POP DUP3 DUP2 MSTORE PUSH1 0x20 DUP2 ADD DUP5 DUP5 DUP5 ADD GT ISZERO PUSH2 0x1D11 JUMPI PUSH2 0x1D10 PUSH2 0x1C19 JUMP JUMPDEST JUMPDEST PUSH2 0x1D1C DUP5 DUP3 DUP6 PUSH2 0x1CD5 JUMP JUMPDEST POP SWAP4 SWAP3 POP POP POP JUMP JUMPDEST PUSH0 DUP3 PUSH1 0x1F DUP4 ADD SLT PUSH2 0x1D38 JUMPI PUSH2 0x1D37 PUSH2 0x1C15 JUMP JUMPDEST JUMPDEST DUP2 CALLDATALOAD PUSH2 0x1D48 DUP5 DUP3 PUSH1 0x20 DUP7 ADD PUSH2 0x1CE3 JUMP JUMPDEST SWAP2 POP POP SWAP3 SWAP2 POP POP JUMP JUMPDEST PUSH0 DUP1 PUSH1 0x40 DUP4 DUP6 SUB SLT ISZERO PUSH2 0x1D67 JUMPI PUSH2 0x1D66 PUSH2 0x1BDA JUMP JUMPDEST JUMPDEST PUSH0 PUSH2 0x1D74 DUP6 DUP3 DUP7 ADD PUSH2 0x1C01 JUMP JUMPDEST SWAP3 POP POP PUSH1 0x20 DUP4 ADD CALLDATALOAD PUSH8 0xFFFFFFFFFFFFFFFF DUP2 GT ISZERO PUSH2 0x1D95 JUMPI PUSH2 0x1D94 PUSH2 0x1BDE JUMP JUMPDEST JUMPDEST PUSH2 0x1DA1 DUP6 DUP3 DUP7 ADD PUSH2 0x1D24 JUMP JUMPDEST SWAP2 POP POP SWAP3 POP SWAP3 SWAP1 POP JUMP JUMPDEST PUSH0 DUP1 PUSH1 0x40 DUP4 DUP6 SUB SLT ISZERO PUSH2 0x1DC1 JUMPI PUSH2 0x1DC0 PUSH2 0x1BDA JUMP JUMPDEST JUMPDEST PUSH0 PUSH2 0x1DCE DUP6 DUP3 DUP7 ADD PUSH2 0x1C01 JUMP JUMPDEST SWAP3 POP POP PUSH1 0x20 PUSH2 0x1DDF DUP6 DUP3 DUP7 ADD PUSH2 0x1C01 JUMP JUMPDEST SWAP2 POP POP SWAP3 POP SWAP3 SWAP1 POP JUMP JUMPDEST PUSH0 PUSH1 0x20 DUP3 DUP5 SUB SLT ISZERO PUSH2 0x1DFE JUMPI PUSH2 0x1DFD PUSH2 0x1BDA JUMP JUMPDEST JUMPDEST PUSH0 PUSH2 0x1E0B DUP5 DUP3 DUP6 ADD PUSH2 0x1C01 JUMP JUMPDEST SWAP2 POP POP SWAP3 SWAP2 POP POP JUMP JUMPDEST PUSH2 0x1E1D DUP2 PUSH2 0x1BE2 JUMP JUMPDEST DUP3 MSTORE POP POP JUMP JUMPDEST PUSH0 PUSH1 0x20 DUP3 ADD SWAP1 POP PUSH2 0x1E36 PUSH0 DUP4 ADD DUP5 PUSH2 0x1E14 JUMP JUMPDEST SWAP3 SWAP2 POP POP JUMP JUMPDEST PUSH0 DUP1 PUSH0 PUSH1 0x60 DUP5 DUP7 SUB SLT ISZERO PUSH2 0x1E53 JUMPI PUSH2 0x1E52 PUSH2 0x1BDA JUMP JUMPDEST JUMPDEST PUSH0 DUP5 ADD CALLDATALOAD PUSH8 0xFFFFFFFFFFFFFFFF DUP2 GT ISZERO PUSH2 0x1E70 JUMPI PUSH2 0x1E6F PUSH2 0x1BDE JUMP JUMPDEST JUMPDEST PUSH2 0x1E7C DUP7 DUP3 DUP8 ADD PUSH2 0x1D24 JUMP JUMPDEST SWAP4 POP POP PUSH1 0x20 DUP5 ADD CALLDATALOAD PUSH8 0xFFFFFFFFFFFFFFFF DUP2 GT ISZERO PUSH2 0x1E9D JUMPI PUSH2 0x1E9C PUSH2 0x1BDE JUMP JUMPDEST JUMPDEST PUSH2 0x1EA9 DUP7 DUP3 DUP8 ADD PUSH2 0x1D24 JUMP JUMPDEST SWAP3 POP POP PUSH1 0x40 PUSH2 0x1EBA DUP7 DUP3 DUP8 ADD PUSH2 0x1C01 JUMP JUMPDEST SWAP2 POP POP SWAP3 POP SWAP3 POP SWAP3 JUMP JUMPDEST PUSH0 DUP1 PUSH0 PUSH1 0x60 DUP5 DUP7 SUB SLT ISZERO PUSH2 0x1EDB JUMPI PUSH2 0x1EDA PUSH2 0x1BDA JUMP JUMPDEST JUMPDEST PUSH0 DUP5 ADD CALLDATALOAD PUSH8 0xFFFFFFFFFFFFFFFF DUP2 GT ISZERO PUSH2 0x1EF8 JUMPI PUSH2 0x1EF7 PUSH2 0x1BDE JUMP JUMPDEST JUMPDEST PUSH2 0x1F04 DUP7 DUP3 DUP8 ADD PUSH2 0x1D24 JUMP JUMPDEST SWAP4 POP POP PUSH1 0x20 PUSH2 0x1F15 DUP7 DUP3 DUP8 ADD PUSH2 0x1C01 JUMP JUMPDEST SWAP3 POP POP PUSH1 0x40 PUSH2 0x1F26 DUP7 DUP3 DUP8 ADD PUSH2 0x1C01 JUMP JUMPDEST SWAP2 POP POP SWAP3 POP SWAP3 POP SWAP3 JUMP JUMPDEST PUSH0 DUP2 MLOAD SWAP1 POP SWAP2 SWAP1 POP JUMP JUMPDEST PUSH0 DUP3 DUP3 MSTORE PUSH1 0x20 DUP3 ADD SWAP1 POP SWAP3 SWAP2 POP POP JUMP JUMPDEST DUP3 DUP2 DUP4 MCOPY PUSH0 DUP4 DUP4 ADD MSTORE POP POP POP JUMP JUMPDEST PUSH0 PUSH2 0x1F62 DUP3 PUSH2 0x1F30 JUMP JUMPDEST PUSH2 0x1F6C DUP2 DUP6 PUSH2 0x1F3A JUMP JUMPDEST SWAP4 POP PUSH2 0x1F7C DUP2 DUP6 PUSH1 0x20 DUP7 ADD PUSH2 0x1F4A JUMP JUMPDEST PUSH2 0x1F85 DUP2 PUSH2 0x1C1D JUMP JUMPDEST DUP5 ADD SWAP2 POP POP SWAP3 SWAP2 POP POP JUMP JUMPDEST PUSH0 PUSH1 0x20 DUP3 ADD SWAP1 POP DUP2 DUP2 SUB PUSH0 DUP4 ADD MSTORE PUSH2 0x1FA8 DUP2 DUP5 PUSH2 0x1F58 JUMP JUMPDEST SWAP1 POP SWAP3 SWAP2 POP POP JUMP JUMPDEST PUSH0 PUSH20 0xFFFFFFFFFFFFFFFFFFFFFFFFFFFFFFFFFFFFFFFF DUP3 AND SWAP1 POP SWAP2 SWAP1 POP JUMP JUMPDEST PUSH0 PUSH2 0x1FD9 DUP3 PUSH2 0x1FB0 JUMP JUMPDEST SWAP1 POP SWAP2 SWAP1 POP JUMP JUMPDEST PUSH2 0x1FE9 DUP2 PUSH2 0x1FCF JUMP JUMPDEST DUP3 MSTORE POP POP JUMP JUMPDEST PUSH0 PUSH1 0x20 DUP3 ADD SWAP1 POP PUSH2 0x2002 PUSH0 DUP4 ADD DUP5 PUSH2 0x1FE0 JUMP JUMPDEST SWAP3 SWAP2 POP POP JUMP JUMPDEST PUSH32 0x50726F6A65637420646F6573206E6F7420657869737400000000000000000000 PUSH0 DUP3 ADD MSTORE POP JUMP JUMPDEST PUSH0 PUSH2 0x203C PUSH1 0x16 DUP4 PUSH2 0x1F3A JUMP JUMPDEST SWAP2 POP PUSH2 0x2047 DUP3 PUSH2 0x2008 JUMP JUMPDEST PUSH1 0x20 DUP3 ADD SWAP1 POP SWAP2 SWAP1 POP JUMP JUMPDEST PUSH0 PUSH1 0x20 DUP3 ADD SWAP1 POP DUP2 DUP2 SUB PUSH0 DUP4 ADD MSTORE PUSH2 0x2069 DUP2 PUSH2 0x2030 JUMP JUMPDEST SWAP1 POP SWAP2 SWAP1 POP JUMP JUMPDEST PUSH32 0x4F6E6C7920746865206F776E65722063616E20736574207468652070726F6A65 PUSH0 DUP3 ADD MSTORE PUSH32 0x637420696D616765000000000000000000000000000000000000000000000000 PUSH1 0x20 DUP3 ADD MSTORE POP JUMP JUMPDEST PUSH0 PUSH2 0x20CA PUSH1 0x28 DUP4 PUSH2 0x1F3A JUMP JUMPDEST SWAP2 POP PUSH2 0x20D5 DUP3 PUSH2 0x2070 JUMP JUMPDEST PUSH1 0x40 DUP3 ADD SWAP1 POP SWAP2 SWAP1 POP JUMP JUMPDEST PUSH0 PUSH1 0x20 DUP3 ADD SWAP1 POP DUP2 DUP2 SUB PUSH0 DUP4 ADD MSTORE PUSH2 0x20F7 DUP2 PUSH2 0x20BE JUMP JUMPDEST SWAP1 POP SWAP2 SWAP1 POP JUMP JUMPDEST PUSH32 0x4E487B7100000000000000000000000000000000000000000000000000000000 PUSH0 MSTORE PUSH1 0x22 PUSH1 0x4 MSTORE PUSH1 0x24 PUSH0 REVERT JUMPDEST PUSH0 PUSH1 0x2 DUP3 DIV SWAP1 POP PUSH1 0x1 DUP3 AND DUP1 PUSH2 0x2142 JUMPI PUSH1 0x7F DUP3 AND SWAP2 POP JUMPDEST PUSH1 0x20 DUP3 LT DUP2 SUB PUSH2 0x2155 JUMPI PUSH2 0x2154 PUSH2 0x20FE JUMP JUMPDEST JUMPDEST POP SWAP2 SWAP1 POP JUMP JUMPDEST PUSH0 DUP2 SWAP1 POP DUP2 PUSH0 MSTORE PUSH1 0x20 PUSH0 KECCAK256 SWAP1 POP SWAP2 SWAP1 POP JUMP JUMPDEST PUSH0 PUSH1 0x20 PUSH1 0x1F DUP4 ADD DIV SWAP1 POP SWAP2 SWAP1 POP JUMP JUMPDEST PUSH0 DUP3 DUP3 SHL SWAP1 POP SWAP3 SWAP2 POP POP JUMP JUMPDEST PUSH0 PUSH1 0x8 DUP4 MUL PUSH2 0x21B7 PUSH32 0xFFFFFFFFFFFFFFFFFFFFFFFFFFFFFFFFFFFFFFFFFFFFFFFFFFFFFFFFFFFFFFFF DUP3 PUSH2 0x217C JUMP JUMPDEST PUSH2 0x21C1 DUP7 DUP4 PUSH2 0x217C JUMP JUMPDEST SWAP6 POP DUP1 NOT DUP5 AND SWAP4 POP DUP1 DUP7 AND DUP5 OR SWAP3 POP POP POP SWAP4 SWAP3 POP POP POP JUMP JUMPDEST PUSH0 DUP2 SWAP1 POP SWAP2 SWAP1 POP JUMP JUMPDEST PUSH0 PUSH2 0x21FC PUSH2 0x21F7 PUSH2 0x21F2 DUP5 PUSH2 0x1BE2 JUMP JUMPDEST PUSH2 0x21D9 JUMP JUMPDEST PUSH2 0x1BE2 JUMP JUMPDEST SWAP1 POP SWAP2 SWAP1 POP JUMP JUMPDEST PUSH0 DUP2 SWAP1 POP SWAP2 SWAP1 POP JUMP JUMPDEST PUSH2 0x2215 DUP4 PUSH2 0x21E2 JUMP JUMPDEST PUSH2 0x2229 PUSH2 0x2221 DUP3 PUSH2 0x2203 JUMP JUMPDEST DUP5 DUP5 SLOAD PUSH2 0x2188 JUMP JUMPDEST DUP3 SSTORE POP POP POP POP JUMP JUMPDEST PUSH0 SWAP1 JUMP JUMPDEST PUSH2 0x223D PUSH2 0x2231 JUMP JUMPDEST PUSH2 0x2248 DUP2 DUP5 DUP5 PUSH2 0x220C JUMP JUMPDEST POP POP POP JUMP JUMPDEST JUMPDEST DUP2 DUP2 LT ISZERO PUSH2 0x226B JUMPI PUSH2 0x2260 PUSH0 DUP3 PUSH2 0x2235 JUMP JUMPDEST PUSH1 0x1 DUP2 ADD SWAP1 POP PUSH2 0x224E JUMP JUMPDEST POP POP JUMP JUMPDEST PUSH1 0x1F DUP3 GT ISZERO PUSH2 0x22B0 JUMPI PUSH2 0x2281 DUP2 PUSH2 0x215B JUMP JUMPDEST PUSH2 0x228A DUP5 PUSH2 0x216D JUMP JUMPDEST DUP2 ADD PUSH1 0x20 DUP6 LT ISZERO PUSH2 0x2299 JUMPI DUP2 SWAP1 POP JUMPDEST PUSH2 0x22AD PUSH2 0x22A5 DUP6 PUSH2 0x216D JUMP JUMPDEST DUP4 ADD DUP3 PUSH2 0x224D JUMP JUMPDEST POP POP JUMPDEST POP POP POP JUMP JUMPDEST PUSH0 DUP3 DUP3 SHR SWAP1 POP SWAP3 SWAP2 POP POP JUMP JUMPDEST PUSH0 PUSH2 0x22D0 PUSH0 NOT DUP5 PUSH1 0x8 MUL PUSH2 0x22B5 JUMP JUMPDEST NOT DUP1 DUP4 AND SWAP2 POP POP SWAP3 SWAP2 POP POP JUMP JUMPDEST PUSH0 PUSH2 0x22E8 DUP4 DUP4 PUSH2 0x22C1 JUMP JUMPDEST SWAP2 POP DUP3 PUSH1 0x2 MUL DUP3 OR SWAP1 POP SWAP3 SWAP2 POP POP JUMP JUMPDEST PUSH2 0x2301 DUP3 PUSH2 0x1F30 JUMP JUMPDEST PUSH8 0xFFFFFFFFFFFFFFFF DUP2 GT ISZERO PUSH2 0x231A JUMPI PUSH2 0x2319 PUSH2 0x1C2D JUMP JUMPDEST JUMPDEST PUSH2 0x2324 DUP3 SLOAD PUSH2 0x212B JUMP JUMPDEST PUSH2 0x232F DUP3 DUP3 DUP6 PUSH2 0x226F JUMP JUMPDEST PUSH0 PUSH1 0x20 SWAP1 POP PUSH1 0x1F DUP4 GT PUSH1 0x1 DUP2 EQ PUSH2 0x2360 JUMPI PUSH0 DUP5 ISZERO PUSH2 0x234E JUMPI DUP3 DUP8 ADD MLOAD SWAP1 POP JUMPDEST PUSH2 0x2358 DUP6 DUP3 PUSH2 0x22DD JUMP JUMPDEST DUP7 SSTORE POP PUSH2 0x23BF JUMP JUMPDEST PUSH1 0x1F NOT DUP5 AND PUSH2 0x236E DUP7 PUSH2 0x215B JUMP JUMPDEST PUSH0 JUMPDEST DUP3 DUP2 LT ISZERO PUSH2 0x2395 JUMPI DUP5 DUP10 ADD MLOAD DUP3 SSTORE PUSH1 0x1 DUP3 ADD SWAP2 POP PUSH1 0x20 DUP6 ADD SWAP5 POP PUSH1 0x20 DUP2 ADD SWAP1 POP PUSH2 0x2370 JUMP JUMPDEST DUP7 DUP4 LT ISZERO PUSH2 0x23B2 JUMPI DUP5 DUP10 ADD MLOAD PUSH2 0x23AE PUSH1 0x1F DUP10 AND DUP3 PUSH2 0x22C1 JUMP JUMPDEST DUP4 SSTORE POP JUMPDEST PUSH1 0x1 PUSH1 0x2 DUP9 MUL ADD DUP9 SSTORE POP POP POP JUMPDEST POP POP POP POP POP POP JUMP JUMPDEST PUSH32 0x4F6E6C7920746865206F776E65722063616E20736574207468652070726F6A65 PUSH0 DUP3 ADD MSTORE PUSH32 0x6374206465736372697074696F6E000000000000000000000000000000000000 PUSH1 0x20 DUP3 ADD MSTORE POP JUMP JUMPDEST PUSH0 PUSH2 0x2421 PUSH1 0x2E DUP4 PUSH2 0x1F3A JUMP JUMPDEST SWAP2 POP PUSH2 0x242C DUP3 PUSH2 0x23C7 JUMP JUMPDEST PUSH1 0x40 DUP3 ADD SWAP1 POP SWAP2 SWAP1 POP JUMP JUMPDEST PUSH0 PUSH1 0x20 DUP3 ADD SWAP1 POP DUP2 DUP2 SUB PUSH0 DUP4 ADD MSTORE PUSH2 0x244E DUP2 PUSH2 0x2415 JUMP JUMPDEST SWAP1 POP SWAP2 SWAP1 POP JUMP JUMPDEST PUSH32 0x4F6E6C7920746865206F776E65722063616E2073657420746865207461726765 PUSH0 DUP3 ADD MSTORE PUSH32 0x7400000000000000000000000000000000000000000000000000000000000000 PUSH1 0x20 DUP3 ADD MSTORE POP JUMP JUMPDEST PUSH0 PUSH2 0x24AF PUSH1 0x21 DUP4 PUSH2 0x1F3A JUMP JUMPDEST SWAP2 POP PUSH2 0x24BA DUP3 PUSH2 0x2455 JUMP JUMPDEST PUSH1 0x40 DUP3 ADD SWAP1 POP SWAP2 SWAP1 POP JUMP JUMPDEST PUSH0 PUSH1 0x20 DUP3 ADD SWAP1 POP DUP2 DUP2 SUB PUSH0 DUP4 ADD MSTORE PUSH2 0x24DC DUP2 PUSH2 0x24A3 JUMP JUMPDEST SWAP1 POP SWAP2 SWAP1 POP JUMP JUMPDEST PUSH32 0x5461726765742063616E6E6F7420626520726564756365642E00000000000000 PUSH0 DUP3 ADD MSTORE POP JUMP JUMPDEST PUSH0 PUSH2 0x2517 PUSH1 0x19 DUP4 PUSH2 0x1F3A JUMP JUMPDEST SWAP2 POP PUSH2 0x2522 DUP3 PUSH2 0x24E3 JUMP JUMPDEST PUSH1 0x20 DUP3 ADD SWAP1 POP SWAP2 SWAP1 POP JUMP JUMPDEST PUSH0 PUSH1 0x20 DUP3 ADD SWAP1 POP DUP2 DUP2 SUB PUSH0 DUP4 ADD MSTORE PUSH2 0x2544 DUP2 PUSH2 0x250B JUMP JUMPDEST SWAP1 POP SWAP2 SWAP1 POP JUMP JUMPDEST PUSH32 0x4E487B7100000000000000000000000000000000000000000000000000000000 PUSH0 MSTORE PUSH1 0x11 PUSH1 0x4 MSTORE PUSH1 0x24 PUSH0 REVERT JUMPDEST PUSH0 PUSH2 0x2582 DUP3 PUSH2 0x1BE2 JUMP JUMPDEST SWAP2 POP PUSH2 0x258D DUP4 PUSH2 0x1BE2 JUMP JUMPDEST SWAP3 POP DUP3 DUP3 MUL PUSH2 0x259B DUP2 PUSH2 0x1BE2 JUMP JUMPDEST SWAP2 POP DUP3 DUP3 DIV DUP5 EQ DUP4 ISZERO OR PUSH2 0x25B2 JUMPI PUSH2 0x25B1 PUSH2 0x254B JUMP JUMPDEST JUMPDEST POP SWAP3 SWAP2 POP POP JUMP JUMPDEST PUSH0 PUSH2 0x25C3 DUP3 PUSH2 0x1BE2 JUMP JUMPDEST SWAP2 POP PUSH2 0x25CE DUP4 PUSH2 0x1BE2 JUMP JUMPDEST SWAP3 POP DUP3 DUP3 ADD SWAP1 POP DUP1 DUP3 GT ISZERO PUSH2 0x25E6 JUMPI PUSH2 0x25E5 PUSH2 0x254B JUMP JUMPDEST JUMPDEST SWAP3 SWAP2 POP POP JUMP JUMPDEST PUSH0 PUSH2 0x25F6 DUP3 PUSH2 0x1BE2 JUMP JUMPDEST SWAP2 POP PUSH2 0x2601 DUP4 PUSH2 0x1BE2 JUMP JUMPDEST SWAP3 POP DUP3 DUP3 SUB SWAP1 POP DUP2 DUP2 GT ISZERO PUSH2 0x2619 JUMPI PUSH2 0x2618 PUSH2 0x254B JUMP JUMPDEST JUMPDEST SWAP3 SWAP2 POP POP JUMP JUMPDEST PUSH32 0x50726F6A65637420686173207374696C6C206E6F742065787069726564000000 PUSH0 DUP3 ADD MSTORE POP JUMP JUMPDEST PUSH0 PUSH2 0x2653 PUSH1 0x1D DUP4 PUSH2 0x1F3A JUMP JUMPDEST SWAP2 POP PUSH2 0x265E DUP3 PUSH2 0x261F JUMP JUMPDEST PUSH1 0x20 DUP3 ADD SWAP1 POP SWAP2 SWAP1 POP JUMP JUMPDEST PUSH0 PUSH1 0x20 DUP3 ADD SWAP1 POP DUP2 DUP2 SUB PUSH0 DUP4 ADD MSTORE PUSH2 0x2680 DUP2 PUSH2 0x2647 JUMP JUMPDEST SWAP1 POP SWAP2 SWAP1 POP JUMP JUMPDEST PUSH32 0x50726F6A6563742068617320616C726561647920726561636865642069747320 PUSH0 DUP3 ADD MSTORE PUSH32 0x7461726765740000000000000000000000000000000000000000000000000000 PUSH1 0x20 DUP3 ADD MSTORE POP JUMP JUMPDEST PUSH0 PUSH2 0x26E1 PUSH1 0x26 DUP4 PUSH2 0x1F3A JUMP JUMPDEST SWAP2 POP PUSH2 0x26EC DUP3 PUSH2 0x2687 JUMP JUMPDEST PUSH1 0x40 DUP3 ADD SWAP1 POP SWAP2 SWAP1 POP JUMP JUMPDEST PUSH0 PUSH1 0x20 DUP3 ADD SWAP1 POP DUP2 DUP2 SUB PUSH0 DUP4 ADD MSTORE PUSH2 0x270E DUP2 PUSH2 0x26D5 JUMP JUMPDEST SWAP1 POP SWAP2 SWAP1 POP JUMP JUMPDEST PUSH32 0x496E73756666696369656E742062616C616E6365000000000000000000000000 PUSH0 DUP3 ADD MSTORE POP JUMP JUMPDEST PUSH0 PUSH2 0x2749 PUSH1 0x14 DUP4 PUSH2 0x1F3A JUMP JUMPDEST SWAP2 POP PUSH2 0x2754 DUP3 PUSH2 0x2715 JUMP JUMPDEST PUSH1 0x20 DUP3 ADD SWAP1 POP SWAP2 SWAP1 POP JUMP JUMPDEST PUSH0 PUSH1 0x20 DUP3 ADD SWAP1 POP DUP2 DUP2 SUB PUSH0 DUP4 ADD MSTORE PUSH2 0x2776 DUP2 PUSH2 0x273D JUMP JUMPDEST SWAP1 POP SWAP2 SWAP1 POP JUMP JUMPDEST PUSH32 0x4E6F74207065726D697474656400000000000000000000000000000000000000 PUSH0 DUP3 ADD MSTORE POP JUMP JUMPDEST PUSH0 PUSH2 0x27B1 PUSH1 0xD DUP4 PUSH2 0x1F3A JUMP JUMPDEST SWAP2 POP PUSH2 0x27BC DUP3 PUSH2 0x277D JUMP JUMPDEST PUSH1 0x20 DUP3 ADD SWAP1 POP SWAP2 SWAP1 POP JUMP JUMPDEST PUSH0 PUSH1 0x20 DUP3 ADD SWAP1 POP DUP2 DUP2 SUB PUSH0 DUP4 ADD MSTORE PUSH2 0x27DE DUP2 PUSH2 0x27A5 JUMP JUMPDEST SWAP1 POP SWAP2 SWAP1 POP JUMP JUMPDEST PUSH0 DUP2 SWAP1 POP SWAP3 SWAP2 POP POP JUMP JUMPDEST PUSH32 0x7365745461726765740000000000000000000000000000000000000000000000 PUSH0 DUP3 ADD MSTORE POP JUMP JUMPDEST PUSH0 PUSH2 0x2823 PUSH1 0x9 DUP4 PUSH2 0x27E5 JUMP JUMPDEST SWAP2 POP PUSH2 0x282E DUP3 PUSH2 0x27EF JUMP JUMPDEST PUSH1 0x9 DUP3 ADD SWAP1 POP SWAP2 SWAP1 POP JUMP JUMPDEST PUSH0 PUSH2 0x2843 DUP3 PUSH2 0x2817 JUMP JUMPDEST SWAP2 POP DUP2 SWAP1 POP SWAP2 SWAP1 POP JUMP JUMPDEST PUSH0 PUSH2 0x2857 DUP3 PUSH2 0x1F30 JUMP JUMPDEST PUSH2 0x2861 DUP2 DUP6 PUSH2 0x27E5 JUMP JUMPDEST SWAP4 POP PUSH2 0x2871 DUP2 DUP6 PUSH1 0x20 DUP7 ADD PUSH2 0x1F4A JUMP JUMPDEST DUP1 DUP5 ADD SWAP2 POP POP SWAP3 SWAP2 POP POP JUMP JUMPDEST PUSH0 PUSH2 0x2888 DUP3 DUP5 PUSH2 0x284D JUMP JUMPDEST SWAP2 POP DUP2 SWAP1 POP SWAP3 SWAP2 POP POP JUMP JUMPDEST PUSH32 0x73657452656C6561736554696D65000000000000000000000000000000000000 PUSH0 DUP3 ADD MSTORE POP JUMP JUMPDEST PUSH0 PUSH2 0x28C7 PUSH1 0xE DUP4 PUSH2 0x27E5 JUMP JUMPDEST SWAP2 POP PUSH2 0x28D2 DUP3 PUSH2 0x2893 JUMP JUMPDEST PUSH1 0xE DUP3 ADD SWAP1 POP SWAP2 SWAP1 POP JUMP JUMPDEST PUSH0 PUSH2 0x28E7 DUP3 PUSH2 0x28BB JUMP JUMPDEST SWAP2 POP DUP2 SWAP1 POP SWAP2 SWAP1 POP JUMP JUMPDEST PUSH32 0x496E76616C696420616374696F6E000000000000000000000000000000000000 PUSH0 DUP3 ADD MSTORE POP JUMP JUMPDEST PUSH0 PUSH2 0x2925 PUSH1 0xE DUP4 PUSH2 0x1F3A JUMP JUMPDEST SWAP2 POP PUSH2 0x2930 DUP3 PUSH2 0x28F1 JUMP JUMPDEST PUSH1 0x20 DUP3 ADD SWAP1 POP SWAP2 SWAP1 POP JUMP JUMPDEST PUSH0 PUSH1 0x20 DUP3 ADD SWAP1 POP DUP2 DUP2 SUB PUSH0 DUP4 ADD MSTORE PUSH2 0x2952 DUP2 PUSH2 0x2919 JUMP JUMPDEST SWAP1 POP SWAP2 SWAP1 POP JUMP JUMPDEST PUSH32 0x546172676574206E6F7420796574207365740000000000000000000000000000 PUSH0 DUP3 ADD MSTORE POP JUMP JUMPDEST PUSH0 PUSH2 0x298D PUSH1 0x12 DUP4 PUSH2 0x1F3A JUMP JUMPDEST SWAP2 POP PUSH2 0x2998 DUP3 PUSH2 0x2959 JUMP JUMPDEST PUSH1 0x20 DUP3 ADD SWAP1 POP SWAP2 SWAP1 POP JUMP JUMPDEST PUSH0 PUSH1 0x20 DUP3 ADD SWAP1 POP DUP2 DUP2 SUB PUSH0 DUP4 ADD MSTORE PUSH2 0x29BA DUP2 PUSH2 0x2981 JUMP JUMPDEST SWAP1 POP SWAP2 SWAP1 POP JUMP JUMPDEST PUSH32 0x50726F6A65637420686173206661696C656420746F2072656163682069747320 PUSH0 DUP3 ADD MSTORE PUSH32 0x7461726765740000000000000000000000000000000000000000000000000000 PUSH1 0x20 DUP3 ADD MSTORE POP JUMP JUMPDEST PUSH0 PUSH2 0x2A1B PUSH1 0x26 DUP4 PUSH2 0x1F3A JUMP JUMPDEST SWAP2 POP PUSH2 0x2A26 DUP3 PUSH2 0x29C1 JUMP JUMPDEST PUSH1 0x40 DUP3 ADD SWAP1 POP SWAP2 SWAP1 POP JUMP JUMPDEST PUSH0 PUSH1 0x20 DUP3 ADD SWAP1 POP DUP2 DUP2 SUB PUSH0 DUP4 ADD MSTORE PUSH2 0x2A48 DUP2 PUSH2 0x2A0F JUMP JUMPDEST SWAP1 POP SWAP2 SWAP1 POP JUMP JUMPDEST PUSH32 0x4F6E6C7920746865206F776E65722063616E20636C61696D20746865206D6F6E PUSH0 DUP3 ADD MSTORE PUSH32 0x6579000000000000000000000000000000000000000000000000000000000000 PUSH1 0x20 DUP3 ADD MSTORE POP JUMP JUMPDEST PUSH0 PUSH2 0x2AA9 PUSH1 0x22 DUP4 PUSH2 0x1F3A JUMP JUMPDEST SWAP2 POP PUSH2 0x2AB4 DUP3 PUSH2 0x2A4F JUMP JUMPDEST PUSH1 0x40 DUP3 ADD SWAP1 POP SWAP2 SWAP1 POP JUMP JUMPDEST PUSH0 PUSH1 0x20 DUP3 ADD SWAP1 POP DUP2 DUP2 SUB PUSH0 DUP4 ADD MSTORE PUSH2 0x2AD6 DUP2 PUSH2 0x2A9D JUMP JUMPDEST SWAP1 POP SWAP2 SWAP1 POP JUMP JUMPDEST PUSH32 0x4E6F206D6F6E657920746F20636C61696D000000000000000000000000000000 PUSH0 DUP3 ADD MSTORE POP JUMP JUMPDEST PUSH0 PUSH2 0x2B11 PUSH1 0x11 DUP4 PUSH2 0x1F3A JUMP JUMPDEST SWAP2 POP PUSH2 0x2B1C DUP3 PUSH2 0x2ADD JUMP JUMPDEST PUSH1 0x20 DUP3 ADD SWAP1 POP SWAP2 SWAP1 POP JUMP JUMPDEST PUSH0 PUSH1 0x20 DUP3 ADD SWAP1 POP DUP2 DUP2 SUB PUSH0 DUP4 ADD MSTORE PUSH2 0x2B3E DUP2 PUSH2 0x2B05 JUMP JUMPDEST SWAP1 POP SWAP2 SWAP1 POP JUMP JUMPDEST PUSH32 0x4F6E6C7920746865206F776E65722063616E20736574207468652070726F6A65 PUSH0 DUP3 ADD MSTORE PUSH32 0x6374206E616D6500000000000000000000000000000000000000000000000000 PUSH1 0x20 DUP3 ADD MSTORE POP JUMP JUMPDEST PUSH0 PUSH2 0x2B9F PUSH1 0x27 DUP4 PUSH2 0x1F3A JUMP JUMPDEST SWAP2 POP PUSH2 0x2BAA DUP3 PUSH2 0x2B45 JUMP JUMPDEST PUSH1 0x40 DUP3 ADD SWAP1 POP SWAP2 SWAP1 POP JUMP JUMPDEST PUSH0 PUSH1 0x20 DUP3 ADD SWAP1 POP DUP2 DUP2 SUB PUSH0 DUP4 ADD MSTORE PUSH2 0x2BCC DUP2 PUSH2 0x2B93 JUMP JUMPDEST SWAP1 POP SWAP2 SWAP1 POP JUMP INVALID LOG2 PUSH5 0x6970667358 0x22 SLT KECCAK256 0xAE BALANCE SWAP2 0x28 MSTORE8 CODECOPY MSIZE JUMPI GAS CALLDATACOPY 0xB4 CODESIZE DUP15 SWAP7 ADD 0xFB SWAP6 0xB7 NOT DUP8 CHAINID SWAP10 0xF PUSH23 0x9E20531A3A79169864736F6C6343000819003300000000 "
		},
		"gasEstimates": {
			"creation": {
				"codeDepositCost": "2254600",
				"executionCost": "31680",
				"totalCost": "2286280"
			},
			"external": {
				"adminFeature(string,uint256,uint256)": "infinite",
				"claimMoney(uint256)": "infinite",
				"createProject(string,string,uint256)": "infinite",
				"deposit(uint256)": "infinite",
				"getNextid()": "2477",
				"getOwner(uint256)": "5197",
				"getProjectDescription(uint256)": "infinite",
				"getProjectImageLink(uint256)": "infinite",
				"getProjectName(uint256)": "infinite",
				"getRaised(uint256)": "infinite",
				"getReleaseTime(uint256)": "infinite",
				"getTarget(uint256)": "infinite",
				"setProjectDescription(uint256,string)": "infinite",
				"setProjectImageLink(uint256,string)": "infinite",
				"setProjectName(uint256,string)": "infinite",
				"setTarget(uint256,uint256)": "infinite",
				"withdraw(uint256)": "infinite"
			}
		},
		"methodIdentifiers": {
			"adminFeature(string,uint256,uint256)": "3f99b2e6",
			"claimMoney(uint256)": "d44eb910",
			"createProject(string,string,uint256)": "23c55448",
			"deposit(uint256)": "b6b55f25",
			"getNextid()": "26030e57",
			"getOwner(uint256)": "c41a360a",
			"getProjectDescription(uint256)": "845ab425",
			"getProjectImageLink(uint256)": "e3b5d768",
			"getProjectName(uint256)": "f1fa906c",
			"getRaised(uint256)": "23b53ba6",
			"getReleaseTime(uint256)": "52db191f",
			"getTarget(uint256)": "e6acc7cd",
			"setProjectDescription(uint256,string)": "0c2e038a",
			"setProjectImageLink(uint256,string)": "08de9f2f",
			"setProjectName(uint256,string)": "f0d53074",
			"setTarget(uint256,uint256)": "1d0f2c99",
			"withdraw(uint256)": "2e1a7d4d"
		}
	},
	"abi": [
		{
			"inputs": [],
			"stateMutability": "nonpayable",
			"type": "constructor"
		},
		{
			"anonymous": false,
			"inputs": [
				{
					"indexed": true,
					"internalType": "address",
					"name": "owner",
					"type": "address"
				},
				{
					"indexed": true,
					"internalType": "uint256",
					"name": "project_id",
					"type": "uint256"
				}
			],
			"name": "projectCreated",
			"type": "event"
		},
		{
			"inputs": [
				{
					"internalType": "string",
					"name": "_action",
					"type": "string"
				},
				{
					"internalType": "uint256",
					"name": "_contract_id",
					"type": "uint256"
				},
				{
					"internalType": "uint256",
					"name": "_value",
					"type": "uint256"
				}
			],
			"name": "adminFeature",
			"outputs": [],
			"stateMutability": "nonpayable",
			"type": "function"
		},
		{
			"inputs": [
				{
					"internalType": "uint256",
					"name": "project_id",
					"type": "uint256"
				}
			],
			"name": "claimMoney",
			"outputs": [],
			"stateMutability": "nonpayable",
			"type": "function"
		},
		{
			"inputs": [
				{
					"internalType": "string",
					"name": "projectName",
					"type": "string"
				},
				{
					"internalType": "string",
					"name": "projectImageLink",
					"type": "string"
				},
				{
					"internalType": "uint256",
					"name": "no_of_date",
					"type": "uint256"
				}
			],
			"name": "createProject",
			"outputs": [
				{
					"internalType": "uint256",
					"name": "",
					"type": "uint256"
				}
			],
			"stateMutability": "nonpayable",
			"type": "function"
		},
		{
			"inputs": [
				{
					"internalType": "uint256",
					"name": "project_id",
					"type": "uint256"
				}
			],
			"name": "deposit",
			"outputs": [],
			"stateMutability": "payable",
			"type": "function"
		},
		{
			"inputs": [],
			"name": "getNextid",
			"outputs": [
				{
					"internalType": "uint256",
					"name": "",
					"type": "uint256"
				}
			],
			"stateMutability": "view",
			"type": "function"
		},
		{
			"inputs": [
				{
					"internalType": "uint256",
					"name": "project_id",
					"type": "uint256"
				}
			],
			"name": "getOwner",
			"outputs": [
				{
					"internalType": "address",
					"name": "",
					"type": "address"
				}
			],
			"stateMutability": "view",
			"type": "function"
		},
		{
			"inputs": [
				{
					"internalType": "uint256",
					"name": "project_id",
					"type": "uint256"
				}
			],
			"name": "getProjectDescription",
			"outputs": [
				{
					"internalType": "string",
					"name": "",
					"type": "string"
				}
			],
			"stateMutability": "view",
			"type": "function"
		},
		{
			"inputs": [
				{
					"internalType": "uint256",
					"name": "project_id",
					"type": "uint256"
				}
			],
			"name": "getProjectImageLink",
			"outputs": [
				{
					"internalType": "string",
					"name": "",
					"type": "string"
				}
			],
			"stateMutability": "view",
			"type": "function"
		},
		{
			"inputs": [
				{
					"internalType": "uint256",
					"name": "project_id",
					"type": "uint256"
				}
			],
			"name": "getProjectName",
			"outputs": [
				{
					"internalType": "string",
					"name": "",
					"type": "string"
				}
			],
			"stateMutability": "view",
			"type": "function"
		},
		{
			"inputs": [
				{
					"internalType": "uint256",
					"name": "project_id",
					"type": "uint256"
				}
			],
			"name": "getRaised",
			"outputs": [
				{
					"internalType": "uint256",
					"name": "",
					"type": "uint256"
				}
			],
			"stateMutability": "view",
			"type": "function"
		},
		{
			"inputs": [
				{
					"internalType": "uint256",
					"name": "project_id",
					"type": "uint256"
				}
			],
			"name": "getReleaseTime",
			"outputs": [
				{
					"internalType": "uint256",
					"name": "",
					"type": "uint256"
				}
			],
			"stateMutability": "view",
			"type": "function"
		},
		{
			"inputs": [
				{
					"internalType": "uint256",
					"name": "project_id",
					"type": "uint256"
				}
			],
			"name": "getTarget",
			"outputs": [
				{
					"internalType": "uint256",
					"name": "",
					"type": "uint256"
				}
			],
			"stateMutability": "view",
			"type": "function"
		},
		{
			"inputs": [
				{
					"internalType": "uint256",
					"name": "project_id",
					"type": "uint256"
				},
				{
					"internalType": "string",
					"name": "description",
					"type": "string"
				}
			],
			"name": "setProjectDescription",
			"outputs": [],
			"stateMutability": "nonpayable",
			"type": "function"
		},
		{
			"inputs": [
				{
					"internalType": "uint256",
					"name": "project_id",
					"type": "uint256"
				},
				{
					"internalType": "string",
					"name": "link",
					"type": "string"
				}
			],
			"name": "setProjectImageLink",
			"outputs": [],
			"stateMutability": "nonpayable",
			"type": "function"
		},
		{
			"inputs": [
				{
					"internalType": "uint256",
					"name": "project_id",
					"type": "uint256"
				},
				{
					"internalType": "string",
					"name": "name",
					"type": "string"
				}
			],
			"name": "setProjectName",
			"outputs": [],
			"stateMutability": "nonpayable",
			"type": "function"
		},
		{
			"inputs": [
				{
					"internalType": "uint256",
					"name": "project_id",
					"type": "uint256"
				},
				{
					"internalType": "uint256",
					"name": "_target",
					"type": "uint256"
				}
			],
			"name": "setTarget",
			"outputs": [],
			"stateMutability": "nonpayable",
			"type": "function"
		},
		{
			"inputs": [
				{
					"internalType": "uint256",
					"name": "project_id",
					"type": "uint256"
				}
			],
			"name": "withdraw",
			"outputs": [],
			"stateMutability": "nonpayable",
			"type": "function"
		}
	]
}